:020000040800F2
:10000000080C00205D02000853330008E5230008B7
:1000100051330008B10A00083D3E0008000000000E
:100020000000000000000000000000008D3B000800
:10003000A10B00080000000005380008973C0008EC
:1000400077020008770200087702000877020008AC
:10005000770200087702000877020008770200089C
:10006000770200087702000877020008770200088C
:10007000770200087702000877020008770200087C
:10008000770200087702000877020008770200086C
:10009000B90A000877020008770200087702000812
:1000A000770200087702000877020008770200084C
:1000B000770200087702000877020008770200083C
:1000C000770200087702000877020008770200082C
:1000D000770200087702000877020008770200081C
:1000E000770200087702000877020008770200080C
:1000F00077020008770200087702000877020008FC
:1001000077020008770200087702000877020008EB
:10011000770200087702000877020008AD3C00086B
:1001200077020008770200087702000877020008CB
:1001300077020008000000000000000077020008BD
:1001400077020008770200087702000877020008AB
:10015000770200087702000877020008770200089B
:10016000770200087702000877020008770200088B
:10017000770200087702000800000000000000007D
:10018000770200087702000800F002F800F056F845
:1001900014A696E8000CB244B344DA4501D100F04D
:1001A0004DF8BAE80F000FA696E83000A5EB04055D
:1001B00004EB0607AAEB0704A7F101074FEA1515A0
:1001C0004FEA3414A4F10104AC4201D300F036F834
:1001D00013F0010F18BFFB1A43F0010300F001F800
:1001E000DBE718471444000034440000103A24BFF1
:1001F00078C878C1FAD8520724BF30C830C144BF8C
:1002000004680C6070470000704700000023002461
:1002100000250026103A28BF78C1FBD8520728BF16
:1002200030C148BF0B6070471FB504F073F89DE8FC
:10023000030000F047F91FBD10B510BD00F09EF996
:100240001146FFF7F1FF03F055FE00F0BCF903B4CF
:10025000FFF7F2FF03BC00F0EDF90000094880470A
:1002600009480047FEE7FEE7FEE7FEE7FEE7FEE798
:10027000FEE7FEE7FEE7FEE704480549054A064BB0
:10028000704700009D3C0008890100080806002016
:10029000080C0020080800200808002070B5064659
:1002A00000F0F4F8056806F10B0020F00704B442F2
:1002B0009CBF002070BD2B466A68BAB11068A0428E
:1002C00010D304F1080188423CBF5068586007D33E
:1002D0005168101941601168091B01605860146071
:1002E000101D70BD13465268002AE7D121462846EA
:1002F00000F0D4F80028DED170BD70B50446051FAB
:1003000000F0C4F80068002C14BF446870BD002CD5
:1003100018BFAC423CBF20466468F8D301680A1895
:10032000AA4218BF456003D12A68054611440160FE
:1003300028684119A1421CBF6C6070BD616869608A
:1003400021680844286070BD53EA020C00F06980FF
:100350002DE9F04B4FF00006002B1FBFB3FA83F5D9
:1003600003FA05F424FA05F65E4012BF1643B2FA0A
:1003700082F502FA05F4C5F120051EBF22FA05FC3C
:1003800044EA0C04203556EA044C4FEA144418BFE2
:10039000641C4FF000084FF00009904271EB030C11
:1003A00039D3002919BFB1FA81F701FA07F6B0FA7B
:1003B00080F700FA07F6C7F120071EBF20FA07FCF6
:1003C00046EA0C062037B6FBF4FCA7EB0507103F06
:1003D00007F01F0BCBF120062CFA06F60CFA0BFBEC
:1003E00044BFB3460026202FA4BF5E464FF0000B4B
:1003F0005BEA060C08BF4FF0010B19EB0B0948EB49
:100400000608ABFB027C06FB02CC0BFB03CCC01B3B
:1004100071EB0C01C1E70B46024641464846BDE878
:10042000F08B13B5084318BF4FF0FF300146AFF310
:100430000080BDE81C4070474FF0000200B5134635
:1004400094469646203922BFA0E80C50A0E80C50F4
:10045000B1F12001BFF4F7AF090728BFA0E80C50A5
:1004600048BF0CC05DF804EB890028BF40F8042B9E
:1004700008BF704748BF20F8022B11F0804F18BF0B
:1004800000F8012B7047704770477047004870476D
:1004900018000020704770477047704738B5044611
:1004A0000A4600206946AFF30080002808BF38BD27
:1004B00002460099204600F03FF8012038BD012097
:1004C00000F054B8F8B5AFF30080054600200C46A4
:1004D0000C2000BF0646A819A0420DD93246694635
:1004E0000020AFF30080070008BF00F03FF800983D
:1004F000A04218BF0546C419FFF7C8FF05600746AC
:10050000F01D20F007004619284600F00AF8B44212
:1005100008BFF8BDA21B31463868BDE8F84000F0BE
:100520000BB800210160416070470C20704700004B
:100530000048704710000020034640688C460028A1
:1005400018BF88423CBF03464068F8D31868184477
:10055000884207D00CF1030020F00700001D411A6B
:10056000521A0146081D0A60FFF7C7BE10B500F019
:1005700039F8BDE8104000F02FB870477546FFF716
:10058000D7FFAE4605006946534620F00700854672
:1005900018B020B5FFF770FEBDE820404FF0000610
:1005A0004FF000074FF000084FF0000BAC46ACE8EE
:1005B000C009ACE8C009ACE8C009ACE8C00921F04A
:1005C00007018D46704710B50446AFF30080204602
:1005D000BDE81040FFF73BBE002801D000F02AB86C
:1005E0007047000010B5012805D0002103A000F0DD
:1005F00027F8012010BD09A1F8E700005349475230
:10060000544D454D3A204F7574206F6620686561E2
:1006100070206D656D6F7279000000003A204865AA
:100620006170206D656D6F727920636F7272757085
:100630007465640001491820ABBEFEE72600020085
:1006400070B505460C460A2000E06D1C00F011F85C
:1006500035B128780028F8D102E0641C00F009F8D0
:1006600014B120780028F8D1BDE870400A20AFF31B
:10067000008008B569468DF800000320ABBE08BDB8
:10068000B0B5002300210022A0F8F431B3F5907F2B
:1006900010D0C41894F8DF50012D04BF013280F847
:1006A000F42194F8DD40012C04BF013180F8F511EC
:1006B0000C33EBE7130609D0CBB2D4B29C4207D976
:1006C000042380F86C300B0602D1B0BD0B0605D0B8
:1006D000D2B2C9B29142F8D3032100E0012180F8DF
:1006E0006C10B0BD10B5044601F07DFE204600F050
:1006F00007FA204600F018FA2046BDE8104003F043
:1007000072BA000010B5044690F87000012805D1B7
:1007100094F86C0040F00200022800D110BD0220C5
:1007200084F87000204601F063FF204600F0D4F802
:100730002046FFF7A5FF0549204640F8081F00F0B6
:10074000CFF9002084F8700010BD00BF60000101E7
:1007500010B5044690F86C00042888BF10BDDFE88F
:1007600000F0032010160900204600F0A2FB2046EE
:10077000C82112E0204600F098FB20464FF47A7121
:100780000BE020464FF4FA7100F083FB02E02046B4
:1007900000F08BFB20464FF4FA71BDE8104003F0E7
:1007A0004EBB204603F057FB20464FF4FA71BDE8DC
:1007B000104000F06EBB0000B0B5044690F8700029
:1007C000022808BFB0BD074D04F13C00A84704F162
:1007D0005C00A84704F14C00A8472046BDE8B040A3
:1007E00003F0D5B9D73D0008816940F21242914229
:1007F00029D0B1F5826F1AD040F2114291421CD03B
:10080000502926D190F8701019BB90F86C1041F067
:10081000020102291DD0816A01291AD190F83410F1
:10082000012902BF012180F87010704711E0816A30
:1008300008290ED1002100F00DB8816A082908D1DD
:10084000082100F007B8816A082902D1102100F0C0
:1008500001B87047F8B5044601EB410000220023BF
:1008600004EB800004F13401DE30082A0CD08D5CEA
:10087000012D03D0022D04D1012300E000230370D9
:1008800001230C300132F0E7012B1BD1874D2846A4
:1008900002F04AFD04F1DE01002201230446182A79
:1008A0000ED003FA02F60F78064203D0012F08BFDC
:1008B000B44302E0002F08BF34430C310132EEE7AD
:1008C000844200D1F8BD00F063FA28462146BDE815
:1008D000F84002F027BD00BFF0B59FED382A9FED2C
:1008E000383A9FED384A344C00F1D40E0022B6EE6F
:1008F000000AB1EE041A4FF0010C00250026B5F5F0
:10090000907F08BFF0BD471997ED356A97ED365ACD
:1009100097F8DE3035EE467AB0EEC77AB4EE407A1C
:10092000F1EE10FA06DD83B1C7F8D44087F8DF2076
:1009300087F8DD20012B05D1C7F8D44087F8DF20E8
:1009400087F8DD200C350136D9E7B4EE417AF1EEB7
:1009500010FA0DDDB4EE425AF1EE10FA04DCB5EEF9
:10096000405AF1EE10FA03DA25EE035A06EE045A65
:10097000B4EE425A87ED355AF1EE10FA09DD97F8D8
:10098000DC30032B12D206EB46010EEB810108315D
:1009900009E0B5EE405AF1EE10FACFDA394611F817
:1009A000DC3F022B05D801330B70CBE787F8DFC0A3
:1009B000C8E787F8DDC0C5E70000D74200007042F5
:1009C000CDCCCC3D6666663F70B5044603F0EBF8CF
:1009D000204600F023F8104E04F13C0001210022D3
:1009E0006423B04704F15C05012100224FF4FA634F
:1009F0002846B047284603F0E8F904F14C000121ED
:100A00000022C823B047204601F070FD2046BDE813
:100A1000704001F09BBD00BF9D3D0008B0B504468D
:100A200000F02EF8074A084B04F174000021B1F5DC
:100A3000907F08BFB0BD65180C31C5E9352208C0EC
:100A4000F5E700BF0000C8416666664002F076BC6C
:100A500010B5044600F5816003F0CEF804F57B7014
:100A600003F0CAF82046FFF74DFE02F069FC20466D
:100A7000FFF76EFE2046BDE81040FFF733BE0000D2
:100A8000B0B50025044680F87050084802F04CFCD0
:100A900004F1DE010122182D08BFB0BD20FA05F3D4
:100AA000013522EA030301F80C3BF4E7008000085B
:100AB000FEE700F061B8000010B5084C204600F0D9
:100AC0004FFB3648002100F1180200F134032046A4
:100AD00000F0E5FABDE81040FFF7EBBFB8040020D6
:100AE000FEB5002100F10C02CDE902110188009150
:100AF00081780491C11C684602F012FC06B080BDEA
:100B000010B5044690F83D00012818BF10BD2046DE
:100B100000F064F904F13C0003F04FF904F108001F
:100B2000BDE81040FFF7DCBFB0B5044690F84D00BB
:100B3000012818BFB0BD94F8280204F14C05032821
:100B400003D8204600F056F904E0062802D82046D3
:100B500000F078F904F10800FFF7C2FF94F82802CA
:100B60000130C1B2062988BF002084F82802284637
:100B7000BDE8B04003F021B90848FFF735BE00BF1B
:100B80000648FFF721BF00BFFFF760BF0348FFF72C
:100B90005FBF00BF0148FFF70FBE00BF94000020F9
:100BA000704700004B4A0329136823F44073136015
:100BB0004FF4407338BF0B0211681943116011687C
:100BC00021F0F8011160116841EAC00040F0020014
:100BD0001060106840F4803010607047134801685E
:100BE00089050FD5016821F400710160016841F4A5
:100BF00000610160016821F400610160016841F455
:100C000000710160016849050FD5016821F4806118
:100C10000160016841F480510160016821F4805154
:100C20000160016841F4806101607047003C02404E
:100C300028490A6822F440720A600A6842F00402F5
:100C40000A600A6842EA002040F480300860704779
:100C5000204A136823F44073136013681360136809
:100C600043F0010313600170704700BF10B51949CC
:100C70000C6824F440740C600C6844F440740C60FC
:100C80000C6844F001040C600260BFF36F8F436096
:100C900010BD00BF0F4A136823F44073136013683C
:100CA00043F480731360136843F001031360018001
:100CB000704700BF074A136823F44073136013683A
:100CC00043F400731360136843F001031360016081
:100CD000704700BF103C02403F480168C90606D576
:100CE0002A49CA6942F01002CA61102101600168F4
:100CF000890606D52549CA6942F00802CA61202141
:100D000001600168490606D52049CA6942F004021B
:100D1000CA61402101600168090606D51B49CA69FC
:100D200042F00202CA61802101600168890706D58C
:100D30001649CA6942F02002CA6102210160704767
:100D4000F8B5044611480021234EC16100F068FD4A
:100D50000546671C3068C00309D5002FFAD024B1BE
:100D600000F05EFD401BA042F4D90320F8BD3068BE
:100D7000C0071CBF01203060306810F0F20F04BFC4
:100D80000020F8BDFFF7A8FF0120F8BDE405002012
:100D9000FEB5022001210590CDE90301002001905C
:100DA00000F05AFCEFF3108072B6F3210A4801609C
:100DB0000168C903FCD401A8694600F0B7FB62B61C
:100DC00028B100F0FBFB00F0FDFB02F000FE00F09C
:100DD000F9FB06B080BD00BF0C3C024003218172CC
:100DE0004FF48071018190F86C10C172B0F8F41169
:100DF00081817047F8B504460820A07294F8280253
:100E000000F1510100EB400040002181C1B21229E4
:100E100017D8490004F10B06002751FA80F004EBC3
:100E2000800000F1D405062F07D095ED000A01F0EF
:100E300013FBF0550C350137F5E7B4F8F401A4F8CD
:100E40001100F8BD0821817290F8281204291FD3DF
:100E500006291DD8F8B501F1510200F10B0500F18A
:100E600074060027D2B202816FF01F0202EBC104A8
:100E7000082F0BD044EA0700C0B206EB800090EDCB
:100E8000000A01F00DFBE8550137F1E7BDE8F84035
:100E90007047B0B502F0A2FA022002F0D2BB0020E7
:100EA00002F048BA012002F045BA002180F8ED13A3
:100EB0007047012180F8ED137047B0B5054690F8F2
:100EC000F103012810D195F8ED0305F57C74032892
:100ED0000BD0022808D195F8EC0398B1002085F8D2
:100EE000EC03FFF7DFFF12E0B0BDFFF7D8FF0120F2
:100EF00085F8EC03204602F06BFF2046BDE8B040C9
:100F000002F055BF012085F8EC03FFF7C8FF20462B
:100F1000BDE8B04002F051BF90F82020013A012A0C
:100F200004D8006800F11402002004E000F124025B
:100F300001204FF48021136819431160704770B588
:100F400090F820600468013EA568012E0CD815F0C9
:100F5000E05F0FD0C5F30165032D11D100F124032B
:100F600001204FF4000131E000F1240301204FF48F
:100F700080212BE000F1240301204FF4001125E033
:100F80000120A8401860886828B14B68CE6846EAFE
:100F9000C303184303E00868CB6843EA40502B01C1
:100FA00004F5C074E05004EB05130C69184640F8D2
:100FB000044F097D012903D1016841F4807101606A
:100FC00050680121D8601068986000201A681143A9
:100FD000196070BD90F82020013A012A28D8F0B598
:100FE0002D48026842F001020260026822F47C523D
:100FF00002604C69CD694A6A036843EA0222012310
:10100000026004F01F0203FA02F2C3699343C36152
:10101000D343012D0ED005BBC5681D40C56000EB54
:10102000C405CE688F8847EA06462E640D460DE05B
:1010300002F011BBC5681543C56000EBC4050E681E
:101040008F8847EA06462E6401F10C058E682D88CC
:1010500000EBC40445EA0645656444688F690E697F
:10106000096A44EA0205002F08BF04EA0305456047
:10107000002E446944EA020508BF04EA0305012979
:10108000456102D1C1691143C161016821F00101CB
:1010900001600020F0BD00BF00660040704770B5E1
:1010A00090F82040013C012C03D8046839B125692F
:1010B00006E000F1240101204FF480224CE0E568B5
:1010C000AD073FD00D0104F5D876745914F004042F
:1010D000946006EB0114755919BFED0855606D0D4C
:1010E0001560256805F00205D560656805F00F05F7
:1010F00015616568C5F30725956165682D0C556117
:10110000A2681A7002F082F9120A5A7002F07EF98F
:10111000120C9A7002F07AF9120EDA7002F058F995
:101120001A7102F055F9120A5A7102F051F9120CB3
:101130009A7102F04DF9120EDA71006841B100F1B6
:10114000100107E000F1240101204FF4001203E038
:1011500000F10C01002020220B681A430A6070BDC8
:101160002DE9F84F044600684669D0F80490876876
:10117000D0F80CB0D0F810A0D0F81880F10701D149
:10118000002545E0F9070FD001218160B80708D498
:10119000780720D4380700F1B880204600F0AFF976
:1011A00002E0204600F0ACF90025F80518D52068CB
:1011B0004FF480718160B80509D478050ED43805E4
:1011C0004EBF05F58045204600F09BF908E020461B
:1011D00000F098F904E04FF40065E6E705F50055E6
:1011E000F80315D520684FF480318160B80309D425
:1011F00078030BD438034EBF05F58035204600F048
:1012000082F905E0204600F07FF901E005F5004590
:10121000300748BF5FEACB604FD4700748BF5FEA32
:101220000B7050D4B00706D52068C068800702D084
:10123000204600F03AF9700648BF5FEACA6049D418
:10124000B00648BF5FEA0A704AD4F00606D52068A7
:101250000069800702D0204600F029F9B00348BF9A
:101260005FEAC96043D4F00348BF5FEA097045D420
:10127000300463D55FEA49705DD508EA1620F205AF
:1012800008F0010100F0020048BF0844720508F0B0
:10129000040148BF0844054330054CD518F07000E0
:1012A00049D010380009052840D8DFE800F0033A9B
:1012B0003437313D45F0080538E02068102145F409
:1012C0000075C160A9E720680821C160204600F0D0
:1012D000EBF8A7E72068102145F480650161AFE7CE
:1012E000206808210161204600F0E0F8ADE72068A1
:1012F00010214160204600F0DBF8B4E720680821A7
:101300004160204600F001F9B2E74FF480554CE708
:1013100045F080050AE045F0200507E045F040056E
:1013200004E045F0100501E045F48075206881690E
:1013300021F0700181612068042141603DB1606A43
:10134000284360622046BDE8F84FFFF7A7BEBDE81E
:10135000F88FA0B170B5044690F8200010B920466F
:1013600000F064F802F0CEF8054620684168C9072D
:1013700007D100F055FA401B0B28F6D311E00120ED
:101380007047016821F00201016000F049FA05464A
:101390002068416889070BD500F042FA401B0B28F2
:1013A000F6D3606A052140F40030606201203AE023
:1013B000217E026822F08002012908BF803202608B
:1013C000617E026822F04002012908BF40320260BB
:1013D000A17E026822F02002012908BF20320260AB
:1013E000E17E026822F01002012918BF103202606B
:1013F000217F026822F00802012908BF083202603A
:10140000617F026822F00402012908BF04320260F1
:10141000261D6ECE1A432A43013932431143C1615E
:1014200000200121606284F8201070BD10B586B0E4
:10143000044601A81421FEF7FFFF216818488142E5
:101440002CD10021174A00F5D0300091136943F0E8
:1014500000731361136903F000730093009B009104
:10146000136843F002031360126802F00202009254
:10147000092205920322CDE90312022102914FF4C1
:1014800040710191009901A900F0FAF8142000219F
:10149000002200F039FA142000F02AFA06B010BD3C
:1014A0000064004030380240704770477047704712
:1014B0007047B0B5044690F82000012816D10220EC
:1014C00084F820002068016821F00101016000F02B
:1014D000A7F9054620684068C0070DD000F0A0F9C4
:1014E000401B0B28F6D302F07AF803E0606A40F460
:1014F000002060620120B0BD00206062B0BD704776
:10150000704770477047704770477047B0B50446E2
:1015100000F086F90546E748611C007818BF0444CE
:1015200000F07EF9401BA042FAD3B0BD2DE9F8438C
:10153000DFF81C81054698F81800012801D1022621
:1015400038E00120894688F8180001F034FF06468B
:1015500068BB4FF0FF303F4CC9F8000028680128F5
:101560000AD1287CFFF764FB01F025FF06462068BE
:1015700020F00400206018E0A8680746E9680844E5
:1015800087420ED2297C3846FFF70CFB01F013FF8F
:101590000646206820F0FA00206026B9A8680137C6
:1015A000ECE7002601E0C9F80070FFF717FB002008
:1015B00088F818003046BDE8F88300BF2448C069A9
:1015C000704700BF2348016841F0004101600020DE
:1015D000704700BF2DE9F041DFF87480074698F8A6
:1015E0001800012804BF0220BDE8F08101201E463A
:1015F00014460D4688F818004CF25030FFF7A0FB57
:1016000008BB022F0CD0012F05D077B9E1B22846D4
:10161000FFF71EFB0EE0A1B22846FFF73BFB09E0F7
:1016200028462146FFF746FB04E02846224633467B
:10163000FFF71CFB4CF25030FFF782FB05490A68AC
:1016400022F001020A60002188F81810BDE8F0813C
:10165000E4050020103C02400648C168B1F1FF3F9C
:10166000C4BF002070470449016004490160C0689C
:10167000C00F7047043C024023016745AB89EFCDA2
:101680002DE9FE4F5D4A08244FF0010B4FF0000C8E
:1016900090425B4A08BF072402444FEAB223072B5B
:1016A00038BF4FEAB22400F12002019400920025D5
:1016B0000022102A08BFBDE8FE8F0C680BFA02FA60
:1016C00014EA0A0900F09580D1F804E0032303FA34
:1016D0000CF40EF00308E643A8F10104012C12D823
:1016E0008468D1F80CB00BFA0CF734404FF0010BC2
:1016F0003C438460CEF300144768944027EA0A070D
:101700003C43446005E0B8F1030F02D14FF00308F9
:1017100023E0C4688F68344007FA0CF73C43B8F103
:10172000020FC46019D105F01C040F23A84603FA68
:1017300004F76FF0030303EA520E009B1D4653F8B3
:101740000E30BB430F6907FA04F4234345F80E300B
:101750004546D1F804E00EF00308046808FA0CF3DB
:10176000344023431EF4403F036042D00023274C03
:10177000244EA8460293236843F4804323602368E1
:101780000F2403F48043029305F00C0322F00305B9
:10179000029F35449C401E4FBE46EF5927EA040481
:1017A000019F07FA03F3234345F80E3033684D6871
:1017B00043EA0904EF0358BF23EA09043460AF0386
:1017C000736843EA090458BF23EA09047460EF020E
:1017D000B36843EA090458BF23EA0904B4600A4E17
:1017E000AD024546336843EA090458BF23EA0904B9
:1017F00034600CF1020C043501325AE7001C02403F
:101800000000FEBF003C01400C3C01404438024057
:1018100008FCFFFF002A08BF09048161704700002F
:1018200008480068704700BF00684AF6AA210160B6
:10183000002070471F48034900780A681044086078
:10184000704700BF0406002080B50B48016841F4D2
:1018500000710160016841F480610160016841F438
:1018600080710160032000F075F80F2000F006F889
:1018700000F022F8002080BD003C024070B50D4E03
:1018800004464FF47A713078B1FBF0F07E49096874
:10189000B1FBF0F000F050FC01250F2C08D838B94E
:1018A0004FF0FF3021460022002500F02DF8746033
:1018B000284670BD0400002082B000200B49019032
:1018C0004A6842F480424A604A6802F480420192C7
:1018D000019A0090086840F080500860086800F0A5
:1018E00080500090009802B0704700BF403802401E
:1018F000002805D4734601F062FD9E46014A8850D7
:10190000704700BF00E100E0F0B5184B4FF0FF3624
:101910001C68C4F30224E51E84F0070438BF0025C8
:1019200006FA05F7BA43042C28BF042406FA04F487
:10193000A14300F00F04A940043C1143044A23448E
:1019400009010244002848BF03F10C021170F0BDE8
:1019500000E400E005494FF6FF030A681A4060F30F
:101960000A22034810430860704700BF0CED00E0F6
:101970000000FA05002852D02DE9F041404B044602
:101980008846D3F8000400F00700884204D283F8A8
:10199000008401F00AFD4BD12068810711D5410771
:1019A00003D5996841F4E0519960010703D599681E
:1019B00041F460419960A1689A6822F0F0021143F5
:1019C0009960C0072DD101F0F0FC04D983F80084A0
:1019D00001F0EBFC2CD12068410705D5E1689A683D
:1019E00022F4E05211439960000706D520699968F6
:1019F00021F4604141EAC00098601C4600F048F8BC
:101A0000A168204AC1F30311515CC8401E49086017
:101A10001E480068FFF732FF0020BDE8F08101207A
:101A200070476068811E022905D21968890107D4B0
:101A30000120BDE8F08101281DD119688903F7D57F
:101A400099681D4621F0030108439860FFF7E8FEFE
:101A5000064641F288376068A9682B4601F00C0100
:101A6000B1EB800FAFD0FFF7DBFE801BB842F2D99D
:101A70000320BDE8F08119688907D9D5E0E700BFE8
:101A8000003802403D4300080C0000200800002000
:101A900010B5134C606800F00C00082804D004282E
:101AA00014BF1048104810BD22682068002340026F
:101AB00002F03F020C485CBF42F20040C0F2F4006A
:101AC0002168C1F38811A0FB0101FEF73DFC2168EC
:101AD0000222C1F3014102EB4101B0FBF1F010BD64
:101AE000043802400024F40040787D01002864D0CE
:101AF0002DE9FC4104460078C44EC0070CD0B06804
:101B000000F00C00042840F090803068800303D57A
:101B10006068002800F0A1802078800719D5B0689F
:101B200010F00C0F07D001F0E8FC40F099807068CD
:101B3000400200F195803068800703D5E0680128F5
:101B400040F08B802069316821F0F80141EAC00043
:101B500030602078000732D42078400742D4A7694B
:101B600047B301F0CAFC40F0AD80012F75D0E169A8
:101B7000706800F480028A426FD1216A00F03F024F
:101B80008A426AD147F6C071626A0140B1EB821F96
:101B900063D1A16A4FF6FF72C903914300F440324A
:101BA000A1F580318A4258D1E16A00F07060B0EB53
:101BB000016F52D10020BDE8FC81012070476069AF
:101BC00000286ED092480121C0F8801EFFF728FE41
:101BD0000546706F8007BFD4FFF722FE401B022826
:101BE000F7D9C9E0306C5FEAC0080AD40020019040
:101BF000306C40F080503064306C00F080500190C8
:101C00000198844F3868C0053DD4386840F480702E
:101C10003860FFF705FE05463868C00533D4FFF786
:101C2000FFFD401B0228F7D9A6E001F066FC03D1B6
:101C3000706840023FF569AF30686168B1F5803F78
:101C400007D0B1F5A02F40F0828040F480203060B2
:101C5000306840F48030306082E00120BDE8FC81D3
:101C6000E1686B4800294BD001210160FFF7D8FDE6
:101C70000546306880073FF565AFFFF7D1FD401B93
:101C80000228F6D978E0306FA168012905D005292E
:101C900046D140F004003067306F40F001003067FB
:101CA00047E05B480021C0F8801EFFF7B9FD0546FC
:101CB000706F80077FF550AFFFF7B2FD401B022821
:101CC000F6D959E05249002088460866FFF7A8FD7A
:101CD0000546022F09D13068800150D5FFF7A0FDDD
:101CE000411B03200229F6D965E7306880017FF5A2
:101CF00061AFFFF795FD411B03200229F5D95AE793
:101D000000210160FFF78CFD0546306880077FF5F4
:101D100020AFFFF785FD411B03200229F5D94AE7D3
:101D200020F0010000293067306F20F00400306798
:101D300045D0FFF775FD054641F28837306F8007C3
:101D40004CD4FFF76DFD401BB842F7D914E020F4E6
:101D5000803000293060306820F48020306046D028
:101D6000FFF75EFD0546306880033FF5D5AEFFF70F
:101D700057FD401B6428F6D90320BDE8FC811C34C4
:101D80001FCC0843D90340EA82104FF6FF729143FB
:101D900040EA0460A1F58031084370600120C8F872
:101DA0006000FFF73DFD0446306880013FF502AF5B
:101DB000FFF736FD011B03200229F5D9FBE6FFF7EB
:101DC0002FFD054641F28837306F800706D5FFF7B3
:101DD00027FD411B0320B942F6D9ECE6B8F1000F0C
:101DE0003FF5BDAE306C20F080503064B7E6FFF7B1
:101DF00017FD0546306880037FF58EAEFFF710FDB6
:101E0000411B03206429F5D9D5E600BF0038024004
:101E1000000047420070004070B530B10446406A8F
:101E200028B100202061142006E001254AE0606806
:101E3000B0F5827F02D01C20002121500025A56230
:101E400094F8510020B9204684F8505000F03CF836
:101E5000022084F8510094E80F0001F4827102F42A
:101E600004420668114403F40062114426F040065F
:101E70000660226902F002021144626902F0010266
:101E80001144A26902F400731944E36903F03803B2
:101E90001944236A03F080031943A36A03F400532F
:101EA00019430160042101EA1241626A02F0100242
:101EB00011444160C16921F40061C161012065657F
:101EC00084F85100284670BD70B586B0044601A85C
:101ED0001421FEF7B1FA20682F492E4C884221D0F8
:101EE0002E49884254D100252D480326009541698A
:101EF00041F480514161416901F4805101F049FA96
:101F00000520CDE90356059002200290E0200190C3
:101F1000009801A92046FFF7B3FB0120CDE9035645
:101F200010252AE000251E4802260095016941F48B
:101F300000410161016901F400410091009900959F
:101F4000016841F004010160016801F0040101F041
:101F500020FA00980296062005900320CDE9035050
:101F60004FF4E050019004F5006001A9FFF788FBF1
:101F7000CDE9035601204FF400450290019501A9D7
:101F80002046FFF77DFB204629460122FFF742FC51
:101F900006B070BD00000240003C0040003001402F
:101FA000303802402DE9F84301F061FA04BF022005
:101FB000BDE8F88301201E4615460F4684F8500000
:101FC000FFF72EFC94F851108146012956D1002FBD
:101FD00000F09C80002D00F09980002E00F096808B
:101FE00094F8510004281CBF052084F851000020FB
:101FF0006065E687E686C4E91000A563A6872763C7
:10200000A68620680168490601D401F0DAFBE2687F
:10201000DDF820806168B2F5006F3CD109B1012E76
:1020200001D101F084FA012608F10105E08E10B912
:10203000E08F002862D001F09BFA0CD5E18E51B1FF
:10204000012E08D1216B002631F8022BC2602163DA
:10205000E18E0139E1868168C90706D0E18F21B19F
:10206000A16BC068012601F07CFAFFF7D9FB002DB7
:10207000DCD0A0EB09004045D8D33DE06068B0F566
:10208000827F06D10220042941D1A16800299ED077
:102090003DE002203BE009B1012E02D1397801F088
:1020A0000EFB012608F10105E08E08B9E08F28B388
:1020B00001F05EFA0ED5E18E61B1012E0AD1216BDD
:1020C000002609780173216B206801312163E18EBC
:1020D0000139E1868168C90706D0E18F21B1A16B82
:1020E000C068012601F0E7F9FFF79AFB002DDBD06D
:1020F000A0EB09004045D7D3032008E02046414625
:102100004A4601F081FB50B120206065012000218A
:1021100084F85010012184F85110BDE8F883A168BB
:1021200000200029F3D100902168CA6800928968D4
:1021300000910099EBE70000411E0020B0EB116F09
:102140001CBF01207047044AF023516003490B7003
:10215000072190601160704710E000E023ED00E07F
:102160007047704790F83C300222012B2FD010B5F9
:1021700080F83D2002680B68546824F070041C430A
:102180009368B2F1804F546014D0434CA24211D0F6
:10219000424CA2420ED0424CA2420BD0414CA24231
:1021A00008D0414CA24205D0404CA24202D0404C43
:1021B000A24204D1496823F08003194391600022B0
:1021C000012180F83C2080F83D10BDE81040104609
:1021D000704700BF58B110B501F043FA03D101F0C8
:1021E000CBF900F007F801F0B3FA01F015B90120BE
:1021F0007047000000680D49884218BF7047E0B57D
:102200000020002201900A48016841F0200101608D
:102210000021006800F02000019001983720FFF7AE
:1022200073FB3720BDE88C40FFF762BB0014004011
:102230004038024090F83D1001291CBF0120704732
:10224000022180F83D100068C168B0F1804F41F074
:102250000101C16014D01049884211D00F49884251
:102260000ED00F4988420BD00E49884208D00E4943
:10227000884205D00D49884202D00D49884204D1D8
:10228000724601F0EFF8964603D0724601F0E1F88D
:1022900096460020704700BF000400400008004040
:1022A000000C0040001800400000014000400140C8
:1022B00000040140704710B50446006801698907B1
:1022C00012D5C16889070FD56FF0020101610121A4
:1022D00021778069800702D001F0DFF901E001F089
:1022E00090F90020207720680169490713D5C1685B
:1022F000490710D56FF0040101610221217780693F
:1023000010F4407F02D001F0C8F901E001F079F942
:102310000020207720680169090712D5C1680907E4
:102320000FD56FF00801016104212177C069800792
:1023300002D001F0B2F901E001F063F9002020774A
:1023400020680169C90613D5C168C90610D56FF0A8
:102350001001016108212177C06910F4407F02D08B
:1023600001F09BF901E001F04CF900202077206892
:102370000169C90709D0C168C90706D06FF001011A
:102380000161204600F02CF820680169090609D592
:10239000C168090606D56FF0800101612046FFF78C
:1023A000DFFE20680169490609D5C168490606D5DE
:1023B0006FF040010161204600F013F820680169C8
:1023C000890602D5C168890600D410BD6FF02001CE
:1023D00001612046BDE81040FFF7C3BE704770475B
:1023E00070477047FEE7B0B5044690F85D000128DD
:1023F00002D194F86C0000B1B0BD04F15C0004F1AE
:102400003C0501F0E5FC284601F0DFFC04F14C003E
:1024100001F0DBFC204601F01EFD012084F86C0079
:10242000B0BD00000B4810210122FFF7F3B900BF37
:1024300008484FF400410122FFF7ECB9054810218C
:102440000022FFF7E7B900BF02484FF40041002225
:10245000FFF7E0B900000240BBEE041AB4EE410AF7
:10246000F1EE10FAB8BFB0EE410A9FED0C1AB4EECF
:10247000410AF1EE10FAC8BFB0EE410AB3EE041AF9
:1024800030EE010AB6EE001A30EE000A30EE010A14
:10249000BDEEC00A10EE100A704700BF0000D74220
:1024A000B0EE001AB6EE002AB4EE410AF1EE10FAD0
:1024B000B8BFB0EE410A9FED0B1AB4EE410AF1EE3F
:1024C00010FAC8BFB0EE410AB8EE001A30EE010AA9
:1024D0009FED051A00EE012ABDEEC20A10EE100AA9
:1024E000704700BF9A9991400000C8422DE9FC4115
:1024F000044600F05FF804F50B7401200126214624
:1025000000F07AFADFF8A880284D002008F10A07C9
:10251000F1070AD02A786B78C0B22146CDE900874E
:1025200000F094FA01200026F2E70120214600F095
:1025300089FA0120214600F063FA012001F046FDEE
:1025400001202146BDE8FC4100F0B6BAFEB50446C4
:1025500000F03EF804F543741520214600F04EFAD1
:10256000134A124D0020012102F11606571DC9071A
:102570000AD0AA78EB78C0B22146CDE9007600F007
:102580007CFA01200021F2E70120214600F05CFAEC
:102590000120214600F042FA012001F024FD012033
:1025A000214603B0BDE8F04000F088BA00000020EA
:1025B00070000020F0B5E14800220A21034F00F02E
:1025C000CFFEBDE8F040FFF727BC00BF0030014060
:1025D000F0B5E54800220A21034F00F0C1FEBDE836
:1025E000F040FFF719BC00BF003C004000000000B5
:1025F0002DE9FE4FDFF8C89280460120C847B14F51
:102600000120B847B04C0120A04708F50B7B002003
:1026100001220025594600F04BFA08F543760020C8
:102620000122314600F046FA0120594600F096FD9D
:102630000120314600F0B2FD0220A0470120C8472A
:102640000120B8470120A04700F0BFFF00F0FEFFC7
:102650000320A0470120C8470120B8470120A04718
:1026600000F03EFF044600F08FFE074634B1032D14
:1026700004D200F035FF04460135F7E7002537B1F5
:10268000022D04D800F080FE07460135F7E757EA2F
:10269000040040F0E3809FED880B08F22A3008F137
:1026A000E4040025029008F24A2059EC10AB019096
:1026B000681C0C2820D208EB4507B7F84C0201F043
:1026C00018FD00F096FE01F0E3FC00EE100A00F0A9
:1026D000EFFDB7F82C0384ED000A01F00AFD00F0CD
:1026E00088FE01F0D5FC00EE100A00F0E1FD84ED5B
:1026F000240A02351834DBE7714C0120A047714FE2
:102700000120B847704C0120A04700F0D2FF01F033
:1027100007F80120594600F061FD0120314600F024
:102720007CFD0220A047664F0120B8476549012083
:1027300088470120A04700F048FF00F087FF0320F2
:10274000A0470120B8475F49012088470120A047E2
:1027500000F0C6FE044600F017FE074634B1032D14
:1027600004D201F029F804460135F7E7002537B116
:10277000022D04D800F008FE07460135F7E757EAB6
:1027800004006BD1019F08F1D80400250C2D1FD245
:1027900037F8150001F0ADFC00F02BFE01F078FCDD
:1027A00000EE100A00F084FD029884ED000A30F873
:1027B000150001F09EFC00F01CFE01F069FC00EE2B
:1027C000100A00F075FD84ED240A18340235DDE7A7
:1027D0003B4C0120A0473B4F0120B8473A4C012019
:1027E000A04700F066FF00F09BFF0120594600F073
:1027F00033FD0120314600F045FD0220A047304F57
:102800000120B8472F49012088470120A04700F048
:10281000DCFE00F01BFF0320A0470120B847294938
:10282000012088470120A04700F05AFE044600F02E
:10283000ABFD074634B1032D04D200F0BDFF0446C2
:102840000135F7E7002537B1022D04D800F09CFDD3
:1028500007460135F7E757EA04000DD00220594634
:1028600088F86C00012000F0F7FC0120314603B02D
:10287000BDE8F04F00F006BD019E0024302C08BFDB
:10288000BDE8FE8F36F8020B01F033FC00F0B1FD1D
:1028900001F0FEFB08EB04056867B6F8DE0001F006
:1028A00028FC00F0A6FD01F0F3FBC5F8A4000434F9
:1028B000E4E700BF00BF00BF2D431CEBE2361A3F28
:1028C000993F0008B33F00080D150008E0B54FF030
:1028D000FF3046490DF10702012300903248FFF70F
:1028E00061FB9DF80710002818BFFF2108468CBD2A
:1028F000E0B54FF0FF303D490DF107020123009094
:102900003948FFF74FFB9DF80710002818BFFF213B
:1029100008468CBD2DE9FC41234E0C4605464FF080
:10292000FF380DF107073DB1304621463A4600F029
:102930005BFD0134013DF6E7BDE8FC813405002074
:102940002DE9FC41284E0C4605464FF0FF380DF1AD
:1029500007073DB1304621463A4600F045FD0134B7
:10296000013DF6E7BDE8FC818C0500202DE9FC4720
:10297000DFF8348000F017FE0DF1070926B100F0F2
:10298000A7FD0137013EF9E7074E184F4FF0FF381A
:102990003CB1304639462A4600F026FD0135013C5F
:1029A000F6E7BDE8FC8700BF340500202DE9FC47B1
:1029B000DFF8348000F0F7FD0DF1070926B100F0D3
:1029C00087FD0137013EF9E7074E084F4FF0FF380A
:1029D0003CB1304639462A4600F006FD0135013C3F
:1029E000F6E7BDE8FC8700BF8C050020F445000831
:1029F00000F066B800F06BB800F088B900F0AAB932
:102A00000D4BDB3140F2023230B121F8012C41F89C
:102A1000053CE0310138F7E7704700BF064BDB317A
:102A200040F2023230B121F8012C41F8053CE0318E
:102A30000138F7E7704700BF0C04060400F0B0B996
:102A400000F0EFB900F07EBA00F096BA70B51C46FF
:102A50000D46064600F024FB30462946224600F08B
:102A6000BDFA049A3046294600F0FCFA059A304631
:102A70002946BDE8704000F0B5BA70B51C460D4659
:102A8000064600F00FFB30462946224600F0A8FA21
:102A9000049A3046294600F0F4FA059A3046294651
:102AA000BDE8704000F0BEBA00F09CBA00F0BABABF
:102AB00000F0F6BA00F0F6BA00F0F6BA00F021BB6A
:102AC0001CB500F026FD01A801F0F8F91CBD1CB5ED
:102AD00000F01FFD01A801F0FFF91CBD042900F260
:102AE0008880F0B5DFE801F0035F15390C0002F1D2
:102AF000BC0100287BD011F8AE2C00F05BFDF8E79C
:102B000002F1BC01002872D011F89F2C00F052FD98
:102B1000F8E700F00AFE844569D0CCEBCC0492F8CB
:102B2000DAE0002602EB4414B64512D09F19B4F83F
:102B3000BA5097F85A10294403EB46050136A4F819
:102B4000BA1097F85A10B5F8CA703944A5F8CA10E7
:102B5000EAE7E0330CF1010CDDE700F0E6FD844527
:102B600045D092F8DB50CCEBCC04002602EB4414A9
:102B7000A5F1010E764512DA9F19B4F8BA5097F80C
:102B80006B10294403EB46050136A4F8BA1097F8F8
:102B90006B10B5F8D2703944A5F8D210EAE7E033EB
:102BA0000CF1010CDBE700F0C0FD84451FD0CCEB3D
:102BB000CC0492F8D9E0002602EB4414B64512D0BA
:102BC0009F19B4F8BA5097F84210294403EB460510
:102BD0000136A4F8BA1097F84210B5F8BE7039441F
:102BE000A5F8BE10EAE7E0330CF1010CDDE7BDE823
:102BF000F0407047042900F28880F0B5DFE801F06A
:102C0000035F15390C0002F1BC0100287BD011F8DC
:102C1000AE2C00F0CFFCF8E702F1BC01002872D026
:102C200011F89F2C00F0C6FCF8E700F07EFD84450B
:102C300069D0CCEBCC0492F8DAE0002602EB441425
:102C4000B64512D09F19B4F8BA5097F85A102944D3
:102C500003EB46050136A4F8BA1097F85A10B5F8F8
:102C6000CA703944A5F8CA10EAE7E0330CF1010C48
:102C7000DDE700F05AFD844545D092F8DB50CCEBFF
:102C8000CC04002602EB4414A5F1010E764512DABD
:102C90009F19B4F8BA5097F86B10294403EB460516
:102CA0000136A4F8BA1097F86B10B5F8D270394411
:102CB000A5F8D210EAE7E0330CF1010CDBE700F0F5
:102CC00034FD84451FD0CCEBCC0492F8D9E000262B
:102CD00002EB4414B64512D09F19B4F8BA5097F8D5
:102CE0004210294403EB46050136A4F8BA1097F8C0
:102CF0004210B5F8BE703944A5F8BE10EAE7E033DB
:102D00000CF1010CDDE7BDE8F04070472DE9F0471C
:102D100086B0DFF8889000268A4605460DF10C083B
:102D20000C4600270596CDE90366AF420ED0002081
:102D3000062804D0211826540130CE73F8E700F09D
:102D40002DFD00F033F9E0340137EEE706B0BDE8C1
:102D5000F08700BF2DE9F04786B0DFF840900026ED
:102D60008A4605460DF10C080C4600270596CDE96C
:102D70000366AF420ED00020062804D02118265446
:102D80000130CE73F8E700F009FD00F01BF9E034E4
:102D90000137EEE706B0BDE8F08700BF3843000812
:102DA0002DE9FC4700F0B1FC80469FB100F0E3FC48
:102DB00000260024A54229D09AF8B910E043002942
:102DC000214618BF411900F067FB01F09AF806444C
:102DD0000134EFE74FF0010900269AF8D9005FFAB5
:102DE00089F7B84212D300F0C6FC0024A5420AD0ED
:102DF00000F0B5FC18BF411900F0C3FB01F081F8E9
:102E000006440134F2E709F10109E6E72846012109
:102E10005246FFF763FE4046FDF76FFAF0B2BDE899
:102E2000FC872DE9FC4700F070FC80469FB100F064
:102E30009DFC00260024A54229D09AF8B910E04351
:102E40000029214618BF411900F026FB01F074F853
:102E500006440134EFE74FF0010900269AF8D90043
:102E60005FFA89F7B84212D300F080FC0024A54233
:102E70000AD000F074FC18BF411900F082FB01F089
:102E80005BF806440134F2E709F10109E6E7284658
:102E900001215246FFF7AEFE4046FDF72EFAF0B292
:102EA000BDE8FC877CB5013814460D46052817D8C7
:102EB000DFE800F0030F090C06124FF480600DE00C
:102EC0004FF410600AE04FF4006007E04FF4206018
:102ED00004E04FF4C06001E04FF43060ADF804004E
:102EE00001AE00F03AFB00F0DFFB00F02FFBFFF734
:102EF0009FFA7CBD7CB5013814460D46052817D8CD
:102F0000DFE800F0030F090C06124FF480600DE0BB
:102F10004FF410600AE04FF4006007E04FF42060C7
:102F200004E04FF4C06001E04FF43060ADF80400FD
:102F300001AE00F012FB00F0EEFB00F000FBFFF72B
:102F400071FA7CBDF0B500F056FC854208BFF0BDBB
:102F500000F0EFFB062F03D023F817400137F9E705
:102F60000027042F03D022F817400137F9E7B46196
:102F7000E032E0330135E8E7F0B500F03CFC854293
:102F800008BFF0BD00F0D5FB062F03D023F8174093
:102F90000137F9E70027042F03D022F81740013743
:102FA000F9E7B461E032E0330135E8E7B0B500F0AD
:102FB00063FA00F057F8059A28462146BDE8B0406C
:102FC00000F010B8B0B500F057FA00F05AF8059AC2
:102FD00028462146BDE8B04000F024B800F046BBCA
:102FE00000F044BBF0B500F04AFB082B0CD0D65CD7
:102FF0000CFA03F744EA0705002E08BF24EA070588
:103000000D702C460133F0E700F0C1FB042A08BF25
:10301000F0BD00F0B5FB08BF24EA060707703C4688
:103020000132F3E7F0B500F02AFB082B0CD0D65C98
:103030000CFA03F744EA0705002E08BF24EA070547
:103040000D702C460133F0E700F0A1FB042A08BF05
:10305000F0BD00F095FB08BF24EA060707703C4668
:103060000132F3E7F0B500F040FB052908BFF0BDE1
:1030700000F0B3FB08BF24EA060707703C460131A5
:10308000F3E7F0B500F031FB052908BFF0BD00F013
:10309000A4FB08BF24EA060707703C460131F3E7AA
:1030A00000F0A5BA00F0A3BAF0B5C1B04FF4807239
:1030B0000DF1020300F0C7F95FFA8CF5854218D2D2
:1030C00091F8B9606FEA0C05002E664608BF2E180D
:1030D000F5B2C5EBC505002601EB4515062E05D05A
:1030E000AF5DD4B2013601321F55F7E70CF1010C88
:1030F000E2E70DF581710DF1020200F081FF41B0B0
:10310000F0BDF0B5C1B04FF480720DF1020300F0D4
:103110009AF95FFA8CF5854218D291F8B9606FEA96
:103120000C05002E664608BF2E18F5B2C5EBC50586
:10313000002601EB4515062E05D0AF5DD4B2013651
:1031400001321F55F7E70CF1010CE2E70DF5817133
:103150000DF1020200F078FF41B0F0BD2DE9FE4311
:103160008846814600276E46012400254D450FD034
:1031700001200297CDE900770C2802D234540230A6
:10318000FAE7E8B241463246FFF78EFC0135EDE73B
:1031900048464146FFF790FCBDE8FE832DE9FE431B
:1031A0008846814600276E46012400254D450FD0F4
:1031B00001200297CDE900770C2802D23454023066
:1031C000FAE7E8B241463246FFF770FC0135EDE719
:1031D00048464146FFF772FCBDE8FE832DE9FF41FA
:1031E00088460546002701AE0124AF420FD00020DB
:1031F0000390CDE901000C2802D234540230FAE7E2
:10320000F8B241463246FFF74FFC0137EDE728465A
:103210004146FFF751FCBDE8FF812DE9FF4188469B
:103220000546002701AE0124AF420FD000200390D5
:10323000CDE901000C2802D234540230FAE7F8B28A
:1032400041463246FFF732FC0137EDE7284641465A
:10325000FFF734FCBDE8FF812DE9FF410C46054630
:1032600000270DF104080026B54205D000F069FAE8
:10327000FFF71AFC0136F7E728462146FFF71CFC4A
:10328000BDE8FF812DE9FF410C46054600270DF101
:1032900004080026B54205D000F053FAFFF706FCFB
:1032A0000136F7E728462146FFF708FCBDE8FF8115
:1032B0001848B0EE401A9FED180A011D0020202882
:1032C00026D011ED012AB4EE412AF1EE10FA06DB08
:1032D00091ED003AB4EE413AF1EE10FA02DD013020
:1032E0000431ECE733EE420A31EE421A0B4981EE2B
:1032F000001A0A56084490F90100801A00EE100ADC
:10330000B8EEC02A00EE102AB8EEC00A01EE020A9A
:10331000704700BF704300080000C8C24D4300085A
:1033200000F03ABB00F057BB00F066BB00F066BB94
:1033300000F07EBB00F098BB00F0A0BB00F0AABB81
:103340000248807900B1704700F01ABC9400002058
:10335000FEE7FEE7054600F20C400C4600F01CBDFF
:103360004FF482764FF4007301240225C0E90A214C
:103370002021C0E90822C0E90076C0E90222C0E9A4
:103380000454C0E906317047002001213246FFF79E
:1033900057BB009100990095016841F0010101605F
:1033A000006800F0010000907047D3F8000400F0BE
:1033B0000700404570474CF25030FDF7C1BC1C215E
:1033C000012201EAD00100F01F0002FA00F070476C
:1033D000026802EB0112D2F8BC217047054600F5E5
:1033E0007C700C4600F0D8BC0123CDF80080FEF7BD
:1033F000D9BD52464B4600F08FBE01202146CDE993
:103400000466CDE902702846FEF73AB9026802EB7D
:103410000112D2F8B8217047012084F8460084F8E0
:103420003E0084F83F0084F8400084F8410084F8AE
:10343000420084F8430084F8440084F8450084F88E
:103440003D00002010BD4FF0000CADF8022100221D
:103450007047016841F00101016070470220214678
:1034600000F086BD816801F0070106297047044617
:1034700090F85000012870470546C0EBC0000C468C
:1034800062F382034001095C01F0FA0119442154FE
:1034900028462146049A7047C8B2C0EBC0010AEB27
:1034A000411101F1420201F11E033946009208EB7D
:1034B000C002E0B270470870A06B0130A063E08FDB
:1034C0000138E0877047C5F8204485F80904B0BD8D
:1034D000404639464A460123CDF800A0FEF762BDBA
:1034E000002001215A46FFF7A9BA006800F0040045
:1034F000019001982846FEF78DB9B06800F00C00E5
:10350000082870472068016841F001010160FEF75A
:1035100087B909014308012401EBC01064F35F037C
:1035200010448DF8043060308DF80500704737F88E
:10353000021BC1602763E08E0138E0867047E80017
:1035400004212246C3B23046FFF710BAE800042136
:103550002246C3B23046FFF729BA0220314600F0B6
:1035600007BD21F8020BA163E08F0138E0877047A7
:103570002068816889077047002084F83C00204655
:103580007047C8B2C0EBC0000AEB401000F1420126
:1035900000F11E03E0B20091394670470020207010
:1035A000284600F00ABC1C4615460E4607464FF05A
:1035B000FF3A704731F8023C0138134421F8023CCD
:1035C0000B881A4421F8E02B7047012001210022CA
:1035D000FFF70EBA294622460023FDF7FBBF606ABB
:1035E00040F400306062052084F820007047C0EB92
:1035F000C00040010B5C03F0FB0362F382030B5439
:1036000070474DF808ED2046FEF7E8FE20465DF8CD
:1036100008EBFEF7E4BE0C4601EB4101C000DDF80B
:10362000188003EB41016FF005030646704706461C
:10363000C00017460D4604305FFA80F84046FCF79C
:103640002DBEC5F8044485F8ED03B0BD012001216D
:103650000022FFF7CFB9416A41F480214162012085
:103660007047044690F83D0000287047C0EBC0004A
:1036700040010B5C03F0FE031A440A547047C0EB90
:10368000C00000234FF0010C01EB4010014611F87F
:10369000044F7047062000F06BBC2046FEF70ABEC0
:1036A00004202146FFF736B940BAADF80600FEF710
:1036B000CBBE0020594601220025FFF7F9B901735E
:1036C000206B01302063E08E0138E08670470420D3
:1036D0002146FFF735B940BAA7F10609608006EB2D
:1036E000460007EB400504277047C0EBC00301EB21
:1036F00043105B01CC5C00210823704704462888F6
:1037000021462080022000F033BC0746C8009246C4
:103710000D46FCF7C3BD40BAADF80600FEF78EBEFD
:10372000002031460122FFF7C5B94FF0000C1346C7
:103730007047C5EBC506002701EB461646F8BA7F71
:103740007047F0B2214642460397CDE901777047B2
:103750000220211D84F83D00206800F0B1BA9AF8DB
:10376000B910E043424600292146704738462946B1
:103770004246FFF797BB384629464246FFF7BABB99
:103780008D5C03FA02F644EA0607002D704710F834
:10379000054F02F10801002201237047F8B251469B
:1037A00001220023CDE900987047F9B240BA063DE6
:1037B000013E023760527047012000215A46FFF750
:1037C0003DB9016841F04001016070477F780236E1
:1037D00045EA0725CD5202337047555C03FA01F6DE
:1037E00044EA0607002D704706EB460009EB40014E
:1037F0006FF00500704701F1CA0201F1BE03002419
:1038000000257047704700001CB504463F4813462A
:103810000A4611490068B0FBF1F04FF47A71484351
:1038200001906068B0F5827F0AD12046802100F0C7
:1038300015F870B1606D40F02000606503201CBD7C
:10384000019830B101980138019020688068000625
:10385000F6D400201CBD00BF00366E012DE9FC41EE
:103860001E4617460D468046FDF7DAFF301AC4198A
:10387000FDF7D6FF0646254801370068C0F3CB3078
:1038800060430190D8F8000081682940A9420ED118
:10389000002FF9D0FDF7C4FF801BA0420AD2019887
:1038A000019901390191002808BF0446EAE7002088
:1038B000BDE8FC81D8E900014268B1F5827F22F0C1
:1038C000E00242600BD1D8F80810B1F5004F02D0E9
:1038D000B1F5806F03D1016821F040010160D8F893
:1038E0002810B1F5005F07D1016821F40051016093
:1038F000016841F400510160002088F85000012067
:1039000088F851000320BDE8FC8100BF0C000020B6
:10391000B0B58AB027481F4D002402234FF4801110
:103920004FF44022C0E90053C0E90244C0E9042139
:1039300084618483FDF70DFD18B1EFF3108072B63A
:10394000FEE7CDE905446C46012514212046079584
:10395000FCF772FD0E202146CDE908501548FDF711
:1039600039FB18B1EFF3108072B6FEE71148FDF78E
:10397000A0FD18B1EFF3108072B6FEE70D480221EA
:10398000FDF7CAFA18B1EFF3108072B6FEE70AB07D
:10399000B0BD00BF0064004080B513460A46014632
:1039A0000448FDF7CCFA18B1EFF3108072B6FEE7C9
:1039B00080BD00BFB804002080B5FDF745FF00F0D2
:1039C0006BF800F0B1F8BDE88040FFF7A1BFEFF35E
:1039D000108072B6FEE7B0B50C460546FDF73CFE1A
:1039E0000220FFF7F7FD18B1EFF3108072B6FEE783
:1039F000BDE8B040FDF7E6BD00687047F0B587B0A0
:103A000002AC14212046FCF717FD00261548204D76
:103A100000224FF480770196016841F004010160B3
:103A20004FF48071FFF761FDFFF7E7FC07B0F0BDD1
:103A3000F0B587B002AC14212046FCF7FDFC00264F
:103A40000848134D00224FF400770196016841F0B9
:103A5000040101604FF40071FFF747FDFFF7CDFC53
:103A600007B0F0BD3038024001384FF48071B0FA31
:103A700080F042090648FDF7CDBE00BF01384FF483
:103A80000071B0FA80F042090148FDF7C3BE00BFE3
:103A900000080240FFF790BFB0B592B006AC3021ED
:103AA0002046FCF7C9FC01A81421FCF7C5FC002541
:103AB0001B480095016841F080510160006800F0EA
:103AC00080500090009800951648016841F48041AC
:103AD00001601021006800F48040009001200C95E6
:103AE0000B90CDE909010A20069000982046FDF7C9
:103AF000FDFF18B1EFF3108072B6FEE70F200295BC
:103B0000CDE9035505950021019001A8FDF732FF8D
:103B100018B1EFF3108072B6FEE712B0B0BD00BF6F
:103B200040380240007000401CB56448134C00212E
:103B300040F2E7320F23CDE900118161C0E9004373
:103B4000C0E90212FEF746FB18B1EFF3108072B61F
:103B5000FEE75A4C69462046FEF704FB18B1EFF326
:103B6000108072B6FEE72068002141626FF001010B
:103B700001612046FEF75EFB1CBD00BF0014004043
:103B80000148FDF751BE00BF28050020704710B561
:103B9000044600F57C7000F01EF904F20C40BDE80C
:103BA000104000F018B970B50446FFF7C1FBFFF7ED
:103BB000BDFB002504F57C7001210022C8230126ED
:103BC000A4F8ED5384F8005400F0E8F8A4F8095480
:103BD00084F81C6404F20C40012100223223BDE869
:103BE000704000F0DBB810B5044600F038F920460C
:103BF000BDE81040FDF761B9B0B504464078A17842
:103C0000814243D004F10405A07088B901202070DE
:103C1000284600F0DDF8284600F0C9F8207D01288C
:103C200003D020B9FDF73BF901E000F00EF9607810
:103C3000012810D100202070284600F0C9F828463D
:103C400000F0B5F8207D012803D020B9FDF72AF94E
:103C500001E000F0FDF8607802280BD1FFF79EFC30
:103C6000207D012803D020B9FDF71CF901E000F008
:103C7000EFF86078032809D1FFF790FC207D012838
:103C800005D018B9BDE8B040FDF70CB9B0BDBDE82E
:103C9000B04000F0DDB8FDF7CDBD0000024801687E
:103CA00041F470010160704788ED00E080B5034881
:103CB000FEF701FBBDE88040FCF76CBFE00400208C
:103CC00070B52A4A0368904234D0B0F1804F0BD0CF
:103CD000274CA04208D0274CA04205D0264CA04239
:103CE00002D0264CA04203D14C6823F0700323433A
:103CF000B0F1804F22D01E4CA0421FD01D4CA042DC
:103D00001CD01E4CA04219D01D4CA04216D01D4CF8
:103D1000A04213D01C4CA04210D0174CA0420DD092
:103D20001A4CA0420AD01A4CA04207D0194CA0420B
:103D300004D007E04C6823F070032343CC6823F4DD
:103D4000407323434E6923F080030C688D6833432E
:103D500090420360C562846203D002F580629042A3
:103D600001D1096901630121416170BD0000014079
:103D7000000400400008004000040140000C004026
:103D800000180040001C004000200040004001409E
:103D90000048014000440140818170474172002188
:103DA00082738381418101724160018070470021EB
:103DB00041810180017241607047002101800172E0
:103DC00041604181012101707047012101707047FC
:103DD000002101707047017801290ED14168427AB3
:103DE0000A319142416004D3837B3BB1C9087C29ED
:103DF00005D8818942898A420AD270470023818985
:103E000031B1012B0AD0002BF4D10022426011E025
:103E1000002141814FF480710180704710B5047A10
:103E20000023436001340472E4B29442BDE81040C0
:103E3000E0D30372428901324281DBE7FEE7B0B58D
:103E4000FFF788FA0220FFF73EBB0020FFF774BAA5
:103E50000120FFF771BA002180F809147047B0B54E
:103E6000054690F80D04012810D195F8090405F2D3
:103E70000C4403280BD0022808D195F8080498B107
:103E8000002085F80804FFF7E3FF12E0B0BDFFF75C
:103E9000DCFF012085F808042046FFF799FF204643
:103EA000BDE8B040FFF783BF012085F80804FFF7A5
:103EB000CCFF2046BDE8B040FFF77FBF1CB50088AF
:103EC000ADF8040001ACFFF7C9FAFFF724FCFFF7D7
:103ED000E7FBFEF7A7FA1CBD1CB50088ADF804008F
:103EE00001ACFFF7BBFAFFF7DFFBFFF7F0FBFEF7D4
:103EF0009FFA1CBDFCF748FEFCF742FEFCF746FEAD
:103F0000FCE72DE9F041FFF786FB52FA86F7F6B29F
:103F1000955D13B1FFF75AFCF7E7797841EA05257B
:103F20001118FFF7B7FB281A08EB040118BF01208E
:103F300001F8010CBDE8F0812DE9F041FFF76BFBC2
:103F400052FA86F7F6B2955D13B1FFF73FFCF7E73B
:103F5000797841EA05251118FFF79CFB281A08EB30
:103F6000040118BF012001F8010CBDE8F081000038
:103F7000B0B5084B102250B111F8015BC2F3C71461
:103F800001386C4033F8144084EA0222F3E7500011
:103F900080B2B0BDF443000810B5044644B1FEF74A
:103FA0004DFAFF20FEF792FCFEF73CFA013CF5E7E4
:103FB00010BD10B5044644B1FEF746FAFF20FEF7E7
:103FC00097FCFEF735FA013CF5E710BD10B5044645
:103FD00044B1FEF733FA0120FDF798FAFEF722FA12
:103FE000013CF5E710BD10B5044644B1FEF72CFACC
:103FF0000120FDF78BFAFEF71BFA013CF5E710BD37
:104000002DE9F843FFF713FBFFF778FBFFF763FB9E
:104010006EB1FFF7E9FB28B12A5CFBB20130013732
:10402000E254F8E7FFF736FBFFF7BFFBF0E7FEF7D8
:1040300005FA40462146FEF76DFCFEF7F3F92046EF
:10404000BDE8F843FCF759B92DE9F843FFF7EFFA5B
:10405000FFF754FBFFF73FFB6EB1FFF7C5FB28B13D
:104060002A5CFBB201300137E254F8E7FFF712FB9C
:10407000FFF79BFBF0E7FEF7E7F940462146FEF726
:104080005FFCFEF7D5F92046BDE8F843FCF735B9EB
:1040900021F0004201F00043A2F16052B2F5801F0E
:1040A00028BFD2F17F6C0BD95FEA001C43EAC20241
:1040B00042EB507018BF704728BF20F001007047D6
:1040C000B2F5801FBCBF184670474FEA410C1CF583
:1040D000001F02D2084600F02AB970B500F0C6F8F9
:1040E00000000089FFF7F6BF4FF00040A0F5800008
:1040F0007047B0FA80F310FA03F10AD0C3F11D0340
:1041000003F580634FEA03524FEA415002EBD1219D
:1041100070474FF00000704770B5DFF848C11CEAE7
:10412000111E1EBF1CEA13159EEA0C0F95EA0C0F18
:1041300000F06F8081EA03044EEAD47EAE4421EAA7
:104140004C1123EA4C1341F4801143F48013AEF177
:104150007F7EA1FB024CA0FB0365361955EB0C05D5
:10416000A1FB034C4CF10003A0FB021C16EB0C0658
:10417000654153F10003094218BF46F0010613F4EC
:10418000007F0BD14FEA03314FEA053041EA155168
:1041900040EA165034036FF003020AE04FEAC321ED
:1041A0004FEAC52041EA555140EA5650F4026FF0FB
:1041B000020202EB2E4201EB025585EACE710AD0D3
:1041C0005FEA440C18BF24F0004450F1000041F1B4
:1041D000000120EAD47040F2FE7C624500D270BD3E
:1041E000A84214BF4FF080444FF04044002E08BF57
:1041F0000024BEF1806FA8BFA1F1C041BDE87040AE
:1042000080F2828001F1C04101F000414FF00000D6
:1042100070470CEA13159EEA0C0F18BF95EA0C0FB5
:1042200006D081EA030E4FF000000EF0004170BD91
:1042300000F01CF88900013E00F007B800F009B852
:104240004FEA430C5FEA5C5C08D081EA030100F0AE
:104250005BB84FEA410C5FEA5C5CF6D102494FF073
:10426000000070470000FF070000F87F0EF1020E0B
:104270002EF0030E5EF8046B364205D4012A43EBA0
:10428000030515F5001F12D8012841EB010C1CF5A0
:10429000001F0CD80ED14FEAD17C0CEB4C0C0CF16A
:1042A000020C15F5001F08BF4CEBD37C04E04FF067
:1042B000080C01E04FEAD37C0CEB4C0526FA05F61E
:1042C00006F00706B6F1040C06D20EEB860CBDE82C
:1042D00070404CF0010C6047DFE80CF0090B020263
:1042E0004FF00041A1F500214FF0000070BD1946CC
:1042F0001046012851EB010418BFD4F5001484BF07
:10430000002001F0004170BD0808A0F500114FEA3F
:1043100031017047F1EE100A4FF6FF71C0F2C03163
:1043200020EA010040F04070E1EE100A7047FF21E2
:1043300041EAD050C00570470101010101000000B1
:1043400000000000000102030406070809D8DDE2AE
:10435000E7ECF1F6FB00050A0F14191E23282D3295
:10436000373C41464B50555A5F64696E7378000084
:10437000F6281C4048E11A409A991940EC5118401F
:1043800066661640E17A1440AE47114052B80E40BE
:1043900048E10A403D0A07403333034052B8FE3F2C
:1043A0008FC2F53F7B14EE3F6666E63F52B8DE3FB4
:1043B0003D0AD73FD7A3D03F1F85CB3F6666C63F98
:1043C000AE47C13FA470BD3F9A99B93F3D0AB73F80
:1043D0003333B33FD7A3B03F295CAF3FCDCCAC3F25
:1043E0001F85AB3F713DAA3FC3F5A83F14AEA73F61
:1043F0006666A63F000099C5ABCE320BCFD8561DDE
:104400006416FDD307F49E31AC3A35FFC82C51E950
:1044100063E2FA2797AD0E683C63A5A65875C1B054
:10442000F3BB6A7E9059099C3B97A2525F81C644B8
:10443000F44F6D8A2E5BB79E85951C50E1837846BC
:104440004A4DD38829AFB06A82611BA4E6777FB258
:104450004DB9D47CB9F6203312388BFD762EEFEBB4
:10446000DDE04425BE0227C715CC8C0971DAE81FB0
:10447000DA1443D1C5F35C366E3DF7F80A2B93EEA0
:10448000A1E53820C2075BC269C9F00C0DDF941AA0
:10449000A6113FD4525ECB9BF99060559D86044394
:1044A0003648AF8D55AACC6FFE6467A19A7203B7E8
:1044B00031BCA879EBA8726D4066D9A32470BDB554
:1044C0008FBE167BEC5C75994792DE572384BA4108
:1044D000884A118F7C05E5C0D7CB4E0EB3DD2A1874
:1044E000181381D67BF1E234D03F49FAB4292DEC80
:1044F0001FE7862213A28A67B86C21A9DC7A45BF20
:1045000077B4EE7114568D93BF98265DDB8E424BC7
:104510007040E985840F1DCA2FC1B6044BD7D21253
:10452000E01979DC83FB1A3E2835B1F04C23D5E63F
:10453000E7ED7E283DF9A43C96370FF2F2216BE4BB
:1045400059EFC02A3A0DA3C891C30806F5D56C10DF
:104550005E1BC7DEAA543391019A985F658CFC49B3
:10456000CE425787ADA03465066E9FAB6278FBBD27
:10457000C9B65073D6514F947D9FE45A1989804C27
:10458000B2472B82D1A548607A6BE3AE1E7D87B817
:10459000B5B32C7641FCD839EA3273F78E2417E193
:1045A00025EABC2F4608DFCDEDC6740389D010156F
:1045B000221EBBDBF80A61CF53C4CA0137D2AE1743
:1045C0009C1C05D9FFFE663B5430CDF53026A9E38F
:1045D0009BE8022D6FA7F662C4695DACA07F39BA73
:1045E0000BB192746853F196C39D5A58A78B3E4EF7
:1045F0000C459580FF0000001846000800000020D0
:1046000010000000EC0100082846000810000020FF
:10461000F80B00000C02000801010101010000007C
:08462000100000000024F4006A
:040000050800018965
:00000001FF
