:020000040800F2
:10000000F80A00205D02000857230008D51C0008EC
:1000100055230008B7070008D32900080000000096
:10002000000000000000000000000000512800084F
:10003000F9070008000000006D2500086B28000883
:1000400077020008770200087702000877020008AC
:10005000770200087702000877020008770200089C
:10006000770200087702000877020008770200088C
:10007000770200087702000877020008770200087C
:10008000770200087702000877020008770200086C
:10009000BD07000877020008770200087702000811
:1000A000770200087702000877020008770200084C
:1000B000770200087702000877020008770200083C
:1000C000770200087702000877020008770200082C
:1000D000770200087702000877020008770200081C
:1000E000770200087702000877020008770200080C
:1000F00077020008770200087702000877020008FC
:1001000077020008770200087702000877020008EB
:1001100077020008770200087702000881280008AB
:1001200077020008770200087702000877020008CB
:1001300077020008000000000000000077020008BD
:1001400077020008770200087702000877020008AB
:10015000770200087702000877020008770200089B
:10016000770200087702000877020008770200088B
:10017000770200087702000800000000000000007D
:10018000770200087702000800F002F800F056F845
:1001900014A696E8000CB244B344DA4501D100F04D
:1001A0004DF8BAE80F000FA696E83000A5EB04055D
:1001B00004EB0607AAEB0704A7F101074FEA1515A0
:1001C0004FEA3414A4F10104AC4201D300F036F834
:1001D00013F0010F18BFFB1A43F0010300F001F800
:1001E000DBE71847642F0000842F0000103A24BF7B
:1001F00078C878C1FAD8520724BF30C830C144BF8C
:1002000004680C6070470000704700000023002461
:1002100000250026103A28BF78C1FBD8520728BF16
:1002200030C148BF0B6070471FB502F01FFE9DE84C
:10023000030000F047F91FBD10B510BD00F09EF996
:100240001146FFF7F1FF02F0E1FB00F0BCF903B447
:10025000FFF7F2FF03BC00F0EDF90000094880470A
:1002600009480047FEE7FEE7FEE7FEE7FEE7FEE798
:10027000FEE7FEE7FEE7FEE704480549054A064BB0
:10028000704700007128000889010008F804002068
:10029000F80A0020F8060020F806002070B506468F
:1002A00000F0F4F8056806F10B0020F00704B442F2
:1002B0009CBF002070BD2B466A68BAB11068A0428E
:1002C00010D304F1080188423CBF5068586007D33E
:1002D0005168101941601168091B01605860146071
:1002E000101D70BD13465268002AE7D121462846EA
:1002F00000F0D4F80028DED170BD70B50446051FAB
:1003000000F0C4F80068002C14BF446870BD002CD5
:1003100018BFAC423CBF20466468F8D301680A1895
:10032000AA4218BF456003D12A68054611440160FE
:1003300028684119A1421CBF6C6070BD616869608A
:1003400021680844286070BD53EA020C00F06980FF
:100350002DE9F04B4FF00006002B1FBFB3FA83F5D9
:1003600003FA05F424FA05F65E4012BF1643B2FA0A
:1003700082F502FA05F4C5F120051EBF22FA05FC3C
:1003800044EA0C04203556EA044C4FEA144418BFE2
:10039000641C4FF000084FF00009904271EB030C11
:1003A00039D3002919BFB1FA81F701FA07F6B0FA7B
:1003B00080F700FA07F6C7F120071EBF20FA07FCF6
:1003C00046EA0C062037B6FBF4FCA7EB0507103F06
:1003D00007F01F0BCBF120062CFA06F60CFA0BFBEC
:1003E00044BFB3460026202FA4BF5E464FF0000B4B
:1003F0005BEA060C08BF4FF0010B19EB0B0948EB49
:100400000608ABFB027C06FB02CC0BFB03CCC01B3B
:1004100071EB0C01C1E70B46024641464846BDE878
:10042000F08B13B5084318BF4FF0FF300146AFF310
:100430000080BDE81C4070474FF0000200B5134635
:1004400094469646203922BFA0E80C50A0E80C50F4
:10045000B1F12001BFF4F7AF090728BFA0E80C50A5
:1004600048BF0CC05DF804EB890028BF40F8042B9E
:1004700008BF704748BF20F8022B11F0804F18BF0B
:1004800000F8012B7047704770477047004870476D
:1004900018000020704770477047704738B5044611
:1004A0000A4600206946AFF30080002808BF38BD27
:1004B00002460099204600F03FF8012038BD012097
:1004C00000F054B8F8B5AFF30080054600200C46A4
:1004D0000C2000BF0646A819A0420DD93246694635
:1004E0000020AFF30080070008BF00F03FF800983D
:1004F000A04218BF0546C419FFF7C8FF05600746AC
:10050000F01D20F007004619284600F00AF8B44212
:1005100008BFF8BDA21B31463868BDE8F84000F0BE
:100520000BB800210160416070470C20704700004B
:100530000048704710000020034640688C460028A1
:1005400018BF88423CBF03464068F8D31868184477
:10055000884207D00CF1030020F00700001D411A6B
:10056000521A0146081D0A60FFF7C7BE10B500F019
:1005700039F8BDE8104000F02FB870477546FFF716
:10058000D7FFAE4605006946534620F00700854672
:1005900018B020B5FFF770FEBDE820404FF0000610
:1005A0004FF000074FF000084FF0000BAC46ACE8EE
:1005B000C009ACE8C009ACE8C009ACE8C00921F04A
:1005C00007018D46704710B50446AFF30080204602
:1005D000BDE81040FFF73BBE002801D000F02AB86C
:1005E0007047000010B5012805D0002103A000F0DD
:1005F00027F8012010BD09A1F8E700005349475230
:10060000544D454D3A204F7574206F6620686561E2
:1006100070206D656D6F7279000000003A204865AA
:100620006170206D656D6F727920636F7272757085
:100630007465640001491820ABBEFEE72600020085
:1006400070B505460C460A2000E06D1C00F011F85C
:1006500035B128780028F8D102E0641C00F009F8D0
:1006600014B120780028F8D1BDE870400A20AFF31B
:10067000008008B569468DF800000320ABBE08BDB8
:10068000B0B5044690F80803022805D094F86C0031
:1006900040F00200022800D1B0BD074D04F13C003B
:1006A000A84704F15C00A84704F14C00A847204685
:1006B000BDE8B04002F0CDB86D290008816940F274
:1006C0001242914229D0B1F5826F1AD040F2114204
:1006D00091421CD0502926D190F8081319BB90F8EC
:1006E0006C1041F0020102291DD0816A01291AD142
:1006F00090F83410012902BF012180F808137047D7
:1007000011E0816A08290ED1002100F00DB8816A3C
:10071000082908D1082100F007B8816A082902D108
:10072000102100F001B87047F8B5044601EB410014
:100730000022002304EB800004F13401DA30082A9F
:100740000CD08D5C012D03D0022D04D1012300E0DB
:100750000023037001230C300132F0E7012B1BD181
:10076000104D284601F0F0FD04F1DA0200230124C7
:100770000146182B0ED004FA03F61778064203D070
:10078000012F08BFB14302E0002F08BF31430C32F4
:100790000133EEE7814200D1F8BD2846BDE8F840BC
:1007A00001F0D0BD0080000880B501F0CFFDBDE8AC
:1007B000804001F0CDBDFEE700F014B810B5084C44
:1007C000204600F097F90B48002100F1180200F1D3
:1007D0003403204600F02DF9BDE81040FFF7ECBFD0
:1007E000B40300200348FFF769BF00BF0148FFF7CB
:1007F00047BF00BF7000002070470000204A136808
:1008000023F44073136013681360136843F001030B
:1008100013600170704700BF10B519490C6824F4CB
:1008200040740C600C6844F440740C600C6844F034
:1008300001040C600260BFF36F8F436010BD00BF06
:100840000F4A136823F440731360136843F48073F2
:100850001360136843F0010313600180704700BF09
:10086000074A136823F440731360136843F400735A
:100870001360136843F0010313600160704700BF09
:10088000103C02402D480168C90606D52A49CA69AC
:1008900042F01002CA61102101600168890606D584
:1008A0002549CA6942F00802CA6120210160016835
:1008B000490606D52049CA6942F00402CA614021AE
:1008C00001600168090606D51B49CA6942F00202A7
:1008D000CA61802101600168890706D51649CA6985
:1008E00042F02002CA61022101607047F8B5044657
:1008F00011480021114EC16100F010FC0546671C33
:100900003068C00309D5002FFAD024B100F006FCEE
:10091000401BA042F4D90320F8BD3068C0071CBFBB
:1009200001203060306810F0F20F04BF0020F8BDE5
:10093000FFF7A8FF0120F8BDD40400200C3C0240C2
:1009400090F82020013A012A04D8006800F114022E
:10095000002004E000F1240201204FF480211368FC
:10096000194311607047000090F82020013A012AD5
:1009700028D8F0B52D48026842F0010202600268F2
:1009800022F47C5202604C69CD694A6A036843EAEA
:1009900002220123026004F01F0203FA02F2C3697B
:1009A0009343C361D343012D0ED005BBC5681D40E1
:1009B000C56000EBC405CE688F8847EA06462E6402
:1009C0000D460DE001F0A1BDC5681543C56000EB03
:1009D000C4050E688F8847EA06462E6401F10C05AF
:1009E0008E682D8800EBC40445EA064565644468BA
:1009F0008F690E69096A44EA0205002F08BF04EAFC
:100A000003054560002E446944EA020508BF04EA74
:100A100003050129456102D1C1691143C161016822
:100A200021F0010101600020F0BD00BF0066004020
:100A3000704770B590F82040013C012C03D8046841
:100A400039B1256906E000F1240101204FF480222C
:100A50004CE0E568AD073FD00D0104F5D876745938
:100A600014F00404946006EB0114755919BFED08E5
:100A700055606D0D1560256805F00205D560656847
:100A800005F00F0515616568C5F307259561656873
:100A90002D0C5561A2681A7001F0A9FC120A5A7057
:100AA00001F0A5FC120C9A7001F0A1FC120EDA7094
:100AB00001F08BFC1A7101F088FC120A5A7101F0E6
:100AC00084FC120C9A7101F080FC120EDA7100683D
:100AD00041B100F1100107E000F1240101204FF4C1
:100AE000001203E000F10C01002020220B681A43E1
:100AF0000A6070BD2DE9F84F044600684669D0F8D9
:100B000004908768D0F80CB0D0F810A0D0F8188006
:100B1000F10701D1002545E0F9070FD001218160DF
:100B2000B80708D4780720D4380700F1B8802046E9
:100B300000F0AFF902E0204600F0ACF90025F8051E
:100B400018D520684FF480718160B80509D4780504
:100B50000ED438054EBF05F58045204600F09BF9C0
:100B600008E0204600F098F904E04FF40065E6E75D
:100B700005F50055F80315D520684FF480318160E4
:100B8000B80309D478030BD438034EBF05F580357C
:100B9000204600F082F905E0204600F07FF901E0F0
:100BA00005F50045300748BF5FEACB604FD47007BA
:100BB00048BF5FEA0B7050D4B00706D52068C06804
:100BC000800702D0204600F03AF9700648BF5FEA7D
:100BD000CA6049D4B00648BF5FEA0A704AD4F0063A
:100BE00006D520680069800702D0204600F029F968
:100BF000B00348BF5FEAC96043D4F00348BF5FEA6F
:100C0000097045D4300463D55FEA49705DD508EAC0
:100C10001620F20508F0010100F0020048BF084468
:100C2000720508F0040148BF0844054330054CD55F
:100C300018F0700049D010380009052840D8DFE8C6
:100C400000F0033A3437313D45F0080538E02068BC
:100C5000102145F40075C160A9E720680821C16032
:100C6000204600F0EBF8A7E72068102145F48065E6
:100C70000161AFE7206808210161204600F0E0F83B
:100C8000ADE7206810214160204600F0DBF8B4E7B2
:100C9000206808214160204600F001F9B2E74FF4D6
:100CA00080554CE745F080050AE045F0200507E057
:100CB00045F0400504E045F0100501E045F480757D
:100CC0002068816921F07001816120680421416000
:100CD0003DB1606A284360622046BDE8F84FFFF7E7
:100CE000A7BEBDE8F88FA0B170B5044690F820000B
:100CF00010B9204600F064F801F0CCFB05462068EE
:100D00004168C90707D100F009FA401B0B28F6D348
:100D100011E001207047016821F00201016000F03C
:100D2000FDF905462068416889070BD500F0F6F902
:100D3000401B0B28F6D3606A052140F40030606246
:100D400001203AE0217E026822F08002012908BFDA
:100D500080320260617E026822F04002012908BFF1
:100D600040320260A17E026822F02002012908BF01
:100D700020320260E17E026822F01002012918BFD1
:100D800010320260217F026822F00802012908BFA8
:100D900008320260617F026822F00402012908BF64
:100DA00004320260261D6ECE1A432A4301393243B3
:100DB0001143C16100200121606284F8201070BDE0
:100DC00010B586B0044601A81421FFF735FB216851
:100DD000184881422CD10021174A00F5D0300091EB
:100DE000136943F000731361136903F000730093F8
:100DF000009B0091136843F002031360126802F035
:100E000002020092092205920322CDE90312022177
:100E100002914FF440710191009901A900F0AEF8E0
:100E200014200021002200F0E7F9142000F0D8F986
:100E300006B010BD00640040303802407047704773
:100E4000704770477047B0B5044690F820000128FD
:100E500016D1022084F820002068016821F00101E9
:100E6000016000F05BF9054620684068C0070DD0BE
:100E700000F054F9401B0B28F6D301F034FB03E0DB
:100E8000606A40F4002060620120B0BD0020606212
:100E9000B0BD7047704770477047704770477047E4
:100EA000B0B5044600F03AF90546BE48611C00782A
:100EB00018BF044400F032F9401BA042FAD3B0BD81
:100EC0002348016841F0004101600020704700BFE5
:100ED0002DE9F041DFF87480074698F818000128E2
:100EE00004BF0220BDE8F08101201E4614460D46D5
:100EF00088F818004CF25030FFF7F8FC08BB022FBE
:100F00000CD0012F05D077B9E1B22846FFF776FC67
:100F10000EE0A1B22846FFF793FC09E028462146DF
:100F2000FFF79EFC04E0284622463346FFF774FC98
:100F30004CF25030FFF7DAFC05490A6822F0010252
:100F40000A60002188F81810BDE8F081D404002060
:100F5000103C02400648C168B1F1FF3FC4BF002009
:100F600070470449016004490160C068C00F7047C0
:100F7000043C024023016745AB89EFCD2DE9FE4FCC
:100F80005D4A08244FF0010B4FF0000C90425B4A81
:100F900008BF072402444FEAB223072B38BF4FEAA9
:100FA000B22400F120020194009200250022102AB0
:100FB00008BFBDE8FE8F0C680BFA02FA14EA0A09B2
:100FC00000F09580D1F804E0032303FA0CF40EF04E
:100FD0000308E643A8F10104012C12D88468D1F873
:100FE0000CB00BFA0CF734404FF0010B3C4384601B
:100FF000CEF300144768944027EA0A073C43446054
:1010000005E0B8F1030F02D14FF0030823E0C468F4
:101010008F68344007FA0CF73C43B8F1020FC46004
:1010200019D105F01C040F23A84603FA04F76FF04A
:10103000030303EA520E009B1D4653F80E30BB43D8
:101040000F6907FA04F4234345F80E304546D1F8FA
:1010500004E00EF00308046808FA0CF3344023435C
:101060001EF4403F036042D00023274C244EA84684
:101070000293236843F48043236023680F2403F41E
:101080008043029305F00C0322F00305029F3544D0
:101090009C401E4FBE46EF5927EA0404019F07FA01
:1010A00003F3234345F80E3033684D6843EA0904DF
:1010B000EF0358BF23EA09043460AF03736843EABF
:1010C000090458BF23EA09047460EF02B36843EAD5
:1010D000090458BF23EA0904B4600A4EAD0245462C
:1010E000336843EA090458BF23EA090434600CF169
:1010F000020C043501325AE7001C02400000FEBF1A
:10110000003C01400C3C01404438024008FCFFFF19
:10111000002A08BF09048161704700000548006883
:10112000704700BF1F48034900780A6810440860F0
:10113000704700BFF404002080B50B48016841F4FB
:1011400000710160016841F480610160016841F44F
:1011500080710160032000F075F80F2000F006F8A0
:1011600000F022F8002080BD003C024070B50D4E1A
:1011700004464FF47A713078B1FBF0F07E4909688B
:10118000B1FBF0F000F050FC01250F2C08D838B965
:101190004FF0FF3021460022002500F02DF874604A
:1011A000284670BD0000002082B000200B4901904D
:1011B0004A6842F480424A604A6802F480420192DE
:1011C000019A0090086840F080500860086800F0BC
:1011D00080500090009802B0704700BF4038024035
:1011E000002805D4734601F0E7F89E46014A88506E
:1011F000704700BF00E100E0F0B5184B4FF0FF363C
:101200001C68C4F30224E51E84F0070438BF0025DF
:1012100006FA05F7BA43042C28BF042406FA04F49E
:10122000A14300F00F04A940043C1143044A2344A5
:1012300009010244002848BF03F10C021170F0BDFF
:1012400000E400E005494FF6FF030A681A4060F326
:101250000A22034810430860704700BF0CED00E00D
:101260000000FA05002852D02DE9F041404B044619
:101270008846D3F8000400F00700884204D283F8BF
:10128000008401F093F84BD12068810711D5410704
:1012900003D5996841F4E0519960010703D5996835
:1012A00041F460419960A1689A6822F0F00211430C
:1012B0009960C0072DD101F079F804D983F8008432
:1012C00001F074F82CD12068410705D5E1689A68CF
:1012D00022F4E05211439960000706D5206999680D
:1012E00021F4604141EAC00098601C4600F048F8D3
:1012F000A168204AC1F30311515CC8401E4908602F
:101300001E480068FFF732FF0020BDE8F081012091
:1013100070476068811E022905D21968890107D4C7
:101320000120BDE8F08101281DD119688903F7D596
:1013300099681D4621F0030108439860FFF7EEFE0F
:10134000064641F288376068A9682B4601F00C0117
:10135000B1EB800FAFD0FFF7E1FE801BB842F2D9AE
:101360000320BDE8F08119688907D9D5E0E700BFFF
:1013700000380240902E00080800002004000020E1
:1013800010B5134C606800F00C00082804D0042845
:1013900014BF1048104810BD226820680023400286
:1013A00002F03F020C485CBF42F20040C0F2F40081
:1013B0002168C1F38811A0FB0101FEF7C5FF216878
:1013C0000222C1F3014102EB4101B0FBF1F010BD7B
:1013D000043802400024F40040787D01002864D0E5
:1013E0002DE9FC4104460078C44EC0070CD0B0681B
:1013F00000F00C00042840F090803068800303D592
:101400006068002800F0A1802078800719D5B068B6
:1014100010F00C0F07D001F038F840F09980706898
:10142000400200F195803068800703D5E06801280C
:1014300040F08B802069316821F0F80141EAC0005A
:1014400030602078000732D42078400742D4A76962
:1014500047B301F01AF840F0AD80012F75D0E16973
:10146000706800F480028A426FD1216A00F03F0266
:101470008A426AD147F6C071626A0140B1EB821FAD
:1014800063D1A16A4FF6FF72C903914300F4403261
:10149000A1F580318A4258D1E16A00F07060B0EB6A
:1014A000016F52D10020BDE8FC81012070476069C6
:1014B00000286ED092480121C0F8801EFFF72EFE52
:1014C0000546706F8007BFD4FFF728FE401B022837
:1014D000F7D9C9E0306C5FEAC0080AD40020019057
:1014E000306C40F080503064306C00F080500190DF
:1014F0000198844F3868C0053DD4386840F4807046
:101500003860FFF70BFE05463868C00533D4FFF797
:1015100005FE401B0228F7D9A6E000F0B6FF03D174
:10152000706840023FF569AF30686168B1F5803F8F
:1015300007D0B1F5A02F40F0828040F480203060C9
:10154000306840F48030306082E00120BDE8FC81EA
:10155000E1686B4800294BD001210160FFF7DEFDF7
:101560000546306880073FF565AFFFF7D7FD401BA4
:101570000228F6D978E0306FA168012905D0052945
:1015800046D140F004003067306F40F00100306712
:1015900047E05B480021C0F8801EFFF7BFFD05460D
:1015A000706F80077FF550AFFFF7B8FD401B022832
:1015B000F6D959E05249002088460866FFF7AEFD8B
:1015C0000546022F09D13068800150D5FFF7A6FDEE
:1015D000411B03200229F6D965E7306880017FF5B9
:1015E00061AFFFF79BFD411B03200229F5D95AE7A4
:1015F00000210160FFF792FD0546306880077FF506
:1016000020AFFFF78BFD411B03200229F5D94AE7E4
:1016100020F0010000293067306F20F004003067AF
:1016200045D0FFF77BFD054641F28837306F8007D4
:101630004CD4FFF773FD401BB842F7D914E020F4F7
:10164000803000293060306820F48020306046D03F
:10165000FFF764FD0546306880033FF5D5AEFFF720
:101660005DFD401B6428F6D90320BDE8FC811C34D5
:101670001FCC0843D90340EA82104FF6FF72914312
:1016800040EA0460A1F58031084370600120C8F889
:101690006000FFF743FD0446306880013FF502AF6C
:1016A000FFF73CFD011B03200229F5D9FBE6FFF7FC
:1016B00035FD054641F28837306F800706D5FFF7C4
:1016C0002DFD411B0320B942F6D9ECE6B8F1000F1D
:1016D0003FF5BDAE306C20F080503064B7E6FFF7C8
:1016E0001DFD0546306880037FF58EAEFFF716FDC1
:1016F000411B03206429F5D9D5E600BF003802401C
:10170000000047420070004070B530B10446406AA6
:1017100028B100202061142006E001254AE060681D
:10172000B0F5827F02D01C20002121500025A56247
:1017300094F8510020B9204684F8505000F03CF84D
:10174000022084F8510094E80F0001F4827102F441
:1017500004420668114403F40062114426F0400676
:101760000660226902F002021144626902F001027D
:101770001144A26902F400731944E36903F03803C9
:101780001944236A03F080031943A36A03F4005346
:1017900019430160042101EA1241626A02F0100259
:1017A00011444160C16921F40061C1610120656596
:1017B00084F85100284670BD70B586B0044601A873
:1017C0001421FEF739FE20682F492E4C884221D083
:1017D0002E49884254D100252D48032600954169A1
:1017E00041F480514161416901F4805100F0BDFD37
:1017F0000520CDE90356059002200290E0200190DB
:10180000009801A92046FFF7B9FB0120CDE9035656
:1018100010252AE000251E4802260095016941F4A2
:1018200000410161016901F40041009100990095B6
:10183000016841F004010160016801F0040100F059
:1018400094FD00980296062005900320CDE90350F0
:101850004FF4E050019004F5006001A9FFF78EFB02
:10186000CDE9035601204FF400450290019501A9EE
:101870002046FFF783FB204629460122FFF748FC5C
:1018800006B070BD00000240003C00400030014046
:10189000303802402DE9F84300F0DDFD04BF02209E
:1018A000BDE8F88301201E4615460F4684F8500017
:1018B000FFF734FC94F851108146012956D1002FCE
:1018C00000F09C80002D00F09980002E00F09680A2
:1018D00094F8510004281CBF052084F85100002012
:1018E0006065E687E686C4E91000A563A6872763DE
:1018F000A68620680168490601D400F02EFEE26841
:10190000DDF820806168B2F5006F3CD109B1012E8D
:1019100001D100F0C6FD012608F10105E08E10B9E5
:10192000E08F002862D000F0CBFD0CD5E18E51B1E4
:10193000012E08D1216B002631F8022BC2602163F1
:10194000E18E0139E1868168C90706D0E18F21B1B6
:10195000A16BC068012600F0ACFDFFF7DFFB002D96
:10196000DCD0A0EB09004045D8D33DE06068B0F57D
:10197000827F06D10220042941D1A16800299ED08E
:101980003DE002203BE009B1012E02D1397800F0A0
:10199000CAFD012608F10105E08E08B9E08F28B3E1
:1019A00000F08EFD0ED5E18E61B1012E0AD1216BC2
:1019B000002609780173216B206801312163E18ED3
:1019C0000139E1868168C90706D0E18F21B1A16B99
:1019D000C068012600F04CFDFFF7A0FB002DDBD016
:1019E000A0EB09004045D7D3032008E0204641463C
:1019F0004A4600F0BDFD50B1202060650120002165
:101A000084F85010012184F85110BDE8F883A168D2
:101A100000200029F3D100902168CA6800928968EB
:101A200000910099EBE70000411E0020B0EB116F20
:101A30001CBF01207047044AF023516003490B701A
:101A4000072190601160704710E000E023ED00E096
:101A50007047704790F83C300222012B2FD010B510
:101A600080F83D2002680B68546824F070041C4321
:101A70009368B2F1804F546014D0434CA24211D00D
:101A8000424CA2420ED0424CA2420BD0414CA24248
:101A900008D0414CA24205D0404CA24202D0404C5A
:101AA000A24204D1496823F08003194391600022C7
:101AB000012180F83C2080F83D10BDE81040104620
:101AC000704700BF58B110B500F025FD03D100F0FC
:101AD000FBFC00F007F800F039FD00F08EBC01209F
:101AE0007047000000680D49884218BF7047E0B594
:101AF0000020002201900A48016841F020010160A5
:101B00000021006800F02000019001983720FFF7C5
:101B100073FB3720BDE88C40FFF762BB0014004028
:101B20004038024090F83D1001291CBF0120704749
:101B3000022180F83D100068C168B0F1804F41F08B
:101B40000101C16014D01049884211D00F49884268
:101B50000ED00F4988420BD00E49884208D00E495A
:101B6000884205D00D49884202D00D49884204D1EF
:101B7000724600F068FC964603D0724600F058FCAE
:101B800096460020704700BF000400400008004057
:101B9000000C0040001800400000014000400140DF
:101BA00000040140704710B50446006801698907C8
:101BB00012D5C16889070FD56FF0020101610121BB
:101BC00021778069800702D000F0AAFC01E000F0D4
:101BD00092FC0020207720680169490713D5C1686D
:101BE000490710D56FF00401016102212177806956
:101BF00010F4407F02D000F093FC01E000F07BFC89
:101C00000020207720680169090712D5C1680907FB
:101C10000FD56FF00801016104212177C0698007A9
:101C200002D000F07DFC01E000F065FC0020207790
:101C300020680169C90613D5C168C90610D56FF0BF
:101C40001001016108212177C06910F4407F02D0A2
:101C500000F066FC01E000F04EFC002020772068D8
:101C60000169C90709D0C168C90706D06FF0010131
:101C70000161204600F02CF820680169090609D5A9
:101C8000C168090606D56FF0800101612046FFF7A3
:101C9000DFFE20680169490609D5C168490606D5F5
:101CA0006FF040010161204600F013F820680169DF
:101CB000890602D5C168890600D410BD6FF02001E5
:101CC00001612046BDE81040FFF7C3BE7047704772
:101CD00070477047FEE700002DE9FE4F804E8146B9
:101CE0000120B0477F4F0120B84709F50A75002051
:101CF00001220024294600F0FFF80120294600F0C7
:101D00008FFA0220B8470120B0470120B84700F001
:101D1000B7FB0320B8470120B0470120B84700F0C7
:101D200061FB18B1611C032C0C46F8D3002840F06D
:101D3000B6809FED690B6C4E09F2462800240027FF
:101D40005BEC10AB0C2F0DD238F8170000F07DFFC4
:101D500000F007FB00F048FF08EB040108340237ED
:101D60008851EFE75E4F09F51276CDF8089009F13A
:101D7000E0044FF0000909F101000C2811D236F8F7
:101D8000190000F062FF00F0ECFA00F02DFF00EE09
:101D9000100A00F09FFA84ED000A09F102091834D4
:101DA000E9E701964F4E0320B0470120B8470120D4
:101DB000B047002029460122002400F09DF80120B0
:101DC000294600F04DFA0220B0470120B847012013
:101DD000B04700F055FB0320B0470120B847012071
:101DE000B04700F0FFFADDF8089028B1022C03D8C4
:101DF00000F06FFB0134F8E7002850D109F1D40658
:101E000000270C2F10D238F8170000F01EFF00F04A
:101E1000A8FA00F0E9FE00EE100A00F05BFA86ED89
:101E2000000A18360237ECE700267427701C0C28CD
:101E30000ED209EB4600B0F8480200F006FF00F0B1
:101E400090FA00F0D1FE49F8070008370236EDE7B6
:101E5000234E0120B047234F0120B84700202946D8
:101E6000012200F049F80120294600F018FA02206A
:101E7000B8470120B0470120B84700F001FB03201C
:101E8000B8470120B0470120B84700F0ABFA28B1AD
:101E9000022C03D800F01DFB0134F8E748B1022002
:101EA000294689F86C00012003B0BDE8F04F00F02E
:101EB000F6B9019E09F1740400252C2D08BFBDE878
:101EC000FE8F36F8020B00F0C0FE00F04AFA00F078
:101ED0008BFE60510435F0E72D431CEBE2361A3FD0
:101EE0004D2B0008A10E00082AFEFFFF00F008B8E5
:101EF00000F0A7B800F02DB900F05BB900F063B9AD
:101F00001CB509014308012401EBC01064F35F0311
:101F100010448DF8043060308DF8050001A800F001
:101F200059FD1CBD042900F28B80F0B5DFE801F0FB
:101F30000361153A0C0002F1BC0100287ED011F8B3
:101F4000AE2C00F0F8FAF8E702F1BC01002875D0D9
:101F500011F89F2C00F0EFFAF8E74FF0000C134651
:101F600084456BD0CCEBCC0492F8DAE0002602EB8F
:101F70004414B64512D09F19B4F8BA5097F85A10C5
:101F8000294403EB46050136A4F8BA1097F85A1015
:101F9000B5F8CA703944A5F8CA10EAE7E0330CF185
:101FA000010CDDE74FF0000C1346844546D092F853
:101FB000DB50CCEBCC04002602EB4414A5F1010E5F
:101FC000764512DA9F19B4F8BA5097F86B10294485
:101FD00003EB46050136A4F8BA1097F86B10B5F874
:101FE000D2703944A5F8D210EAE7E0330CF1010CC5
:101FF000DBE74FF0000C134684451FD0CCEBCC043C
:1020000092F8D9E0002602EB4414B64512D09F198D
:10201000B4F8BA5097F84210294403EB460501364C
:10202000A4F8BA1097F84210B5F8BE703944A5F874
:10203000BE10EAE7E0330CF1010CDDE7BDE8F0404B
:1020400070472DE9FC470746C80092460D46FEF74B
:1020500025F98046FFB100F006FA00260024A542CB
:1020600043D09AF8B910E0430029214618BF41191E
:10207000C8B2C0EBC0010AEB411101F1420201F10B
:102080001E033946009208EBC002E0B200F0CCFC1F
:1020900006440134E3E74FF0010900269AF8D9001D
:1020A0005FFA89F7B84220D300F0DDF90024A54299
:1020B00018D09AF8B910E04342460029214618BFCB
:1020C0004119C8B2C0EBC0000AEB401000F1420158
:1020D00000F11E03E0B20091394600F0A5FC064471
:1020E0000134E4E709F10109D8E728460121524605
:1020F000FFF718FF4046FEF700F9F0B2BDE8FC8795
:102100007CB5013814460D46052817D8DFE800F0E5
:10211000030F090C06124FF480600DE04FF41060BD
:102120000AE04FF4006007E04FF4206004E04FF451
:10213000C06001E04FF43060ADF8040001AE022051
:1021400000F086F900F008F900F045F900F050FCC5
:102150007CBDF0B5C0EBC00000234FF0010C01EBDB
:102160004010014611F8044F082B0CD0D65C0CFA35
:1021700003F744EA0705002E08BF24EA07050D709F
:102180002C460133F0E710F8054F02F10801002258
:102190000123042A08BFF0BD8D5C03FA02F644EA6D
:1021A0000607002D08BF24EA060707703C460132E7
:1021B000EFE7C0EBC00040010B5C03F0FB0362F3F0
:1021C00082030B547047F0B5C1B04FF480720DF12B
:1021D000020300F032F95FFA8CF5854218D291F8CB
:1021E000B9606FEA0C05002E664608BF2E18F5B2DE
:1021F000C5EBC505002601EB4515062E05D0AF5DE4
:10220000D4B2013601321F55F7E70CF1010CE2E7B9
:102210000DF581710DF1020200F0A5FC41B0F0BD99
:102220002DE9FE438846814600276E46012400259D
:102230004D450FD001200297CDE900770C2802D23E
:1022400034540230FAE7E8B241463246FFF752FE14
:102250000135EDE748464146FFF750FEBDE8FE83F5
:102260002DE9FF4188460546002701AE0124AF4213
:102270000FD000200390CDE901000C2802D2345485
:102280000230FAE7F8B241463246FFF733FE013733
:10229000EDE728464146FFF731FEBDE8FF812DE915
:1022A000FF410C46054600270DF104080026B54203
:1022B00009D0F0B2214642460397CDE90177FFF7F6
:1022C00019FE0136F3E728462146FFF717FEBDE861
:1022D000FF8100001848B0EE401A9FED180A011D5A
:1022E0000020202826D011ED012AB4EE412AF1EE7B
:1022F00010FA06DB91ED003AB4EE413AF1EE10FA35
:1023000002DD01300431ECE733EE420A31EE421ACD
:102310000B4981EE001A0A56084490F90100801A10
:1023200000EE100AB8EEC02A00EE102AB8EEC00A7D
:1023300001EE020A704700BFC42E00080000C8C2A8
:10234000A02E000800F0E9B900F0F8B900F0F8B9E3
:1023500000F0F8B9FEE7FEE740BAADF8060000F07D
:102360004DBB52465B4600F083BC0091009900953E
:10237000016841F001010160006800F00100009077
:1023800070474FF482764FF4007301240225C0E9B0
:102390000A212021C0E90822C0E90076C0E9022212
:1023A000C0E90454C0E90631FFF7AEB9D3F8000420
:1023B00000F00700404570471C21012201EAD001CE
:1023C00000F01F0002FA00F07047026802EB0112F1
:1023D000D2F8BC217047E80004212246C3B230463F
:1023E00000F08ABB002001212A46FFF781BD026868
:1023F00002EB0112D2F8B8217047012084F84600A0
:1024000084F83E0084F83F0084F8400084F84100DE
:1024100084F8420084F8430084F8440084F84500BE
:1024200084F83D00002010BD0220214600F024BBAE
:10243000016841F00101016070474FF0000CADF8F8
:10244000022100227047816801F0070106297047C8
:10245000314600F011BB044690F850000128704747
:10246000062000F009BB384629464246FFF748BE21
:102470000870A06B0130A063E08F0138E0877047DF
:10248000012001210022FFF731BDB06800F00C00EF
:10249000082870472068016841F001010160FEF7DB
:1024A0003DBE37F8021BC1602763E08E0138E0862D
:1024B000704721F8020BA163E08F0138E087704775
:1024C0002068816889077047002084F83C00204616
:1024D0007047012000212A46FFF70ABD29462246FF
:1024E0000023FEF7F5BC606A40F40030606205200E
:1024F00084F8200070474DF808ED2046FFF7E6FB12
:1025000020465DF808EBFFF7E2BB416A41F4802109
:10251000416201207047044690F83D000028704752
:102520002046FFF73FBB0173206B01302063E08E34
:102530000138E086704731F8023C0138134421F835
:10254000023C0B881A4421F8E02B70470220211D21
:1025500084F83D00206800F09DB9016841F0400119
:10256000016070470420214600F0AEBA70470000B9
:102570001CB504463F4813460A4611490068B0FBA3
:10258000F1F04FF47A71484301906068B0F5827FB2
:102590000AD12046802100F015F870B1606D40F03E
:1025A0002000606503201CBD019830B101980138FE
:1025B0000190206880680006F6D400201CBD00BF92
:1025C00000366E012DE9FC411E4617460D46804639
:1025D000FEF7A4FD301AC419FEF7A0FD06462548F3
:1025E00001370068C0F3CB3060430190D8F8000099
:1025F00081682940A9420ED1002FF9D0FEF78EFD47
:10260000801BA0420AD2019801990139019100284A
:1026100008BF0446EAE70020BDE8FC81D8E90001D4
:102620004268B1F5827F22F0E00242600BD1D8F817
:102630000810B1F5004F02D0B1F5806F03D10168E9
:1026400021F040010160D8F82810B1F5005F07D1F2
:10265000016821F400510160016841F400510160FA
:10266000002088F85000012088F851000320BDE8C0
:10267000FC8100BF08000020B0B58AB01F48204D83
:10268000002402234FF480114FF44022C0E900538C
:10269000C0E90244C0E9042184618483FEF723FB7E
:1026A00018B1EFF3108072B6FEE7CDE905446C4631
:1026B0000125142120460795FDF7BEFE0E20214678
:1026C000CDE908500D48FEF74FF918B1EFF310802F
:1026D00072B6FEE70948FEF7B6FB18B1EFF31080BB
:1026E00072B6FEE705480221FEF72AF918B1EFF3AA
:1026F000108072B6FEE70AB0B0BD00BFB403002080
:102700000064004080B5FEF717FD00F02DF800F0E2
:1027100073F8BDE88040FFF7AFBFB0B50C46054683
:10272000FEF718FC0220FFF7D9FE18B1EFF3108076
:1027300072B6FEE7BDE8B040FEF7C2BB0068704766
:10274000FFF7E0BFF8B5064800220A21054FFFF762
:1027500018FE18B1EFF3108072B6FEE7F8BD00BFA7
:10276000DC03002000300140B0B592B006AC30214F
:102770002046FDF761FE01A81421FDF75DFE00254E
:102780001B480095016841F080510160006800F02D
:1027900080500090009800951648016841F48041EF
:1027A00001601021006800F48040009001200C9529
:1027B0000B90CDE909010A20069000982046FEF70B
:1027C0000DFE18B1EFF3108072B6FEE70F200295F0
:1027D000CDE9035505950021019001A8FEF742FDC2
:1027E00018B1EFF3108072B6FEE712B0B0BD00BFB3
:1027F00040380240007000401CB52548134C0021B1
:1028000040F2E7320F23CDE900118161C0E90043B6
:10281000C0E90212FFF756F918B1EFF3108072B653
:10282000FEE71B4C69462046FFF714F918B1EFF399
:10283000108072B6FEE72068002141626FF001014E
:1028400001612046FFF76EF91CBD00BF0014004077
:10285000704710B5044600F5447000F087F804F5A1
:102860004B70BDE8104000F081B8FEF75BBC000083
:102870000248016841F470010160704788ED00E092
:1028800080B50348FFF78FF9BDE88040FDF7AEBF84
:102890003404002070B52A4A0368904234D0B0F165
:1028A000804F0BD0274CA04208D0274CA04205D027
:1028B000264CA04202D0264CA04203D14C6823F003
:1028C00070032343B0F1804F22D01E4CA0421FD092
:1028D0001D4CA0421CD01E4CA04219D01D4CA04241
:1028E00016D01D4CA04213D01C4CA04210D0174C47
:1028F000A0420DD01A4CA0420AD01A4CA04207D0D8
:10290000194CA04204D007E04C6823F07003234325
:10291000CC6823F4407323434E6923F080030C6892
:102920008D68334390420360C562846203D002F530
:102930008062904201D1096901630121416170BD4A
:102940000000014000040040000800400004014075
:10295000000C004000180040001C00400020004017
:102960000040014000480140004401400178012935
:102970000ED14168427A0A319142416004D3837B8F
:102980003BB1C9087C2905D8818942898A420AD28B
:1029900070470023818931B1012B0AD0002BF4D17B
:1029A0000022426011E0002141814FF480710180DA
:1029B000704710B5047A0023436001340472E4B216
:1029C0009442BDE81040E0D3037242890132428153
:1029D000DBE7FEE71CB50088ADF8040001ACFFF7AB
:1029E00023FDFFF7B9FCFFF7BDFD00F001F81CBDAA
:1029F000054810210122FEF78BBB00BF02481021C1
:102A00000022FEF785BB00BF00000240FDF7CCFEB0
:102A1000044C2046FFF760F941F28830FEF740FA97
:102A2000F7E700BF700000202DE9F0410C4601EBF4
:102A30004101C000DDF8188003EB41016FF0050390
:102A4000064652FA86F7F6B2955D33B17F780236C4
:102A500045EA0725CD520233F3E7797841EA0525A7
:102A60001118FFF7FDFC281A08EB040118BF01201C
:102A700001F8010CBDE8F081B0B5084B102250B14F
:102A800011F8015BC2F3C71401386C4033F81440ED
:102A900084EA0222F3E7500080B2B0BD482F00085C
:102AA0001CB54FF0FF300DF10702FF210123FF2479
:102AB00000902548FEF7EEFE9DF80710002818BF8D
:102AC000214608461CBD00BF2DE9FC411E4E0C46A8
:102AD00005464FF0FF380DF1070755B13046214646
:102AE0003A460123CDF80080FEF7D4FE0134013DC3
:102AF000F3E7BDE8FC8100BF2DE9FC47DFF8488023
:102B00001C4615460E4607464FF0FF3A0DF10709E1
:102B100056B1404639464A460123CDF800A0FEF79B
:102B2000B9FE0137013EF3E7074E4FF0FF374CB1D6
:102B30003046FF212A4601230097FEF7ABFE013500
:102B4000013CF4E7BDE8FC877C04002010B5044696
:102B500044B1FFF753FFFF20FFF7A2FFFFF748FF45
:102B6000013CF5E710BD2DE9F8430646C0001746C5
:102B70000D4604305FFA80F84046FDF78FFB0446AF
:102B80002888214620800220FFF776FF40BAA7F16F
:102B90000609608006EB460007EB40050427AEB14E
:102BA00006EB460009EB40016FF0050028B12A5CF6
:102BB000FBB201300137E254F8E7FFF751FCF9B2FC
:102BC00040BA063D013E02376052E8E7FFF716FFC4
:102BD00040462146FFF778FFFFF70AFF2046BDE891
:102BE000F843FDF78ABB000021F0004201F00043EA
:102BF000A2F16052B2F5801F28BFD2F17F6C0BD9D1
:102C00005FEA001C43EAC20242EB507018BF7047F3
:102C100028BF20F001007047B2F5801FBCBF1846E6
:102C200070474FEA410C1CF5001F02D2084600F025
:102C30002AB970B500F0C6F800000089FFF7F6BFAA
:102C40004FF00040A0F580007047B0FA80F310FA12
:102C500003F10AD0C3F11D0303F580634FEA035269
:102C60004FEA415002EBD12170474FF0000070470E
:102C700070B5DFF848C11CEA111E1EBF1CEA13150F
:102C80009EEA0C0F95EA0C0F00F06F8081EA0304B6
:102C90004EEAD47EAE4421EA4C1123EA4C1341F4AF
:102CA000801143F48013AEF17F7EA1FB024CA0FBA8
:102CB0000365361955EB0C05A1FB034C4CF10003E1
:102CC000A0FB021C16EB0C06654153F10003094200
:102CD00018BF46F0010613F4007F0BD14FEA033111
:102CE0004FEA053041EA155140EA165034036FF0BF
:102CF00003020AE04FEAC3214FEAC52041EA5551D9
:102D000040EA5650F4026FF0020202EB2E4201EB51
:102D1000025585EACE710AD05FEA440C18BF24F050
:102D2000004450F1000041F1000120EAD47040F26B
:102D3000FE7C624500D270BDA84214BF4FF08044B3
:102D40004FF04044002E08BF0024BEF1806FA8BFA2
:102D5000A1F1C041BDE8704080F2828001F1C04124
:102D600001F000414FF0000070470CEA13159EEA95
:102D70000C0F18BF95EA0C0F06D081EA030E4FF036
:102D800000000EF0004170BD00F01CF88900013E0B
:102D900000F007B800F009B84FEA430C5FEA5C5C4A
:102DA00008D081EA030100F05BB84FEA410C5FEA0A
:102DB0005C5CF6D102494FF0000070470000FF074D
:102DC0000000F87F0EF1020E2EF0030E5EF8046B89
:102DD000364205D4012A43EB030515F5001F12D82E
:102DE000012841EB010C1CF5001F0CD80ED14FEA55
:102DF000D17C0CEB4C0C0CF1020C15F5001F08BF3C
:102E00004CEBD37C04E04FF0080C01E04FEAD37C9C
:102E10000CEB4C0526FA05F606F00706B6F1040C95
:102E200006D20EEB860CBDE870404CF0010C6047FA
:102E3000DFE80CF0090B02024FF00041A1F5002180
:102E40004FF0000070BD19461046012851EB0104F7
:102E500018BFD4F5001484BF002001F0004170BDFC
:102E60000808A0F500114FEA31017047F1EE100A91
:102E70004FF6FF71C0F2C03120EA010040F040700F
:102E8000E1EE100A7047FF2141EAD050C0057047BB
:102E9000000000000000000001020304060708090A
:102EA000D8DDE2E7ECF1F6FB00050A0F14191E234A
:102EB000282D32373C41464B50555A5F64696E733A
:102EC00078000000F6281C4048E11A409A99194001
:102ED000EC51184066661640E17A1440AE47114046
:102EE00052B80E4048E10A403D0A074033330340E0
:102EF00052B8FE3F8FC2F53F7B14EE3F6666E63F59
:102F000052B8DE3F3D0AD73FD7A3D03F1F85CB3F06
:102F10006666C63FAE47C13FA470BD3F9A99B93FB0
:102F20003D0AB73F3333B33FD7A3B03F295CAF3F30
:102F3000CDCCAC3F1F85AB3F713DAA3FC3F5A83F49
:102F400014AEA73F6666A63F000099C5ABCE320B14
:102F5000CFD8561D6416FDD307F49E31AC3A35FF29
:102F6000C82C51E963E2FA2797AD0E683C63A5A629
:102F70005875C1B0F3BB6A7E9059099C3B97A25229
:102F80005F81C644F44F6D8A2E5BB79E85951C50B9
:102F9000E18378464A4DD38829AFB06A82611BA489
:102FA000E6777FB24DB9D47CB9F6203312388BFD69
:102FB000762EEFEBDDE04425BE0227C715CC8C0949
:102FC00071DAE81FDA1443D1C5F35C366E3DF7F8C9
:102FD0000A2B93EEA1E53820C2075BC269C9F00C49
:102FE0000DDF941AA6113FD4525ECB9BF990605529
:102FF0009D8604433648AF8D55AACC6FFE6467A109
:103000009A7203B731BCA879EBA8726D4066D9A358
:103010002470BDB58FBE167BEC5C75994792DE5768
:103020002384BA41884A118F7C05E5C0D7CB4E0E68
:10303000B3DD2A18181381D67BF1E234D03F49FA68
:10304000B4292DEC1FE7862213A28A67B86C21A948
:10305000DC7A45BF77B4EE7114568D93BF98265D28
:10306000DB8E424B7040E985840F1DCA2FC1B60428
:103070004BD7D212E01979DC83FB1A3E2835B1F028
:103080004C23D5E6E7ED7E283DF9A43C96370FF2B8
:10309000F2216BE459EFC02A3A0DA3C891C3080688
:1030A000F5D56C105E1BC7DEAA543391019A985F68
:1030B000658CFC49CE425787ADA03465066E9FAB48
:1030C0006278FBBDC9B65073D6514F947D9FE45AC8
:1030D0001989804CB2472B82D1A548607A6BE3AE48
:1030E0001E7D87B8B5B32C7641FCD839EA3273F728
:1030F0008E2417E125EABC2F4608DFCDEDC6740308
:1031000089D01015221EBBDBF80A61CF53C4CA0157
:1031100037D2AE179C1C05D9FFFE663B5430CDF567
:103120003026A9E39BE8022D6FA7F662C4695DAC67
:10313000A07F39BA0BB192746853F196C39D5A5867
:10314000A78B3E4E0C45958068310008000000209A
:1031500010000000EC010008783100081000002089
:10316000E80A00000C020008010000001000000046
:083170000024F400000000003F
:040000050800018965
:00000001FF
