:020000040800F2
:10000000E009002055020008BF1A0008FD19000889
:10001000BD1A000885050008A121000800000000A5
:10002000000000000000000000000000F11E0008B9
:10003000A5060008000000002B1C0008FB1F00089C
:100040006F0200086F0200086F0200086F020008CC
:100050006F0200086F0200086F0200086F020008BC
:100060006F0200086F0200086F0200086F020008AC
:100070006F0200086F0200086F0200086F0200089C
:100080006F0200086F0200086F0200086F0200088C
:100090008D0500086F0200086F0200086F0200085B
:1000A0006F0200086F0200086F0200086F0200086C
:1000B0006F0200086F0200086F0200086F0200085C
:1000C0006F0200086F0200086F0200086F0200084C
:1000D0006F0200086F0200086F0200086F0200083C
:1000E0006F0200086F0200086F0200086F0200082C
:1000F0006F0200086F0200086F0200086F0200081C
:100100006F0200086F0200086F0200086F0200080B
:100110006F0200086F0200086F020008112000083B
:100120006F0200086F0200086F0200086F020008EB
:100130006F02000800000000000000006F020008CD
:100140006F0200086F0200086F0200086F020008CB
:100150006F0200086F0200086F0200086F020008BB
:100160006F0200086F0200086F0200086F020008AB
:100170006F0200086F02000800000000000000008D
:100180006F0200086F02000800F002F800F052F859
:1001900014A696E8000CB244B344DA4501D100F04D
:1001A00049F8BAE80F000FA696E83000A5EB040561
:1001B00004EB0607AAEB0704A7F101074FEA1515A0
:1001C0004FEA3414A4F10104AC4201D300F032F838
:1001D00013F0010F18BFFB1A43F0010300F001F800
:1001E000DBE718477C2000009C200000103A24BF69
:1001F00078C878C1FAD8520724BF30C830C144BF8C
:1002000004680C6070470000704700000023002461
:1002100000250026103A28BF78C1FBD8520728BF16
:1002200030C148BF0B6070471FB502F004F81FBD16
:1002300010B510BD00F0D0F81146FFF7F5FF01F042
:10024000F3FF00F0EEF803B4FFF7F2FF03BC00F099
:10025000F5F800000948804709480047FEE7FEE737
:10026000FEE7FEE7FEE7FEE7FEE7FEE7FEE7FEE766
:1002700004480549054A064B704700000120000864
:1002800089010008E0030020E0090020E0050020CB
:10029000E005002053EA020C00F069802DE9F04BE4
:1002A0004FF00006002B1FBFB3FA83F503FA05F4E5
:1002B00024FA05F65E4012BF1643B2FA82F502FA3E
:1002C00005F4C5F120051EBF22FA05FC44EA0C0422
:1002D000203556EA044C4FEA144418BF641C4FF012
:1002E00000084FF00009904271EB030C39D300294C
:1002F00019BFB1FA81F701FA07F6B0FA80F700FAF0
:1003000007F6C7F120071EBF20FA07FC46EA0C06D5
:100310002037B6FBF4FCA7EB0507103F07F01F0BD7
:10032000CBF120062CFA06F60CFA0BFB44BFB346C1
:100330000026202FA4BF5E464FF0000B5BEA060CA0
:1003400008BF4FF0010B19EB0B0948EB0608ABFB9C
:10035000027C06FB02CC0BFB03CCC01B71EB0C0137
:10036000C1E70B46024641464846BDE8F08B13B54F
:10037000084318BF4FF0FF300146AFF30080BDE8DF
:100380001C4070474FF0000200B513469446964655
:10039000203922BFA0E80C50A0E80C50B1F1200198
:1003A000BFF4F7AF090728BFA0E80C5048BF0CC046
:1003B0005DF804EB890028BF40F8042B08BF7047A4
:1003C00048BF20F8022B11F0804F18BF00F8012B16
:1003D0007047704770477047754600F02BF8AE467F
:1003E00005006946534620F00700854618B020B541
:1003F000FFF73EFFBDE820404FF000064FF000073A
:100400004FF000084FF0000BAC46ACE8C009ACE878
:10041000C009ACE8C009ACE8C00921F007018D466D
:10042000704710B50446AFF300802046BDE8104089
:10043000FFF709BF0048704710000020014918204D
:10044000ABBEFEE726000200704710B5044601F07F
:10045000D6FA204600F0BEF8204600F0CFF820463D
:1004600000F0F8F82046BDE8104001F06EBD10B570
:10047000044690F89C00022808D0012810D0A0B9AA
:10048000204600F067F92046C82105E0204600F02C
:100490005DF920464FF49671BDE8104001F081BE31
:1004A0002046BDE8104000F055B910BDB0B5094D6B
:1004B00004463C30A84704F16C00A84704F14C0006
:1004C000A84704F15C00A8472046BDE8B04001F011
:1004D00010BD00BF3B2100087047000070B5044606
:1004E00001F013FD204600F027F8124E04F13C0005
:1004F000012100226423B04704F16C050121002290
:100500004FF4C8732846B047284601F010FE04F1A6
:100510004C00012100223223B04704F15C0001218C
:1005200000224FF47A73B0472046BDE8704001F0D6
:1005300083BA00BF01210008002149F698027829FA
:1005400008BF704743180531A3F80021F7E780B5CD
:1005500001F0A5FABDE8804001F090BA10B504465C
:1005600000F5027001F0FAFC04F5097001F0F6FCE8
:1005700001F09CFA2046FFF77AFF2046BDE81040C4
:10058000FFF763BFFEE700F079B8000010B5084C34
:10059000204600F039FA4248002100F1180200F12B
:1005A0003403204600F0CDF9BDE81040FFF7EBBF63
:1005B000B0020020FEB5002100F10C02CDE90211CD
:1005C0000188009181780491C11C684601F05DFAB0
:1005D00006B080BD10B5044690F83D00012818BF54
:1005E00010BD204600F05FF804F13C0001F097FDDB
:1005F00004F10800BDE81040FFF7DCBFB0B50446C9
:1006000090F84D00012818BFB0BD204604F14C05FC
:1006100000F058F804F10800FFF7CCFF94F8DC0173
:10062000013084F8DC01C0B204280ED3002084F825
:10063000DC01284601F07EFD04F15C0001F077FD4D
:100640002046BDE8B04001F0B8BD2846BDE8B04046
:1006500001F065BD10B5044690F85D00012818BF93
:1006600010BD04F15C0001F065FD04F14C0001F0E7
:100670005EFD2046BDE8104001F0A3BD0848FFF72D
:100680002BBF00BF0648FFF729BF00BFFFF75FBFC2
:100690000348FFF763BF00BF0148FFF707BF00BF74
:1006A000700000207047032190F8782190F879318C
:1006B00081724FF48071018190F89C100373427332
:1006C000C172704770B504464FF400701B4E208114
:1006D000082004F58075A07294F8DC01C0EB0010CE
:1006E00015F91000B047E07294F8DC0100EB40000F
:1006F0004000013000EB80002856B047207301F025
:10070000DFF990F90A00B047607301F0D9F990F968
:100710000F00B047A07301F0D3F990F91400B0476F
:10072000E07301F0CDF990F91900B047207494F806
:10073000780194F879116174A07470BD311A0008C1
:10074000002001F0AAB9012001F0A7B9002180F82A
:1007500009127047012180F809127047B0B50546AB
:1007600090F80D02012810D195F8090205F50374DF
:1007700003280BD0022808D195F8080298B1002070
:1007800085F80802FFF7DFFF12E0B0BDFFF7D8FFE2
:10079000012085F80802204601F0CCFC2046BDE887
:1007A000B04001F0B6BC012085F80802FFF7C8FF91
:1007B0002046BDE8B04001F0B2BC90F82020013ADC
:1007C000012A04D8006800F11402002004E000F1BE
:1007D000240201204FF480211368194311607047EF
:1007E00070B590F820600468013EA568012E0CD811
:1007F00015F0E05F0CD0C5F30165032D0ED100F1BB
:10080000240101204FF4000231E001F0F3F92EE061
:1008100000F1240101204FF4001228E00120A8403B
:100820001860886828B14B68CE6846EAC303034362
:1008300003E00868CB6843EA405304EB0510C0F8B6
:1008400080310B69C0F88431097D012905D100F59B
:10085000C2710B6843F480730B605168C0F88C114F
:1008600011680122C0F8881100F5C07100200B68E2
:100870001A430A6070BD000090F82020013A012A56
:1008800028D8F0B52D48026842F0010202600268E3
:1008900022F47C5202604C69CD694A6A036843EADB
:1008A00002220123026004F01F0203FA02F2C3696C
:1008B0009343C361D343012D0ED005BBC5681D40D2
:1008C000C56000EBC405CE688F8847EA06462E64F3
:1008D0000D460DE001F099B9C5681543C56000EB00
:1008E000C4050E688F8847EA06462E6401F10C05A0
:1008F0008E682D8800EBC40445EA064565644468AB
:100900008F690E69096A44EA0205002F08BF04EAEC
:1009100003054560002E446944EA020508BF04EA65
:1009200003050129456102D1C1691143C161016813
:1009300021F0010101600020F0BD00BF0066004011
:10094000704770B590F82040013C012C03D8046832
:1009500021B1256903E001F04DF951E0E568AD07EB
:1009600044D004EB0114D4F8B05115F0040595609F
:1009700004F5D875D4F8B06119BFF6085660760D45
:1009800016602D6805F00205D560D4F8B45105F065
:100990000F051561D4F8B451C5F307259561D4F856
:1009A000B4512D0C5561D4F8B8211A7001F0C7F874
:1009B000120A5A7001F0C3F8120C9A7001F0BFF8D5
:1009C000120EDA7001F0ADF81A7101F0AAF8120AED
:1009D0005A7101F0A6F8120C9A7101F0A2F8120EE9
:1009E000DA71006841B100F1100107E000F1240163
:1009F00001204FF4001203E000F10C01002020223E
:100A00000B681A430A6070BD2DE9F84F0446006870
:100A10004669D0F804908768D0F80CB0D0F810A0E0
:100A2000D0F81880F10701D1002545E0F9070FD073
:100A300001218160B80708D4780720D4380700F175
:100A4000B880204600F0ADF902E0204600F0AAF997
:100A50000025F80518D520684FF480718160B8052D
:100A600009D478050ED438054EBF05F580452046DB
:100A700000F099F908E0204600F096F904E04FF400
:100A80000065E6E705F50055F80315D520684FF435
:100A900080318160B80309D478030BD438034EBF8A
:100AA00005F58035204600F080F905E0204600F08D
:100AB0007DF901E005F50045300748BF5FEACB60EE
:100AC0004FD4700748BF5FEA0B7050D4B00706D50B
:100AD0002068C068800702D0204600F038F9700610
:100AE00048BF5FEACA6049D4B00648BF5FEA0A70EF
:100AF0004AD4F00606D520680069800702D0204657
:100B000000F027F9B00348BF5FEAC96043D4F0039F
:100B100048BF5FEA097045D4300463D55FEA497085
:100B20005DD508EA1620F20508F0010100F0020088
:100B300048BF0844720508F0040148BF0844054353
:100B400030054CD518F0700049D010380009052840
:100B500040D8DFE800F0033134373A3D45F008056E
:100B600038E02068102145F40075C160A9E72068CD
:100B70000821C160204600F0E9F8A7E720681021AD
:100B800045F480650161AFE72068082101612046D6
:100B900000F0DEF8ADE7206810214160204600F04B
:100BA000D9F8B4E7206808214160204600F0FFF83A
:100BB000B2E74FF480554CE745F010050AE045F0E8
:100BC000200507E045F0400504E045F0800501E020
:100BD00045F480752068816921F070018161206889
:100BE000042141603DB1606A284360622046BDE84F
:100BF000F84FFFF7A5BEBDE8F88FA0B170B5044669
:100C000090F8200010B9204600F064F800F0CFFF03
:100C1000054620684168C90707D100F09FF9401BCD
:100C20000B28F6D311E001207047016821F0020182
:100C3000016000F093F905462068416889070BD5EB
:100C400000F08CF9401B0B28F6D3606A052140F4B4
:100C50000030606201203AE0217E026822F08002CA
:100C6000012908BF80320260617E026822F04002E2
:100C7000012908BF40320260A17E026822F02002F2
:100C8000012908BF20320260E17E026822F01002D2
:100C9000012918BF10320260217F026822F0080289
:100CA000012908BF08320260617F026822F0040255
:100CB000012908BF04320260261D6ECE1A432A4362
:100CC000013932431143C16100200121606284F87F
:100CD000201070BD01681B48814200D07047FEB5EE
:100CE0000021194A00F5D0300191136943F00073D7
:100CF0001361136903F000730193019B0091136862
:100D000043F002031360126802F00202009209220B
:100D100005920322CDE90312022102914FF44071A2
:100D20000191009901A900F043F81420002100224C
:100D300000F0B0F9142000F0A1F906B0BDE8804041
:100D4000704700BF00640040303802407047704771
:100D5000704770477047B0B5044690F820000128EE
:100D600016D1022084F820002068016821F00101DA
:100D7000016000F0F3F8054620684068C0070DD018
:100D800000F0ECF8401B0B28F6D300F021FF03E045
:100D9000606A40F4002060620120B0BD0020606203
:100DA000B0BD7047704770477047704770477047D5
:100DB0002DE9F04F85B0604A08244FF0010A4FF04A
:100DC000000B90425D4A08BF07248305024443EAB2
:100DD0009222072A38BF1446CDE9010100940198F8
:100DE00000270022BBF1100F00F0A28003970F68CC
:100DF0000AFA0BF917EA0908039F00F09480D1F86A
:100E000004C0032303FA07F60CF0030EF543AEF11A
:100E10000106012E13D88668D1F80CA00AFA07F44F
:100E20002E404FF0010A34438460CCF3001446682E
:100E300004FA0BF426EA09063443446005E0BEF1E7
:100E4000030F02D14FF0030E21E0C46802998E68AF
:100E50002C40BE403443BEF1020FC46017D102F0F3
:100E60001C040F2303FA04FC6FF0030303EA5B0383
:100E700003441E6A029926EA0C0C0E6906FA04F471
:100E800044EA0C041C62D1F804C00CF0030E0468A0
:100E90000EFA07F32C40234303601CF4403F0299F1
:100EA00041D00023284C264F2BF0030604932368DF
:100EB0003E4443F48043236023680F2403F48043BB
:100EC000049302F00C03049D9C40204DAC467559E0
:100ED00025EA0404009D05FA03F3234346F80C3089
:100EE0003B684D6843EA0804EE0358BF23EA080450
:100EF0003C60AE037B6843EA080458BF23EA080459
:100F00007C60EE02BB680F4E43EA080458BF23EA38
:100F10000804BC60AD02039F336843EA080458BF6D
:100F200023EA08043460023704320BF1010B59E75D
:100F300005B0BDE8F08F00BF001C02400000FEBFFE
:100F4000003C01400C3C01404438024008FCFFFFDB
:100F5000002A08BF09048161704700001C4800682E
:100F6000704700BF18B3B0B5044600684CF6CC43D8
:100F7000D4E90112036045F2555303604160826079
:100F8000FFF7ECFF05462068C16889070AD0FFF724
:100F9000E5FF401B3228F6D32068C0688007F2D0F6
:100FA0000320B0BD4AF6AA2101600020B0BD012097
:100FB000704700684AF6AA210160002070470000CF
:100FC0001F48034900780A6810440860704700BF52
:100FD000DC03002080B50B48016841F4007101601A
:100FE000016841F480610160016841F48071016031
:100FF000032000F075F80F2000F006F800F022F84A
:10100000002080BD003C024070B50D4E04464FF4F8
:101010007A713078B1FBF0F07E490968B1FBF0F0ED
:1010200000F096FB01250F2C08D838B94FF0FF309F
:1010300021460022002500F02DF87460284670BD7E
:101040000000002082B000200B4901904A6842F461
:1010500080424A604A6802F480420192019A0090FC
:10106000086840F080500860086800F080500090E8
:10107000009802B0704700BF40380240002805D4F5
:10108000734600F045FD9E46014A8850704700BFF8
:1010900000E100E0F0B5184B4FF0FF361C68C4F3D8
:1010A0000224E51E84F0070438BF002506FA05F780
:1010B000BA43042C28BF042406FA04F4A14300F028
:1010C0000F04A940043C1143044A2344090102448B
:1010D000002848BF03F10C021170F0BD00E400E0ED
:1010E00005494FF6FF030A681A4060F30A220348D5
:1010F00010430860704700BF0CED00E00000FA05E7
:10110000002852D02DE9F041404B04468846D3F8E0
:10111000000400F00700884204D283F8008400F045
:10112000F1FC4BD12068810711D5410703D599689F
:1011300041F4E0519960010703D5996841F4604199
:101140009960A1689A6822F0F00211439960C00783
:101150002DD100F0D7FC04D983F8008400F0D2FC34
:101160002CD12068410705D5E1689A6822F4E05245
:1011700011439960000706D52069996821F4604100
:1011800041EAC00098601C4600F048F8A168204A77
:10119000C1F30311515CC8401E4908601E48006835
:1011A000FFF732FF0020BDE8F08101207047606842
:1011B000811E022905D21968890107D40120BDE8E2
:1011C000F08101281DD119688903F7D599681D465A
:1011D00021F0030108439860FFF7C0FE064641F284
:1011E00088376068A9682B4601F00C01B1EB800FCD
:1011F000AFD0FFF7B3FE801BB842F2D90320BDE8A1
:10120000F08119688907D9D5E0E700BF00380240AE
:1012100050220008080000200400002010B5134CE4
:10122000606800F00C00082804D0042814BF10489F
:10123000104810BD226820680023400202F03F02DF
:101240000C485CBF42F20040C0F2F4002168C1F3D8
:101250008811A0FB0101FFF71DF821680222C1F3EC
:10126000014102EB4101B0FBF1F010BD0438024036
:101270000024F40040787D01002864D02DE9FC4171
:1012800004460078C54EC0070CD0B06800F00C00D2
:10129000042840F090803068800303D560680028FF
:1012A00000F0A1802078800719D5B06810F00C0FED
:1012B00007D000F077FC40F099807068400200F1A0
:1012C00095803068800703D5E068012840F08B8066
:1012D0002069316821F0F80141EAC00030602078CF
:1012E000000732D42078400742D4A76947B300F002
:1012F00059FC40F0AC80012F75D0E169706800F4B2
:1013000080028A426FD1216A00F03F028A426AD18C
:1013100047F6C071626A0140B1EB821F63D1A16AD6
:101320004FF6FF72C903914300F44032A1F58031BA
:101330008A4258D1E16A00F07060B0EB016F52D17F
:101340000020BDE8FC8101207047616994480029B4
:101350006DD00121C0F8801EFFF700FE0546706FBA
:101360008007BFD4FFF7FAFD401B0228F7D9CCE075
:10137000306C5FEAC0080AD400200190306C40F065
:1013800080503064306C00F0805001900198854F9F
:101390003868C0053DD4386840F480703860FFF785
:1013A000DDFD05463868C00533D4FFF7D7FD401B87
:1013B0000228F7D9A9E000F0F5FB03D170684002DC
:1013C0003FF569AF6068B0F5803F07D0B0F5A02F5A
:1013D00040F08580306840F480203060306840F410
:1013E0008030306085E00120BDE8FC81E0680028A5
:1013F0004CD06B4801210160FFF7B0FD0546306815
:1014000080073FF565AFFFF7A9FD401B0228F6D91D
:101410007BE0A068012805D0052848D1306F40F056
:1014200004003067306F40F00100306749E0002170
:10143000C0F8801EFFF792FD0546706F80077FF5AC
:1014400051AFFFF78BFD401B0228F6D95DE05449F0
:10145000002088460866FFF781FD0546022F0AD165
:1014600047463068800153D5FFF778FD411B0320C4
:101470000229F6D965E7306880017FF561AFFFF793
:101480006DFD411B03200229F5D95AE7444800218C
:101490000160FFF763FD0546306880077FF51FAFE9
:1014A000FFF75CFD411B03200229F5D949E7316FA5
:1014B000002821F001013167316F21F0040131670B
:1014C00045D0FFF74BFD054641F28837306F800766
:1014D0004CD4FFF743FD401BB842F7D915E0316803
:1014E000002821F480313160316821F4802131609D
:1014F00045D0FFF733FD0546306880033FF5D2AE97
:10150000FFF72CFD401B6428F6D90320BDE8FC81C1
:101510001C341FCC0843D90340EA82104FF6FF72F7
:10152000914340EA0460A1F58031084370600120D6
:101530003866FFF713FD0446306880013FF500AFC1
:10154000FFF70CFD011B03200229F5D9F9E6FFF78F
:1015500005FD054641F28837306F800706D5FFF755
:10156000FDFC411B0320B942F6D9EAE6B8F1000FB1
:101570003FF5BBAE306C20F080503064B5E6FFF72D
:10158000EDFC0546306880037FF58CAEFFF7E6FC86
:10159000411B03206429F5D9D3E600BF003802407F
:1015A000000047420070004070B538B10446406A00
:1015B00030B10020206104F1140007E001254BE068
:1015C0006068B0F5827F03D004F11C000021016047
:1015D0000025A56294F8510020B9204684F85050A7
:1015E00000F03CF8022084F8510094E80F0001F468
:1015F000827102F404420668114403F4006211444B
:1016000026F040060660226902F002021144626977
:1016100002F001021144A26902F400731944E36963
:1016200003F038031944236A03F080031943A36AC3
:1016300003F4005319430160042101EA1241626A74
:1016400002F0100211444160C16921F40061C161DE
:101650000120656584F85100284670BD2DE9F041F0
:1016600086B0044601A81421FEF78CFE2068354997
:10167000334E88421ED0344988425DD10020334920
:10168000102500904A6942F480524A614A6902F486
:1016900080520092009A0090086840F001000860B3
:1016A0000868052100F001000090E02001900098FA
:1016B000304627E0002125484FF40045009102699B
:1016C00042F400420261026902F400420092009A70
:1016D0000091026842F004020260026802F0040213
:1016E0000092009A0091016841F001010160062119
:1016F000006800F00100009000984FF4E050019065
:1017000006F50060059103210DF10408002702246D
:101710000491414603970294FFF74AFB012041469A
:10172000CDE90374CDE901503046FFF741FB304667
:1017300029460122FFF70CFC06B0BDE8F08100BF8E
:1017400000000240003C00400030014030380240C0
:10175000411E0020B0EB116F1CBF01207047044AEE
:10176000F023516003490B700721906011607047AE
:1017700010E000E023ED00E07047704790F83C3047
:101780000222012B2FD010B580F83D2002680B6893
:10179000546824F070041C439368B2F1804F546085
:1017A00014D0434CA24211D0424CA2420ED0424C23
:1017B000A2420BD0414CA24208D0414CA24205D0DB
:1017C000404CA24202D0404CA24204D1496823F0CE
:1017D0008003194391600022012180F83C2080F8A9
:1017E0003D10BDE810401046704700BF58B110B51D
:1017F00000F006FA03D100F0E1F900F007F800F07C
:101800000DFA00F0A2B901207047000000680D49F0
:10181000884218BF7047E0B50020002201900A48B6
:10182000016841F0200101600021006800F0200003
:10183000019001983720FFF72DFC3720BDE88C4040
:10184000FFF71CBC001400404038024090F83D10E7
:1018500001291CBF01207047022180F83D1000685B
:10186000C168B0F1804F41F00101C16014D010494E
:10187000884211D00F4988420ED00F4988420BD0C0
:101880000E49884208D00E49884205D00D49884249
:1018900002D00D49884204D1724600F072F9964692
:1018A00003D0724600F068F996460020704700BFEA
:1018B0000004004000080040000C004000180040F8
:1018C000000001400040014000040140704710B595
:1018D000044600680169890712D5C16889070FD5D8
:1018E0006FF002010161012121778069800702D038
:1018F00000F091F901E000F073F9002020772068F2
:101900000169490713D5C168490710D56FF0040173
:10191000016102212177806910F4407F02D000F03C
:101920007AF901E000F05CF9002020772068016975
:10193000090712D5C16809070FD56FF008010161C9
:1019400004212177C069800702D000F064F901E02A
:1019500000F046F90020207720680169C90613D5F8
:10196000C168C90610D56FF0100101610821217707
:10197000C06910F4407F02D000F04DF901E000F0A2
:101980002FF90020207720680169C90709D0C168B4
:10199000C90706D06FF001010161204600F02CF864
:1019A00020680169090609D5C168090606D56FF0E6
:1019B000800101612046FFF7DFFE206801694906CA
:1019C00009D5C168490606D56FF04001016120467E
:1019D00000F013F820680169890602D5C1688906FC
:1019E00000D410BD6FF0200101612046BDE8104019
:1019F000FFF7C3BE7047704770477047FEE710B5EA
:101A0000044690F86D00012811D104F16C0000F03B
:101A100091FB04F13C0000F08AFB04F14C0000F063
:101A200086FB204600F0CDFB012084F89C0010BD11
:101A300080F07F00C0B27047B0B500F16C0504467D
:101A4000012100220A23284600F05AFB28460121E2
:101A500000220A2300F054FB4FF40040E549A4F8AB
:101A6000FC010548C4E97D101021A4F8E811D8490B
:101A7000C4E97810B0BD00BF0000024080B500F09E
:101A800010F8BDE8804000F00EB800F013B900F087
:101A90002FB900F047B900F061B900F069B900F062
:101AA00087B900F087B900F097B900000248807943
:101AB00000B1704700F016BA70000020FEE7FEE7A4
:101AC00094F8DC01C0EB001005EB400070470546C0
:101AD00000F50A700C4600F011BB4FF482764FF40B
:101AE000007301240225C0E90A212021C0E908224F
:101AF000C0E90076C0E90222C0E90454C0E9063119
:101B0000FFF752BDD3F8000400F0070040457047CE
:101B10001C21012201EAD00100F01F0002FA00F0AE
:101B20007047026802EB0112D2F8BC2170470068CE
:101B300000F00400009000982046FFF709BA026800
:101B400002EB0112D2F8B8217047012084F8460058
:101B500084F83E0084F83F0084F8400084F8410097
:101B600084F8420084F8430084F8440084F8450077
:101B700084F83D00002010BD016841F001010160C2
:101B80007047816801F0070106297047C5F83C429B
:101B900085F82502B0BD05950095016841F0040166
:101BA00001607047B06800F00C000828704720689A
:101BB000016841F001010160FFF7D0B9002084F80D
:101BC0003C002046704700202070284600F0A7BA4D
:101BD000606A40F400306062052084F8200070479D
:101BE0004DF808ED2046FFF705FF20465DF808EBAD
:101BF000FFF701BF00F1240101204FF4802270475C
:101C0000044690F83D0000287047416A41F4802165
:101C10004162012070472046FFF758BE0220211D77
:101C200084F83D00206800F0FDB97047B0B58AB077
:101C300027481F4D002402234FF480114FF4402207
:101C4000C0E90053C0E90244C0E9042184618483EF
:101C5000FEF7D3FF18B1EFF3108072B6FEE7CDE9BF
:101C600005446C460125142120460795FEF78AFBA2
:101C70000E202146CDE908501548FEF7FDFD18B1AC
:101C8000EFF3108072B6FEE71148FFF764F818B161
:101C9000EFF3108072B6FEE70D480221FEF78DFDCE
:101CA00018B1EFF3108072B6FEE70AB0B0BD00BF06
:101CB0000064004080B513460A4601460448FEF71A
:101CC0008FFD18B1EFF3108072B6FEE780BD00BF44
:101CD000B002002080B5FFF77DF900F08FF800F02A
:101CE00053F800F0D3F8BDE88040FFF79FBF000035
:101CF00070B586B000251848224C00224FF480763B
:101D0000FFF749FF4FF48071FFF711FF0120CDE984
:101D10000355CDE9016001A92046FFF749F806B057
:101D200070BD00BF70B586B000250B48154C002271
:101D30004FF40076FFF72FFF4FF40071FFF7F7FE27
:101D40000120CDE90355CDE9016001A92046FFF747
:101D50002FF806B070BD00BF3038024001384FF494
:101D60008071B0FA80F042090648FFF7F1B800BF71
:101D700001384FF40071B0FA80F042090148FFF7D2
:101D8000E7B800BF0008024080B55848074B40F64E
:101D9000FF710222C0E900328160FFF7E3F818B159
:101DA000EFF3108072B6FEE780BD00BF0030004048
:101DB000FFF790BFF8B5064800220A21054FFFF74C
:101DC0008CFE18B1EFF3108072B6FEE7F8BD00BFCD
:101DD000D802002000300140F8B5064800220A2150
:101DE000054FFFF77AFE18B1EFF3108072B6FEE7E9
:101DF000F8BD00BF30030020003C0040B0B592B0F9
:101E000006AC2C21201DFEF7BDFA01A81421FEF717
:101E1000B9FA00251B480095016841F08051016026
:101E2000006800F080500090009800951648016806
:101E300041F4804101601021006800F4804000906E
:101E400001200C950B90CDE909010A20069000981D
:101E50002046FFF711FA18B1EFF3108072B6FEE7D3
:101E60000F200295CDE9035505950021019001A8A9
:101E7000FFF746F918B1EFF3108072B6FEE712B023
:101E8000B0BD00BF40380240007000401CB564483F
:101E9000134C002140F2E7320F23CDE9001181619C
:101EA000C0E90043C0E90212FFF7A0FC18B1EFF34C
:101EB000108072B6FEE75A4C69462046FFF75EFC7A
:101EC00018B1EFF3108072B6FEE72068002141627E
:101ED0006FF0010101612046FFF7B8FC1CBD00BF97
:101EE000001400400148FFF764B800BFD003002091
:101EF000704710B5044600F5037000F01EF904F5B4
:101F00000A70BDE8104000F018B970B50446FFF73C
:101F1000C0FDFFF7BCFD002504F503700121002280
:101F2000C8230126A4F8095284F81C5200F0E8F8EE
:101F3000A4F8255284F8386204F50A7001210022C1
:101F40003223BDE8704000F0DBB810B5044600F065
:101F50003CF92046BDE81040FEF700BCB0B5044691
:101F60004078A178814243D004F10405A07088B97B
:101F700001202070284600F0DDF8284600F0C9F85E
:101F8000207D012803D020B9FEF7DAFB01E000F044
:101F90000EF96078012810D100202070284600F04A
:101FA000C9F8284600F0B5F8207D012803D020B9F3
:101FB000FEF7C9FB01E000F0FDF8607802280BD1C4
:101FC000FFF701FE207D012803D020B9FEF7BBFBFF
:101FD00001E000F0EFF86078032809D1FFF7F3FD86
:101FE000207D012805D018B9BDE8B040FEF7ABBB95
:101FF000B0BDBDE8B04000F0DDB8FEF7E1BF0000C5
:102000000248016841F470010160704788ED00E00A
:1020100080B50348FFF75BFCBDE88040FEF73CBBA2
:102020008803002070B52A4A0368904234D0B0F18A
:10203000804F0BD0274CA04208D0274CA04205D09F
:10204000264CA04202D0264CA04203D14C6823F07B
:1020500070032343B0F1804F22D01E4CA0421FD00A
:102060001D4CA0421CD01E4CA04219D01D4CA042B9
:1020700016D01D4CA04213D01C4CA04210D0174CBF
:10208000A0420DD01A4CA0420AD01A4CA04207D050
:10209000194CA04204D007E04C6823F0700323439E
:1020A000CC6823F4407323434E6923F080030C680B
:1020B0008D68334390420360C562846203D002F5A9
:1020C0008062904201D1096901630121416170BDC3
:1020D00000000140000400400008004000040140EE
:1020E000000C004000180040001C00400020004090
:1020F0000040014000480140004401408181704798
:1021000041720021827383814181017241600180AB
:1021100070470021418101800172416070470021B8
:1021200001800172416041810121017070470121EC
:1021300001707047002101707047017801292ED18C
:102140004168427A837B0A319142416002D30BB9E4
:10215000002303E0B1F57A7F08D33BB18189C9B18F
:10216000012B05D09BB9002242600DE081890EE071
:1021700010B5047A0023436001340472E4B294423F
:10218000BDE8104003D30372428901324281428983
:102190008A4204D3002141814FF48071018070474D
:1021A000FEE7B0B5FFF793FC0220FFF7EFBC00207D
:1021B000FFF771BC0120FFF76EBC002180F82512EB
:1021C0007047012180F825127047B0B5054690F898
:1021D0002902012810D195F8250205F50A74032873
:1021E0000BD0022808D195F8240298B1002085F878
:1021F0002402FFF7DFFF12E0B0BDFFF7D8FF012098
:1022000085F824022046FFF795FF2046BDE8B04040
:10221000FFF77FBF012085F82402FFF7C8FF2046A3
:10222000BDE8B040FFF77BBFFEF730FAFEF72AFAB1
:10223000FEF72EFAFCE7F1EE100A4FF6FF71C0F23E
:10224000C03120EA010040F04070E1EE100A704712
:102250000000000000000000010203040607080956
:10226000802200080000002010000000EC0100089F
:102270009022000810000020D00900000C02000885
:1022800001000000100000000024F4000000000025
:040000050800018965
:00000001FF
