:020000040800F2
:10000000300A00202D80000857A30008759D0008C5
:1000100055A300083D85000899AC000800000000C9
:10002000000000000000000000000000E9A9000836
:100030002D86000800000000CBA50008F3AA0008E8
:100040004780000847800008478000084780000874
:100050004780000847800008478000084780000864
:100060004780000847800008478000084780000854
:100070004780000847800008478000084780000844
:100080004780000847800008478000084780000834
:100090004585000847800008478000084780000821
:1000A0004780000847800008478000084780000814
:1000B0004780000847800008478000084780000804
:1000C00047800008478000084780000847800008F4
:1000D00047800008478000084780000847800008E4
:1000E00047800008478000084780000847800008D4
:1000F00047800008478000084780000847800008C4
:1001000047800008478000084780000847800008B3
:1001100047800008478000084780000809AB0008B6
:100120004780000847800008478000084780000893
:100130004780000800000000000000004780000821
:100140004780000847800008478000084780000873
:100150004780000847800008478000084780000863
:100160004780000847800008478000084780000853
:1001700047800008478000080000000000000000E1
:10018000478000084780000800F002F807F03EFFB3
:1001900014A696E8000CB244B344DA4501D107F046
:1001A00035FFBAE80F000FA696E83000A5EB04056E
:1001B00004EB0607AAEB0704A7F101074FEA1515A0
:1001C0004FEA3414A4F10104AC4201D307F01EFF3E
:1001D00013F0010F18BFFB1A43F0010300F001F800
:1001E000DBE718474400000064000000103A24BF19
:1001F00078C878C1FAD8520724BF30C830C144BF8C
:1002000004680C6070470000704700000023002461
:1002100000250026103A28BF78C1FBD8520728BF16
:1002200030C148BF0B607047480200080000002042
:1002300010000000EC010008580200081000002027
:10024000200A00000C02000801000000100000005D
:080250000024F400000000008E
:020000040800F2
:108000001FB502F090FE1FBD10B510BD00F0D0F8F6
:108010001146FFF7F5FF02F07FFE00F0EEF803B423
:10802000FFF7F2FF03BC00F0F5F8000009488047B5
:1080300009480047FEE7FEE7FEE7FEE7FEE7FEE74A
:10804000FEE7FEE7FEE7FEE704480549054A064B62
:1080500070470000F9AA00088901000830040020D8
:10806000300A0020300600203006002053EA020CBF
:1080700000F069802DE9F04B4FF00006002B1FBF88
:10808000B3FA83F503FA05F424FA05F65E4012BF4D
:108090001643B2FA82F502FA05F4C5F120051EBFB7
:1080A00022FA05FC44EA0C04203556EA044C4FEA57
:1080B000144418BF641C4FF000084FF000099042B0
:1080C00071EB030C39D3002919BFB1FA81F701FA1A
:1080D00007F6B0FA80F700FA07F6C7F120071EBFCF
:1080E00020FA07FC46EA0C062037B6FBF4FCA7EBA7
:1080F0000507103F07F01F0BCBF120062CFA06F600
:108100000CFA0BFB44BFB3460026202FA4BF5E46EB
:108110004FF0000B5BEA060C08BF4FF0010B19EBA8
:108120000B0948EB0608ABFB027C06FB02CC0BFB01
:1081300003CCC01B71EB0C01C1E70B460246414664
:108140004846BDE8F08B13B5084318BF4FF0FF3029
:108150000146AFF30080BDE81C4070474FF00002BD
:1081600000B5134694469646203922BFA0E80C502D
:10817000A0E80C50B1F12001BFF4F7AF090728BF08
:10818000A0E80C5048BF0CC05DF804EB890028BF84
:1081900040F8042B08BF704748BF20F8022B11F0AD
:1081A000804F18BF00F8012B704770477047704729
:1081B000754600F02BF8AE4605006946534620F0A0
:1081C0000700854618B020B5FFF73EFFBDE8204008
:1081D0004FF000064FF000074FF000084FF0000B83
:1081E000AC46ACE8C009ACE8C009ACE8C009ACE8F2
:1081F000C00921F007018D46704710B50446AFF362
:1082000000802046BDE81040FFF709BF00487047D6
:108210001000002001491820ABBEFEE72600020036
:108220007047B0B5002300210022A0F8F031B3F56B
:10823000907F10D0C41894F8DB50012D04BF013298
:1082400080F8F02194F8D940012C04BF013180F866
:10825000F1110C33EBE7130606D0CBB2D4B29C423B
:108260000AD9042380F86C30D2B2C9B2914202D943
:10827000032180F86C10B0BDA342F9D8FBE710B51C
:10828000044601F078FD204600F080F9204600F019
:1082900091F92046BDE8104002F0D3BB10B504466A
:1082A00090F85002012805D194F86C0040F00200CB
:1082B000022800D110BD022084F85002204601F0AF
:1082C000F7FD204600F06EF82046FFF7AAFF0549AB
:1082D000204640F8081F00F049F9002084F85002B9
:1082E00010BD00BF6000010110B5044690F86C009D
:1082F000042888BF10BDDFE800F003201016090035
:10830000204600F0FBF92046C82112E0204600F08C
:10831000F1F920464FF47A710BE020464FF4FA71E0
:1083200000F0DCF902E0204600F0E4F920464FF4CA
:10833000FA71BDE8104002F0B0BC2046BDE8104024
:1083400000F0DCB9B0B5044690F85002022805D020
:1083500094F86C0040F00200022800D1B0BD074D37
:1083600004F13C00A84704F15C00A84704F14C006C
:10837000A8472046BDE8B04002F037BB33AC000848
:108380008169502902D190F8501201B1704790F8DC
:108390006C1041F0020102291CBF012180F850122B
:1083A00070470000F0B59FED352A9FED353A9FEDFF
:1083B000354A314C00F1D0014FF0000EB6EE000A04
:1083C000B1EE041A4FF0010C00250026B5F5907FA0
:1083D00008BFF0BD471997ED346A97ED355A35EE71
:1083E000467AB0EEC77AB4EE407AF1EE10FA04DDC8
:1083F00097F8DA2022B1C7F8D0400C350136E5E70E
:10840000B4EE417AF1EE10FA0DDDB4EE425AF1EE1F
:1084100010FA04DCB5EE405AF1EE10FA03DA25EE5C
:10842000035A06EE045AB4EE425A87ED345AF1EE7E
:1084300010FA09DD97F8D830032B12D206EB46026A
:1084400001EB8202083209E0B5EE405AF1EE10FA73
:108450000ADA3A4612F8D83F022B0AD801331370D1
:10846000CBE787F8DBC0C8E787F8DBE087F8D9E01F
:10847000C3E787F8D9C0C0E70000D74200007042C8
:10848000CDCCCC3D6666663F70B5044602F0B9FAC5
:10849000204600F021F80F4E04F13C00012100229B
:1084A0004FF4C873B04704F15C05012100224FF47A
:1084B0007A732846B047284602F0B5FB04F14C0019
:1084C000012100223223B0472046BDE8704001F070
:1084D000B5BC00BFF9AB0008B0B5074B074C00F1C5
:1084E00070010022B2F5907F08BFB0BD85180C3234
:1084F000C5E9343310C1F5E70000C841666666403F
:1085000080B501F019FFBDE8804001F0B7BD10B59E
:10851000044600F51C7002F09DFA04F5157002F097
:1085200099FA2046FFF7BAFE01F00CFF2046FFF74C
:10853000DBFE2046BDE81040FFF7A1BEFEE700F0DD
:1085400061B8000010B5084C204600F02FFA3648FC
:10855000002100F1180200F13403204600F0C5F9B3
:10856000BDE81040FFF7EBBFFC020020FEB5002184
:1085700000F10C02CDE9021101880091817804918B
:10858000C11C684601F0CEFE06B080BD10B50446A1
:1085900090F83D00012818BF10BD204600F047F8B4
:1085A00004F13C0002F037FB04F10800BDE8104084
:1085B000FFF7DCBFB0B5044690F84D00012818BFA6
:1085C000B0BD94F8240204F14C05032803D82046DA
:1085D00000F039F804E0062802D8204600F05BF8E5
:1085E00004F10800FFF7C2FF94F824020130C1B281
:1085F000062988BF002084F824022846BDE8B04040
:1086000002F009BB0848FFF7BBBE00BF0648FFF7F2
:108610003BBF00BFFFF774BF0348FFF778BF00BF41
:108620000148FFF78FBE00BF700000207047032194
:1086300081724FF48071018190F86C10C172B0F8B2
:10864000F01181817047F8B504460820A07294F8B3
:10865000240200F1510100EB400040002181C1B231
:10866000122917D8490004F10B06002751FA80F0AF
:1086700004EB800000F1D005062F07D095ED000A2D
:1086800001F0B8FBF0550C350137F5E7B4F8F0010F
:10869000A4F81100F8BDF8B50821817290F82412F1
:1086A00001F1510202816FF01F0202EBC104E1B23D
:1086B000172900D9F8BD00F1700500F10B0600275D
:1086C000082FF7D044EA0700C0B205EB800090ED18
:1086D000000A01F069FBF0550137F1E7B0B501F090
:1086E00076FE022001F03EBF002001F023BE0120F3
:1086F00001F020BE002180F855127047012180F85A
:1087000055127047B0B5054690F85902012810D1AE
:1087100095F8550205F5167403280BD0022808D1E8
:1087200095F8540298B1002085F85402FFF7DFFF56
:1087300012E0B0BDFFF7D8FF012085F854022046B3
:1087400002F074FA2046BDE8B04002F05EBA0120A3
:1087500085F85402FFF7C8FF2046BDE8B04002F09C
:108760005ABA90F82020013A012A04D8006800F192
:108770001402002004E000F1240201204FF48021C3
:10878000136819431160704770B590F82060046851
:10879000013EA568012E0CD815F0E05F0FD0C5F39F
:1087A0000165032D11D100F1240301204FF40001D4
:1087B00031E000F1240301204FF480212BE000F18F
:1087C000240301204FF4001125E00120A840186087
:1087D000886828B14B68CE6846EAC303184303E0B3
:1087E0000868CB6843EA40502B0104F5C074E050A0
:1087F00004EB05130C69184640F8044F097D012964
:1088000003D1016841F48071016050680121D86092
:108810001068986000201A681143196070BD00004C
:1088200090F82020013A012A28D8F0B52D48026896
:1088300042F001020260026822F47C5202604C693C
:10884000CD694A6A036843EA02220123026004F008
:108850001F0203FA02F2C3699343C361D343012D9C
:108860000ED005BBC5681D40C56000EBC405CE68D1
:108870008F8847EA06462E640D460DE001F07ABE69
:10888000C5681543C56000EBC4050E688F8847EACC
:1088900006462E6401F10C058E682D8800EBC40499
:1088A00045EA0645656444688F690E69096A44EAC9
:1088B0000205002F08BF04EA03054560002E446945
:1088C00044EA020508BF04EA03050129456102D113
:1088D000C1691143C161016821F0010101600020FB
:1088E000F0BD00BF00660040704770B590F82040B2
:1088F000013C012C03D8046839B1256906E000F178
:10890000240101204FF480224CE0E568AD073FD000
:108910000D0104F5D876745914F00404946006EB44
:108920000114755919BFED0855606D0D1560256866
:1089300005F00205D560656805F00F0515616568ED
:10894000C5F30725956165682D0C5561A2681A70FD
:1089500001F067FD120A5A7001F063FD120C9A7063
:1089600001F05FFD120EDA7001F02BFD1A7101F0BB
:1089700028FD120A5A7101F024FD120C9A7101F0BF
:1089800020FD120EDA71006841B100F1100107E01C
:1089900000F1240101204FF4001203E000F10C016A
:1089A000002020220B681A430A6070BD2DE9F84FA1
:1089B000044600684669D0F804908768D0F80CB087
:1089C000D0F810A0D0F81880F10701D1002545E0BB
:1089D000F9070FD001218160B80708D4780720D4A7
:1089E000380700F1B880204600F0AFF902E02046D9
:1089F00000F0ACF90025F80518D520684FF4807117
:108A00008160B80509D478050ED438054EBF05F548
:108A10008045204600F09BF908E0204600F098F9D8
:108A200004E04FF40065E6E705F50055F80315D5B9
:108A300020684FF480318160B80309D478030BD4E7
:108A400038034EBF05F58035204600F082F905E079
:108A5000204600F07FF901E005F50045300748BFEA
:108A60005FEACB604FD4700748BF5FEA0B7050D409
:108A7000B00706D52068C068800702D0204600F005
:108A80003AF9700648BF5FEACA6049D4B00648BFE9
:108A90005FEA0A704AD4F00606D5206800698007AC
:108AA00002D0204600F029F9B00348BF5FEAC96050
:108AB00043D4F00348BF5FEA097045D4300463D55E
:108AC0005FEA49705DD508EA1620F20508F0010159
:108AD00000F0020048BF0844720508F0040148BFD6
:108AE0000844054330054CD518F0700049D01038C3
:108AF0000009052840D8DFE800F0033A3437313D5B
:108B000045F0080538E02068102145F40075C16083
:108B1000A9E720680821C160204600F0EBF8A7E72C
:108B20002068102145F480650161AFE720680821C5
:108B30000161204600F0E0F8ADE7206810214160B7
:108B4000204600F0DBF8B4E72068082141602046A9
:108B500000F001F9B2E74FF480554CE745F080058D
:108B60000AE045F0200507E045F0400504E045F047
:108B7000100501E045F480752068816921F07001DD
:108B800081612068042141603DB1606A28436062D0
:108B90002046BDE8F84FFFF7A7BEBDE8F88FA0B1AB
:108BA00070B5044690F8200010B9204600F064F833
:108BB00001F097FC054620684168C90707D100F01D
:108BC000ABF9401B0B28F6D311E001207047016878
:108BD00021F00201016000F09FF90546206841681C
:108BE00089070BD500F098F9401B0B28F6D3606A73
:108BF000052140F40030606201203AE0217E0268E5
:108C000022F08002012908BF80320260617E026882
:108C100022F04002012908BF40320260A17E0268B2
:108C200022F02002012908BF20320260E17E0268A2
:108C300022F01002012918BF10320260217F026861
:108C400022F00802012908BF08320260617F026831
:108C500022F00402012908BF04320260261D6ECEF4
:108C60001A432A43013932431143C16100200121D3
:108C7000606284F8201070BD10B586B0044601A86B
:108C80001421FFF76BFA2168184881422CD100218A
:108C9000174A00F5D0300091136943F00073136157
:108CA000136903F000730093009B0091136843F075
:108CB00002031360126802F0020200920922059278
:108CC0000322CDE90312022102914FF44071019178
:108CD000009901A900F050F814200021002200F0B2
:108CE000B7F9142000F0A8F906B010BD00640040E8
:108CF0003038024070477047704770477047B0B5D2
:108D0000044690F82000012816D1022084F82000A3
:108D10002068016821F00101016000F0FDF80546BE
:108D200020684068C0070DD000F0F6F8401B0B2803
:108D3000F6D301F005FC03E0606A40F400206062B5
:108D40000120B0BD00206062B0BD70477047704721
:108D50007047704770477047B0B5044600F0DCF8C4
:108D60000546A648611C007818BF044400F0D4F8FA
:108D7000401BA042FAD3B0BD2DE9FE4F5D4A082446
:108D80004FF0010B4FF0000C90425B4A08BF0724E4
:108D900002444FEAB223072B38BF4FEAB22400F156
:108DA00020020194009200250022102A08BFBDE88D
:108DB000FE8F0C680BFA02FA14EA0A0900F095809B
:108DC000D1F804E0032303FA0CF40EF00308E643A1
:108DD000A8F10104012C12D88468D1F80CB00BFA68
:108DE0000CF734404FF0010B3C438460CEF3001489
:108DF0004768944027EA0A073C43446005E0B8F11D
:108E0000030F02D14FF0030823E0C4688F68344099
:108E100007FA0CF73C43B8F1020FC46019D105F012
:108E20001C040F23A84603FA04F76FF0030303EAB8
:108E3000520E009B1D4653F80E30BB430F6907FAD4
:108E400004F4234345F80E304546D1F804E00EF013
:108E50000308046808FA0CF3344023431EF4403F2F
:108E6000036042D00023274C244EA8460293236877
:108E700043F48043236023680F2403F48043029368
:108E800005F00C0322F00305029F35449C401E4F61
:108E9000BE46EF5927EA0404019F07FA03F3234370
:108EA00045F80E3033684D6843EA0904EF0358BFB4
:108EB00023EA09043460AF03736843EA090458BF26
:108EC00023EA09047460EF02B36843EA090458BF57
:108ED00023EA0904B4600A4EAD024546336843EA0A
:108EE000090458BF23EA090434600CF1020C04356C
:108EF00001325AE7001C02400000FEBF003C014066
:108F00000C3C01404438024008FCFFFF002A08BF27
:108F100009048161704700001C480068704700BF69
:108F200018B3B0B5044600684CF6CC43D4E901123E
:108F3000036045F25553036041608260FFF7ECFF28
:108F400005462068C16889070AD0FFF7E5FF401B86
:108F50003228F6D32068C0688007F2D00320B0BD65
:108F60004AF6AA2101600020B0BD012070470068C8
:108F70004AF6AA2101600020704700001F480349FB
:108F800000780A6810440860704700BF2804002079
:108F900080B50B48016841F400710160016841F43B
:108FA00080610160016841F480710160032000F07C
:108FB00075F80F2000F006F800F022F8002080BDC0
:108FC000003C024070B50D4E04464FF47A71307883
:108FD000B1FBF0F07E490968B1FBF0F000F074FDE0
:108FE00001250F2C08D838B94FF0FF302146002258
:108FF000002500F02DF87460284670BD00000020A8
:1090000082B000200B4901904A6842F480424A60D5
:109010004A6802F480420192019A0090086840F088
:1090200080500860086800F080500090009802B0FE
:10903000704700BF40380240002805D4734601F055
:10904000B7F99E46014A8850704700BF00E100E032
:10905000F0B5184B4FF0FF361C68C4F30224E51E30
:1090600084F0070438BF002506FA05F7BA43042C3C
:1090700028BF042406FA04F4A14300F00F04A94019
:10908000043C1143044A234409010244002848BF18
:1090900003F10C021170F0BD00E400E005494FF649
:1090A000FF030A681A4060F30A220348104308606D
:1090B000704700BF0CED00E00000FA05002852D018
:1090C0002DE9F041404B04468846D3F8000400F0F7
:1090D0000700884204D283F8008401F063F94BD181
:1090E0002068810711D5410703D5996841F4E05103
:1090F0009960010703D5996841F460419960A168BE
:109100009A6822F0F00211439960C0072DD101F056
:1091100049F904D983F8008401F044F92CD120687E
:10912000410705D5E1689A6822F4E052114399603D
:10913000000706D52069996821F4604141EAC00022
:1091400098601C4600F048F8A168204AC1F303115A
:10915000515CC8401E4908601E480068FFF732FF96
:109160000020BDE8F081012070476068811E02295F
:1091700005D21968890107D40120BDE8F0810128D2
:109180001DD119688903F7D599681D4621F003019F
:1091900008439860FFF7C0FE064641F288376068D2
:1091A000A9682B4601F00C01B1EB800FAFD0FFF79F
:1091B000B3FE801BB842F2D90320BDE8F0811968E4
:1091C0008907D9D5E0E700BF0038024040AD00086C
:1091D000080000200400002010B5134C606800F067
:1091E0000C00082804D0042814BF1048104810BDF3
:1091F000226820680023400202F03F020C485CBF56
:1092000042F20040C0F2F4002168C1F38811A0FBD3
:109210000101FEF72BFF21680222C1F3014102EB9D
:109220004101B0FBF1F010BD043802400024F4000D
:1092300040787D01002864D02DE9FC410446007887
:10924000C44EC0070CD0B06800F00C00042840F0F9
:1092500090803068800303D56068002800F0A1800A
:109260002078800719D5B06810F00C0F07D001F0F6
:1092700033F940F099807068400200F195803068C1
:10928000800703D5E068012840F08B8020693168B1
:1092900021F0F80141EAC00030602078000732D4A4
:1092A0002078400742D4A76947B301F015F940F090
:1092B000AD80012F75D0E169706800F480028A42A8
:1092C0006FD1216A00F03F028A426AD147F6C0712D
:1092D000626A0140B1EB821F63D1A16A4FF6FF724F
:1092E000C903914300F44032A1F580318A4258D13C
:1092F000E16A00F07060B0EB016F52D10020BDE870
:10930000FC8101207047606900286ED092480121DD
:10931000C0F8801EFFF700FE0546706F8007BFD4BF
:10932000FFF7FAFD401B0228F7D9C9E0306C5FEA6D
:10933000C0080AD400200190306C40F080503064A6
:10934000306C00F0805001900198844F3868C0055F
:109350003DD4386840F480703860FFF7DDFD054685
:109360003868C00533D4FFF7D7FD401B0228F7D972
:10937000A6E001F0B1F803D1706840023FF569AF93
:1093800030686168B1F5803F07D0B1F5A02F40F09B
:10939000828040F480203060306840F4803030605B
:1093A00082E00120BDE8FC81E1686B4800294BD0D8
:1093B00001210160FFF7B0FD0546306880073FF5E9
:1093C00065AFFFF7A9FD401B0228F6D978E0306FA2
:1093D000A168012905D0052946D140F00400306775
:1093E000306F40F00100306747E05B480021C0F873
:1093F000801EFFF791FD0546706F80077FF550AF27
:10940000FFF78AFD401B0228F6D959E05249002097
:1094100088460866FFF780FD0546022F09D13068AF
:10942000800150D5FFF778FD411B03200229F6D9B2
:1094300065E7306880017FF561AFFFF76DFD411B87
:1094400003200229F5D95AE700210160FFF764FDE6
:109450000546306880077FF520AFFFF75DFD411BB3
:1094600003200229F5D94AE720F0010000293067DE
:10947000306F20F00400306745D0FFF74DFD054602
:1094800041F28837306F80074CD4FFF745FD401B11
:10949000B842F7D914E020F48030002930603068F9
:1094A00020F48020306046D0FFF736FD0546306856
:1094B00080033FF5D5AEFFF72FFD401B6428F6D99A
:1094C0000320BDE8FC811C341FCC0843D90340EACB
:1094D00082104FF6FF72914340EA0460A1F580319B
:1094E000084370600120C8F86000FFF715FD0446CE
:1094F000306880013FF502AFFFF70EFD011B03202E
:109500000229F5D9FBE6FFF707FD054641F288374A
:10951000306F800706D5FFF7FFFC411B0320B942DF
:10952000F6D9ECE6B8F1000F3FF5BDAE306C20F097
:1095300080503064B7E6FFF7EFFC054630688003E3
:109540007FF58EAEFFF7E8FC411B03206429F5D9B7
:10955000D5E600BF003802400000474200700040DE
:1095600070B530B10446406A28B100202061142053
:1095700006E001254AE06068B0F5827F02D01C2039
:10958000002121500025A56294F8510020B9204601
:1095900084F8505000F03CF8022084F8510094E820
:1095A0000F0001F4827102F404420668114403F4CE
:1095B0000062114426F040060660226902F00202B1
:1095C0001144626902F001021144A26902F40073BD
:1095D0001944E36903F038031944236A03F0800354
:1095E0001943A36A03F4005319430160042101EAFB
:1095F0001241626A02F0100211444160C16921F413
:109600000061C1610120656584F85100284670BD84
:109610002DE9F04186B0044601A81421FEF79EFD15
:1096200020683549334E88421ED0344988425DD186
:1096300000203349102500904A6942F480524A6163
:109640004A6902F480520092009A0090086840F043
:10965000010008600868052100F001000090E0208A
:1096600001900098304627E0002125484FF400453E
:109670000091026942F400420261026902F4004270
:109680000092009A0091026842F0040202600268AF
:1096900002F004020092009A0091016841F0010179
:1096A00001600621006800F00100009000984FF46E
:1096B000E050019006F50060059103210DF10408CA
:1096C000002702240491414603970294FFF754FBBC
:1096D00001204146CDE90374CDE901503046FFF742
:1096E0004BFB304629460122FFF710FC06B0BDE8CF
:1096F000F08100BF00000240003C0040003001400B
:10970000303802402DE9F843044640681D461746AC
:109710000E46B0F5827F02D1A068002870D094F880
:109720005000012804BF0220BDE8F8834FF0010972
:1097300084F85090FFF7F0FB804694F85100012820
:1097400059D1002E59D0002F57D0042084F8510051
:1097500000206065E787A787A663A0862063C4E929
:109760001000E086A1682068B1F5004F07D10168BC
:1097700021F040010160016821F48041016001682D
:10978000490601D400F01CFFE0686E1C18B3E08F9E
:1097900020B320688168C90708D1FFF7BDFB002E00
:1097A000F5D0A0EB0800A842F1D334E0A16BC0686B
:1097B00000F0A6FEEBE720688168C90707D1FFF734
:1097C000ABFB46B1A0EB0800A84204D323E0007B2A
:1097D000A16B00F059FEE08F0028ECD1204629460D
:1097E000424600F0F3FE08B120206065606D00285D
:1097F00018BF012002E0022000E0012000F038BE86
:109800000420314632463B4600F081FE009500F0D0
:1098100091F8BDE8F8830320F0E72DE9F84300F064
:109820002EFE04BF0220BDE8F8834FF001091D465B
:1098300016460F4684F85090FFF76EFB804694F86A
:109840005100012844D1002F44D0002E42D00320E3
:1098500084F8510000206065E686A6862763A0870D
:10986000A063C4E91000E087A1682068B1F5004F4B
:1098700007D1016821F040010160016841F4804195
:1098800001600168490601D400F09AFEE26861684F
:10989000B2F5006F20D109B1012E01D100F028FEF0
:1098A0006E1CE08E90B300F036FE08D4FFF734FB58
:1098B000002EF6D0A0EB0800A842F2D337E0216BCF
:1098C00031F8022BC2602163E08E0138E086E8E7C0
:1098D00002202DE001202BE009B1012E02D13978C0
:1098E00000F05FFE6E1CE08E80B100F014FE08D424
:1098F000FFF712FB002EF6D0A0EB0800A842F2D32F
:1099000015E0216B097800F04CFEECE72046294673
:10991000424600F083FE08B120206065A06808B9C7
:1099200000F02EFE606D002818BF012000E003202B
:1099300000F09EBD2DE9F84300F0A1FD04BF022018
:10994000BDE8F88301201E4615460F4684F85000F6
:10995000FFF7E2FA94F851108146012956D1002F01
:1099600000F09C80002D00F09980002E00F0968081
:1099700094F8510004281CBF052084F851000020F1
:109980006065E687E686C4E91000A563A6872763BD
:10999000A68620680168490601D400F011FEE2683D
:1099A000DDF820806168B2F5006F3CD109B1012E6D
:1099B00001D100F09DFD012608F10105E08E10B9EE
:1099C000E08F002862D000F0A6FD0CD5E18E51B1E9
:1099D000012E08D1216B002631F8022BC2602163D1
:1099E000E18E0139E1868168C90706D0E18F21B196
:1099F000A16BC068012600F083FDFFF78DFA002DF2
:109A0000DCD0A0EB09004045D8D33DE06068B0F55C
:109A1000827F06D10220042941D1A16800299ED06D
:109A20003DE002203BE009B1012E02D1397800F07F
:109A3000B8FD012608F10105E08E08B9E08F28B3D2
:109A400000F069FD0ED5E18E61B1012E0AD1216BC6
:109A5000002609780173216B206801312163E18EB2
:109A60000139E1868168C90706D0E18F21B1A16B78
:109A7000C068012600F008FDFFF74EFA002DDBD08C
:109A8000A0EB09004045D7D3032008E0204641461B
:109A90004A4600F0C3FD50B120206065012000213E
:109AA00084F85010012184F85110BDE8F883A168B2
:109AB00000200029F3D100902168CA6800928968CB
:109AC00000910099EBE70000411E0020B0EB116F00
:109AD0001CBF01207047044AF023516003490B70FA
:109AE000072190601160704710E000E023ED00E076
:109AF0007047704790F83C300222012B2FD010B5F0
:109B000080F83D2002680B68546824F070041C4300
:109B10009368B2F1804F546014D0434CA24211D0EC
:109B2000424CA2420ED0424CA2420BD0414CA24227
:109B300008D0414CA24205D0404CA24202D0404C39
:109B4000A24204D1496823F08003194391600022A6
:109B5000012180F83C2080F83D10BDE810401046FF
:109B6000704700BF58B110B500F013FD03D100F0ED
:109B7000D6FC00F007F800F01CFD00F058BC0120F6
:109B80007047000000680D49884218BF7047E0B573
:109B90000020002201900A48016841F02001016084
:109BA0000021006800F02000019001983720FFF7A5
:109BB0004FFA3720BDE88C40FFF73EBA0014004052
:109BC0004038024090F83D1001291CBF0120704729
:109BD000022180F83D100068C168B0F1804F41F06B
:109BE0000101C16014D01049884211D00F49884248
:109BF0000ED00F4988420BD00E49884208D00E493A
:109C0000884205D00D49884202D00D49884204D1CE
:109C1000724600F028FC964603D0724600F01EFC07
:109C200096460020704700BF000400400008004036
:109C3000000C0040001800400000014000400140BE
:109C400000040140704710B50446006801698907A7
:109C500012D5C16889070FD56FF00201016101219A
:109C600021778069800702D000F098FC01E000F0C5
:109C70006FFC0020207720680169490713D5C1686F
:109C8000490710D56FF00401016102212177806935
:109C900010F4407F02D000F081FC01E000F058FC9D
:109CA0000020207720680169090712D5C1680907DB
:109CB0000FD56FF00801016104212177C069800789
:109CC00002D000F06BFC01E000F042FC00202077A5
:109CD00020680169C90613D5C168C90610D56FF09F
:109CE0001001016108212177C06910F4407F02D082
:109CF00000F054FC01E000F02BFC002020772068ED
:109D00000169C90709D0C168C90706D06FF0010110
:109D10000161204600F02CF820680169090609D588
:109D2000C168090606D56FF0800101612046FFF782
:109D3000DFFE20680169490609D5C168490606D5D4
:109D40006FF040010161204600F013F820680169BE
:109D5000890602D5C168890600D410BD6FF02001C4
:109D600001612046BDE81040FFF7C3BE7047704751
:109D700070477047FEE710B5044690F85D00012873
:109D800011D104F15C0000F051FF04F13C0000F03F
:109D90004AFF04F14C0000F046FF204600F089FF26
:109DA000012084F86C0010BDB0EE001AB6EE002A57
:109DB000B4EE410AF1EE10FAB8BFB0EE410A9FEDE1
:109DC0000B1AB4EE410AF1EE10FAC8BFB0EE410A28
:109DD000B8EE001A30EE010A9FED051A00EE012AD6
:109DE000BDEEC20A10EE100A704700BF9A9991406A
:109DF0000000C842BBEE041AB4EE410AF1EE10FABC
:109E0000B8BFB0EE410A9FED0C1AB4EE410AF1EE74
:109E100010FAC8BFB0EE410AB3EE041A30EE010AE0
:109E2000B6EE001A30EE000A30EE010ABDEEC00AAE
:109E300010EE100A704700BF0000D74270B504460C
:109E40004FF400401849A4F84402164804F50A7576
:109E5000C4E98F101021A4F830121449C4E98A1003
:109E6000002084F84D0284F83902284600F050F9A9
:109E700004F50F76304600F04BF90120FEF76CFF39
:109E8000284600F09EF9304600F09BF994F839021C
:109E9000012803D094F84D02012802D1022084F851
:109EA0006C0070BD000002407C03002024030020F1
:109EB0002DE9F0478CB000F50A788246404600F064
:109EC00027F90AF50F79484600F022F93F4C0120A6
:109ED0000126A047404600F049F9484600F046F9FF
:109EE0000520A047404600F009F9484600F006F971
:109EF0000320A04706AF4046394600F073F96D468F
:109F00004846294600F06EF90AF1E0040C2E02D210
:109F100000F063FAFAE70AF1700000210C2902D27E
:109F200000F0BFFAFAE7404600F04BF9484600F06F
:109F300048F90520FEF710FF9AF83902012803D0EE
:109F40009AF84D02012802D102208AF86C0040469E
:109F500000F021F9484600F01EF90520FEF7FCFE4E
:109F6000404600F0CBF8484600F0C8F80320FEF762
:109F7000F3FE4046394600F035F94846294600F0E0
:109F800031F90AF1D40400260C2E02D200F025FA91
:109F9000FAE70AF1740001210C2902D200F081FADB
:109FA000FAE7404600F00DF9484600F00AF99AF841
:109FB0003902012803D09AF84D02012802D102206B
:109FC0008AF86C000CB0BDE8F08700BF598D00081E
:109FD000F0B51023002244F299548A420FD0855CD8
:109FE00083EAC5130025082D07D284EA43065F04DF
:109FF00058BF5E0001353346F5E70132EDE798B210
:10A000004008F0BD2DE9F04186B0044600250F461A
:10A010008DF816100DF116000221984616468DF89F
:10A020001720CDE90255FFF7D3FF8DF80700000A8E
:10A030008DF805608DF8047004238DF80600082063
:10A04000009001A902AE2046324600F03CF8BDF86F
:10A050000E4030460621FFF7BBFF21BAB0EB114F8F
:10A0600008D1BDF808000125A8F80000DDF80A00B5
:10A07000C8F80200284606B0BDE8F08180B500F0BF
:10A080005DF9BDE8804000F05BB970B50E4604464E
:10A090000189406815460022FEF738FF20683146E6
:10A0A0002A46C823FFF7B9FB00F043FA05B16674EE
:10A0B00070BD10B504460068C823FFF7AEFB08B1B9
:10A0C0000120607410BDF8B50F4604460189406850
:10A0D000164600221D46FEF719FF206839462A461B
:10A0E000C823FFF79AFB2068069A3146C823FFF77A
:10A0F00009FB00F01EFA05B16674F8BDE0B503492E
:10A100000422019101A9FFF7C0FF8CBD0360F46C2C
:10A1100000210122FFF7B9BF1FB5044612480621EE
:10A12000039004F10A00FFF753FF40BAD4F80A1075
:10A130000022ADF80A00E08901912189ADF80800FC
:10A140006068FEF7E3FE03A920460422FFF7B1FF93
:10A1500001A920460822FFF7ACFF2189606801228F
:10A16000FEF7D4FE1FBD00BF00013D6EB0B5044632
:10A17000007C012802BF01206074B0BD00200125D1
:10A18000C4F80A0040F6AA20A572E0812046FFF735
:10A19000C3FF2574B0BD10B50446007CFF280DD068
:10A1A0000020C4F80A0040F25550E0810120A0725E
:10A1B0002046FFF7B1FFFF20207410BD012060741E
:10A1C00010BDB0B50446007C40B100252046E581B5
:10A1D000C4F80A50FFF7A0FF2574B0BD01206074D9
:10A1E000B0BD0000BCB50C460546FFF787FF0DF17A
:10A1F00002032846042100F0BAF980B1BDF802003C
:10A200009FED2B1A00F0AEF82080BDF8040000F09E
:10A21000A9F86080BDF8060000F0A4F8A0800DF158
:10A2200002032846062100F0A2F980B1BDF8020021
:10A230009FED1F1A00F096F8E080BDF8040000F0D2
:10A2400091F82081BDF8060000F08CF860810DF1D6
:10A2500002032846082100F08AF980B1BDF8020007
:10A260009FED131A00F07EF8A081BDF8040000F005
:10A2700079F8E081BDF8060000F074F820820DF155
:10A28000020328460A2100F072F980B1BDF80200ED
:10A290009FED071A00F066F86082BDF8040000F038
:10A2A00061F8A082BDF8060000F05CF8E082BCBD59
:10A2B00017B7D1381848B0EE401A9FED180A011DA3
:10A2C0000020202826D011ED012AB4EE412AF1EE1B
:10A2D00010FA06DB91ED003AB4EE413AF1EE10FAD5
:10A2E00002DD01300431ECE733EE420A31EE421A6E
:10A2F0000B4981EE001A0A56084490F90100801AB1
:10A3000000EE100AB8EEC02A00EE102AB8EEC00A1D
:10A3100001EE020A704700BF74AD00080000C8C219
:10A3200050AD000800F042BA00F05EBA00F076BA14
:10A3300000F090BA00F098BA00F0B6BA00F0B6BAE1
:10A3400000F0C6BA0248807900B1704700F046BB01
:10A3500070000020FEE7FEE7054600F51D700C4684
:10A3600000F048BC00EE100AB8EE400A20EE010AE8
:10A37000BDEEC00A10EE100A70474FF482764FF41B
:10A38000007301240225C0E90A212021C0E9082226
:10A39000C0E90076C0E90222C0E90454C0E90631F0
:10A3A000FFF7DEB8D3F8000400F00700404570471F
:10A3B0001C21012201EAD00100F01F0002FA00F086
:10A3C0007047026802EB0112D2F8BC2170470546C3
:10A3D00000F516700C4600F00DBC4DF808ED37F88E
:10A3E000160000EE100AB8EE400AFFF763FF35F8DA
:10A3F000160084ED000A00EE100AB8EE400AFFF7DE
:10A4000059FF84ED240A183402365DF808EB7047D2
:10A4100001202146CDE90466CDE902702846FEF709
:10A42000ABBC026802EB0112D2F8B82170470120E0
:10A4300084F8460084F83E0084F83F0084F8400029
:10A4400084F8410084F8420084F8430084F8440012
:10A4500084F8450084F83D00002010BD016841F0FB
:10A46000010101607047816801F00701062970470A
:10A47000002184F8501084F85190BDE8F883044618
:10A4800090F85000012870470870A06B0130A0635D
:10A49000E08F0138E0877047C5F8884285F871027F
:10A4A000B0BD37F8112000EE102A35F81120023126
:10A4B000B8EE400A80ED000A00EE102AB8EE400A1D
:10A4C00080ED0C0A08307047006800F0040001902D
:10A4D00001982846FEF71ABDB06800F00C00082865
:10A4E00070472068016841F001010160FEF714BD6A
:10A4F00037F8021BC1602763E08E0138E0867047A1
:10A5000021F8020BA163E08F0138E087704784F8DF
:10A5100051002046704720688168890770470020F5
:10A5200084F83C002046704700202070284600F048
:10A5300072BB05466068218901220126FEF7E6BC50
:10A54000606A40F400306062052084F820007047A3
:10A550004DF808ED2046FFF709FC20465DF808EBB2
:10A56000FFF705BCC5F86C4285F85502B0BD002266
:10A57000FFF748BD416A41F48021416201207047E4
:10A58000002000902068C1680091806800900098C9
:10A590007047044690F83D00002870472046FFF7BA
:10A5A00051BB0173206B01302063E08E0138E086DF
:10A5B00070470220211D84F83D00206800F0AEBAEB
:10A5C000016841F04001016070477047B0B5044632
:10A5D000406813460A46B0F5827F0ED1A068B0F5F8
:10A5E000004F02D0B0F5806F0AD12168B0F5806FBE
:10A5F0000D6825F040050D6002D12046012101E0E3
:10A600002046802100F034F828B1606D40F0200031
:10A6100060650320B0BD0020B0BD00001CB504463D
:10A620003F4813460A4611490068B0FBF1F04FF469
:10A630007A71484301906068B0F5827F0AD1204664
:10A64000802100F015F870B1606D40F02000606569
:10A6500003201CBD019830B1019801380190206899
:10A6600080680006F6D400201CBD00BF00366E01D5
:10A670002DE9FC411E4617460D468046FEF74CFC70
:10A68000301AC419FEF748FC064625480137006811
:10A69000C0F3CB3060430190D8F8000081682940B6
:10A6A000A9420ED1002FF9D0FEF736FC801BA04244
:10A6B0000AD20198019901390191002808BF044686
:10A6C000EAE70020BDE8FC81D8E900014268B1F565
:10A6D000827F22F0E00242600BD1D8F80810B1F579
:10A6E000004F02D0B1F5806F03D1016821F0400125
:10A6F0000160D8F82810B1F5005F07D1016821F496
:10A7000000510160016841F400510160002088F8A7
:10A710005000012088F851000320BDE8FC8100BFF3
:10A7200008000020B0B58AB027481F4D002402233E
:10A730004FF480114FF44022C0E90053C0E90244B5
:10A74000C0E9042184618483FEF729FA18B1EFF38C
:10A75000108072B6FEE7CDE905446C460125142150
:10A7600020460795FDF7FAFC0E202146CDE908505A
:10A770001548FEF755F818B1EFF3108072B6FEE7F2
:10A780001148FEF7BCFA18B1EFF3108072B6FEE77D
:10A790000D480221FDF7E5FF18B1EFF3108072B606
:10A7A000FEE70AB0B0BD00BF0064004080B51346AC
:10A7B0000A4601460448FDF7E7FF18B1EFF31080A1
:10A7C00072B6FEE780BD00BFFC02002080B5FEF738
:10A7D000DFFB00F08FF800F053F800F0D3F8BDE88D
:10A7E0008040FFF79FBF0000F0B587B002AC142196
:10A7F0002046FDF7B3FC00261548204D00224FF4FB
:10A8000080770196016841F0040101604FF4807186
:10A81000FFF75AFEFFF7FCFD07B0F0BDF0B587B0BB
:10A8200002AC14212046FDF799FC00260848134D80
:10A8300000224FF400770196016841F004010160A5
:10A840004FF40071FFF740FEFFF7E2FD07B0F0BDE7
:10A850003038024001384FF48071B0FA80F042097C
:10A860000648FEF753BB00BF01384FF40071B0FA41
:10A8700080F042090148FEF749BB00BF00080240D2
:10A8800080B55848074B40F6FF710222C0E90032FC
:10A890008160FEF745FB18B1EFF3108072B6FEE75A
:10A8A00080BD00BF00300040FFF790BFF8B50648FC
:10A8B00000220A21054FFFF760FD18B1EFF3108069
:10A8C00072B6FEE7F8BD00BF24030020003001404F
:10A8D000F8B5064800220A21054FFFF74EFD18B1D2
:10A8E000EFF3108072B6FEE7F8BD00BF7C030020D6
:10A8F000003C0040B0B592B006AC30212046FDF7D8
:10A900002DFC01A81421FDF729FC00251B4800950A
:10A91000016841F080510160006800F080500090B3
:10A92000009800951648016841F4804101601021AB
:10A93000006800F48040009001200C950B90CDE958
:10A9400009010A20069000982046FEF773FC18B112
:10A95000EFF3108072B6FEE70F200295CDE90355A4
:10A9600005950021019001A8FEF7A8FB18B1EFF3AF
:10A97000108072B6FEE712B0B0BD00BF4038024092
:10A98000007000401CB56448134C002140F2E732CF
:10A990000F23CDE900118161C0E90043C0E9021233
:10A9A000FFF7E0F818B1EFF3108072B6FEE75A4CEB
:10A9B00069462046FFF79EF818B1EFF3108072B693
:10A9C000FEE72068002141626FF00101016120462D
:10A9D000FFF7F8F81CBD00BF001400400148FEF767
:10A9E000C6BA00BF1C040020704710B5044600F52D
:10A9F000167000F01EF904F51D70BDE8104000F05F
:10AA000018B970B50446FFF791FCFFF78DFC0025DF
:10AA100004F5167001210022C8230126A4F855521E
:10AA200084F8685200F0E8F8A4F8715284F884625F
:10AA300004F51D70012100223223BDE8704000F0B2
:10AA4000DBB810B5044600F038F92046BDE81040E8
:10AA5000FDF758BEB0B504464078A178814243D096
:10AA600004F10405A07088B901202070284600F088
:10AA7000DDF8284600F0C9F8207D012803D020B970
:10AA8000FDF732FE01E000F00EF96078012810D1E8
:10AA900000202070284600F0C9F8284600F0B5F8DC
:10AAA000207D012803D020B9FDF721FE01E000F050
:10AAB000FDF8607802280BD1FFF736FD207D0128D4
:10AAC00003D020B9FDF713FE01E000F0EFF8607845
:10AAD000032809D1FFF728FD207D012805D018B9EA
:10AAE000BDE8B040FDF703BEB0BDBDE8B04000F02A
:10AAF000DDB8FEF743BA00000248016841F4700176
:10AB00000160704788ED00E080B50348FFF79BF8CF
:10AB1000BDE88040FDF784BDD403002070B52A4A0B
:10AB20000368904234D0B0F1804F0BD0274CA04244
:10AB300008D0274CA04205D0264CA04202D0264C7B
:10AB4000A04203D14C6823F070032343B0F1804F3F
:10AB500022D01E4CA0421FD01D4CA0421CD01E4C27
:10AB6000A04219D01D4CA04216D01D4CA04213D0BB
:10AB70001C4CA04210D0174CA0420DD01A4CA04241
:10AB80000AD01A4CA04207D0194CA04204D007E0CA
:10AB90004C6823F070032343CC6823F440732343B1
:10ABA0004E6923F080030C688D6833439042036044
:10ABB000C562846203D002F58062904201D10969C6
:10ABC00001630121416170BD0000014000040040AB
:10ABD0000008004000040140000C00400018004044
:10ABE000001C00400020004000400140004801409F
:10ABF000004401408181704741720021827383814A
:10AC000041810172416001807047002141810180D2
:10AC100001724160704700210180017241604181F1
:10AC200001210170704701210170704700210170FE
:10AC30007047017801290ED14168427A0A31914268
:10AC4000416004D3837B3BB1C9087C2905D8818945
:10AC500042898A420AD270470023818931B1012B8F
:10AC60000AD0002BF4D10022426011E00021418182
:10AC70004FF480710180704710B5047A002343605F
:10AC800001340472E4B29442BDE81040E0D3037290
:10AC9000428901324281DBE7FEE7B0B5FFF75CFB9A
:10ACA0000220FFF7F9BB0020FFF742BB0120FFF7AE
:10ACB0003FBB002180F871127047B0B5054690F88F
:10ACC0007502012810D195F8710205F51D7403284D
:10ACD0000BD0022808D195F8700298B1002085F8B1
:10ACE0007002FFF7E3FF12E0B0BDFFF7DCFF0120C9
:10ACF00085F870022046FFF799FF2046BDE8B04076
:10AD0000FFF783BF012085F87002FFF7CCFF2046D4
:10AD1000BDE8B040FFF77FBFFDF77CFCFDF776FC98
:10AD2000FDF77AFCFCE7F1EE100A4FF6FF71C0F276
:10AD3000C03120EA010040F04070E1EE100A704797
:10AD400000000000000000000102030406070809DB
:10AD5000D8DDE2E7ECF1F6FB00050A0F14191E231B
:10AD6000282D32373C41464B50555A5F64696E730B
:10AD700078000000F6281C4048E11A409A991940D2
:10AD8000EC51184066661640E17A1440AE47114017
:10AD900052B80E4048E10A403D0A074033330340B1
:10ADA00052B8FE3F8FC2F53F7B14EE3F6666E63F2A
:10ADB00052B8DE3F3D0AD73FD7A3D03F1F85CB3FD8
:10ADC0006666C63FAE47C13FA470BD3F9A99B93F82
:10ADD0003D0AB73F3333B33FD7A3B03F295CAF3F02
:10ADE000CDCCAC3F1F85AB3F713DAA3FC3F5A83F1B
:08ADF00014AEA73F6666A63F02
:040000050800018965
:00000001FF
