:020000040800F2
:10000000000C00205D020008CF2B00089D1D000899
:10001000CD2B00085D0800085B35000800000000DB
:100020000000000000000000000000008133000814
:10003000AD0800080000000051300008DB33000864
:1000400077020008770200087702000877020008AC
:10005000770200087702000877020008770200089C
:10006000770200087702000877020008770200088C
:10007000770200087702000877020008770200087C
:10008000770200087702000877020008770200086C
:100090006508000877020008770200087702000868
:1000A000770200087702000877020008770200084C
:1000B000770200087702000877020008770200083C
:1000C000770200087702000877020008770200082C
:1000D000770200087702000877020008770200081C
:1000E000770200087702000877020008770200080C
:1000F00077020008770200087702000877020008FC
:1001000077020008770200087702000877020008EB
:10011000770200087702000877020008F133000830
:1001200077020008770200087702000877020008CB
:1001300077020008000000000000000077020008BD
:1001400077020008770200087702000877020008AB
:10015000770200087702000877020008770200089B
:10016000770200087702000877020008770200088B
:10017000770200087702000800000000000000007D
:10018000770200087702000800F002F800F056F845
:1001900014A696E8000CB244B344DA4501D100F04D
:1001A0004DF8BAE80F000FA696E83000A5EB04055D
:1001B00004EB0607AAEB0704A7F101074FEA1515A0
:1001C0004FEA3414A4F10104AC4201D300F036F834
:1001D00013F0010F18BFFB1A43F0010300F001F800
:1001E000DBE71847CC3A0000EC3A0000103A24BF95
:1001F00078C878C1FAD8520724BF30C830C144BF8C
:1002000004680C6070470000704700000023002461
:1002100000250026103A28BF78C1FBD8520728BF16
:1002200030C148BF0B6070471FB503F0CFFB9DE89E
:10023000030000F047F91FBD10B510BD00F09EF996
:100240001146FFF7F1FF03F0A5F900F0BCF903B484
:10025000FFF7F2FF03BC00F0EDF90000094880470A
:1002600009480047FEE7FEE7FEE7FEE7FEE7FEE798
:10027000FEE7FEE7FEE7FEE704480549054A064BB0
:1002800070470000E13300088901000800060020E3
:10029000000C0020000800200008002070B5064671
:1002A00000F0F4F8056806F10B0020F00704B442F2
:1002B0009CBF002070BD2B466A68BAB11068A0428E
:1002C00010D304F1080188423CBF5068586007D33E
:1002D0005168101941601168091B01605860146071
:1002E000101D70BD13465268002AE7D121462846EA
:1002F00000F0D4F80028DED170BD70B50446051FAB
:1003000000F0C4F80068002C14BF446870BD002CD5
:1003100018BFAC423CBF20466468F8D301680A1895
:10032000AA4218BF456003D12A68054611440160FE
:1003300028684119A1421CBF6C6070BD616869608A
:1003400021680844286070BD53EA020C00F06980FF
:100350002DE9F04B4FF00006002B1FBFB3FA83F5D9
:1003600003FA05F424FA05F65E4012BF1643B2FA0A
:1003700082F502FA05F4C5F120051EBF22FA05FC3C
:1003800044EA0C04203556EA044C4FEA144418BFE2
:10039000641C4FF000084FF00009904271EB030C11
:1003A00039D3002919BFB1FA81F701FA07F6B0FA7B
:1003B00080F700FA07F6C7F120071EBF20FA07FCF6
:1003C00046EA0C062037B6FBF4FCA7EB0507103F06
:1003D00007F01F0BCBF120062CFA06F60CFA0BFBEC
:1003E00044BFB3460026202FA4BF5E464FF0000B4B
:1003F0005BEA060C08BF4FF0010B19EB0B0948EB49
:100400000608ABFB027C06FB02CC0BFB03CCC01B3B
:1004100071EB0C01C1E70B46024641464846BDE878
:10042000F08B13B5084318BF4FF0FF300146AFF310
:100430000080BDE81C4070474FF0000200B5134635
:1004400094469646203922BFA0E80C50A0E80C50F4
:10045000B1F12001BFF4F7AF090728BFA0E80C50A5
:1004600048BF0CC05DF804EB890028BF40F8042B9E
:1004700008BF704748BF20F8022B11F0804F18BF0B
:1004800000F8012B7047704770477047004870476D
:1004900018000020704770477047704738B5044611
:1004A0000A4600206946AFF30080002808BF38BD27
:1004B00002460099204600F03FF8012038BD012097
:1004C00000F054B8F8B5AFF30080054600200C46A4
:1004D0000C2000BF0646A819A0420DD93246694635
:1004E0000020AFF30080070008BF00F03FF800983D
:1004F000A04218BF0546C419FFF7C8FF05600746AC
:10050000F01D20F007004619284600F00AF8B44212
:1005100008BFF8BDA21B31463868BDE8F84000F0BE
:100520000BB800210160416070470C20704700004B
:100530000048704710000020034640688C460028A1
:1005400018BF88423CBF03464068F8D31868184477
:10055000884207D00CF1030020F00700001D411A6B
:10056000521A0146081D0A60FFF7C7BE10B500F019
:1005700039F8BDE8104000F02FB870477546FFF716
:10058000D7FFAE4605006946534620F00700854672
:1005900018B020B5FFF770FEBDE820404FF0000610
:1005A0004FF000074FF000084FF0000BAC46ACE8EE
:1005B000C009ACE8C009ACE8C009ACE8C00921F04A
:1005C00007018D46704710B50446AFF30080204602
:1005D000BDE81040FFF73BBE002801D000F02AB86C
:1005E0007047000010B5012805D0002103A000F0DD
:1005F00027F8012010BD09A1F8E700005349475230
:10060000544D454D3A204F7574206F6620686561E2
:1006100070206D656D6F7279000000003A204865AA
:100620006170206D656D6F727920636F7272757085
:100630007465640001491820ABBEFEE72600020085
:1006400070B505460C460A2000E06D1C00F011F85C
:1006500035B128780028F8D102E0641C00F009F8D0
:1006600014B120780028F8D1BDE870400A20AFF31B
:10067000008008B569468DF800000320ABBE08BDB8
:10068000B0B5044690F8E803022805D094F86C0051
:1006900040F00200022800D1B0BD074D04F13C003B
:1006A000A84704F15C00A84704F14C00A847204685
:1006B000BDE8B04002F065BEF5340008816940F243
:1006C0001242914223D0B1F5826F1AD040F211420A
:1006D000914222D0502926D190F8E81319BB90F806
:1006E0006C1041F0020102291DD0816A01291AD142
:1006F00090F83410012902BF012180F8E8137047F7
:1007000011E0816A08290ED1002100F00DB8816A3C
:10071000082908D1102100F007B8816A082902D100
:10072000082100F001B87047F8B5044601EB41001C
:100730000022002304EB800004F13401DA30082A9F
:100740000CD08D5C012D03D0022D04D1012300E0DB
:100750000023037001230C300132F0E7012B1BD181
:100760003D4D284602F02AFA04F1DA020023012462
:100770000146182B0ED004FA03F61778064203D070
:10078000012F08BFB14302E0002F08BF31430C32F4
:100790000133EEE7814200D1F8BD2846BDE8F840BC
:1007A00002F00ABA70B5044602F0F7FD204600F0E8
:1007B00023F8104E04F13C00012100226423B047CD
:1007C00004F15C05012100224FF47A732846B047FA
:1007D000284602F08CFE04F14C0001210022C823BF
:1007E000B047204601F0F6FA2046BDE8704001F01F
:1007F00021BB00BFDD340008B0B5044600F018F896
:1008000004F1D00004F1D401064B074C7022D02A29
:1008100008BFB0BD8D18E0E80333043245F8D44C6E
:10082000F5E700BF0000C8416666664002F0CCB93B
:1008300010B50446084802F0C1F904F1DA010022BB
:100840000123182A08BF10BD20FA02F4013223EA5E
:10085000040401F80C4BF4E700800008FEE700F008
:1008600015B8000010B5084C204600F09FF90E485E
:10087000002100F1180200F13403204600F033F9A2
:10088000BDE81040FFF7EBBFB80400200648FFF7B3
:1008900015BF00BF0448FFF785BF00BFFFF7C6BF05
:1008A0000148FFF7EDBE00BF940000207047000034
:1008B000204A136823F440731360136813601368AD
:1008C00043F0010313600170704700BF10B5194970
:1008D0000C6824F440740C600C6844F440740C60A0
:1008E0000C6844F001040C600260BFF36F8F43603A
:1008F00010BD00BF0F4A136823F4407313601368E0
:1009000043F480731360136843F0010313600180A4
:10091000704700BF074A136823F4407313601368DD
:1009200043F400731360136843F001031360016024
:10093000704700BF103C02402D480168C90606D52B
:100940002A49CA6942F01002CA6110210160016897
:10095000890606D52549CA6942F00802CA612021E4
:1009600001600168490606D52049CA6942F00402BF
:10097000CA61402101600168090606D51B49CA69A0
:1009800042F00202CA61802101600168890706D530
:100990001649CA6942F02002CA610221016070470B
:1009A000F8B5044611480021114EC16100F016FC53
:1009B0000546671C3068C00309D5002FFAD024B162
:1009C00000F00CFC401BA042F4D90320F8BD3068B5
:1009D000C0071CBF01203060306810F0F20F04BF68
:1009E0000020F8BDFFF7A8FF0120F8BDD8050020C2
:1009F0000C3C024090F82020013A012A04D80068FB
:100A000000F11402002004E000F1240201204FF460
:100A100080211368194311607047000090F820206E
:100A2000013A012A28D8F0B52D48026842F00102A7
:100A30000260026822F47C5202604C69CD694A6A05
:100A4000036843EA02220123026004F01F0203FA52
:100A500002F2C3699343C361D343012D0ED005BB9A
:100A6000C5681D40C56000EBC405CE688F8847EAA5
:100A700006462E640D460DE002F03ABAC5681543ED
:100A8000C56000EBC4050E688F8847EA06462E64F1
:100A900001F10C058E682D8800EBC40445EA06457B
:100AA000656444688F690E69096A44EA0205002F8B
:100AB00008BF04EA03054560002E446944EA0205C4
:100AC00008BF04EA03050129456102D1C169114348
:100AD000C161016821F0010101600020F0BD00BF8B
:100AE00000660040704770B590F82040013C012C32
:100AF00003D8046821B1256903E002F0C1F951E08F
:100B0000E568AD0744D004EB0114D4F8B05115F0FA
:100B10000405956004F5D875D4F8B06119BFF608DE
:100B20005660760D16602D6805F00205D560D4F884
:100B3000B45105F00F051561D4F8B451C5F307257C
:100B40009561D4F8B4512D0C5561D4F8B8211A70C0
:100B500002F089F8120A5A7002F085F8120C9A70A5
:100B600002F081F8120EDA7002F065F81A7102F0E4
:100B700062F8120A5A7102F05EF8120C9A7102F0D1
:100B80005AF8120EDA71006841B100F1100107E065
:100B900000F1240101204FF4001203E000F10C01E8
:100BA000002020220B681A430A6070BD2DE9F84F1F
:100BB000044600684669D0F804908768D0F80CB005
:100BC000D0F810A0D0F81880F10701D1002545E039
:100BD000F9070FD001218160B80708D4780720D425
:100BE000380700F1B880204600F0ADF902E0204659
:100BF00000F0AAF90025F80518D520684FF4807197
:100C00008160B80509D478050ED438054EBF05F5C6
:100C10008045204600F099F908E0204600F096F95A
:100C200004E04FF40065E6E705F50055F80315D537
:100C300020684FF480318160B80309D478030BD465
:100C400038034EBF05F58035204600F080F905E0F9
:100C5000204600F07DF901E005F50045300748BF6A
:100C60005FEACB604FD4700748BF5FEA0B7050D487
:100C7000B00706D52068C068800702D0204600F083
:100C800038F9700648BF5FEACA6049D4B00648BF69
:100C90005FEA0A704AD4F00606D52068006980072A
:100CA00002D0204600F027F9B00348BF5FEAC960D0
:100CB00043D4F00348BF5FEA097045D4300463D5DC
:100CC0005FEA49705DD508EA1620F20508F00101D7
:100CD00000F0020048BF0844720508F0040148BF54
:100CE0000844054330054CD518F0700049D0103841
:100CF0000009052840D8DFE800F0033134373A3DD9
:100D000045F0080538E02068102145F40075C16001
:100D1000A9E720680821C160204600F0E9F8A7E7AC
:100D20002068102145F480650161AFE72068082143
:100D30000161204600F0DEF8ADE720681021416037
:100D4000204600F0D9F8B4E7206808214160204629
:100D500000F0FFF8B2E74FF480554CE745F010057E
:100D60000AE045F0200507E045F0400504E045F0C5
:100D7000800501E045F480752068816921F07001EB
:100D800081612068042141603DB1606A284360624E
:100D90002046BDE8F84FFFF7A5BEBDE8F88FA0B12B
:100DA00070B5044690F8200010B9204600F064F8B1
:100DB00001F0C1FF054620684168C90707D100F06E
:100DC0000DFA401B0B28F6D311E001207047016893
:100DD00021F00201016000F001FA05462068416837
:100DE00089070BD500F0FAF9401B0B28F6D3606A8F
:100DF000052140F40030606201203AE0217E026863
:100E000022F08002012908BF80320260617E026800
:100E100022F04002012908BF40320260A17E026830
:100E200022F02002012908BF20320260E17E026820
:100E300022F01002012918BF10320260217F0268DF
:100E400022F00802012908BF08320260617F0268AF
:100E500022F00402012908BF04320260261D6ECE72
:100E60001A432A43013932431143C1610020012151
:100E7000606284F8201070BD01681B48814200D078
:100E80007047FEB50021194A00F5D0300191136971
:100E900043F000731361136903F000730193019B26
:100EA0000091136843F002031360126802F002021B
:100EB0000092092205920322CDE903120221029138
:100EC0004FF440710191009901A900F0B1F814208C
:100ED0000021002200F0F0F9142000F0E1F906B042
:100EE000BDE88040704700BF0064004030380240D9
:100EF00070477047704770477047B0B5044690F828
:100F00002000012816D1022084F820002068016802
:100F100021F00101016000F061F905462068406898
:100F2000C0070DD000F05AF9401B0B28F6D301F092
:100F300063FF03E0606A40F4002060620120B0BDFE
:100F400000206062B0BD70477047704770477047BF
:100F500070477047B0B5044600F040F90546C148F7
:100F6000611C007818BF044400F038F9401BA0420F
:100F7000FAD3B0BD2348016841F000410160002070
:100F8000704700BF2DE9F041DFF87480074698F8FC
:100F90001800012804BF0220BDE8F08101201E4690
:100FA00014460D4688F818004CF25030FFF7F8FC54
:100FB00008BB022F07D0012F0AD077B9E1B228462B
:100FC000FFF776FC0EE028462146FFF7A3FC09E078
:100FD000A1B22846FFF78EFC04E02846224633469D
:100FE000FFF774FC4CF25030FFF7DAFC05490A6851
:100FF00022F001020A60002188F81810BDE8F08193
:10100000D8050020103C02400648C168B1F1FF3FFE
:10101000C4BF002070470449016004490160C068F2
:10102000C00F7047043C024023016745AB89EFCDF8
:101030002DE9F04F85B0604A08244FF0010A4FF0C7
:10104000000B90425D4A08BF07248305024443EA2F
:101050009222072A38BF1446CDE901010094019875
:1010600000270022BBF1100F00F0A28003970F6849
:101070000AFA0BF917EA0908039F00F09480D1F8E7
:1010800004C0032303FA07F60CF0030EF543AEF198
:101090000106012E13D88668D1F80CA00AFA07F4CD
:1010A0002E404FF0010A34438460CCF300144668AC
:1010B00004FA0BF426EA09063443446005E0BEF165
:1010C000030F02D14FF0030E21E0C46802998E682D
:1010D0002C40BE403443BEF1020FC46017D102F071
:1010E0001C040F2303FA04FC6FF0030303EA5B0301
:1010F00003441E6A029926EA0C0C0E6906FA04F4EF
:1011000044EA0C041C62D1F804C00CF0030E04681D
:101110000EFA07F32C40234303601CF4403F02996E
:1011200041D00023284C264F2BF00306049323685C
:101130003E4443F48043236023680F2403F4804338
:10114000049302F00C03049D9C40204DAC4675595D
:1011500025EA0404009D05FA03F3234346F80C3006
:101160003B684D6843EA0804EE0358BF23EA0804CD
:101170003C60AE037B6843EA080458BF23EA0804D6
:101180007C60EE02BB680F4E43EA080458BF23EAB6
:101190000804BC60AD02039F336843EA080458BFEB
:1011A00023EA08043460023704320BF1010B59E7DB
:1011B00005B0BDE8F08F00BF001C02400000FEBF7C
:1011C000003C01400C3C01404438024008FCFFFF59
:1011D000002A08BF090481617047000005480068C3
:1011E000704700BF1F48034900780A681044086030
:1011F000704700BFF805002080B50B48016841F436
:1012000000710160016841F480610160016841F48E
:1012100080710160032000F075F80F2000F006F8DF
:1012200000F022F8002080BD003C024070B50D4E59
:1012300004464FF47A713078B1FBF0F07E490968CA
:10124000B1FBF0F000F054FC01250F2C08D838B9A0
:101250004FF0FF3021460022002500F02DF8746089
:10126000284670BD0400002082B000200B49019088
:101270004A6842F480424A604A6802F4804201921D
:10128000019A0090086840F080500860086800F0FB
:1012900080500090009802B0704700BF4038024074
:1012A000002805D4734601F0BDFC9E46014A8850D3
:1012B000704700BF00E100E0F0B5184B4FF0FF367B
:1012C0001C68C4F30224E51E84F0070438BF00251F
:1012D00006FA05F7BA43042C28BF042406FA04F4DE
:1012E000A14300F00F04A940043C1143044A2344E5
:1012F00009010244002848BF03F10C021170F0BD3F
:1013000000E400E005494FF6FF030A681A4060F365
:101310000A22034810430860704700BF0CED00E04C
:101320000000FA05002852D02DE9F041404B044658
:101330008846D3F8000400F00700884204D283F8FE
:10134000008401F069FC4BD12068810711D5410769
:1013500003D5996841F4E0519960010703D5996874
:1013600041F460419960A1689A6822F0F00211434B
:101370009960C0072DD101F04FFC04D983F8008497
:1013800001F04AFC2CD12068410705D5E1689A6834
:1013900022F4E05211439960000706D5206999684C
:1013A00021F4604141EAC00098601C4600F048F812
:1013B000A168204AC1F30311515CC8401E4908606E
:1013C0001E480068FFF732FF0020BDE8F0810120D1
:1013D00070476068811E022905D21968890107D407
:1013E0000120BDE8F08101281DD119688903F7D5D6
:1013F00099681D4621F0030108439860FFF7EEFE4F
:10140000064641F288376068A9682B4601F00C0156
:10141000B1EB800FAFD0FFF7E1FE801BB842F2D9ED
:101420000320BDE8F08119688907D9D5E0E700BF3E
:1014300000380240F53900080C00002008000020A8
:1014400010B5134C606800F00C00082804D0042884
:1014500014BF1048104810BD2268206800234002C5
:1014600002F03F020C485CBF42F20040C0F2F400C0
:101470002168C1F38811A0FB0101FEF765FF216817
:101480000222C1F3014102EB4101B0FBF1F010BDBA
:10149000043802400024F40040787D01002864D024
:1014A0002DE9FC4104460078C54EC0070CD0B06859
:1014B00000F00C00042840F090803068800303D5D1
:1014C0006068002800F0A1802078800719D5B068F6
:1014D00010F00C0F07D001F029FC40F099807068E3
:1014E000400200F195803068800703D5E06801284C
:1014F00040F08B802069316821F0F80141EAC0009A
:1015000030602078000732D42078400742D4A769A1
:1015100047B301F00BFC40F0AC80012F75D0E169BE
:10152000706800F480028A426FD1216A00F03F02A5
:101530008A426AD147F6C071626A0140B1EB821FEC
:1015400063D1A16A4FF6FF72C903914300F44032A0
:10155000A1F580318A4258D1E16A00F07060B0EBA9
:10156000016F52D10020BDE8FC8101207047616904
:10157000944800296DD00121C0F8801EFFF72EFE8F
:101580000546706F8007BFD4FFF728FE401B022876
:10159000F7D9CCE0306C5FEAC0080AD40020019093
:1015A000306C40F080503064306C00F0805001901E
:1015B0000198854F3868C0053DD4386840F4807084
:1015C0003860FFF70BFE05463868C00533D4FFF7D7
:1015D00005FE401B0228F7D9A9E001F0A7FB03D1C3
:1015E000706840023FF569AF6068B0F5803F07D092
:1015F000B0F5A02F40F08580306840F48020306046
:10160000306840F48030306085E00120BDE8FC8126
:10161000E06800284CD06B4801210160FFF7DEFD37
:101620000546306880073FF565AFFFF7D7FD401BE3
:101630000228F6D97BE0A068012805D0052848D10A
:10164000306F40F004003067306F40F001003067C9
:1016500049E00021C0F8801EFFF7C0FD0546706F0D
:1016600080077FF551AFFFF7B9FD401B0228F6D97F
:101670005DE05449002088460866FFF7AFFD054647
:10168000022F0AD147463068800153D5FFF7A6FDE7
:10169000411B03200229F6D965E7306880017FF5F8
:1016A00061AFFFF79BFD411B03200229F5D95AE7E3
:1016B000444800210160FFF791FD0546306880072E
:1016C0007FF51FAFFFF78AFD411B03200229F5D9E3
:1016D00049E7316F002821F001013167316F21F0B6
:1016E0000401316745D0FFF779FD054641F288379F
:1016F000306F80074CD4FFF771FD401BB842F7D91B
:1017000015E03168002821F480313160316821F41E
:101710008021316045D0FFF761FD054630688003C8
:101720003FF5D2AEFFF75AFD401B6428F6D90320DF
:10173000BDE8FC811C341FCC0843D90340EA821069
:101740004FF6FF72914340EA0460A1F580310843EF
:10175000706001203866FFF741FD04463068800163
:101760003FF500AFFFF73AFD011B03200229F5D931
:10177000F9E6FFF733FD054641F28837306F800701
:1017800006D5FFF72BFD411B0320B942F6D9EAE647
:10179000B8F1000F3FF5BBAE306C20F080503064E4
:1017A000B5E6FFF71BFD0546306880037FF58CAE7C
:1017B000FFF714FD411B03206429F5D9D3E600BFD0
:1017C00000380240000047420070004070B538B158
:1017D0000446406A30B10020206104F1140007E0A3
:1017E00001254BE06068B0F5827F03D004F11C0056
:1017F000002101600025A56294F8510020B920461F
:1018000084F8505000F03CF8022084F8510094E82D
:101810000F0001F4827102F404420668114403F4DB
:101820000062114426F040060660226902F00202BE
:101830001144626902F001021144A26902F40073CA
:101840001944E36903F038031944236A03F0800361
:101850001943A36A03F4005319430160042101EA08
:101860001241626A02F0100211444160C16921F420
:101870000061C1610120656584F85100284670BD92
:1018800070B586B0044601A81421FEF7D5FD206886
:101890002F492E4C884221D02E49884254D1002510
:1018A0002D4803260095416941F480514161416909
:1018B00001F4805101F0A4F90520CDE9035605900B
:1018C00002200290E0200190009801A92046FFF735
:1018D000AFFB0120CDE9035610252AE000251E4864
:1018E00002260095016941F400410161016901F49A
:1018F0000041009100990095016841F004010160E8
:10190000016801F0040101F07BF9009802960620BD
:1019100005900320CDE903504FF4E050019004F509
:10192000006001A9FFF784FBCDE9035601204FF4C5
:1019300000450290019501A92046FFF779FB20465A
:1019400029460122FFF744FC06B070BD00000240AA
:10195000003C004000300140303802402DE9F8439F
:1019600001F0B5F904BF0220BDE8F88301201E464E
:1019700015460F4684F85000FFF730FC94F85110DC
:10198000814601290BD06068B0F5827F5ED10220CC
:10199000042940F09980A168002940F09580002F2B
:1019A00000F09180002D00F08E80002E00F08B80E2
:1019B00094F8510004281CBF052084F85100002031
:1019C0006065E687E686C4E91000A563A6872763FD
:1019D000A68620680168490601D401F01AFBE26876
:1019E000DDF820806168B2F5006F31D109B1012EB8
:1019F00001D101F0A7F9012608F10105E08E10B927
:101A0000E08F002857D001F0B4F90CD5E18E51B128
:101A1000012E08D1216B002631F8022BC260216310
:101A2000E18E0139E1868168C90706D0E18F21B1D5
:101A3000A16BC068012601F0BCF9FFF7CFFB002DB8
:101A4000DCD0A0EB09004045D8D332E002203BE0D7
:101A500009B1012E02D1397801F050FA012608F1BE
:101A60000105E08E08B9E08F28B301F082F90ED5A8
:101A7000E18E61B1012E0AD1216B00260978017334
:101A8000216B206801312163E18E0139E186816893
:101A9000C90706D0E18F21B1A16BC068012601F012
:101AA0002BF9FFF79BFB002DDBD0A0EB0900404595
:101AB000D7D3032008E0204641464A4601F0CAFA3F
:101AC00050B1202060650120002184F850100121D0
:101AD00084F85110BDE8F883A16800200029F3D1F3
:101AE00000902168CA680092896800910099EBE72C
:101AF000411E0020B0EB116F1CBF01207047044A4B
:101B0000F023516003490B7007219060116070470A
:101B100010E000E023ED00E07047704790F83C30A3
:101B20000222012B2FD010B580F83D2002680B68EF
:101B3000546824F070041C439368B2F1804F5460E1
:101B400014D0434CA24211D0424CA2420ED0424C7F
:101B5000A2420BD0414CA24208D0414CA24205D037
:101B6000404CA24202D0404CA24204D1496823F02A
:101B70008003194391600022012180F83C2080F805
:101B80003D10BDE810401046704700BF58B110B579
:101B900001F090F903D101F017F900F007F801F016
:101BA000F1F901F066B801207047000000680D49A6
:101BB000884218BF7047E0B50020002201900A4813
:101BC000016841F0200101600021006800F0200060
:101BD000019001983720FFF76FFB3720BDE88C405C
:101BE000FFF75EBB001400404038024090F83D1003
:101BF00001291CBF01207047022180F83D100068B8
:101C0000C168B0F1804F41F00101C16014D01049AA
:101C1000884211D00F4988420ED00F4988420BD01C
:101C20000E49884208D00E49884205D00D498842A5
:101C300002D00D49884204D1724601F039F8964627
:101C400003D0724601F02CF896460020704700BF82
:101C50000004004000080040000C00400018004054
:101C6000000001400040014000040140704710B5F1
:101C7000044600680169890712D5C16889070FD534
:101C80006FF002010161012121778069800702D094
:101C900001F03CF901E001F0C4F800202077206851
:101CA0000169490713D5C168490710D56FF00401D0
:101CB000016102212177806910F4407F02D001F098
:101CC00025F901E001F0ADF80020207720680169D6
:101CD000090712D5C16809070FD56FF00801016126
:101CE00004212177C069800702D001F00FF901E0DB
:101CF00001F097F80020207720680169C90613D504
:101D0000C168C90610D56FF0100101610821217763
:101D1000C06910F4407F02D001F0F8F801E001F052
:101D200080F80020207720680169C90709D0C168C0
:101D3000C90706D06FF001010161204600F02CF8C0
:101D400020680169090609D5C168090606D56FF042
:101D5000800101612046FFF7DFFE20680169490626
:101D600009D5C168490606D56FF0400101612046DA
:101D700000F013F820680169890602D5C168890658
:101D800000D410BD6FF0200101612046BDE8104075
:101D9000FFF7C3BE7047704770477047FEE700000B
:101DA0000B4810210122FFF713BA00BF08484FF477
:101DB00000410122FFF70CBA054810210022FFF76D
:101DC00007BA00BF02484FF400410022FFF700BAF3
:101DD000000002402DE9FC41044600F05FF804F5E4
:101DE0000A7401200126214600F07AFADFF8A88063
:101DF000284D002008F10A07F1070AD02A786B78ED
:101E0000C0B22146CDE9008700F090FA01200026FB
:101E1000F2E70120214600F085FA0120214600F07A
:101E200063FA012001F02AFC01202146BDE8FC41B3
:101E300000F0B2BAFEB5044600F03EF804F5427474
:101E40001520214600F04EFA134A124D00200121C0
:101E500002F11606571DC9070AD0AA78EB78C0B25E
:101E60002146CDE9007600F078FA01200021F2E762
:101E70000120214600F058FA0120214600F040FAE6
:101E8000012001F008FC0120214603B0BDE8F0402C
:101E900000F084BA0000002070000020F0B5E14896
:101EA00000220A21034F00F093FEBDE8F040FFF747
:101EB0008DBC00BF00300140F0B5E54800220A218A
:101EC000034F00F085FEBDE8F040FFF77FBC00BF88
:101ED000003C0040000000002DE9FE4FDFF8C892F2
:101EE00080460120C847B14F0120B847B04C0120BF
:101EF000A04708F50A7B002001220025594600F082
:101F000047FA08F5427600200122314600F042FAF5
:101F10000120594600F08CFD0120314600F0A8FD5B
:101F20000220A0470120C8470120B8470120A04750
:101F300000F056FF00F09FFF0320A0470120C84794
:101F40000120B8470120A04700F0E6FE044600F05B
:101F5000F0FF074634B1032D04D200F0DDFE044645
:101F60000135F7E7002537B1022D04D800F0E1FF75
:101F700007460135F7E757EA040040F0E3809FED9C
:101F8000880B08F2263008F1E0040025029008F2E0
:101F9000462059EC10AB0190681C0C2820D208EBAD
:101FA0004507B7F8480201F000FC00F025FE01F0FB
:101FB000CBFB00EE100A00F0C7FDB7F8280384ED54
:101FC000000A01F0F2FB00F017FE01F0BDFB00EE8D
:101FD000100A00F0B9FD84ED240A02351834DBE75D
:101FE000714C0120A047714F0120B847704C01206F
:101FF000A04700F077FF00F0C0FF0120594600F035
:1020000057FD0120314600F053FD0220A047664FE6
:102010000120B8476549012088470120A04700F00A
:10202000DFFE00F028FF0320A0470120B8475F49EA
:10203000012088470120A04700F06EFE044600F012
:1020400005FE074634B1032D04D200F0FCFF044620
:102050000135F7E7002537B1022D04D800F0F6FD71
:1020600007460135F7E757EA04006BD108F1D404BD
:1020700000250C2D20D2019830F8150001F095FBB9
:1020800000F0BAFD01F060FB00EE100A00F05CFD0C
:10209000029884ED000A30F8150001F086FB00F08C
:1020A000ABFD01F051FB00EE100A00F04DFD84ED98
:1020B000240A18340235DCE73B4C0120A0473B4F93
:1020C0000120B8473A4C0120A04700F00BFF00F078
:1020D00054FF0120594600F00AFD0120314600F06E
:1020E0001CFD0220A047304F0120B8472F49012096
:1020F00088470120A04700F073FE00F0BCFE0320DB
:10210000A0470120B8472949012088470120A0475E
:1021100000F002FE044600F099FD074634B1032D9D
:1021200004D200F090FF04460135F7E7002537B1EF
:10213000022D04D800F08AFD07460135F7E757EA7B
:1021400004000DD00220594688F86C00012000F0F0
:10215000CEFC0120314603B0BDE8F04F00F0DDBCFD
:1021600008F5127400252C2D08BFBDE8FE8F34F849
:10217000020B01F01AFB00F03FFD01F0E5FA08EB5D
:1021800005067067B4F8DE0001F00FFB00F034FDC7
:1021900001F0DAFAC6F8A4000435E4E700BF00BF96
:1021A0002D431CEBE2361A3F49360008633600081F
:1021B000550F0008E0B54FF0FF3046490DF107021A
:1021C000012300903248FFF7C9FB9DF80710002853
:1021D00018BFFF2108468CBDE0B54FF0FF303D49E8
:1021E0000DF10702012300903948FFF7B7FB9DF876
:1021F0000710002818BFFF2108468CBD2DE9FC41BF
:10220000234E0C4605464FF0FF380DF107073DB150
:10221000304621463A4600F014FD0134013DF6E710
:10222000BDE8FC81280500202DE9FC41284E0C4624
:1022300005464FF0FF380DF107073DB13046214606
:102240003A4600F0FEFC0134013DF6E7BDE8FC81B2
:10225000800500202DE9FC47DFF8348000F0B9FD4F
:102260000DF1070926B100F04FFD0137013EF9E7F6
:10227000074E184F4FF0FF383CB1304639462A46DA
:1022800000F0DFFC0135013CF6E7BDE8FC8700BF4C
:10229000280500202DE9FC47DFF8348000F099FD87
:1022A0000DF1070926B100F02FFD0137013EF9E7D6
:1022B000074E084F4FF0FF383CB1304639462A46AA
:1022C00000F0BFFC0135013CF6E7BDE8FC8700BF2C
:1022D00080050020AC3C000800F062B800F067B850
:1022E00000F07CB900F09EB90B4BD63140F20232BF
:1022F00020B18A800B60E0310138F9E7704700BFF8
:10230000054BD63140F2023220B18A800B60E031B9
:102310000138F9E7704700BF0C04060400F0A8B9C3
:1023200000F0E7B900F076BA00F08FBA70B51C463D
:102330000D46064600F01EFB30462946224600F0B8
:10234000B7FA049A3046294600F0F6FA059A304664
:102350002946BDE8704000F0AFBA70B51C460D4686
:10236000064600F009FB30462946224600F0A2FA54
:10237000049A3046294600F0EEFA059A304629467E
:10238000BDE8704000F0B8BA00F096BA00F0B4BAF8
:1023900000F0F0BA00F0F0BA00F0F0BA00F01BBBA9
:1023A0001CB500F0EAFC01A801F0D8F81CBD1CB572
:1023B00000F0E3FC01A801F0DFF81CBD042900F2E5
:1023C0008480F0B5DFE801F0030C2F52770002F1B2
:1023D000BC01002877D011F8AE2C00F078FDF8E7AA
:1023E00000F0B2FD84456ED0CCEBCC0492F8D9E07D
:1023F000002602EB4414BA34B64510D09F19258844
:1024000097F84210294403EB46050136218097F8DE
:102410004210B5F8BE703944A5F8BE10ECE7E033C1
:102420000CF1010CDEE700F08FFD84454BD0CCEBC6
:10243000CC0492F8DAE0002602EB4414BA34B64534
:1024400010D09F19258897F85A10294403EB4605A8
:102450000136218097F85A10B5F8CA703944A5F8AA
:10246000CA10ECE7E0330CF1010CDEE700F06CFD84
:10247000844528D0CCEBCC0492F8DB50002602EB4C
:102480004414BA34A5F1010E764510DA9F19258857
:1024900097F86B10294403EB46050136218097F825
:1024A0006B10B5F8D2703944A5F8D210ECE7E033E0
:1024B0000CF1010CDCE702F1BC0120B111F89F2CFA
:1024C00000F005FDF9E7BDE8F0407047042900F28F
:1024D0008480F0B5DFE801F0030C2F52770002F1A1
:1024E000BC01002877D011F8AE2C00F0F0FCF8E722
:1024F00000F02AFD84456ED0CCEBCC0492F8D9E0F4
:10250000002602EB4414BA34B64510D09F19258832
:1025100097F84210294403EB46050136218097F8CD
:102520004210B5F8BE703944A5F8BE10ECE7E033B0
:102530000CF1010CDEE700F007FD84454BD0CCEB3D
:10254000CC0492F8DAE0002602EB4414BA34B64523
:1025500010D09F19258897F85A10294403EB460597
:102560000136218097F85A10B5F8CA703944A5F899
:10257000CA10ECE7E0330CF1010CDEE700F0E4FCFC
:10258000844528D0CCEBCC0492F8DB50002602EB3B
:102590004414BA34A5F1010E764510DA9F19258846
:1025A00097F86B10294403EB46050136218097F814
:1025B0006B10B5F8D2703944A5F8D210ECE7E033CF
:1025C0000CF1010CDCE702F1BC0120B111F89F2CE9
:1025D00000F07DFCF9E7BDE8F04070472DE9F047D9
:1025E00086B0DFF8889000268A4605460DF10C0873
:1025F0000C4600270596CDE90366AF420ED00020B9
:10260000062804D0211826540130CE73F8E700F0D4
:10261000DFFC00F035F9E0340137EEE706B0BDE845
:10262000F08700BF2DE9F04786B0DFF84090002624
:102630008A4605460DF10C080C4600270596CDE9A3
:102640000366AF420ED00020062804D0211826547D
:102650000130CE73F8E700F0BBFC00F01DF9E03468
:102660000137EEE706B0BDE8F08700BFF03900089B
:102670002DE9FC4700F062FC80469FB100F097FC1A
:1026800000260024A54229D09AF8B910E043002979
:10269000214618BF411900F05DFB00F08BFF064496
:1026A0000134EFE74FF0010900269AF8D9005FFAEC
:1026B00089F7B84212D300F07AFC0024A5420AD070
:1026C00000F067FC18BF411900F09EFB00F072FF9C
:1026D00006440134F2E709F10109E6E72846012141
:1026E0005246FFF76BFE4046FDF707FEF0B2BDE82D
:1026F000FC872DE9FC4700F021FC80469FB100F0EB
:102700005BFC00260024A54229D09AF8B910E043CA
:102710000029214618BF411900F01CFB00F065FF9D
:1027200006440134EFE74FF0010900269AF8D9007A
:102730005FFA89F7B84212D300F03EFC0024A542AC
:102740000AD000F026FC18BF411900F05DFB00F034
:102750004CFF06440134F2E709F10109E6E7284697
:1027600001215246FFF7B2FE4046FDF7C6FDF0B22A
:10277000BDE8FC877CB5013814460D46052817D8FE
:10278000DFE800F00306090C0F124FF480600DE043
:102790004FF4C0600AE04FF4006007E04FF420609F
:1027A00004E04FF4106001E04FF43060ADF8040035
:1027B00001AE00F005FB00F0DBFB00F0F3FAFFF7E1
:1027C000F5FA7CBD7CB5013814460D46052817D8AE
:1027D000DFE800F00306090C0F124FF480600DE0F3
:1027E0004FF4C0600AE04FF4006007E04FF420604F
:1027F00004E04FF4106001E04FF43060ADF80400E5
:1028000001AE00F0DDFA00F0F8FB00F0C4FAFFF7CB
:10281000C7FA7CBDF0B500F00FFC854208BFF0BDE3
:1028200000F09EFB062F03D023F817400137F9E78D
:102830000027042F03D022F817400137F9E7C6F824
:10284000D240E032E0330135E7E7F0B500F0F4FBC9
:10285000854208BFF0BD00F083FB062F03D023F8AC
:1028600017400137F9E70027042F03D022F817405B
:102870000137F9E7C6F8D240E032E0330135E7E747
:10288000B0B500F029FA00F057F8059A284621461D
:10289000BDE8B04000F010B8B0B500F01DFA00F08F
:1028A0005AF8059A28462146BDE8B04000F024B801
:1028B00000F0F7BA00F0F5BAF0B500F0E7FA082B2F
:1028C0000CD0D65C0CFA03F744EA0705002E08BFCB
:1028D00024EA07050D702C460133F0E700F071FB88
:1028E000042A08BFF0BD00F05BFB08BF24EA06071E
:1028F00007703C460132F3E7F0B500F0C7FA082B49
:102900000CD0D65C0CFA03F744EA0705002E08BF8A
:1029100024EA07050D702C460133F0E700F051FB67
:10292000042A08BFF0BD00F03BFB08BF24EA0607FD
:1029300007703C460132F3E7F0B500F0EAFA0529EA
:1029400008BFF0BD00F06AFB08BF24EA0607077065
:102950003C460131F3E7F0B500F0DBFA052908BF8A
:10296000F0BD00F05BFB08BF24EA060707703C4699
:102970000131F3E700F05FBA00F05DBAF0B5C1B025
:102980004FF480720DF1020300F097F95FFA8CF5B5
:10299000854218D291F8B9606FEA0C05002E6646A0
:1029A00008BF2E18F5B2C5EBC505002601EB45158D
:1029B000062E05D0AF5DD4B2013601321F55F7E7C0
:1029C0000CF1010CE2E70DF581710DF1020200F04E
:1029D0006FFE41B0F0BDF0B5C1B04FF480720DF1A3
:1029E000020300F06AF95FFA8CF5854218D291F87B
:1029F000B9606FEA0C05002E664608BF2E18F5B2C6
:102A0000C5EBC505002601EB4515062E05D0AF5DCB
:102A1000D4B2013601321F55F7E70CF1010CE2E7A1
:102A20000DF581710DF1020200F068FE41B0F0BDBC
:102A30002DE9FE438846814600276E460124002585
:102A40004D450FD001200297CDE900770C2802D226
:102A500034540230FAE7E8B241463246FFF794FCBC
:102A60000135EDE748464146FFF796FCBDE8FE8399
:102A70002DE9FE438846814600276E460124002545
:102A80004D450FD001200297CDE900770C2802D2E6
:102A900034540230FAE7E8B241463246FFF776FC9A
:102AA0000135EDE748464146FFF778FCBDE8FE8377
:102AB0002DE9FF4188460546002701AE0124AF42BB
:102AC0000FD000200390CDE901000C2802D234542D
:102AD0000230FAE7F8B241463246FFF755FC0137BB
:102AE000EDE728464146FFF757FCBDE8FF812DE999
:102AF000FF410C46054600270DF104080026B542AB
:102B000005D000F07FFAFFF73FFC0136F7E72846D3
:102B10002146FFF741FCBDE8FF812DE9FF410C464E
:102B2000054600270DF104080026B54205D000F047
:102B300069FAFFF72BFC0136F7E728462146FFF735
:102B40002DFCBDE8FF8100001848B0EE401A9FED53
:102B5000180A011D0020202826D011ED012AB4EE0C
:102B6000412AF1EE10FA06DB91ED003AB4EE413A5B
:102B7000F1EE10FA02DD01300431ECE733EE420AE7
:102B800031EE421A0B4981EE001A0A56084490F9B8
:102B90000100801A00EE100AB8EEC02A00EE102ADA
:102BA000B8EEC00A01EE020A704700BF283A0008DA
:102BB0000000C8C2053A000800F021BB00F030BB9D
:102BC00000F030BB00F048BB00F064BBFEE7FEE75E
:102BD0004FF482764FF4007301240225C0E90A21E4
:102BE0002021C0E90822C0E90076C0E90222C0E93C
:102BF0000454C0E90631704752464B4600F0E8BD28
:102C0000009100990095016841F0010101600068A0
:102C100000F0010000907047D3F8000400F00700B6
:102C2000404570471C21012201EAD00100F01F003D
:102C300002FA00F07047026802EB0112D2F8BC21E0
:102C400070470123CDF80080FEF788BE00200121E7
:102C50003246FFF763BB006800F004000090009864
:102C60002046FEF7B5BA026802EB0112D2F8B8218D
:102C70007047012084F8460084F83E0084F83F0045
:102C800084F8400084F8410084F8420084F843004E
:102C900084F8440084F8450084F83D00002010BD0D
:102CA000016841F0010101607047062000F0B8BCE6
:102CB000816801F00701062970474FF0000CADF85C
:102CC0000221002270470220214600F0A9BC0446E0
:102CD00090F85000012870470546C0EBC0000C4634
:102CE00062F382034001095C01F0FA0119442154A6
:102CF00028462146049A70470870A06B0130A063F3
:102D0000E08F0138E0877047404639464A46012344
:102D1000CDF800A0FEF722BE002001215A46FFF7A1
:102D2000FDBA294622460023FEF72CB9B06800F010
:102D30000C00082870472068016841F0010101601B
:102D4000FEF74CBA37F8021BC1602763E08E0138EA
:102D5000E0867047C8B2C0EBC0010AEB411101F137
:102D6000420201F11E033946009208EBC002E0B2B4
:102D7000704720688168890770470901430801246A
:102D800001EBC01064F35F0310448DF80430603031
:102D90008DF805007047E80004212246C3B2304692
:102DA000FFF758BAE80004212246C3B23046FFF7C5
:102DB00071BA21F8020BA163E08F0138E0877047F8
:102DC0000220314600F02CBC002084F83C00204654
:102DD00070471C4615460E4607464FF0FF3A7047AF
:102DE000012001210022FFF777BA059500950168BF
:102DF00041F0040101607047606A40F40030606295
:102E0000052084F820007047C8B2C0EBC0000AEB70
:102E1000401000F1420100F11E03E0B2009139467A
:102E200070474DF808ED2046FEF7B4FF20465DF8E8
:102E300008EBFEF7B0BFC0EBC00040010B5C03F035
:102E4000FB0362F382030B5470470C4601EB410114
:102E5000C000DDF8188003EB41016FF00503064662
:102E600070470746C00091460E4604305FFA80F86E
:102E70004046FDF713BA012001210022FFF72EBAC8
:102E800000F1240101204FF480227047C0EBC00004
:102E900000234FF0010C01EB4010014611F8044FE4
:102EA0007047C0EBC00040010B5C03F0FE031A4406
:102EB0000A547047044690F83D00002870470420EB
:102EC0002146FFF79BB904202146FFF7ADB931F841
:102ED000023C0138134421F8023C0B881A4421F8C3
:102EE000E02B70470020594601220025FFF750BA19
:102EF000416A41F480214162012070470173206BD7
:102F000001302063E08E0138E08670472046FEF7EE
:102F1000ADBEC0EBC00301EB43105B01CC5C0021F4
:102F2000082370470446308821462080022000F0A4
:102F300077BB002001213246FFF7F2B90746C800EF
:102F400092460D46FDF7AAB94FF0000C13467047A4
:102F500040BA0425608007EB470009EB4006704744
:102F6000C5EBC506002701EB4616C6F8BA707047D8
:102F700040BAADF80600FEF725BF00203146012219
:102F8000FFF708BA0220211D84F83D00206800F0F8
:102F900039BA9AF8B910E0434246002921467047F1
:102FA0008D5C03FA02F644EA0607002D70473846A6
:102FB00029464246FFF706BC384629464246FFF7F7
:102FC000D9BB10F8054F02F1080100220123704718
:102FD000F8B2514601220023CDE9009870476D7880
:102FE000023647EA0525CD5202337047E9B240BAAE
:102FF000063E013F02356052704740BAADF8060008
:10300000FEF7DABEF0B2214642460397CDE90177DA
:103010007047016841F0400101607047555C03FA58
:1030200001F644EA0607002D704707EB47006FF0F2
:10303000050101EB4000704701F1CA0201F1BE0336
:10304000002400257047012000215A46FFF766B989
:10305000704700001CB504463F4813460A46114914
:103060000068B0FBF1F04FF47A714843019060685A
:10307000B0F5827F0AD12046802100F015F870B1AA
:10308000606D40F02000606503201CBD019830B1E8
:10309000019801380190206880680006F6D400206D
:1030A0001CBD00BF00366E012DE9FC411E461746CF
:1030B0000D468046FEF792F8301AC419FEF78EF8D6
:1030C0000646254801370068C0F3CB3060430190C5
:1030D000D8F8000081682940A9420ED1002FF9D00C
:1030E000FEF77CF8801BA0420AD2019801990139B1
:1030F0000191002808BF0446EAE70020BDE8FC81F2
:10310000D8E900014268B1F5827F22F0E002426016
:103110000BD1D8F80810B1F5004F02D0B1F5806F8F
:1031200003D1016821F040010160D8F82810B1F501
:10313000005F07D1016821F400510160016841F48A
:1031400000510160002088F85000012088F85100EB
:103150000320BDE8FC8100BF0C000020B0B58AB0A0
:103160001F48204D002402234FF480114FF44022C9
:10317000C0E90053C0E90244C0E9042184618483AA
:10318000FDF70DFE18B1EFF3108072B6FEE7CDE942
:1031900005446C460125142120460795FDF74CF99E
:1031A0000E202146CDE908500D48FDF737FC18B137
:1031B000EFF3108072B6FEE70948FDF79EFE18B1E6
:1031C000EFF3108072B6FEE705480221FDF712FC0E
:1031D00018B1EFF3108072B6FEE70AB0B0BD00BFC1
:1031E000B80400200064004080B5FEF705F800F048
:1031F00053F800F099F8BDE88040FFF7AFBFB0B5D5
:103200000C460546FDF700FF0220FFF78AFD18B1C6
:10321000EFF3108072B6FEE7BDE8B040FDF7AABE3E
:103220000068704770B586B000251848184C002219
:103230004FF48076FFF7D9FD4FF48071FFF70BFD57
:103240000120CDE90355CDE9016001A92046FDF734
:10325000EFFE06B070BD00BF70B586B000250B480C
:103260000B4C00224FF40076FFF7BFFD4FF40071C6
:10327000FFF7F1FC0120CDE90355CDE9016001A97B
:103280002046FDF7D5FE06B070BD00BF30380240C5
:1032900000080240FFF7A8BFB0B592B006AC2C21E1
:1032A000201DFDF7C9F801A81421FDF7C5F8002578
:1032B0001B480095016841F080510160006800F0F2
:1032C00080500090009800951648016841F48041B4
:1032D00001601021006800F48040009001200C95EE
:1032E0000B90CDE909010A20069000982046FEF7D0
:1032F000D5F818B1EFF3108072B6FEE70F200295F3
:10330000CDE9035505950021019001A8FEF70AF8C3
:1033100018B1EFF3108072B6FEE712B0B0BD00BF77
:1033200040380240007000401CB53548134C002165
:1033300040F2E7320F23CDE900118161C0E900437B
:10334000C0E90212FEF722FC18B1EFF3108072B64A
:10335000FEE72B4C69462046FEF7E0FB18B1EFF381
:10336000108072B6FEE72068002141626FF0010113
:1033700001612046FEF73AFC1CBD00BF001400406E
:10338000704710B5044600F57C7000F0B3F804F205
:103390000C40BDE8104000F0ADB870B50446FFF732
:1033A00011FCFFF70DFC002504F57C7001210022C3
:1033B000C8230126A4F8ED5384F8005400F08EF8D9
:1033C000A4F8095484F81C6404F20C400121002282
:1033D0003223BDE8704000F081B8FDF703BF000064
:1033E0000248016841F470010160704788ED00E017
:1033F00080B50348FEF73BFCBDE88040FDF750BABE
:10340000E004002070B52A4A0368904234D0B0F13D
:10341000804F0BD0274CA04208D0274CA04205D0AB
:10342000264CA04202D0264CA04203D14C6823F087
:1034300070032343B0F1804F22D01E4CA0421FD016
:103440001D4CA0421CD01E4CA04219D01D4CA042C5
:1034500016D01D4CA04213D01C4CA04210D0174CCB
:10346000A0420DD01A4CA0420AD01A4CA04207D05C
:10347000194CA04204D007E04C6823F070032343AA
:10348000CC6823F4407323434E6923F080030C6817
:103490008D68334390420360C562846203D002F5B5
:1034A0008062904201D1096901630121416170BDCF
:1034B00000000140000400400008004000040140FA
:1034C000000C004000180040001C0040002000409C
:1034D0000040014000480140004401404172002189
:1034E00082738381418101724160018070470121B3
:1034F00001707047017801292ED14168427A837B9F
:103500000A319142416002D30BB9002303E0B1F5C7
:103510007A7F08D33BB18189C9B1012B05D09BB912
:10352000002242600DE081890EE010B5047A00238C
:10353000436001340472E4B29442BDE8104003D306
:10354000037242890132428142898A4204D30021B6
:1035500041814FF4807101807047FEE71CB50088FF
:10356000ADF8040001ACFFF7AEFBFFF746FDFFF737
:10357000A6FCFEF715FC1CBD1CB50088ADF80400C8
:1035800001ACFFF7A0FBFFF7F3FCFFF79CFCFEF795
:103590000DFC1CBDFDF782F9FDF77CF9044C2046BB
:1035A000FEF79AFC41F28830FDF7D4FCF7E700BF44
:1035B000940000202DE9F041FFF747FCF6B2975D3B
:1035C00006EB020513B1FFF70AFDF7E7697841EA58
:1035D00007251118FFF769FB281A04EB080118BF2B
:1035E000012001F8010CBDE8F0812DE9F041FFF761
:1035F0002CFCF6B2975D06EB020513B1FFF7EFFC6A
:10360000F7E7697841EA07251118FFF74EFB281AFA
:1036100004EB080118BF012001F8010CBDE8F0819E
:10362000B0B5084B102250B111F8015BC2F3C714BA
:1036300001386C4033F8144084EA0222F3E750006A
:1036400080B2B0BDAC3A000810B5044644B1FEF7F4
:10365000B3FBFF20FEF7AEFDFEF7A2FB013CF5E752
:1036600010BD10B5044644B1FEF7ACFBFF20FEF7D9
:10367000B3FDFEF79BFB013CF5E710BD10B504461A
:1036800044B1FEF799FB0120FDF764FCFEF788FBCF
:10369000013CF5E710BD10B5044644B1FEF792FBBE
:1036A0000120FDF757FCFEF781FB013CF5E710BD5B
:1036B0002DE9F843FFF7D5FBFFF734FCFFF748FC93
:1036C0007FB1FFF7B2FC29B1725CEBB20131013579
:1036D000E254F8E709EB0001FFF7E7FAFFF786FC91
:1036E000EEE7FEF769FB40462146FEF787FDFEF751
:1036F00057FB2046BDE8F843FCF7FFBD2DE9F84332
:10370000FFF7AFFBFFF70EFCFFF722FC7FB1FFF7DF
:103710008CFC29B1725CEBB201310135E254F8E75F
:1037200009EB0001FFF7C1FAFFF760FCEEE7FEF7D7
:1037300049FB40462146FEF777FDFEF737FB204662
:10374000BDE8F843FCF7D9BD21F0004201F0004389
:10375000A2F16052B2F5801F28BFD2F17F6C0BD965
:103760005FEA001C43EAC20242EB507018BF704788
:1037700028BF20F001007047B2F5801FBCBF18467B
:1037800070474FEA410C1CF5001F02D2084600F0BA
:103790002AB970B500F0C6F800000089FFF7F6BF3F
:1037A0004FF00040A0F580007047B0FA80F310FAA7
:1037B00003F10AD0C3F11D0303F580634FEA0352FE
:1037C0004FEA415002EBD12170474FF000007047A3
:1037D00070B5DFF848C11CEA111E1EBF1CEA1315A4
:1037E0009EEA0C0F95EA0C0F00F06F8081EA03044B
:1037F0004EEAD47EAE4421EA4C1123EA4C1341F444
:10380000801143F48013AEF17F7EA1FB024CA0FB3C
:103810000365361955EB0C05A1FB034C4CF1000375
:10382000A0FB021C16EB0C06654153F10003094294
:1038300018BF46F0010613F4007F0BD14FEA0331A5
:103840004FEA053041EA155140EA165034036FF053
:1038500003020AE04FEAC3214FEAC52041EA55516D
:1038600040EA5650F4026FF0020202EB2E4201EBE6
:10387000025585EACE710AD05FEA440C18BF24F0E5
:10388000004450F1000041F1000120EAD47040F200
:10389000FE7C624500D270BDA84214BF4FF0804448
:1038A0004FF04044002E08BF0024BEF1806FA8BF37
:1038B000A1F1C041BDE8704080F2828001F1C041B9
:1038C00001F000414FF0000070470CEA13159EEA2A
:1038D0000C0F18BF95EA0C0F06D081EA030E4FF0CB
:1038E00000000EF0004170BD00F01CF88900013EA0
:1038F00000F007B800F009B84FEA430C5FEA5C5CDF
:1039000008D081EA030100F05BB84FEA410C5FEA9E
:103910005C5CF6D102494FF0000070470000FF07E1
:103920000000F87F0EF1020E2EF0030E5EF8046B1D
:10393000364205D4012A43EB030515F5001F12D8C2
:10394000012841EB010C1CF5001F0CD80ED14FEAE9
:10395000D17C0CEB4C0C0CF1020C15F5001F08BFD0
:103960004CEBD37C04E04FF0080C01E04FEAD37C31
:103970000CEB4C0526FA05F606F00706B6F1040C2A
:1039800006D20EEB860CBDE870404CF0010C60478F
:10399000DFE80CF0090B02024FF00041A1F5002115
:1039A0004FF0000070BD19461046012851EB01048C
:1039B00018BFD4F5001484BF002001F0004170BD91
:1039C0000808A0F500114FEA31017047F1EE100A26
:1039D0004FF6FF71C0F2C03120EA010040F04070A4
:1039E000E1EE100A7047FF2141EAD050C005704750
:1039F00001010101010000000000000000010203BC
:103A00000406070809D8DDE2E7ECF1F6FB00050A39
:103A10000F14191E23282D32373C41464B50555A5E
:103A20005F64696E73780000F6281C4048E11A4014
:103A30009A991940EC51184066661640E17A144094
:103A4000AE47114052B80E4048E10A403D0A0740D7
:103A50003333034052B8FE3F8FC2F53F7B14EE3F35
:103A60006666E63F52B8DE3F3D0AD73FD7A3D03F58
:103A70001F85CB3F6666C63FAE47C13FA470BD3FC2
:103A80009A99B93F3D0AB73F3333B33FD7A3B03F0D
:103A9000295CAF3FCDCCAC3F1F85AB3F713DAA3F0A
:103AA000C3F5A83F14AEA73F6666A63F000099C5C0
:103AB000ABCE320BCFD8561D6416FDD307F49E3122
:103AC000AC3A35FFC82C51E963E2FA2797AD0E688E
:103AD0003C63A5A65875C1B0F3BB6A7E9059099C9A
:103AE0003B97A2525F81C644F44F6D8A2E5BB79E0E
:103AF00085951C50E18378464A4DD38829AFB06A3A
:103B000082611BA4E6777FB24DB9D47CB9F620332D
:103B100012388BFD762EEFEBDDE04425BE0227C781
:103B200015CC8C0971DAE81FDA1443D1C5F35C3681
:103B30006E3DF7F80A2B93EEA1E53820C2075BC271
:103B400069C9F00C0DDF941AA6113FD4525ECB9BCD
:103B5000F99060559D8604433648AF8D55AACC6FC9
:103B6000FE6467A19A7203B731BCA879EBA8726DA5
:103B70004066D9A32470BDB58FBE167BEC5C7599E9
:103B80004792DE572384BA41884A118F7C05E5C0ED
:103B9000D7CB4E0EB3DD2A18181381D67BF1E23451
:103BA000D03F49FAB4292DEC1FE7862213A28A6779
:103BB000B86C21A9DC7A45BF77B4EE7114568D93A9
:103BC000BF98265DDB8E424B7040E985840F1DCA8D
:103BD0002FC1B6044BD7D212E01979DC83FB1A3E11
:103BE0002835B1F04C23D5E6E7ED7E283DF9A43C1D
:103BF00096370FF2F2216BE459EFC02A3A0DA3C8B1
:103C000091C30806F5D56C105E1BC7DEAA5433912C
:103C1000019A985F658CFC49CE425787ADA0346508
:103C2000066E9FAB6278FBBDC9B65073D6514F94F8
:103C30007D9FE45A1989804CB2472B82D1A54860F8
:103C40007A6BE3AE1E7D87B8B5B32C7641FCD839CC
:103C5000EA3273F78E2417E125EABC2F4608DFCD40
:103C6000EDC6740389D01015221EBBDBF80A61CFA4
:103C700053C4CA0137D2AE179C1C05D9FFFE663B60
:103C80005430CDF53026A9E39BE8022D6FA7F662EC
:103C9000C4695DACA07F39BA0BB192746853F196D8
:103CA000C39D5A58A78B3E4E0C459580FF000000DF
:103CB000D03C00080000002010000000EC010008CB
:103CC000E03C000810000020F00B00000C0200088F
:103CD0000101010101000000100000000024F400B7
:040000050800018965
:00000001FF
