:020000040800F2
:10000000E009002055020008AB290008A1220008E1
:10001000A9290008550800088D32000800000000DA
:10002000000000000000000000000000DD2F0008BC
:100030004509000800000000C12B0008E730000857
:100040006F0200086F0200086F0200086F020008CC
:100050006F0200086F0200086F0200086F020008BC
:100060006F0200086F0200086F0200086F020008AC
:100070006F0200086F0200086F0200086F0200089C
:100080006F0200086F0200086F0200086F0200088C
:100090005D0800086F0200086F0200086F02000888
:1000A0006F0200086F0200086F0200086F0200086C
:1000B0006F0200086F0200086F0200086F0200085C
:1000C0006F0200086F0200086F0200086F0200084C
:1000D0006F0200086F0200086F0200086F0200083C
:1000E0006F0200086F0200086F0200086F0200082C
:1000F0006F0200086F0200086F0200086F0200081C
:100100006F0200086F0200086F0200086F0200080B
:100110006F0200086F0200086F020008FD3000083F
:100120006F0200086F0200086F0200086F020008EB
:100130006F02000800000000000000006F020008CD
:100140006F0200086F0200086F0200086F020008CB
:100150006F0200086F0200086F0200086F020008BB
:100160006F0200086F0200086F0200086F020008AB
:100170006F0200086F02000800000000000000008D
:100180006F0200086F02000800F002F800F052F859
:1001900014A696E8000CB244B344DA4501D100F04D
:1001A00049F8BAE80F000FA696E83000A5EB040561
:1001B00004EB0607AAEB0704A7F101074FEA1515A0
:1001C0004FEA3414A4F10104AC4201D300F032F838
:1001D00013F0010F18BFFB1A43F0010300F001F800
:1001E000DBE718471432000034320000103A24BF15
:1001F00078C878C1FAD8520724BF30C830C144BF8C
:1002000004680C6070470000704700000023002461
:1002100000250026103A28BF78C1FBD8520728BF16
:1002200030C148BF0B6070471FB503F076F81FBDA3
:1002300010B510BD00F0D0F81146FFF7F5FF03F040
:1002400065F800F0EEF803B4FFF7F2FF03BC00F02E
:10025000F5F800000948804709480047FEE7FEE737
:10026000FEE7FEE7FEE7FEE7FEE7FEE7FEE7FEE766
:1002700004480549054A064B70470000ED30000868
:1002800089010008E0030020E0090020E0050020CB
:10029000E005002053EA020C00F069802DE9F04BE4
:1002A0004FF00006002B1FBFB3FA83F503FA05F4E5
:1002B00024FA05F65E4012BF1643B2FA82F502FA3E
:1002C00005F4C5F120051EBF22FA05FC44EA0C0422
:1002D000203556EA044C4FEA144418BF641C4FF012
:1002E00000084FF00009904271EB030C39D300294C
:1002F00019BFB1FA81F701FA07F6B0FA80F700FAF0
:1003000007F6C7F120071EBF20FA07FC46EA0C06D5
:100310002037B6FBF4FCA7EB0507103F07F01F0BD7
:10032000CBF120062CFA06F60CFA0BFB44BFB346C1
:100330000026202FA4BF5E464FF0000B5BEA060CA0
:1003400008BF4FF0010B19EB0B0948EB0608ABFB9C
:10035000027C06FB02CC0BFB03CCC01B71EB0C0137
:10036000C1E70B46024641464846BDE8F08B13B54F
:10037000084318BF4FF0FF300146AFF30080BDE8DF
:100380001C4070474FF0000200B513469446964655
:10039000203922BFA0E80C50A0E80C50B1F1200198
:1003A000BFF4F7AF090728BFA0E80C5048BF0CC046
:1003B0005DF804EB890028BF40F8042B08BF7047A4
:1003C00048BF20F8022B11F0804F18BF00F8012B16
:1003D0007047704770477047754600F02BF8AE467F
:1003E00005006946534620F00700854618B020B541
:1003F000FFF73EFFBDE820404FF000064FF000073A
:100400004FF000084FF0000BAC46ACE8C009ACE878
:10041000C009ACE8C009ACE8C00921F007018D466D
:10042000704710B50446AFF300802046BDE8104089
:10043000FFF709BF0048704710000020014918204D
:10044000ABBEFEE7260002007047B0B500220021D7
:100450000023A0F8F021B2F5907F10D0841894F812
:10046000DB50012D04BF013380F8F03194F8D940FE
:10047000012C04BF013180F8F1110C32EBE71A06B0
:10048000DBB2CAB204D0934284BF042480F86C402B
:10049000090604D09A4224BF032180F86C10B0BD35
:1004A00010B5044601F0FDFE204600F0FBF92046A1
:1004B00000F00CFA2046BDE8104002F0BCBD000080
:1004C00010B5044690F83C02012805D194F86C0060
:1004D00040F00200022800D110BD022084F83C0246
:1004E000204601F063FF94F8390258B9204600F025
:1004F000CFF82046FFF7A9FF0449204640F8081F1F
:1005000000F0C0F9002084F83C0210BD6000010139
:1005100010B5044690F86C00042888BF10BDDFE8D1
:1005200000F003090E141B00204600F016FB2046C5
:10053000C82117E02046BDE8104000F00EBB204661
:100540004FF4FA7100F0F9FA02E0204600F001FBE6
:1005500020464FF4FA7105E0204600F0FAFA2046F2
:100560004FF47A71BDE8104002F091BEB0B5044678
:1005700090F83C02022805D094F86C0040F002008C
:10058000022800D1B0BD074D04F13C00A84704F19A
:100590005C00A84704F14C00A8472046BDE8B040E5
:1005A00002F01DBD27320008816940F212429142DB
:1005B00023D0B1F5826F1AD040F21142914222D07D
:1005C000502926D190F83C1219BB90F86C1041F0DC
:1005D000020102291DD0816A01291AD190F8341034
:1005E000012902BF012180F83C12704711E0816AA5
:1005F00008290ED1002100F00DB8816A082908D120
:10060000102100F007B8816A082902D1082100F002
:1006100001B87047F8B5044601EB41000022002301
:1006200004EB800004F13401DA30082A0CD08D5C30
:10063000012D03D0022D04D1012300E0002303701B
:1006400001230C300132F0E7012B1BD1804D2846ED
:1006500002F094F904F1DA02002301240146182B78
:100660000ED004FA03F61778064203D0012F08BF14
:10067000B14302E0002F08BF31430C320133EEE7F3
:10068000814200D1F8BD2846BDE8F84002F074B9B7
:10069000F0B59FED332A9FED333A9FED334A2F4B50
:1006A0000021B6EE000AB1EE041A4FF0010C00244E
:1006B0000025B4F5907F08BFF0BD061996ED346AA9
:1006C00096ED355A35EE467AB0EEC77AB4EE407AFA
:1006D000F1EE10FA04DD96F8DA2022B1C6F8D03037
:1006E0000C340135E5E7B4EE417AF1EE10FA0DDD98
:1006F000B4EE425AF1EE10FA04DCB5EE405AF1EED7
:1007000010FA03DA25EE035A06EE045AB4EE425A02
:1007100086ED345AF1EE10FA07DD324612F8D87F32
:10072000032F10D386F8DBC0DAE7B5EE405AF1EEBE
:1007300010FA0BDA96F8D870022F0CD805EB4502A8
:1007400000EB8202D8327E1C1670C9E786F8DB10F7
:1007500086F8D910C4E786F8D9C0C1E70000D742AF
:1007600000007042CDCCCC3D6666663F70B5044655
:1007700002F041FC204600F01FF80E4E04F13C0050
:10078000012100226423B04704F15C05012100220D
:100790004FF47A732846B047284602F03EFD04F134
:1007A0004C0001210022C823B0472046BDE870401C
:1007B00001F0E0BDED310008B0B5044600F034F8BA
:1007C00004F1D00004F1D401064B074C7022D02A6A
:1007D00008BFB0BD8D18E0E80333043245F8D44CAF
:1007E000F5E700BF0000C8416666664080B502F0CC
:1007F000CFF8BDE8804001F0D1BE10B5044600F549
:10080000177002F021FC04F5107002F01DFC204668
:10081000FFF756FE02F0C0F82046FFF779FE2046AB
:10082000BDE81040FFF73CBE10B50446084802F092
:10083000A5F804F1DA0100220123182A08BF10BD2F
:1008400020FA02F4013223EA040401F80C4BF4E725
:1008500000800008FEE700F061B8000010B5084C09
:10086000204600F0D3FA3648002100F1180200F1CA
:100870003403204600F067FABDE81040FFF7EBBFF5
:10088000E8020020FEB5002100F10C02CDE90211C2
:100890000188009181780491C11C684602F06AF8D1
:1008A00006B080BD10B5044690F83D00012818BF81
:1008B00010BD204600F0EAF804F13C0002F0A5FC6F
:1008C00004F10800BDE81040FFF7DCBFB0B50446F6
:1008D00090F84D00012818BFB0BD94F8240204F12F
:1008E0004C05032803D8204600F0DCF804E0062875
:1008F00002D8204600F0FDF804F10800FFF7C2FF1F
:1009000094F824020130C1B2062988BF002084F87F
:1009100024022846BDE8B04002F077BC0848FFF743
:1009200043BE00BF0648FFF721BF00BFFFF75EBF11
:100930000348FFF762BF00BF0148FFF717BE00BFC3
:100940007000002070470000204A136823F44073B1
:10095000136013681360136843F0010313600170A0
:10096000704700BF10B519490C6824F440740C603E
:100970000C6844F440740C600C6844F001040C6092
:100980000260BFF36F8F436010BD00BF0F4A136852
:1009900023F440731360136843F480731360136887
:1009A00043F0010313600180704700BF074A1368DA
:1009B00023F440731360136843F4007313601368E7
:1009C00043F0010313600160704700BF103C024018
:1009D0002D480168C90606D52A49CA6942F01002A5
:1009E000CA61102101600168890606D52549CA69D6
:1009F00042F00802CA61202101600168490606D55B
:100A00002049CA6942F00402CA61402101600168BC
:100A1000090606D51B49CA6942F00202CA61802153
:100A200001600168890706D51649CA6942F02002AB
:100A3000CA61022101607047F8B5044611480021DF
:100A4000114EC16100F0FAFC0546671C3068C00316
:100A500009D5002FFAD024B100F0F0FC401BA042D1
:100A6000F4D90320F8BD3068C0071CBF01203060F6
:100A7000306810F0F20F04BF0020F8BDFFF7A8FFA8
:100A80000120F8BDBC0300200C3C02400321817210
:100A90004FF48071018190F86C10C172B0F8F011C0
:100AA00081817047F8B504460820A07294F82402AA
:100AB00000F1510100EB400040002181C0B212283A
:100AC00016D800EB400004F10B06002704EB800071
:100AD00000F1D005062F07D095ED000A01F000FCCB
:100AE000F0550C350137F5E7B4F8F001A4F8110022
:100AF000F8BD0821817290F8241204291CD306291C
:100B00001AD870B501F1510200F10B0500260281DF
:100B10006FF01F0202EBC101C9B200EB810101F1CC
:100B20007004082E06D0B4EC010A01F0FDFBA855B4
:100B30000136F6E7BDE870407047B0B501F06CFFD4
:100B4000022002F007B8002001F020BF012001F0D0
:100B50001DBF002180F841127047012180F8411229
:100B60007047B0B5054690F84502012810D195F8B8
:100B7000410205F5117403280BD0022808D195F81D
:100B8000400298B1002085F84002FFF7DFFF12E035
:100B9000B0BDFFF7D8FF012085F84002204602F0E3
:100BA0003FFB2046BDE8B04002F029BB012085F89C
:100BB0004002FFF7C8FF2046BDE8B04002F025BB69
:100BC00090F82020013A012A04D8006800F11402AC
:100BD000002004E000F1240201204FF4802113687A
:100BE00019431160704770B590F820600468013EA9
:100BF000A568012E0CD815F0E05F0CD0C5F3016597
:100C0000032D0ED100F1240101204FF4000231E048
:100C100001F0A5FF2EE000F1240101204FF40012A5
:100C200028E00120A8401860886828B14B68CE6889
:100C300046EAC303034303E00868CB6843EA405332
:100C400004EB0510C0F880310B69C0F88431097DD0
:100C5000012905D100F5C2710B6843F480730B6064
:100C60005168C0F88C1111680122C0F8881100F594
:100C7000C07100200B681A430A6070BD90F82020F4
:100C8000013A012A28D8F0B52D48026842F0010245
:100C90000260026822F47C5202604C69CD694A6AA3
:100CA000036843EA02220123026004F01F0203FAF0
:100CB00002F2C3699343C361D343012D0ED005BB38
:100CC000C5681D40C56000EBC405CE688F8847EA43
:100CD00006462E640D460DE001F055BFC56815436C
:100CE000C56000EBC4050E688F8847EA06462E648F
:100CF00001F10C058E682D8800EBC40445EA064519
:100D0000656444688F690E69096A44EA0205002F28
:100D100008BF04EA03054560002E446944EA020561
:100D200008BF04EA03050129456102D1C1691143E5
:100D3000C161016821F0010101600020F0BD00BF28
:100D400000660040704770B590F82040013C012CCF
:100D500003D8046821B1256903E001F000FF51E0E8
:100D6000E568AD0744D004EB0114D4F8B05115F098
:100D70000405956004F5D875D4F8B06119BFF6087C
:100D80005660760D16602D6805F00205D560D4F822
:100D9000B45105F00F051561D4F8B451C5F307251A
:100DA0009561D4F8B4512D0C5561D4F8B8211A705E
:100DB00001F045FE120A5A7001F041FE120C9A70C1
:100DC00001F03DFE120EDA7001F020FE1A7101F002
:100DD0001DFE120A5A7101F019FE120C9A7101F0EF
:100DE00015FE120EDA71006841B100F1100107E042
:100DF00000F1240101204FF4001203E000F10C0186
:100E0000002020220B681A430A6070BD2DE9F84FBC
:100E1000044600684669D0F804908768D0F80CB0A2
:100E2000D0F810A0D0F81880F10701D1002545E0D6
:100E3000F9070FD001218160B80708D4780720D4C2
:100E4000380700F1B880204600F0ADF902E02046F6
:100E500000F0AAF90025F80518D520684FF4807134
:100E60008160B80509D478050ED438054EBF05F564
:100E70008045204600F099F908E0204600F096F9F8
:100E800004E04FF40065E6E705F50055F80315D5D5
:100E900020684FF480318160B80309D478030BD403
:100EA00038034EBF05F58035204600F080F905E097
:100EB000204600F07DF901E005F50045300748BF08
:100EC0005FEACB604FD4700748BF5FEA0B7050D425
:100ED000B00706D52068C068800702D0204600F021
:100EE00038F9700648BF5FEACA6049D4B00648BF07
:100EF0005FEA0A704AD4F00606D5206800698007C8
:100F000002D0204600F027F9B00348BF5FEAC9606D
:100F100043D4F00348BF5FEA097045D4300463D579
:100F20005FEA49705DD508EA1620F20508F0010174
:100F300000F0020048BF0844720508F0040148BFF1
:100F40000844054330054CD518F0700049D01038DE
:100F50000009052840D8DFE800F0033134373A3D76
:100F600045F0080538E02068102145F40075C1609F
:100F7000A9E720680821C160204600F0E9F8A7E74A
:100F80002068102145F480650161AFE720680821E1
:100F90000161204600F0DEF8ADE7206810214160D5
:100FA000204600F0D9F8B4E72068082141602046C7
:100FB00000F0FFF8B2E74FF480554CE745F010051C
:100FC0000AE045F0200507E045F0400504E045F063
:100FD000800501E045F480752068816921F0700189
:100FE00081612068042141603DB1606A28436062EC
:100FF0002046BDE8F84FFFF7A5BEBDE8F88FA0B1C9
:1010000070B5044690F8200010B9204600F064F84E
:1010100001F05FFD054620684168C90707D100F06F
:101020000DFA401B0B28F6D311E001207047016830
:1010300021F00201016000F001FA054620684168D4
:1010400089070BD500F0FAF9401B0B28F6D3606A2C
:10105000052140F40030606201203AE0217E026800
:1010600022F08002012908BF80320260617E02689E
:1010700022F04002012908BF40320260A17E0268CE
:1010800022F02002012908BF20320260E17E0268BE
:1010900022F01002012918BF10320260217F02687D
:1010A00022F00802012908BF08320260617F02684D
:1010B00022F00402012908BF04320260261D6ECE10
:1010C0001A432A43013932431143C16100200121EF
:1010D000606284F8201070BD01681B48814200D016
:1010E0007047FEB50021194A00F5D030019113690F
:1010F00043F000731361136903F000730193019BC4
:101100000091136843F002031360126802F00202B8
:101110000092092205920322CDE9031202210291D5
:101120004FF440710191009901A900F0B1F8142029
:101130000021002200F01EFA142000F00FFA06B081
:10114000BDE88040704700BF006400403038024076
:1011500070477047704770477047B0B5044690F8C5
:101160002000012816D1022084F8200020680168A0
:1011700021F00101016000F061F905462068406836
:10118000C0070DD000F05AF9401B0B28F6D301F030
:10119000CFFC03E0606A40F4002060620120B0BD33
:1011A00000206062B0BD704770477047704770475D
:1011B00070477047B0B5044600F040F90546D8487E
:1011C000611C007818BF044400F038F9401BA042AD
:1011D000FAD3B0BD2348016841F00041016000200E
:1011E000704700BF2DE9F041DFF87480074698F89A
:1011F0001800012804BF0220BDE8F08101201E462E
:1012000014460D4688F818004CF25030FFF714FCD5
:1012100008BB022F07D0012F0AD077B9E1B22846C8
:10122000FFF792FB0EE028462146FFF7BFFB09E0DF
:10123000A1B22846FFF7AAFB04E02846224633461F
:10124000FFF790FB4CF25030FFF7F6FB05490A68B8
:1012500022F001020A60002188F81810BDE8F08130
:10126000BC030020103C02400648C168B1F1FF3FBA
:10127000C4BF002070470449016004490160C06890
:10128000C00F7047043C024023016745AB89EFCD96
:101290002DE9F04F85B0604A08244FF0010A4FF065
:1012A000000B90425D4A08BF07248305024443EACD
:1012B0009222072A38BF1446CDE901010094019813
:1012C00000270022BBF1100F00F0A28003970F68E7
:1012D0000AFA0BF917EA0908039F00F09480D1F885
:1012E00004C0032303FA07F60CF0030EF543AEF136
:1012F0000106012E13D88668D1F80CA00AFA07F46B
:101300002E404FF0010A34438460CCF30014466849
:1013100004FA0BF426EA09063443446005E0BEF102
:10132000030F02D14FF0030E21E0C46802998E68CA
:101330002C40BE403443BEF1020FC46017D102F00E
:101340001C040F2303FA04FC6FF0030303EA5B039E
:1013500003441E6A029926EA0C0C0E6906FA04F48C
:1013600044EA0C041C62D1F804C00CF0030E0468BB
:101370000EFA07F32C40234303601CF4403F02990C
:1013800041D00023284C264F2BF0030604932368FA
:101390003E4443F48043236023680F2403F48043D6
:1013A000049302F00C03049D9C40204DAC467559FB
:1013B00025EA0404009D05FA03F3234346F80C30A4
:1013C0003B684D6843EA0804EE0358BF23EA08046B
:1013D0003C60AE037B6843EA080458BF23EA080474
:1013E0007C60EE02BB680F4E43EA080458BF23EA54
:1013F0000804BC60AD02039F336843EA080458BF89
:1014000023EA08043460023704320BF1010B59E778
:1014100005B0BDE8F08F00BF001C02400000FEBF19
:10142000003C01400C3C01404438024008FCFFFFF6
:10143000002A08BF09048161704700001C48006849
:10144000704700BF18B3B0B5044600684CF6CC43F3
:10145000D4E90112036045F2555303604160826094
:10146000FFF7ECFF05462068C16889070AD0FFF73F
:10147000E5FF401B3228F6D32068C0688007F2D011
:101480000320B0BD4AF6AA2101600020B0BD0120B2
:10149000704700684AF6AA210160002070470000EA
:1014A0001F48034900780A6810440860704700BF6D
:1014B000DC03002080B50B48016841F40071016035
:1014C000016841F480610160016841F4807101604C
:1014D000032000F075F80F2000F006F800F022F865
:1014E000002080BD003C024070B50D4E04464FF414
:1014F0007A713078B1FBF0F07E490968B1FBF0F009
:1015000000F078FD01250F2C08D838B94FF0FF30D6
:1015100021460022002500F02DF87460284670BD99
:101520000000002082B000200B4901904A6842F47C
:1015300080424A604A6802F480420192019A009017
:10154000086840F080500860086800F08050009003
:10155000009802B0704700BF40380240002805D410
:10156000734601F04AFA9E46014A8850704700BF10
:1015700000E100E0F0B5184B4FF0FF361C68C4F3F3
:101580000224E51E84F0070438BF002506FA05F79B
:10159000BA43042C28BF042406FA04F4A14300F043
:1015A0000F04A940043C1143044A234409010244A6
:1015B000002848BF03F10C021170F0BD00E400E008
:1015C00005494FF6FF030A681A4060F30A220348F0
:1015D00010430860704700BF0CED00E00000FA0502
:1015E000002852D02DE9F041404B04468846D3F8FC
:1015F000000400F00700884204D283F8008401F060
:10160000F6F94BD12068810711D5410703D59968B8
:1016100041F4E0519960010703D5996841F46041B4
:101620009960A1689A6822F0F00211439960C0079E
:101630002DD101F0DCF904D983F8008401F0D7F949
:101640002CD12068410705D5E1689A6822F4E05260
:1016500011439960000706D52069996821F460411B
:1016600041EAC00098601C4600F048F8A168204A92
:10167000C1F30311515CC8401E4908601E48006850
:10168000FFF732FF0020BDE8F0810120704760685D
:10169000811E022905D21968890107D40120BDE8FD
:1016A000F08101281DD119688903F7D599681D4675
:1016B00021F0030108439860FFF7C0FE064641F29F
:1016C00088376068A9682B4601F00C01B1EB800FE8
:1016D000AFD0FFF7B3FE801BB842F2D90320BDE8BC
:1016E000F08119688907D9D5E0E700BF00380240CA
:1016F00040330008080000200400002010B5134CFF
:10170000606800F00C00082804D0042814BF1048BA
:10171000104810BD226820680023400202F03F02FA
:101720000C485CBF42F20040C0F2F4002168C1F3F3
:101730008811A0FB0101FEF7ADFD21680222C1F373
:10174000014102EB4101B0FBF1F010BD0438024051
:101750000024F40040787D01002864D02DE9FC418C
:1017600004460078C54EC0070CD0B06800F00C00ED
:10177000042840F090803068800303D5606800281A
:1017800000F0A1802078800719D5B06810F00C0F08
:1017900007D001F099F940F099807068400200F19B
:1017A00095803068800703D5E068012840F08B8081
:1017B0002069316821F0F80141EAC00030602078EA
:1017C000000732D42078400742D4A76947B301F01C
:1017D0007BF940F0AC80012F75D0E169706800F4AE
:1017E00080028A426FD1216A00F03F028A426AD1A8
:1017F00047F6C071626A0140B1EB821F63D1A16AF2
:101800004FF6FF72C903914300F44032A1F58031D5
:101810008A4258D1E16A00F07060B0EB016F52D19A
:101820000020BDE8FC8101207047616994480029CF
:101830006DD00121C0F8801EFFF700FE0546706FD5
:101840008007BFD4FFF7FAFD401B0228F7D9CCE090
:10185000306C5FEAC0080AD400200190306C40F080
:1018600080503064306C00F0805001900198854FBA
:101870003868C0053DD4386840F480703860FFF7A0
:10188000DDFD05463868C00533D4FFF7D7FD401BA2
:101890000228F7D9A9E001F017F903D170684002D6
:1018A0003FF569AF6068B0F5803F07D0B0F5A02F75
:1018B00040F08580306840F480203060306840F42B
:1018C0008030306085E00120BDE8FC81E0680028C0
:1018D0004CD06B4801210160FFF7B0FD0546306830
:1018E00080073FF565AFFFF7A9FD401B0228F6D939
:1018F0007BE0A068012805D0052848D1306F40F072
:1019000004003067306F40F00100306749E000218B
:10191000C0F8801EFFF792FD0546706F80077FF5C7
:1019200051AFFFF78BFD401B0228F6D95DE054490B
:10193000002088460866FFF781FD0546022F0AD180
:1019400047463068800153D5FFF778FD411B0320DF
:101950000229F6D965E7306880017FF561AFFFF7AE
:101960006DFD411B03200229F5D95AE744480021A7
:101970000160FFF763FD0546306880077FF51FAF04
:10198000FFF75CFD411B03200229F5D949E7316FC0
:10199000002821F001013167316F21F00401316726
:1019A00045D0FFF74BFD054641F28837306F800781
:1019B0004CD4FFF743FD401BB842F7D915E031681E
:1019C000002821F480313160316821F480213160B8
:1019D00045D0FFF733FD0546306880033FF5D2AEB2
:1019E000FFF72CFD401B6428F6D90320BDE8FC81DD
:1019F0001C341FCC0843D90340EA82104FF6FF7213
:101A0000914340EA0460A1F58031084370600120F1
:101A10003866FFF713FD0446306880013FF500AFDC
:101A2000FFF70CFD011B03200229F5D9F9E6FFF7AA
:101A300005FD054641F28837306F800706D5FFF770
:101A4000FDFC411B0320B942F6D9EAE6B8F1000FCC
:101A50003FF5BBAE306C20F080503064B5E6FFF748
:101A6000EDFC0546306880037FF58CAEFFF7E6FCA1
:101A7000411B03206429F5D9D3E600BF003802409A
:101A8000000047420070004070B538B10446406A1B
:101A900030B10020206104F1140007E001254BE083
:101AA0006068B0F5827F03D004F11C000021016062
:101AB0000025A56294F8510020B9204684F85050C2
:101AC00000F03CF8022084F8510094E80F0001F483
:101AD000827102F404420668114403F40062114466
:101AE00026F040060660226902F002021144626993
:101AF00002F001021144A26902F400731944E3697F
:101B000003F038031944236A03F080031943A36ADE
:101B100003F4005319430160042101EA1241626A8F
:101B200002F0100211444160C16921F40061C161F9
:101B30000120656584F85100284670BD2DE9F0410B
:101B400086B0044601A81421FEF71CFC2068354924
:101B5000334E88421ED0344988425DD1002033493B
:101B6000102500904A6942F480524A614A6902F4A1
:101B700080520092009A0090086840F001000860CE
:101B80000868052100F001000090E0200190009815
:101B9000304627E0002125484FF4004500910269B6
:101BA00042F400420261026902F400420092009A8B
:101BB0000091026842F004020260026802F004022E
:101BC0000092009A0091016841F001010160062134
:101BD000006800F00100009000984FF4E050019080
:101BE00006F50060059103210DF104080027022489
:101BF0000491414603970294FFF74AFB01204146B6
:101C0000CDE90374CDE901503046FFF741FB304682
:101C100029460122FFF70CFC06B0BDE8F08100BFA9
:101C200000000240003C00400030014030380240DB
:101C30002DE9F843044640681D4617460E46B0F5A8
:101C4000827F02D1A068002870D094F8500001284B
:101C500004BF0220BDE8F8834FF0010984F85090DA
:101C6000FFF7ECFB804694F85100012859D1002E73
:101C700059D0002F57D0042084F85100002060650F
:101C8000E787A787A663A0862063C4E91000E086E3
:101C9000A1682068B1F5004F07D1016821F040012B
:101CA0000160016821F4804101600168490601D4A6
:101CB00000F081FFE0686E1C18B3E08F20B320684D
:101CC0008168C90708D1FFF7B9FB002EF5D0A0EB5A
:101CD0000800A842F1D334E0A16BC06800F00CFF0B
:101CE000EBE720688168C90707D1FFF7A7FB46B17A
:101CF000A0EB0800A84204D323E0007BA16B00F016
:101D0000D1FEE08F0028ECD120462946424600F063
:101D100058FF08B120206065606D002818BF0120C1
:101D200002E0022000E0012000F0B0BE04203146B5
:101D300032463B4600F0E7FE009500F091F8BDE822
:101D4000F8830320F0E72DE9F84300F0A6FE04BF76
:101D50000220BDE8F8834FF001091D4616460F46E4
:101D600084F85090FFF76AFB804694F851000128F0
:101D700044D1002F44D0002E42D0032084F85100DB
:101D800000206065E686A6862763A087A063C4E975
:101D90001000E087A1682068B1F5004F07D1016805
:101DA00021F040010160016841F480410160016857
:101DB000490601D400F0FFFEE2686168B2F5006FE9
:101DC00020D109B1012E01D100F08AFE6E1CE08EF7
:101DD00090B300F08DFE08D4FFF730FB002EF6D054
:101DE000A0EB0800A842F2D337E0216B31F8022BB8
:101DF000C2602163E08E0138E086E8E702202DE032
:101E000001202BE009B1012E02D1397800F0C1FE8A
:101E10006E1CE08E80B100F06BFE08D4FFF70EFB65
:101E2000002EF6D0A0EB0800A842F2D315E0216BFB
:101E3000097800F0AEFEECE720462946424600F065
:101E4000E7FE08B120206065A06808B900F08DFEAB
:101E5000606D002818BF012000E0032000F016BECE
:101E60002DE9F84300F019FE04BF0220BDE8F88315
:101E700001201E4615460F4684F85000FFF7DEFA93
:101E800094F85110814601290BD06068B0F5827F2B
:101E90005ED10220042940F09980A168002940F019
:101EA0009580002F00F09180002D00F08E80002E94
:101EB00000F08B8094F8510004281CBF052084F8A2
:101EC000510000206065E687E686C4E91000A5633E
:101ED000A6872763A68620680168490601D400F01A
:101EE0006AFEE268DDF820806168B2F5006F31D1EA
:101EF00009B1012E01D100F0F3FD012608F1010521
:101F0000E08E10B9E08F002857D000F0F1FD0CD51D
:101F1000E18E51B1012E08D1216B002631F8022B40
:101F2000C2602163E18E0139E1868168C90706D06C
:101F3000E18F21B1A16BC068012600F0DDFDFFF744
:101F40007DFA002DDCD0A0EB09004045D8D332E06B
:101F500002203BE009B1012E02D1397800F019FED0
:101F6000012608F10105E08E08B9E08F28B300F0E2
:101F7000BFFD0ED5E18E61B1012E0AD1216B002685
:101F800009780173216B206801312163E18E0139E9
:101F9000E1868168C90706D0E18F21B1A16BC068D5
:101FA000012600F07FFDFFF749FA002DDBD0A0EB02
:101FB00009004045D7D3032008E0204641464A4661
:101FC00000F026FE50B1202060650120002184F839
:101FD0005010012184F85110BDE8F883A168002059
:101FE0000029F3D100902168CA68009289680091A5
:101FF0000099EBE7411E0020B0EB116F1CBF0120E0
:102000007047044AF023516003490B700721906028
:102010001160704710E000E023ED00E0704770476A
:1020200090F83C300222012B2FD010B580F83D20D3
:1020300002680B68546824F070041C439368B2F182
:10204000804F546014D0434CA24211D0424CA24263
:102050000ED0424CA2420BD0414CA24208D0414C7F
:10206000A24205D0404CA24202D0404CA24204D130
:10207000496823F08003194391600022012180F810
:102080003C2080F83D10BDE810401046704700BF6E
:1020900058B110B500F072FD03D100F038FD00F02A
:1020A00007F800F081FD00F0D0BC0120704700006F
:1020B00000680D49884218BF7047E0B50020002233
:1020C00001900A48016841F0200101600021006888
:1020D00000F02000019001983720FFF74BFA3720DD
:1020E000BDE88C40FFF73ABA001400404038024087
:1020F00090F83D1001291CBF01207047022180F893
:102100003D100068C168B0F1804F41F00101C1602D
:1021100014D01049884211D00F4988420ED00F497F
:1021200088420BD00E49884208D00E49884205D01B
:102130000D49884202D00D49884204D1724600F010
:10214000A0FC964603D0724600F096FC964600200E
:10215000704700BF0004004000080040000C004031
:102160000018004000000140004001400004014010
:10217000704710B5044600680169890712D5C16827
:1021800089070FD56FF00201016101212177806974
:10219000800702D000F005FD01E000F0D1FC002036
:1021A000207720680169490713D5C168490710D510
:1021B0006FF00401016102212177806910F4407FF2
:1021C00002D000F0EEFC01E000F0BAFC0020207725
:1021D00020680169090712D5C16809070FD56FF09A
:1021E0000801016104212177C069800702D000F055
:1021F000D8FC01E000F0A4FC0020207720680169F1
:10220000C90613D5C168C90610D56FF01001016168
:1022100008212177C06910F4407F02D000F0C1FC92
:1022200001E000F08DFC0020207720680169C907DB
:1022300009D0C168C90706D06FF0010101612046CD
:1022400000F02CF820680169090609D5C168090663
:1022500006D56FF0800101612046FFF7DFFE2068A0
:102260000169490609D5C168490606D56FF04001E4
:102270000161204600F013F820680169890602D543
:10228000C168890600D410BD6FF0200101612046AD
:10229000BDE81040FFF7C3BE7047704770477047F6
:1022A000FEE7B0B5044690F85D00012802D194F82D
:1022B0006C0000B1B0BD04F15C0004F13C0500F01D
:1022C000AFFF284600F0A9FF04F14C0000F0A5FF85
:1022D000204600F0E8FF012084F86C00B0BD00004B
:1022E000BBEE041AB4EE410AF1EE10FAB8BFB0EE3C
:1022F000410A9FED0C1AB4EE410AF1EE10FAC8BF84
:10230000B0EE410AB3EE041A30EE010AB6EE001A3E
:1023100030EE000A30EE010ABDEEC00A10EE100ADF
:10232000704700BF0000D742B0EE001AB6EE002A98
:10233000B4EE410AF1EE10FAB8BFB0EE410A9FEDDB
:102340000B1AB4EE410AF1EE10FAC8BFB0EE410A22
:10235000B8EE001A30EE010A9FED051A00EE012AD0
:10236000BDEEC20A10EE100A704700BF9A99914064
:102370000000C84210B500210B4A00F50A7480F82D
:1023800039121021A0F830120649C0E98A212046EE
:1023900000F0AAF90120FEF70DFF2046BDE810402D
:1023A00000F03DBA00000240100300202DE9F04388
:1023B0008DB000F50A798046484600F095F9384C12
:1023C00001200127A047484600F0DCF90520A0477E
:1023D000484600F04BF90320A04701AE484631467D
:1023E00000F03EFA341D08F1E0050C2F09D294EDFF
:1023F000000A00F087FA85ED000A08341835023724
:10240000F3E708F17000002100220C2A04D273586F
:10241000023243500831F8E7484600F000FA052040
:10242000FEF7C8FE98F83902012833D0484600F07C
:10243000CFF90520FEF7BEFE484600F017F903204D
:10244000FEF7B8FE01AE4846314600F009FA08F141
:10245000D404002537460C2D09D297ED000A00F070
:1024600051FA84ED000A083718340235F3E708F111
:102470007400311D01220C2A05D251F8083B0232AA
:1024800040F8083BF7E7484600F0C9F998F83902E8
:10249000012802D1022088F86C000DB0BDE8F0835D
:1024A000B5110008F0B51023002244F299548A4275
:1024B0000FD0855C83EAC5130025082D07D284EA76
:1024C00043065F0458BF5E0001353346F5E701322D
:1024D000EDE798B24008F0BDF0B585B00C46104964
:1024E00000250423CDE9025504910821009104A997
:1024F00002AE324600F07EF8BDF80E70304606217E
:10250000FFF7D0FF39BAB0EB114F05D1BDF80C0081
:102510000125A08002982060284605B0F0BD00BFCC
:102520000200B22B2DE9F04186B0044600250F468B
:102530008DF816100DF116000221984616468DF8FA
:102540001720CDE90255FFF7ADFF8DF80700000A0F
:102550008DF805608DF8047004238DF806000820BE
:10256000009001A902AE2046324600F043F8BDF8C3
:102570000E4030460621FFF795FF21BAB0EB114F10
:1025800008D1BDF808000125A8F80000DDF80A0010
:10259000C8F80200284606B0BDE8F08100F0FAB99C
:1025A000FEB50E4604460189406815460022002704
:1025B000FEF73EFF02970298B0F5FA7F04DA00BFFB
:1025C000029801300290F6E7206831462A46C82377
:1025D000FFF7B9FB0546002001900198B0F5FA7F9E
:1025E00003DA00BF01980130F6E700F0E5F905B124
:1025F0006674FEBD2DE9FE430F460446018940681E
:10260000914600221E460025FEF712FFDDF82880C5
:1026100002950298B0F5FA7F04DA00BF0298013003
:102620000290F6E7206839463246C823FFF78BFB55
:102630000646206849464246C823FFF7F9FA054690
:10264000002001900198B0F5FA7F03DA00BF0198ED
:102650000130F6E72189606801220127FEF7E8FED4
:1026600056EA050018BF6774BDE8FE831CB5044632
:1026700007480422019001A92046FFF791FF204658
:10268000052100F007F800B11CBD012060741CBDDD
:102690000360F46C2DE9FE43054612480C46029097
:1026A00000200190FEF7CAFE06464FF004090DF126
:1026B000080801AFFEF7C2FE801BA0420ED22846DA
:1026C00041463A460423CDF80090FFF793FF9DF86A
:1026D0000400C007EED00120BDE8FE830020BDE865
:1026E000FE8300BF071465AF1CB5044600200DF142
:1026F00006010222ADF806002046FFF751FF6946A9
:102700002046FFF7E9FE00B11CBD012060741CBD2E
:102710007FB504460A300621FFF7C4FE184940BAC7
:1027200000220025ADF80E0060680191D4F80A106F
:102730000291E189ADF80C102189FEF779FE009530
:102740000098B0F5FA7F04DA00BF009801300090DD
:10275000F6E7206801A90C224FF0FF33FFF7F3FAE8
:102760000546002000900098B0F5FA7F03DA00BF1C
:1027700000980130F6E700F01FF905B166747FBDDF
:1027800000013D6EBCB50446007C01281BD0002032
:102790000125C4F80A0040F6AA2000F043F90DF123
:1027A000020120462574FFF797FE78B19DF80600D8
:1027B000AA2808D19DF8070000F00F000A2802BFE0
:1027C00001202074BCBD01206074BCBD6574BCBD1B
:1027D000BCB50446007CFF281CD000200125C4F8AD
:1027E0000A0040F2555000F01DF9FF200DF10201E2
:1027F00020742046FFF770FE78B19DF8060055283A
:1028000008D19DF8070000F00F00052802BFFF2047
:102810002074BCBD01206074BCBD6574BCBDBCB57A
:102820000446007CB0B100252046E581C4F80A507A
:10283000FFF76EFF694620462574ADF804500095F9
:10284000FFF74AFE30B19DF8040018B99DF8050065
:10285000000702D001206074BCBD00202074BCBD04
:102860002DE9F84F2DED047BDFF890909FED248A41
:102870008846054600240DF10206042C38D004EBEE
:10288000440B4FF0030A19F80B70BAF1010A2BD070
:102890002846394600223346FFF744FE0028F4D08C
:1028A000BDF80410BDF8020001EE101ABDF80610C4
:1028B00000EE100A09EB0B008078B8EE400AB8EE83
:1028C000411A02EE101A20EE080A21EE081AB8EE9C
:1028D000422A08EB800022EE082A80ED000A80EDF3
:1028E000011A80ED022A01E0012068740134C4E776
:1028F000BDEC047B01B0BDE8F08F00BF34330008AD
:1029000017B7D1381848B0EE401A9FED180A011DCC
:102910000020202826D011ED012AB4EE412AF1EE44
:1029200010FA06DB91ED003AB4EE413AF1EE10FAFE
:1029300002DD01300431ECE733EE420A31EE421A97
:102940000B4981EE001A0A56084490F90100801ADA
:1029500000EE100AB8EEC02A00EE102AB8EEC00A47
:1029600001EE020A704700BF743300080000C8C2BD
:102970005033000800F014BA00F02FBA00F03EBA4D
:1029800000F03EBA00F056BA00F070BA00F078BA23
:1029900000F096BA00F096BA0248807900B170470C
:1029A00000F016BB70000020FEE7FEE7054600F5CC
:1029B00018700C4600F018BC2189606801220126BD
:1029C000FEF736BD4FF482764FF4007301240225E2
:1029D000C0E90A212021C0E90822C0E90076C0E947
:1029E0000222C0E90454C0E90631FFF74DB8D3F81C
:1029F000000400F00700404570471C21012201EA55
:102A0000D00100F01F0002FA00F07047026802EBEC
:102A10000112D2F8BC217047054600F511700C4632
:102A200000F0E2BBA572E0812046FFF771BE0068AE
:102A300000F00400009000982046FEF7F9BC026800
:102A400002EB0112D2F8B8217047012084F8460049
:102A500084F83E0084F83F0084F8400084F8410088
:102A600084F8420084F8430084F8440084F8450068
:102A700084F83D00002010BD016841F001010160B3
:102A80007047816801F0070106297047002184F82A
:102A9000501084F85190BDE8F883044690F8500037
:102AA000012870470870A06B0130A063E08F0138E7
:102AB000E0877047C5F8744285F85D02B0BD2946CD
:102AC00022460023FEF78EBBB06800F00C000828F9
:102AD00070472068016841F001010160FEF7AEBC5B
:102AE00037F8021BC1602763E08E0138E08670472B
:102AF000206881688907704721F8020BA163E08F85
:102B00000138E087704784F8510020467047002064
:102B100084F83C002046704700202070284600F0D2
:102B200074BB05950095016841F004010160704790
:102B3000606A40F400306062052084F8200070472D
:102B40004DF808ED2046FFF7A7FB20465DF808EB9F
:102B5000FFF7A3BBC5F8584285F84102B0BD00F1AC
:102B6000240101204FF4802270470020009020684B
:102B7000C16800918068009000987047044690F802
:102B80003D0000287047416A41F4802141620120E4
:102B900070470173206B01302063E08E0138E086BE
:102BA00070472046FFF7E4BA0220211D84F83D005B
:102BB000206800F0ADBA016841F040010160704743
:102BC0007047B0B50446406813460A46B0F5827FA8
:102BD0000ED1A068B0F5004F02D0B0F5806F0AD1D9
:102BE0002168B0F5806F0D6825F040050D6002D1B9
:102BF0002046012101E02046802100F033F828B171
:102C0000606D40F0200060650320B0BD0020B0BDC5
:102C10001CB504463F4813460A4611490068B0FBFC
:102C2000F1F04FF47A71484301906068B0F5827F0B
:102C30000AD12046802100F015F870B1606D40F097
:102C40002000606503201CBD019830B10198013857
:102C50000190206880680006F6D400201CBD00BFEB
:102C600000366E012DE9FC411E4617460D46804692
:102C7000FEF7E4FB301AC419FEF7E0FB06462548D0
:102C800001370068C0F3CB3060430190D8F80000F2
:102C900081682940A9420ED1002FF9D0FEF7CEFB62
:102CA000801BA0420AD201980199013901910028A4
:102CB00008BF0446EAE70020BDE8FC81D8E900012E
:102CC0004268B1F5827F22F0E00242600BD1D8F871
:102CD0000810B1F5004F02D0B1F5806F03D1016843
:102CE00021F040010160D8F82810B1F5005F07D14C
:102CF000016821F400510160016841F40051016054
:102D0000002088F85000012088F851000320BDE819
:102D1000FC8100BF08000020B0B58AB027481F4DD5
:102D2000002402234FF480114FF44022C0E90053E5
:102D3000C0E90244C0E9042184618483FEF75FF99D
:102D400018B1EFF3108072B6FEE7CDE905446C468A
:102D50000125142120460795FDF714FB0E2021467E
:102D6000CDE908501548FDF789FF18B1EFF3108041
:102D700072B6FEE71148FEF7F0F918B1EFF31080D4
:102D800072B6FEE70D480221FDF71AFF18B1EFF306
:102D9000108072B6FEE70AB0B0BD00BF006400400C
:102DA00080B513460A4601460448FDF71CFF18B1DA
:102DB000EFF3108072B6FEE780BD00BFE80200208E
:102DC00080B5FEF777FB00F08FF800F065F800F0B3
:102DD000D3F8BDE88040FFF79FBFB0B50C4605466D
:102DE000FEF742FA0220FFF76AFE18B1EFF31080F7
:102DF00072B6FEE7BDE8B040FEF7ECB90068704778
:102E000070B586B000251848224C00224FF4807619
:102E1000FFF787FE4FF48071FFF709FE0120CDE92F
:102E20000355CDE9016001A92046FEF731FA06B04D
:102E300070BD00BF70B586B000250B48154C002250
:102E40004FF40076FFF76DFE4FF40071FFF7EFFDD2
:102E50000120CDE90355CDE9016001A92046FEF727
:102E600017FA06B070BD00BF3038024001384FF489
:102E70008071B0FA80F042090648FEF7D9BA00BF67
:102E800001384FF40071B0FA80F042090148FEF7B2
:102E9000CFBA00BF0008024080B54F48074B40F64C
:102EA000FF710222C0E900328160FEF7CBFA18B14F
:102EB000EFF3108072B6FEE780BD00BF0030004027
:102EC000FFF77EBFF8B5064800220A21054FFFF73D
:102ED00079FD18B1EFF3108072B6FEE7F8BD00BFC0
:102EE0001003002000300140B0B592B006AC2C2198
:102EF000201DFDF747FA01A81421FDF743FA00252C
:102F00001B480095016841F080510160006800F0A5
:102F100080500090009800951648016841F4804167
:102F200001601021006800F48040009001200C95A1
:102F30000B90CDE909010A20069000982046FEF783
:102F40000BFC18B1EFF3108072B6FEE70F2002956C
:102F5000CDE9035505950021019001A8FEF740FB3E
:102F600018B1EFF3108072B6FEE712B0B0BD00BF2B
:102F700040380240007000401CB56448134C0021EA
:102F800040F2E7320F23CDE900118161C0E900432F
:102F9000C0E90212FFF77CF818B1EFF3108072B6A7
:102FA000FEE75A4C69462046FFF73AF818B1EFF3AE
:102FB000108072B6FEE72068002141626FF00101C7
:102FC00001612046FFF794F81CBD00BF00140040CB
:102FD0000148FEF75EBA00BFB0030020704710B58D
:102FE000044600F5117000F01EF904F51870BDE8F4
:102FF000104000F018B970B50446FFF7C3FCFFF7A6
:10300000BFFC002504F5117001210022C823012610
:10301000A4F8415284F8545200F0E8F8A4F85D5244
:1030200084F8706204F51870012100223223BDE893
:10303000704000F0DBB810B5044600F038F92046C7
:10304000BDE81040FDF78DBDB0B504464078A178CD
:10305000814243D004F10405A07088B9012020709A
:10306000284600F0DDF8284600F0C9F8207D012848
:1030700003D020B9FDF767FD01E000F00EF960789C
:10308000012810D100202070284600F0C9F82846F9
:1030900000F0B5F8207D012803D020B9FDF756FDDA
:1030A00001E000F0FDF8607802280BD1FFF734FD55
:1030B000207D012803D020B9FDF748FD01E000F094
:1030C000EFF86078032809D1FFF726FD207D01285D
:1030D00005D018B9BDE8B040FDF738BDB0BDBDE8BA
:1030E000B04000F0DDB8FEF7DBB90000024801682F
:1030F00041F470010160704788ED00E080B503483D
:10310000FFF737F8BDE88040FDF716BC68030020E4
:1031100070B52A4A0368904234D0B0F1804F0BD08A
:10312000274CA04208D0274CA04205D0264CA042F4
:1031300002D0264CA04203D14C6823F070032343F5
:10314000B0F1804F22D01E4CA0421FD01D4CA04297
:103150001CD01E4CA04219D01D4CA04216D01D4CB4
:10316000A04213D01C4CA04210D0174CA0420DD04E
:103170001A4CA0420AD01A4CA04207D0194CA042C7
:1031800004D007E04C6823F070032343CC6823F499
:10319000407323434E6923F080030C688D683343EA
:1031A00090420360C562846203D002F5806290425F
:1031B00001D1096901630121416170BD0000014035
:1031C000000400400008004000040140000C0040E2
:1031D00000180040001C004000200040004001405A
:1031E0000048014000440140818170474172002144
:1031F00082738381418101724160018070470021A7
:10320000418101800172416070470021018001729B
:1032100041604181012101707047012101707047B7
:10322000002101707047017801292ED14168427A4E
:10323000837B0A319142416002D30BB9002303E042
:10324000B1F57A7F08D33BB18189C9B1012B05D093
:103250009BB9002242600DE081890EE010B5047A2E
:103260000023436001340472E4B29442BDE810408C
:1032700003D3037242890132428142898A4204D3D4
:10328000002141814FF4807101807047FEE7B0B5A5
:10329000FFF78CFB0220FFF70DBC0020FFF774BB8B
:1032A0000120FFF771BB002180F85D127047B0B5B7
:1032B000054690F86102012810D195F85D0205F5E8
:1032C000187403280BD0022808D195F85C0298B135
:1032D000002085F85C02FFF7E3FF12E0B0BDFFF7C6
:1032E000DCFF012085F85C022046FFF799FF2046AD
:1032F000BDE8B040FFF783BF012085F85C02FFF70F
:10330000CCFF2046BDE8B040FFF77FBFFDF70EFBC6
:10331000FDF708FBFDF70CFBFCE7F1EE100A4FF69A
:10332000FF71C0F2C03120EA010040F04070E1EED0
:10333000100A70470400000600030800060A00098E
:103340000000000000000000010203040607080955
:10335000D8DDE2E7ECF1F6FB00050A0F14191E2395
:10336000282D32373C41464B50555A5F64696E7385
:1033700078000000F6281C4048E11A409A9919404C
:10338000EC51184066661640E17A1440AE47114091
:1033900052B80E4048E10A403D0A0740333303402B
:1033A00052B8FE3F8FC2F53F7B14EE3F6666E63FA4
:1033B00052B8DE3F3D0AD73FD7A3D03F1F85CB3F52
:1033C0006666C63FAE47C13FA470BD3F9A99B93FFC
:1033D0003D0AB73F3333B33FD7A3B03F295CAF3F7C
:1033E000CDCCAC3F1F85AB3F713DAA3FC3F5A83F95
:1033F00014AEA73F6666A63F183400080000002000
:1034000010000000EC010008283400081000002023
:10341000D00900000C0200080100000010000000AC
:083420000024F400000000008C
:040000050800018965
:00000001FF
