:020000040800F2
:10000000080C00205D020008EB2B0008A12200086C
:10001000E92B0008910A0008A5350008000000003F
:10002000000000000000000000000000F5320008A1
:10003000810B000800000000B92E0008FF33000803
:1000400077020008770200087702000877020008AC
:10005000770200087702000877020008770200089C
:10006000770200087702000877020008770200088C
:10007000770200087702000877020008770200087C
:10008000770200087702000877020008770200086C
:10009000990A000877020008770200087702000832
:1000A000770200087702000877020008770200084C
:1000B000770200087702000877020008770200083C
:1000C000770200087702000877020008770200082C
:1000D000770200087702000877020008770200081C
:1000E000770200087702000877020008770200080C
:1000F00077020008770200087702000877020008FC
:1001000077020008770200087702000877020008EB
:10011000770200087702000877020008153400080B
:1001200077020008770200087702000877020008CB
:1001300077020008000000000000000077020008BD
:1001400077020008770200087702000877020008AB
:10015000770200087702000877020008770200089B
:10016000770200087702000877020008770200088B
:10017000770200087702000800000000000000007D
:10018000770200087702000800F002F800F056F845
:1001900014A696E8000CB244B344DA4501D100F04D
:1001A0004DF8BAE80F000FA696E83000A5EB04055D
:1001B00004EB0607AAEB0704A7F101074FEA1515A0
:1001C0004FEA3414A4F10104AC4201D300F036F834
:1001D00013F0010F18BFFB1A43F0010300F001F800
:1001E000DBE71847FC3A00001C3B0000103A24BF34
:1001F00078C878C1FAD8520724BF30C830C144BF8C
:1002000004680C6070470000704700000023002461
:1002100000250026103A28BF78C1FBD8520728BF16
:1002200030C148BF0B6070471FB503F0EBFB9DE882
:10023000030000F047F91FBD10B510BD00F09EF996
:100240001146FFF7F1FF03F00BFA00F0BCF903B41D
:10025000FFF7F2FF03BC00F0EDF90000094880470A
:1002600009480047FEE7FEE7FEE7FEE7FEE7FEE798
:10027000FEE7FEE7FEE7FEE704480549054A064BB0
:1002800070470000053400088901000808060020B6
:10029000080C0020080800200808002070B5064659
:1002A00000F0F4F8056806F10B0020F00704B442F2
:1002B0009CBF002070BD2B466A68BAB11068A0428E
:1002C00010D304F1080188423CBF5068586007D33E
:1002D0005168101941601168091B01605860146071
:1002E000101D70BD13465268002AE7D121462846EA
:1002F00000F0D4F80028DED170BD70B50446051FAB
:1003000000F0C4F80068002C14BF446870BD002CD5
:1003100018BFAC423CBF20466468F8D301680A1895
:10032000AA4218BF456003D12A68054611440160FE
:1003300028684119A1421CBF6C6070BD616869608A
:1003400021680844286070BD53EA020C00F06980FF
:100350002DE9F04B4FF00006002B1FBFB3FA83F5D9
:1003600003FA05F424FA05F65E4012BF1643B2FA0A
:1003700082F502FA05F4C5F120051EBF22FA05FC3C
:1003800044EA0C04203556EA044C4FEA144418BFE2
:10039000641C4FF000084FF00009904271EB030C11
:1003A00039D3002919BFB1FA81F701FA07F6B0FA7B
:1003B00080F700FA07F6C7F120071EBF20FA07FCF6
:1003C00046EA0C062037B6FBF4FCA7EB0507103F06
:1003D00007F01F0BCBF120062CFA06F60CFA0BFBEC
:1003E00044BFB3460026202FA4BF5E464FF0000B4B
:1003F0005BEA060C08BF4FF0010B19EB0B0948EB49
:100400000608ABFB027C06FB02CC0BFB03CCC01B3B
:1004100071EB0C01C1E70B46024641464846BDE878
:10042000F08B13B5084318BF4FF0FF300146AFF310
:100430000080BDE81C4070474FF0000200B5134635
:1004400094469646203922BFA0E80C50A0E80C50F4
:10045000B1F12001BFF4F7AF090728BFA0E80C50A5
:1004600048BF0CC05DF804EB890028BF40F8042B9E
:1004700008BF704748BF20F8022B11F0804F18BF0B
:1004800000F8012B7047704770477047004870476D
:1004900018000020704770477047704738B5044611
:1004A0000A4600206946AFF30080002808BF38BD27
:1004B00002460099204600F03FF8012038BD012097
:1004C00000F054B8F8B5AFF30080054600200C46A4
:1004D0000C2000BF0646A819A0420DD93246694635
:1004E0000020AFF30080070008BF00F03FF800983D
:1004F000A04218BF0546C419FFF7C8FF05600746AC
:10050000F01D20F007004619284600F00AF8B44212
:1005100008BFF8BDA21B31463868BDE8F84000F0BE
:100520000BB800210160416070470C20704700004B
:100530000048704710000020034640688C460028A1
:1005400018BF88423CBF03464068F8D31868184477
:10055000884207D00CF1030020F00700001D411A6B
:10056000521A0146081D0A60FFF7C7BE10B500F019
:1005700039F8BDE8104000F02FB870477546FFF716
:10058000D7FFAE4605006946534620F00700854672
:1005900018B020B5FFF770FEBDE820404FF0000610
:1005A0004FF000074FF000084FF0000BAC46ACE8EE
:1005B000C009ACE8C009ACE8C009ACE8C00921F04A
:1005C00007018D46704710B50446AFF30080204602
:1005D000BDE81040FFF73BBE002801D000F02AB86C
:1005E0007047000010B5012805D0002103A000F0DD
:1005F00027F8012010BD09A1F8E700005349475230
:10060000544D454D3A204F7574206F6620686561E2
:1006100070206D656D6F7279000000003A204865AA
:100620006170206D656D6F727920636F7272757085
:100630007465640001491820ABBEFEE72600020085
:1006400070B505460C460A2000E06D1C00F011F85C
:1006500035B128780028F8D102E0641C00F009F8D0
:1006600014B120780028F8D1BDE870400A20AFF31B
:10067000008008B569468DF800000320ABBE08BDB8
:10068000B0B5002300210022A0F8F031B3F5907F2F
:1006900010D0C41894F8DB50012D04BF013280F84B
:1006A000F02194F8D940012C04BF013180F8F111F8
:1006B0000C33EBE7130606D0CBB2D4B29C4204D97C
:1006C000042380F86C300B0606D0D2B2C9B2914236
:1006D00024BF032180F86C10B0BD10B5044601F0B2
:1006E000E0FD204600F0FCF9204600F00DFA20461F
:1006F000BDE8104002F02BBE10B5044690F8E803A8
:10070000012805D194F86C0040F00200022800D1C5
:1007100010BD022084F8E803204601F019FF2046AE
:1007200000F0D0F82046FFF7ABFF0549204640F81F
:10073000081F00F0C5F9002084F8E80310BD00BFD1
:100740006000010110B5044690F86C00042888BFD1
:1007500010BDDFE800F0032010160900204600F06D
:100760001EFB2046C82112E0204600F014FB204664
:100770004FF47A710BE020464FF4FA7100F0FFFA63
:1007800002E0204600F007FB20464FF4FA71BDE876
:10079000104002F008BF2046BDE8104000F0FFBA4C
:1007A000B0B5044690F8E803022805D094F86C0030
:1007B00040F00200022800D1B0BD074D04F13C001A
:1007C000A84704F15C00A84704F14C00A847204664
:1007D000BDE8B04002F08FBD3F350008816940F2AE
:1007E0001242914229D0B1F5826F1AD040F21142E3
:1007F00091421CD0502926D190F8E81319BB90F8EB
:100800006C1041F0020102291DD0816A01291AD120
:1008100090F83410012902BF012180F8E8137047D5
:1008200011E0816A08290ED1002100F00DB8816A1B
:10083000082908D1082100F007B8816A082902D1E7
:10084000102100F001B87047F8B5044601EB4100F3
:100850000022002304EB800004F13401DA30082A7E
:100860000CD08D5C012D03D0022D04D1012300E0BA
:100870000023037001230C300132F0E7012B1BD160
:10088000824D284602F096F904F1DA020023012491
:100890000146182B0ED004FA03F61778064203D04F
:1008A000012F08BFB14302E0002F08BF31430C32D3
:1008B0000133EEE7814200D1F8BD2846BDE8F8409B
:1008C00002F076B9F0B59FED352A9FED353A9FEDF0
:1008D000354A314C00F1D0014FF0000EB6EE000A5F
:1008E000B1EE041A4FF0010C00250026B5F5907FFB
:1008F00008BFF0BD471997ED346A97ED355A35EECC
:10090000467AB0EEC77AB4EE407AF1EE10FA04DD22
:1009100097F8DA2022B1C7F8D0400C350136E5E768
:10092000B4EE417AF1EE10FA0DDDB4EE425AF1EE7A
:1009300010FA04DCB5EE405AF1EE10FA03DA25EEB7
:10094000035A06EE045AB4EE425A87ED345AF1EED9
:1009500010FA09DD97F8D830032B12D206EB4602C5
:1009600001EB8202083209E0B5EE405AF1EE10FACE
:100970000ADA3A4612F8D83F022B0AD8013313702C
:10098000CBE787F8DBC0C8E787F8DBE087F8D9E07A
:10099000C3E787F8D9C0C0E70000D7420000704223
:1009A000CDCCCC3D6666663F70B5044602F0AFFC28
:1009B000204600F01FF80E4E04F13C0001210022F9
:1009C0006423B04704F15C05012100224FF47A73DF
:1009D0002846B047284602F0ACFD04F14C00012146
:1009E0000022C823B0472046BDE8704001F060BD3A
:1009F00005350008B0B5044600F034F8074A084B46
:100A000004F170000021B1F5907F08BFB0BD6518FA
:100A10000C31C5E9342208C0F5E700BF0000C84129
:100A20006666664080B502F0CFF802F0CFF8BDE808
:100A3000804002F0CDB810B5044600F5816002F0A8
:100A40008FFC04F57B7002F08BFC2046FFF754FE10
:100A500002F0C0F82046FFF775FE2046BDE81040C2
:100A6000FFF73BBE10B50446084802F0A3F804F1B6
:100A7000DA0100220123182A08BF10BD20FA02F46F
:100A8000013223EA040401F80C4BF4E7008000086B
:100A9000FEE700F061B8000010B5084C204600F0F9
:100AA000D5FA3648002100F1180200F1340320463F
:100AB00000F06BFABDE81040FFF7EBBF9404002094
:100AC000FEB5002100F10C02CDE902110188009170
:100AD00081780491C11C684602F068F806B080BDB8
:100AE00010B5044690F83D00012818BF10BD2046FF
:100AF00000F0EAF804F13C0002F013FD04F10800F4
:100B0000BDE81040FFF7DCBFB0B5044690F84D00DB
:100B1000012818BFB0BD94F8240204F14C05032845
:100B200003D8204600F0DCF804E0062802D820466E
:100B300000F0FEF804F10800FFF7C2FF94F8240269
:100B40000130C1B2062988BF002084F8240228465B
:100B5000BDE8B04002F0E5BC0848FFF73FBE00BF6B
:100B60000648FFF721BF00BFFFF75CBF0348FFF750
:100B700062BF00BF0148FFF713BE00BF7000002036
:100B800070470000204A136823F440731360136811
:100B90001360136843F0010313600170704700BFD6
:100BA00010B519490C6824F440740C600C6844F4C6
:100BB00040740C600C6844F001040C600260BFF3E8
:100BC0006F8F436010BD00BF0F4A136823F440735A
:100BD0001360136843F480731360136843F00103D8
:100BE00013600180704700BF074A136823F4407305
:100BF0001360136843F400731360136843F0010338
:100C000013600160704700BF103C02402D4801682E
:100C1000C90606D52A49CA6942F01002CA611021E4
:100C200001600168890606D52549CA6942F00802B3
:100C3000CA61202101600168490606D52049CA69B8
:100C400042F00402CA61402101600168090606D52C
:100C50001B49CA6942F00202CA6180210160016831
:100C6000890706D51649CA6942F02002CA610221E5
:100C700001607047F8B5044611480021114EC1616A
:100C800000F0F8FC0546671C3068C00309D5002F4A
:100C9000FAD024B100F0EEFC401BA042F4D90320AE
:100CA000F8BD3068C0071CBF01203060306810F00C
:100CB000F20F04BF0020F8BDFFF7A8FF0120F8BD28
:100CC000E40500200C3C0240032181724FF4807146
:100CD000018190F86C10C172B0F8F01181817047F9
:100CE000F8B504460820A07294F8240200F15101DE
:100CF00000EB400040002181C1B2122917D8490001
:100D000004F10B06002751FA80F004EB800000F19B
:100D1000D005062F07D095ED000A01F07FFBF055B6
:100D20000C350137F5E7B4F8F001A4F81100F8BD6F
:100D30000821817290F8241204291FD306291DD896
:100D4000F8B501F1510200F1700400F10B06002723
:100D5000D2B202816FF01F0202EBC105082F0BD047
:100D600045EA0700C0B204EB800090ED000A01F0F4
:100D700079FBF0550137F1E7BDE8F8407047B0B5B1
:100D800001F076FF022002F047B8002001F01ABF00
:100D9000012001F017BF002180F8ED1370470121F9
:100DA00080F8ED137047B0B5054690F8F1030128BF
:100DB00010D195F8ED0305F57C7403280BD00228BB
:100DC00008D195F8EC0398B1002085F8EC03FFF703
:100DD000DFFF12E0B0BDFFF7D8FF012085F8EC037C
:100DE000204602F0A9FB2046BDE8B04002F093BBCC
:100DF000012085F8EC03FFF7C8FF2046BDE8B040AE
:100E000002F08FBB90F82020013A012A04D8006834
:100E100000F11402002004E000F1240201204FF44C
:100E20008021136819431160704770B590F82060F5
:100E30000468013EA568012E0CD815F0E05F0FD0C4
:100E4000C5F30165032D11D100F1240301204FF4F6
:100E5000000131E000F1240301204FF480212BE058
:100E600000F1240301204FF4001125E00120A840E7
:100E70001860886828B14B68CE6846EAC3031843F7
:100E800003E00868CB6843EA40502B0104F5C074C6
:100E9000E05004EB05130C69184640F8044F097D37
:100EA000012903D1016841F480710160506801217A
:100EB000D8601068986000201A681143196070BDEE
:100EC00090F82020013A012A28D8F0B52D48026870
:100ED00042F001020260026822F47C5202604C6916
:100EE000CD694A6A036843EA02220123026004F0E2
:100EF0001F0203FA02F2C3699343C361D343012D76
:100F00000ED005BBC5681D40C56000EBC405CE68AA
:100F10008F8847EA06462E640D460DE001F08BBF30
:100F2000C5681543C56000EBC4050E688F8847EAA5
:100F300006462E6401F10C058E682D8800EBC40472
:100F400045EA0645656444688F690E69096A44EAA2
:100F50000205002F08BF04EA03054560002E44691E
:100F600044EA020508BF04EA03050129456102D1EC
:100F7000C1691143C161016821F0010101600020D4
:100F8000F0BD00BF00660040704770B590F820408B
:100F9000013C012C03D8046839B1256906E000F151
:100FA000240101204FF480224CE0E568AD073FD0DA
:100FB0000D0104F5D876745914F00404946006EB1E
:100FC0000114755919BFED0855606D0D1560256840
:100FD00005F00205D560656805F00F0515616568C7
:100FE000C5F30725956165682D0C5561A2681A70D7
:100FF00001F059FE120A5A7001F055FE120C9A7057
:1010000001F051FE120EDA7001F02CFE1A7101F09F
:1010100029FE120A5A7101F025FE120C9A7101F094
:1010200021FE120EDA71006841B100F1100107E0F3
:1010300000F1240101204FF4001203E000F10C0143
:10104000002020220B681A430A6070BD2DE9F84F7A
:10105000044600684669D0F804908768D0F80CB060
:10106000D0F810A0D0F81880F10701D1002545E094
:10107000F9070FD001218160B80708D4780720D480
:10108000380700F1B880204600F0AFF902E02046B2
:1010900000F0ACF90025F80518D520684FF48071F0
:1010A0008160B80509D478050ED438054EBF05F522
:1010B0008045204600F09BF908E0204600F098F9B2
:1010C00004E04FF40065E6E705F50055F80315D593
:1010D00020684FF480318160B80309D478030BD4C1
:1010E00038034EBF05F58035204600F082F905E053
:1010F000204600F07FF901E005F50045300748BFC4
:101100005FEACB604FD4700748BF5FEA0B7050D4E2
:10111000B00706D52068C068800702D0204600F0DE
:101120003AF9700648BF5FEACA6049D4B00648BFC2
:101130005FEA0A704AD4F00606D520680069800785
:1011400002D0204600F029F9B00348BF5FEAC96029
:1011500043D4F00348BF5FEA097045D4300463D537
:101160005FEA49705DD508EA1620F20508F0010132
:1011700000F0020048BF0844720508F0040148BFAF
:101180000844054330054CD518F0700049D010389C
:101190000009052840D8DFE800F0033A3437313D34
:1011A00045F0080538E02068102145F40075C1605D
:1011B000A9E720680821C160204600F0EBF8A7E706
:1011C0002068102145F480650161AFE7206808219F
:1011D0000161204600F0E0F8ADE720681021416091
:1011E000204600F0DBF8B4E7206808214160204683
:1011F00000F001F9B2E74FF480554CE745F0800567
:101200000AE045F0200507E045F0400504E045F020
:10121000100501E045F480752068816921F07001B6
:1012200081612068042141603DB1606A28436062A9
:101230002046BDE8F84FFFF7A7BEBDE8F88FA0B184
:1012400070B5044690F8200010B9204600F064F80C
:1012500001F096FD054620684168C90707D100F0F6
:1012600009FA401B0B28F6D311E0012070470168F2
:1012700021F00201016000F0FDF905462068416897
:1012800089070BD500F0F6F9401B0B28F6D3606AEE
:10129000052140F40030606201203AE0217E0268BE
:1012A00022F08002012908BF80320260617E02685C
:1012B00022F04002012908BF40320260A17E02688C
:1012C00022F02002012908BF20320260E17E02687C
:1012D00022F01002012918BF10320260217F02683B
:1012E00022F00802012908BF08320260617F02680B
:1012F00022F00402012908BF04320260261D6ECECE
:101300001A432A43013932431143C16100200121AC
:10131000606284F8201070BD10B586B0044601A844
:101320001421FFF789F82168184881422CD1002147
:10133000174A00F5D0300091136943F00073136130
:10134000136903F000730093009B0091136843F04E
:1013500002031360126802F0020200920922059251
:101360000322CDE90312022102914FF44071019151
:10137000009901A900F0AEF814200021002200F02D
:1013800015FA142000F006FA06B010BD0064004003
:101390003038024070477047704770477047B0B5AB
:1013A000044690F82000012816D1022084F820007D
:1013B0002068016821F00101016000F05BF9054639
:1013C00020684068C0070DD000F054F9401B0B287E
:1013D000F6D301F00FFD03E0606A40F40020606284
:1013E0000120B0BD00206062B0BD704770477047FB
:1013F0007047704770477047B0B5044600F03AF93F
:101400000546D548611C007818BF044400F032F945
:10141000401BA042FAD3B0BD2348016841F000410F
:1014200001600020704700BF2DE9F041DFF87480B3
:10143000074698F81800012804BF0220BDE8F08193
:1014400001201E4614460D4688F818004CF2503014
:10145000FFF710FC08BB022F0CD0012F05D077B985
:10146000E1B22846FFF78EFB0EE0A1B22846FFF757
:10147000ABFB09E028462146FFF7B6FB04E028460F
:1014800022463346FFF78CFB4CF25030FFF7F2FB5D
:1014900005490A6822F001020A60002188F8181044
:1014A000BDE8F081E4050020103C02400648C16818
:1014B000B1F1FF3FC4BF00207047044901600449F7
:1014C0000160C068C00F7047043C024023016745BB
:1014D000AB89EFCD2DE9FE4F5D4A08244FF0010B9B
:1014E0004FF0000C90425B4A08BF072402444FEAC9
:1014F000B223072B38BF4FEAB22400F12002019437
:10150000009200250022102A08BFBDE8FE8F0C685B
:101510000BFA02FA14EA0A0900F09580D1F804E007
:10152000032303FA0CF40EF00308E643A8F10104C8
:10153000012C12D88468D1F80CB00BFA0CF73440A7
:101540004FF0010B3C438460CEF300144768944095
:1015500027EA0A073C43446005E0B8F1030F02D1D3
:101560004FF0030823E0C4688F68344007FA0CF793
:101570003C43B8F1020FC46019D105F01C040F23DD
:10158000A84603FA04F76FF0030303EA520E009B28
:101590001D4653F80E30BB430F6907FA04F423438A
:1015A00045F80E304546D1F804E00EF00308046813
:1015B00008FA0CF3344023431EF4403F036042D04A
:1015C0000023274C244EA8460293236843F480430B
:1015D000236023680F2403F48043029305F00C0377
:1015E00022F00305029F35449C401E4FBE46EF5932
:1015F00027EA0404019F07FA03F3234345F80E305A
:1016000033684D6843EA0904EF0358BF23EA09042D
:101610003460AF03736843EA090458BF23EA09043E
:101620007460EF02B36843EA090458BF23EA09046F
:10163000B4600A4EAD024546336843EA090458BF18
:1016400023EA090434600CF1020C043501325AE734
:10165000001C02400000FEBF003C01400C3C014069
:101660004438024008FCFFFF002A08BF09048161DA
:10167000704700001C480068704700BF18B3B0B541
:10168000044600684CF6CC43D4E90112036045F2ED
:101690005553036041608260FFF7ECFF0546206808
:1016A000C16889070AD0FFF7E5FF401B3228F6D34F
:1016B0002068C0688007F2D00320B0BD4AF6AA2196
:1016C00001600020B0BD0120704700684AF6AA21E1
:1016D00001600020704700001F48034900780A6835
:1016E00010440860704700BF0406002080B50B4816
:1016F000016841F400710160016841F4806101609A
:10170000016841F480710160032000F075F80F203A
:1017100000F006F800F022F8002080BD003C0240F6
:1017200070B50D4E04464FF47A713078B1FBF0F08D
:101730007E490968B1FBF0F000F05CFC01250F2C3C
:1017400008D838B94FF0FF3021460022002500F0BC
:101750002DF87460284670BD0000002082B0002083
:101760000B4901904A6842F480424A604A6802F498
:1017700080420192019A0090086840F08050086011
:10178000086800F080500090009802B0704700BFD9
:1017900040380240002805D4734601F05AFA9E46AC
:1017A000014A8850704700BF00E100E0F0B5184BD7
:1017B0004FF0FF361C68C4F30224E51E84F00704D2
:1017C00038BF002506FA05F7BA43042C28BF0424C5
:1017D00006FA04F4A14300F00F04A940043C1143AD
:1017E000044A234409010244002848BF03F10C02C3
:1017F0001170F0BD00E400E005494FF6FF030A68F0
:101800001A4060F30A22034810430860704700BF83
:101810000CED00E00000FA05002852D02DE9F0415F
:10182000404B04468846D3F8000400F00700884285
:1018300004D283F8008401F006FA4BD120688107B6
:1018400011D5410703D5996841F4E051996001072A
:1018500003D5996841F460419960A1689A6822F0C3
:10186000F00211439960C0072DD101F0ECF904D9C1
:1018700083F8008401F0E7F92CD12068410705D5F1
:10188000E1689A6822F4E05211439960000706D596
:101890002069996821F4604141EAC00098601C46C3
:1018A00000F048F8A168204AC1F30311515CC84018
:1018B0001E4908601E480068FFF732FF0020BDE89F
:1018C000F081012070476068811E022905D21968E5
:1018D000890107D40120BDE8F08101281DD11968D4
:1018E0008903F7D599681D4621F0030108439860E4
:1018F000FFF7C0FE064641F288376068A9682B46AC
:1019000001F00C01B1EB800FAFD0FFF7B3FE801BED
:10191000B842F2D90320BDE8F08119688907D9D50A
:10192000E0E700BF00380240283A00080C00002021
:101930000400002010B5134C606800F00C0008286B
:1019400004D0042814BF1048104810BD2268206835
:101950000023400202F03F020C485CBF42F200400C
:10196000C0F2F4002168C1F38811A0FB0101FEF769
:10197000EBFC21680222C1F3014102EB4101B0FB03
:10198000F1F010BD043802400024F40040787D01DD
:10199000002864D02DE9FC4104460078C44EC007FD
:1019A0000CD0B06800F00C00042840F09080306843
:1019B000800303D56068002800F0A18020788007AC
:1019C00019D5B06810F00C0F07D001F0D4F940F031
:1019D00099807068400200F195803068800703D5D7
:1019E000E068012840F08B802069316821F0F8011F
:1019F00041EAC00030602078000732D420784007E8
:101A000042D4A76947B301F0B6F940F0AD80012F89
:101A100075D0E169706800F480028A426FD1216A52
:101A200000F03F028A426AD147F6C071626A014003
:101A3000B1EB821F63D1A16A4FF6FF72C9039143D4
:101A400000F44032A1F580318A4258D1E16A00F0B9
:101A50007060B0EB016F52D10020BDE8FC81012025
:101A60007047606900286ED092480121C0F8801E3E
:101A7000FFF700FE0546706F8007BFD4FFF7FAFD41
:101A8000401B0228F7D9C9E0306C5FEAC0080AD4CD
:101A900000200190306C40F080503064306C00F0D9
:101AA000805001900198844F3868C0053DD4386853
:101AB00040F480703860FFF7DDFD05463868C005EA
:101AC00033D4FFF7D7FD401B0228F7D9A6E001F079
:101AD00052F903D1706840023FF569AF3068616820
:101AE000B1F5803F07D0B1F5A02F40F0828040F4DF
:101AF00080203060306840F48030306082E0012027
:101B0000BDE8FC81E1686B4800294BD001210160F0
:101B1000FFF7B0FD0546306880073FF565AFFFF77A
:101B2000A9FD401B0228F6D978E0306FA168012991
:101B300005D0052946D140F004003067306F40F0F1
:101B40000100306747E05B480021C0F8801EFFF7C6
:101B500091FD0546706F80077FF550AFFFF78AFD56
:101B6000401B0228F6D959E05249002088460866F1
:101B7000FFF780FD0546022F09D13068800150D55E
:101B8000FFF778FD411B03200229F6D965E730688D
:101B900080017FF561AFFFF76DFD411B0320022936
:101BA000F5D95AE700210160FFF764FD054630686A
:101BB00080077FF520AFFFF75DFD411B0320022961
:101BC000F5D94AE720F0010000293067306F20F096
:101BD0000400306745D0FFF74DFD054641F28837D8
:101BE000306F80074CD4FFF745FD401BB842F7D952
:101BF00014E020F4803000293060306820F4802028
:101C0000306046D0FFF736FD0546306880033FF56B
:101C1000D5AEFFF72FFD401B6428F6D90320BDE8A1
:101C2000FC811C341FCC0843D90340EA82104FF6D4
:101C3000FF72914340EA0460A1F58031084370606F
:101C40000120C8F86000FFF715FD044630688001E8
:101C50003FF502AFFFF70EFD011B03200229F5D966
:101C6000FBE6FFF707FD054641F28837306F800736
:101C700006D5FFF7FFFC411B0320B942F6D9ECE67D
:101C8000B8F1000F3FF5BDAE306C20F080503064ED
:101C9000B7E6FFF7EFFC0546306880037FF58EAEB0
:101CA000FFF7E8FC411B03206429F5D9D5E600BF06
:101CB00000380240000047420070004070B530B16B
:101CC0000446406A28B100202061142006E0012566
:101CD0004AE06068B0F5827F02D01C2000212150CC
:101CE0000025A56294F8510020B9204684F8505090
:101CF00000F03CF8022084F8510094E80F0001F451
:101D0000827102F404420668114403F40062114433
:101D100026F040060660226902F002021144626960
:101D200002F001021144A26902F400731944E3694C
:101D300003F038031944236A03F080031943A36AAC
:101D400003F4005319430160042101EA1241626A5D
:101D500002F0100211444160C16921F40061C161C7
:101D60000120656584F85100284670BD2DE9F041D9
:101D700086B0044601A81421FEF75EFB20683549B1
:101D8000334E88421ED0344988425DD10020334909
:101D9000102500904A6942F480524A614A6902F46F
:101DA00080520092009A0090086840F0010008609C
:101DB0000868052100F001000090E02001900098E3
:101DC000304627E0002125484FF400450091026984
:101DD00042F400420261026902F400420092009A59
:101DE0000091026842F004020260026802F00402FC
:101DF0000092009A0091016841F001010160062102
:101E0000006800F00100009000984FF4E05001904D
:101E100006F50060059103210DF104080027022456
:101E20000491414603970294FFF754FB0120414679
:101E3000CDE90374CDE901503046FFF74BFB304646
:101E400029460122FFF710FC06B0BDE8F08100BF73
:101E500000000240003C00400030014030380240A9
:101E60002DE9F84300F053FF04BF0220BDE8F883DA
:101E700001201E4615460F4684F85000FFF7FAFB76
:101E800094F851108146012956D1002F00F09C8012
:101E9000002D00F09980002E00F0968094F85100FB
:101EA00004281CBF052084F8510000206065E687E7
:101EB000E686C4E91000A563A6872763A686206886
:101EC0000168490601D400F0F2FFE268DDF82080E5
:101ED0006168B2F5006F3CD109B1012E01D100F06B
:101EE0005BFF012608F10105E08E10B9E08F0028A4
:101EF00062D000F060FF0CD5E18E51B1012E08D107
:101F0000216B002631F8022BC2602163E18E01397A
:101F1000E1868168C90706D0E18F21B1A16BC06855
:101F2000012600F041FFFFF7A5FB002DDCD0A0EB60
:101F300009004045D8D33DE06068B0F5827F06D106
:101F40000220042941D1A16800299ED03DE0022051
:101F50003BE009B1012E02D1397800F07EFF012665
:101F600008F10105E08E08B9E08F28B300F023FFE7
:101F70000ED5E18E61B1012E0AD1216B00260978C0
:101F80000173216B206801312163E18E0139E18603
:101F90008168C90706D0E18F21B1A16BC068012615
:101FA00000F0C2FEFFF766FB002DDBD0A0EB0900BE
:101FB0004045D7D3032008E0204641464A4600F07A
:101FC0007DFF50B1202060650120002184F8501071
:101FD000012184F85110BDE8F883A1680020002990
:101FE000F3D100902168CA68009289680091009935
:101FF000EBE70000411E0020B0EB116F1CBF012079
:102000007047044AF023516003490B700721906028
:102010001160704710E000E023ED00E0704770476A
:1020200090F83C300222012B2FD010B580F83D20D3
:1020300002680B68546824F070041C439368B2F182
:10204000804F546014D0434CA24211D0424CA24263
:102050000ED0424CA2420BD0414CA24208D0414C7F
:10206000A24205D0404CA24202D0404CA24204D130
:10207000496823F08003194391600022012180F810
:102080003C2080F83D10BDE810401046704700BF6E
:1020900058B110B500F0D5FE03D100F090FE00F06D
:1020A00007F800F0FAFE00F004BE012070470000BF
:1020B00000680D49884218BF7047E0B50020002233
:1020C00001900A48016841F0200101600021006888
:1020D00000F02000019001983720FFF767FB3720C0
:1020E000BDE88C40FFF756BB00140040403802406A
:1020F00090F83D1001291CBF01207047022180F893
:102100003D100068C168B0F1804F41F00101C1602D
:1021100014D01049884211D00F4988420ED00F497F
:1021200088420BD00E49884208D00E49884205D01B
:102130000D49884202D00D49884204D1724600F010
:10214000DAFD964603D0724600F0CAFD964600209E
:10215000704700BF0004004000080040000C004031
:102160000018004000000140004001400004014010
:10217000704710B5044600680169890712D5C16827
:1021800089070FD56FF00201016101212177806974
:10219000800702D000F05AFE01E000F033FE00207C
:1021A000207720680169490713D5C168490710D510
:1021B0006FF00401016102212177806910F4407FF2
:1021C00002D000F043FE01E000F01CFE002020776A
:1021D00020680169090712D5C16809070FD56FF09A
:1021E0000801016104212177C069800702D000F055
:1021F0002DFE01E000F006FE002020772068016936
:10220000C90613D5C168C90610D56FF01001016168
:1022100008212177C06910F4407F02D000F016FE3B
:1022200001E000F0EFFD0020207720680169C90778
:1022300009D0C168C90706D06FF0010101612046CD
:1022400000F02CF820680169090609D5C168090663
:1022500006D56FF0800101612046FFF7DFFE2068A0
:102260000169490609D5C168490606D56FF04001E4
:102270000161204600F013F820680169890602D543
:10228000C168890600D410BD6FF0200101612046AD
:10229000BDE81040FFF7C3BE7047704770477047F6
:1022A000FEE7B0B5044690F85D00012802D194F82D
:1022B0006C0000B1B0BD04F15C0004F13C0501F01C
:1022C0003BF9284601F035F904F14C0001F031F9F1
:1022D000204601F074F9012084F86C00B0BD0000C4
:1022E0002C4810210122FFF7BFB900BF2948102157
:1022F0000022FFF7B9B900BF1CB54FF0FF300DF158
:102300000702FF210123FF2400901B48FFF7A8FDCF
:102310009DF80710002818BF214608461CBD00BFC5
:102320002DE9FC41144E0C4605464FF0FF380DF1E7
:10233000070725B100F0A2FC0134013DF9E7BDE833
:10234000FC8100BF2DE9FC47DFF8608E00F041FD05
:102350000DF1070926B100F04FFC0137013EF9E706
:10236000054E4FF0FF3724B100F0EBFC0135013C86
:10237000F9E7BDE8FC8700BFBC04002005484FF426
:1023800000410122FFF770B902484FF400410022DA
:10239000FFF76AB9000002401CB54FF0FF300DF1A5
:1023A0000702FF210123FF2400901B48FFF758FD7F
:1023B0009DF80710002818BF214608461CBD00BF25
:1023C0002DE9FC41144E0C4605464FF0FF380DF147
:1023D000070725B100F052FC0134013DF9E7BDE8E3
:1023E000FC8100BF2DE9FC47DFF8E48D00F0F1FC33
:1023F0000DF1070926B100F0FFFB0137013EF9E7B7
:10240000054E4FF0FF3724B100F09BFC0135013C35
:10241000F9E7BDE8FC8700BF14050020BBEE041AF5
:10242000B4EE410AF1EE10FAB8BFB0EE410A9FEDEA
:102430000C1AB4EE410AF1EE10FAC8BFB0EE410A30
:10244000B3EE041A30EE010AB6EE001A30EE000ABE
:1024500030EE010ABDEEC00A10EE100A704700BF50
:102460000000D742B0EE001AB6EE002AB4EE410AE0
:10247000F1EE10FAB8BFB0EE410A9FED0B1AB4EEC0
:10248000410AF1EE10FAC8BFB0EE410AB8EE001AE8
:1024900030EE010A9FED051A00EE012ABDEEC20AD8
:1024A00010EE100A704700BF9A9991400000C84290
:1024B000BCB500F50A740546204600F07DF905F527
:1024C0004275284600F078F919481C4B02781948E3
:1024D000017819480090204600F07EF918481B4BFF
:1024E00002781848017818480090284600F074F9DE
:1024F000204600F06FF9284600F06CF9204600F005
:102500005DF9284600F05AF9012001F0E3F80220B5
:1025100001F0E0F80120FEF76FFF0120214600F0F6
:1025200071F902202946BDE8BC4000F06BB900BF3C
:10253000080000200A000020C0050020D805002067
:10254000090000200B000020CC050020DD05002044
:102550002DE9F04F87B00746012001F0BBF80220BB
:1025600001F0B8F8904E0120B04707F50A7B012032
:10257000594600F0B3FA07F542750220294600F0EB
:10258000ADFA0320B04700F04FFC00F080FC0320C0
:10259000B04700F03EFB814600F022FC0646B9F150
:1025A000000F06D0032C04D200F033FB8146013427
:1025B000F5E7002436B1022C04D800F011FC0646E1
:1025C0000134F7E756EA0900029540F0938007F2DC
:1025D00026309FED730BCDF804B007F1E0084FF003
:1025E000000B059007F24620049050EC10AB0690CB
:1025F000069D0BF101000C2822D207EB4B04B4F826
:10260000480201F0EEF852462B4601F0FDF801F0C9
:10261000B7F800F03BFBB4F8280388ED000A01F09E
:10262000E0F852462B4601F0EFF801F0A9F800F06F
:102630002DFB88ED240A0BF1020B08F11808D8E7EE
:10264000039700240027DDF804B0DDF818800C2F74
:102650001DD2049D35F8170001F0C3F852464346D9
:1026600001F0D2F801F08CF85049254468500598E3
:1026700030F8170001F0B5F85246434601F0C4F8AF
:1026800001F07EF84A49083402376850DFE701203C
:10269000594600F044FA029D0220294600F03FFA14
:1026A000414F0320B8470120594600F028FA022084
:1026B000294600F024FA0320B84700F0B5FB00F0EB
:1026C000E6FB0320B847039FB9F1000F06D0032CA7
:1026D00004D200F09EFA81460134F5E7002436B1B9
:1026E000022C04D800F07CFB06460134F7E756EADA
:1026F00009000DD0022087F86C000120594600F037
:102700000EFA0299022007B0BDE8F04F00F007BAB8
:10271000069C07F1D40500260C2E1CD2049830F834
:10272000160001F05EF800F01AFB01F029F800F045
:10273000ADFA059885ED000A30F8160001F051F861
:1027400000F00DFB01F01CF800F0A0FA85ED240A62
:1027500018350236E0E7069C4FF000080025681C9B
:102760000B28CAD807EB4506B6F8480201F039F83D
:1027700000F0F5FA01F004F8039901EB0807786717
:10278000B6F8280301F02DF800F0E9FA00F0F8FFA0
:10279000C7F8A400039F08F108080235DFE700BF6F
:1027A0002D431CEBE2361A3FF91300082AFEFFFF07
:1027B0005AFEFFFF00F028B800F08EB840F2023158
:1027C000A0F8DA100149C0F8D61070470C040604CE
:1027D00000F09CB800F002B970B51C4615460646DC
:1027E00000F05EF93046294600F025F930462146D2
:1027F00000F046F904993046BDE8704000F021B978
:1028000000F01FB900F053B9BCB512014C08012506
:1028100002EBC11165F35F0419448DF80440603187
:102820008DF8051001A900F0FDFEBCBD70B50428AF
:1028300011D8DFE800F0033D11250500887B00E09A
:10284000487FB1F8BA200244A1F8BA20B1F8BC2000
:102850001044A1F8BC0070BD91F8DA00002290424B
:10286000F9D08B18B1F8BA5093F85A4000F048FAF2
:10287000B4F8CA5093F85A302B44A4F8CA30EEE7A3
:1028800091F8DB2001F16B000023013A9342E2DA78
:10289000C45CB1F8BA502C4400EB4305A1F8BA402F
:1028A000B5F86760C45C01333444A5F86740EDE7D0
:1028B00091F8D90000229042CDD08B18B1F8BA50CF
:1028C00093F8424000F01CFAB4F8BE5093F842303E
:1028D0002B44A4F8BE30EEE7F8B5002100220391A6
:1028E000CDE90111062A04D0831881540132D9732D
:1028F000F8E701A903A300220091012100F088F864
:102900008FBD00BF01010101010000002DE9F84F5A
:1029100000F0EBF9054608F1420908F11E0B96B1EB
:10292000504631462A4600F021F8304600F06CF956
:10293000064601204146FFF779FF2846FDF7DDFCFA
:10294000F0B2BDE8F88F0127002698F8D900FCB254
:10295000A042EED3504621462A4600F007F8204612
:1029600000F052F906440137EFE70000BCB5054618
:10297000481E1446052819D80FF20401DFE800F0BC
:10298000030F090C06124FF480600DE04FF4106045
:102990000AE04FF4006007E04FF4206004E04FF4D9
:1029A000C06001E04FF43060ADF8040001A900F010
:1029B00038FA00F0B4F909D0012D0ED1FFF796FCDA
:1029C00001A800F052FAFFF78BFCBCBDFFF7DCFC5E
:1029D00001A800F057FAFFF7D1FCBCBD002100F1BF
:1029E000BE020023C0F8BA10062B03D022F8131041
:1029F0000133F9E700F1CA0100220023042B03D0C0
:102A000021F813200133F9E70021C0F8D2107047F4
:102A100010B50446007861F38202194600F0FA000E
:102A200010442070204600F02BF802992046BDE8A3
:102A3000104000F006B8027802F0FE021144017066
:102A40007047F0B5047900220123082A08D000F06D
:102A50007FF908BF24EA060707713C460132F4E714
:102A60004479083100220123042A08BFF0BD00F098
:102A70006FF908BF24EA060747713C460132F3E7C5
:102A8000F0B5047800220823052A08BFF0BD00F045
:102A90005FF908BF24EA060707703C460132F3E7F6
:102AA000027802F0FB0261F382020270704710B5F7
:102AB000C2B04FF480720DF10603ADF8062100227A
:102AC000062A03D08C5C9C540132F9E70DF5837122
:102AD0000DF1060200F01CFE42B010BDBFB500F0C3
:102AE000C9F9012001A90C2A02D288540232FAE75E
:102AF00001A92046FFF784FE00F0ABF9BFBDBFB5CA
:102B000000F0B8F901A90C2802D20A540230FAE701
:102B100001A92046FFF774FE00F09BF9BFBDBFB5C9
:102B2000054600200C460390CDE9010001A920468E
:102B3000FFF766FE00F08DF9BFBD00001848B0EE4B
:102B4000401A9FED180A011D0020202826D011ED03
:102B5000012AB4EE412AF1EE10FA06DB91ED003ABB
:102B6000B4EE413AF1EE10FA02DD01300431ECE747
:102B700033EE420A31EE421A0B4981EE001A0A5630
:102B8000084490F90100801A00EE100AB8EEC02A3D
:102B900000EE102AB8EEC00A01EE020A704700BF2C
:102BA0005C3A00080000C8C2383A000800F04EBA8B
:102BB00000F078BA00F087BA00F088BA00F0A0BA46
:102BC00000F0BABA00F0C2BA00F0E0BA00F0E0BA21
:102BD00000F0F0BA0248807900B1704700F084BB81
:102BE0007000002000F06CBBFEE7FEE7054600F237
:102BF0000C400C4600F084BC404639464A4601234E
:102C0000CDF800A0FFF72CB929465A464B4600F0F4
:102C10002EBD012000215A46FFF7DABD4FF482761F
:102C20004FF4007301240225C0E90A212021C0E9E4
:102C30000822C0E90076C0E90222C0E90454C0E9D4
:102C40000631FFF73BB8D3F8000400F00700404519
:102C500070471C21012201EAD00100F01F0002FA96
:102C600000F07047026802EB0112D2F8BC217047F5
:102C7000054600F57C700C4600F042BC304621460B
:102C80003A460123CDF80080FFF7EAB800EE100ABB
:102C9000FFF754BF01202146CDE90466CDE902705B
:102CA0002846FEF717BC026802EB0112D2F8B821E1
:102CB0007047012084F8460084F83E0084F83F0005
:102CC00084F8400084F8410084F8420084F843000E
:102CD00084F8440084F8450084F83D00002010BDCD
:102CE000016841F00101016070478246082090466A
:102CF0000E46FDF7D3BA816801F007010629704737
:102D00002C44A1F8BA4001EB42040132704704465A
:102D100090F85000012870470420FFF751BB40BADB
:102D2000022DADF8060070470870A06B0130A0635B
:102D3000E08F0138E0877047C5F8204485F8090422
:102D4000B0BD3046FF212A4601230097FFF788B81F
:102D50008D5C03FA02F644EA0607002D70475246DE
:102D6000234600F051BD006800F004000190019876
:102D70002846FEF779BCB06800F00C0008287047C0
:102D80002068016841F001010160FEF773BC40BAA0
:102D9000022CADF80600704737F8021BC1602763AC
:102DA000E08E0138E086704721F8020BA163E08FC6
:102DB0000138E087704720688168890770470020E4
:102DC00084F83C002046704700202070284600F020
:102DD000A8BB1C4615460E4607464FF0FF3A704703
:102DE000022000212A46FFF7F3BC29462246002391
:102DF000FEF71ABB606A40F400306062052084F878
:102E0000200070474DF808ED2046FFF745FA2046B0
:102E10005DF808EBFFF741BAC5F8044485F8ED0307
:102E2000B0BD022000F042BC01200221012200239B
:102E30000024FFF7BFBC416A41F4802141620120B8
:102E40007047044690F83D00002870472046FFF781
:102E50008FB928462146FFF7D5BC0173206B01309E
:102E60002063E08E0138E086704704212246082363
:102E7000FFF768BA054600200C4601220390CDE911
:102E800001007047042122460823FFF7ABBA022055
:102E9000022101220023FFF78DBC0220211D84F8AE
:102EA0003D00206800F0C0BA062000F0FFBB0168BA
:102EB00041F0400101607047704700001CB50446B6
:102EC0003F4813460A4611490068B0FBF1F04FF441
:102ED0007A71484301906068B0F5827F0AD120463C
:102EE000802100F015F870B1606D40F02000606541
:102EF00003201CBD019830B1019801380190206871
:102F000080680006F6D400201CBD00BF00366E01AC
:102F10002DE9FC411E4617460D468046FEF7AAFBEA
:102F2000301AC419FEF7A6FB0646EC4801370068C4
:102F3000C0F3CB3060430190D8F80000816829408D
:102F4000A9420ED1002FF9D0FEF794FB801BA042BE
:102F50000AD20198019901390191002808BF04465D
:102F6000EAE70020BDE8FC81D8E900014268B1F53C
:102F7000827F22F0E00242600BD1D8F80810B1F550
:102F8000004F02D0B1F5806F03D1016821F04001FC
:102F90000160D8F82810B1F5005F07D1016821F46D
:102FA00000510160016841F400510160002088F87F
:102FB0005000012088F851000320BDE8FC8100BFCB
:102FC0000C000020B0B58AB027481F4D0024022312
:102FD0004FF480114FF44022C0E90053C0E902448D
:102FE000C0E9042184618483FEF729F918B1EFF365
:102FF000108072B6FEE7CDE905446C460125142128
:1030000020460795FDF718FA0E202146CDE9085015
:103010001548FDF755FF18B1EFF3108072B6FEE7C3
:103020001148FEF7BCF918B1EFF3108072B6FEE755
:103030000D480221FDF7E6FE18B1EFF3108072B6DD
:10304000FEE70AB0B0BD00BF0064004080B5134683
:103050000A4601460448FDF7E8FE18B1EFF3108078
:1030600072B6FEE780BD00BF9404002080B5FEF775
:103070003DFB00F0B1F800F075F80848016841F038
:10308000807101600648016841F00101016000F0B3
:10309000EBF8BDE88040FFF795BF00BFFCED00E016
:1030A000001000E0B0B50C460546FEF7FFF902201F
:1030B000FFF79BFE18B1EFF3108072B6FEE7BDE894
:1030C000B040FEF7A9B9006870470000F0B587B0BE
:1030D00002AC14212046FDF7AFF900261548204D1B
:1030E00000224FF480770196016841F004010160ED
:1030F0004FF48071FFF737FEFFF7CCFD07B0F0BD4E
:10310000F0B587B002AC14212046FDF795F90026F2
:103110000848134D00224FF400770196016841F0F2
:10312000040101604FF40071FFF71DFEFFF7B2FDCF
:1031300007B0F0BD3038024001384FF48071B0FA6A
:1031400080F042090648FEF78FBA00BF01384FF4FD
:103150000071B0FA80F042090148FEF785BA00BF5D
:103160000008024080B56248074B40F6FF7102221A
:10317000C0E900328160FEF781FA18B1EFF31080E8
:1031800072B6FEE780BD00BF00300040FFF76EBFA3
:10319000F8B5064800220A21054FFFF73FFD18B198
:1031A000EFF3108072B6FEE7F8BD00BFBC0400204C
:1031B00000300140F8B5064800220A21054FFFF70C
:1031C0002DFD18B1EFF3108072B6FEE7F8BD00BF19
:1031D00014050020003C0040B0B592B006AC302190
:1031E0002046FDF729F901A81421FDF725F900254E
:1031F0001B480095016841F080510160006800F0B3
:1032000080500090009800951648016841F4804174
:1032100001601021006800F48040009001200C95AE
:103220000B90CDE909010A20069000982046FEF790
:10323000AFFB18B1EFF3108072B6FEE70F200295D6
:10324000CDE9035505950021019001A8FEF7E4FAA8
:1032500018B1EFF3108072B6FEE712B0B0BD00BF38
:1032600040380240007000401CB56E48134C0021ED
:1032700040F2E7320F23CDE900118161C0E900433C
:10328000C0E90212FEF704FF18B1EFF3108072B626
:10329000FEE7644C69462046FEF7C2FE18B1EFF324
:1032A000108072B6FEE72068002141626FF00101D4
:1032B00001612046FEF71CFF1CBD00BF001400404A
:1032C0000649074A0968B1FBF2F1484305490A6813
:1032D0000B689B1A8342FBD3704700BF0C00002091
:1032E00040420F00041000E00148FEF7EEB900BFB5
:1032F000B4050020704710B5044600F57C7000F05E
:103300001EF904F20C40BDE8104000F018B970B589
:103310000446FFF753FCFFF74FFC002504F57C70D3
:1033200001210022C8230126A4F8ED5384F800549B
:1033300000F0E8F8A4F8095484F81C6404F20C4086
:10334000012100223223BDE8704000F0DBB810B547
:10335000044600F038F92046BDE81040FDF723BDD3
:10336000B0B504464078A178814243D004F1040509
:10337000A07088B901202070284600F0DDF82846AA
:1033800000F0C9F8207D012803D020B9FDF7FDFC2D
:1033900001E000F00EF96078012810D100202070C3
:1033A000284600F0C9F8284600F0B5F8207D01282D
:1033B00003D020B9FDF7ECFC01E000F0FDF86078E7
:1033C00002280BD1FFF700FD207D012803D020B992
:1033D000FDF7DEFC01E000F0EFF86078032809D18A
:1033E000FFF7F2FC207D012805D018B9BDE8B040F8
:1033F000FDF7CEBCB0BDBDE8B04000F0DDB8FEF7D3
:103400006BB900000248016841F470010160704727
:1034100088ED00E080B50348FEF7ABFEBDE88040D4
:10342000FDF7A8BB6C05002070B52A4A03689042DE
:1034300034D0B0F1804F0BD0274CA04208D0274C9D
:10344000A04205D0264CA04202D0264CA04203D177
:103450004C6823F070032343B0F1804F22D01E4C00
:10346000A0421FD01D4CA0421CD01E4CA04219D01F
:103470001D4CA04216D01D4CA04213D01C4CA042A3
:1034800010D0174CA0420DD01A4CA0420AD01A4CB2
:10349000A04207D0194CA04204D007E04C6823F0AA
:1034A00070032343CC6823F4407323434E6923F015
:1034B00080030C688D68334390420360C562846268
:1034C00003D002F58062904201D1096901630121B4
:1034D000416170BD00000140000400400008004050
:1034E00000040140000C004000180040001C004097
:1034F00000200040004001400048014000440140DD
:103500008181704741720021827383814181017200
:10351000416001807047002141810180017241605A
:1035200070470021018001724160418101210170D9
:1035300070470121017070470021017070470178C8
:1035400001290ED14168427A0A319142416004D387
:10355000837B3BB1C9087C2905D8818942898A428D
:103560000AD270470023818931B1012B0AD0002B88
:10357000F4D10022426011E0002141814FF48071BA
:103580000180704710B5047A00234360013404724F
:10359000E4B29442BDE81040E0D3037242890132A4
:1035A0004281DBE7FEE7B0B5FFF720FB0220FFF723
:1035B000C3BB0020FFF704BB0120FFF701BB0021C4
:1035C00080F809147047B0B5054690F80D0401283D
:1035D00010D195F8090405F20C4403280BD00228F9
:1035E00008D195F8080498B1002085F80804FFF781
:1035F000E3FF12E0B0BDFFF7DCFF012085F808040F
:103600002046FFF799FF2046BDE8B040FFF783BF93
:10361000012085F80804FFF7CCFF2046BDE8B04044
:10362000FFF77FBF1CB504460888ADF8040001A968
:10363000FFF7F7FBFFF7ABFB0AD0012C0FD1FEF72A
:1036400055FE01A90420FEF76BFEFEF749FE1CBDE6
:10365000FEF79AFE01A9FFF75FFBFEF78FFE1CBD88
:10366000FDF782FAFDF77CFAFDF780FAFCE770B50A
:10367000054600EB40001C4602EB400000220638E5
:10368000032A06D001EB42031B8920F812300132D5
:10369000F6E7CE890831FFF707FC31BAB0EB1140ED
:1036A00018BF0120611901F8010C70BDB0B5084BBD
:1036B000102250B111F8015BC2F3C71401386C40FD
:1036C00033F8144084EA0222F3E7500080B2B0BD20
:1036D000E03A000880B502280ED0012818BF80BD4E
:1036E000FEF704FE0220FFF77DFAFF20FEF704FE3E
:1036F000BDE88040FEF7F4BDFEF746FE0220FFF76E
:1037000071FAFF20FEF748FEBDE88040FEF736BEA6
:10371000F8B505460C2016460F46FCF7BFFD0446DB
:10372000388821462080FFF77CFB40BA608000206B
:10373000062804D0325C211801300A71F8E706200F
:103740003146FFF7B3FF40BA012D60810AD0022D48
:1037500010D1FEF719FE0C202146FEF731FEFEF7D0
:103760000DFE07E0FEF7C2FD0C202146FEF7D8FD56
:10377000FEF7B6FD2046BDE8F840FCF7BEBD0000F0
:1037800021F0004201F00043A2F16052B2F5801F27
:1037900028BFD2F17F6C0BD95FEA001C43EAC2025A
:1037A00042EB507018BF704728BF20F001007047EF
:1037B000B2F5801FBCBF184670474FEA410C1CF59C
:1037C000001F02D2084600F02AB970B500F0C6F812
:1037D00000000089FFF7F6BF4FF00040A0F5800021
:1037E0007047B0FA80F310FA03F10AD0C3F11D0359
:1037F00003F580634FEA03524FEA415002EBD121B7
:1038000070474FF00000704770B5DFF848C11CEA00
:10381000111E1EBF1CEA13159EEA0C0F95EA0C0F31
:1038200000F06F8081EA03044EEAD47EAE4421EAC0
:103830004C1123EA4C1341F4801143F48013AEF190
:103840007F7EA1FB024CA0FB0365361955EB0C05EE
:10385000A1FB034C4CF10003A0FB021C16EB0C0671
:10386000654153F10003094218BF46F0010613F405
:10387000007F0BD14FEA03314FEA053041EA155181
:1038800040EA165034036FF003020AE04FEAC32106
:103890004FEAC52041EA555140EA5650F4026FF014
:1038A000020202EB2E4201EB025585EACE710AD0EC
:1038B0005FEA440C18BF24F0004450F1000041F1CD
:1038C000000120EAD47040F2FE7C624500D270BD57
:1038D000A84214BF4FF080444FF04044002E08BF70
:1038E0000024BEF1806FA8BFA1F1C041BDE87040C7
:1038F00080F2828001F1C04101F000414FF00000F0
:1039000070470CEA13159EEA0C0F18BF95EA0C0FCE
:1039100006D081EA030E4FF000000EF0004170BDAA
:1039200000F01CF88900013E00F007B800F009B86B
:103930004FEA430C5FEA5C5C08D081EA030100F0C7
:103940005BB84FEA410C5FEA5C5CF6D102494FF08C
:10395000000070470000FF070000F87F0EF1020E24
:103960002EF0030E5EF8046B364205D4012A43EBB9
:10397000030515F5001F12D8012841EB010C1CF5B9
:10398000001F0CD80ED14FEAD17C0CEB4C0C0CF183
:10399000020C15F5001F08BF4CEBD37C04E04FF080
:1039A000080C01E04FEAD37C0CEB4C0526FA05F637
:1039B00006F00706B6F1040C06D20EEB860CBDE845
:1039C00070404CF0010C6047DFE80CF0090B02027C
:1039D0004FF00041A1F500214FF0000070BD1946E5
:1039E0001046012851EB010418BFD4F5001484BF20
:1039F000002001F0004170BD0808A0F500114FEA59
:103A000031017047F1EE100A4FF6FF71C0F2C0317C
:103A100020EA010040F04070E1EE100A7047FF21FB
:103A200041EAD050C00570470000000000000000CF
:103A30000102030406070809D8DDE2E7ECF1F6FB12
:103A400000050A0F14191E23282D32373C41464B1E
:103A500050555A5F64696E7378000000F6281C4068
:103A600048E11A409A991940EC5118406666164090
:103A7000E17A1440AE47114052B80E4048E10A4086
:103A80003D0A07403333034052B8FE3F8FC2F53F33
:103A90007B14EE3F6666E63F52B8DE3F3D0AD73FF5
:103AA000D7A3D03F1F85CB3F6666C63FAE47C13F19
:103AB000A470BD3F9A99B93F3D0AB73F3333B33F36
:103AC000D7A3B03F295CAF3FCDCCAC3F1F85AB3F08
:103AD000713DAA3FC3F5A83F14AEA73F6666A63F57
:103AE000000099C5ABCE320BCFD8561D6416FDD35E
:103AF00007F49E31AC3A35FFC82C51E963E2FA274E
:103B000097AD0E683C63A5A65875C1B0F3BB6A7E3D
:103B10009059099C3B97A2525F81C644F44F6D8A2D
:103B20002E5BB79E85951C50E18378464A4DD3881D
:103B300029AFB06A82611BA4E6777FB24DB9D47C0D
:103B4000B9F6203312388BFD762EEFEBDDE04425FD
:103B5000BE0227C715CC8C0971DAE81FDA1443D1ED
:103B6000C5F35C366E3DF7F80A2B93EEA1E53820DD
:103B7000C2075BC269C9F00C0DDF941AA6113FD4CD
:103B8000525ECB9BF99060559D8604433648AF8DBD
:103B900055AACC6FFE6467A19A7203B731BCA879AD
:103BA000EBA8726D4066D9A32470BDB58FBE167B9D
:103BB000EC5C75994792DE572384BA41884A118F8D
:103BC0007C05E5C0D7CB4E0EB3DD2A18181381D67D
:103BD0007BF1E234D03F49FAB4292DEC1FE786226D
:103BE00013A28A67B86C21A9DC7A45BF77B4EE715D
:103BF00014568D93BF98265DDB8E424B7040E9854D
:103C0000840F1DCA2FC1B6044BD7D212E01979DC3C
:103C100083FB1A3E2835B1F04C23D5E6E7ED7E282C
:103C20003DF9A43C96370FF2F2216BE459EFC02A1C
:103C30003A0DA3C891C30806F5D56C105E1BC7DE0C
:103C4000AA543391019A985F658CFC49CE425787FC
:103C5000ADA03465066E9FAB6278FBBDC9B65073EC
:103C6000D6514F947D9FE45A1989804CB2472B82DC
:103C7000D1A548607A6BE3AE1E7D87B8B5B32C76CC
:103C800041FCD839EA3273F78E2417E125EABC2FBC
:103C90004608DFCDEDC6740389D01015221EBBDBAC
:103CA000F80A61CF53C4CA0137D2AE179C1C05D99C
:103CB000FFFE663B5430CDF53026A9E39BE8022D8C
:103CC0006FA7F662C4695DACA07F39BA0BB192747C
:103CD0006853F196C39D5A58A78B3E4E0C4595806C
:103CE000003D00080000002010000000EC0100086A
:103CF000103D000810000020F80B00000C02000826
:103D00000100000010000000010101010024F40086
:040000050800018965
:00000001FF
