:020000040800F2
:10000000F00800205502000841270008D12600080A
:100010003D270008D9090008C5300008000000008D
:10002000000000000000000000000000BD2E0008DD
:10003000690B00080000000045270008C12E0008D9
:100040006F0200086F0200086F0200086F020008CC
:100050006F0200086F0200086F0200086F020008BC
:100060006F0200086F0200086F0200086F020008AC
:100070006F0200086F0200086F0200086F0200089C
:100080006F0200086F0200086F0200086F0200088C
:10009000E10900086F0200086F0200086F02000803
:1000A0006F0200086F0200086F0200086F0200086C
:1000B0006F0200086F0200086F0200086F0200085C
:1000C0006F0200086F0200086F0200086F0200084C
:1000D0006F0200086F0200086F0200086F0200083C
:1000E0006F0200086F0200086F0200086F0200082C
:1000F0006F0200086F0200086F0200086F0200081C
:100100006F0200086F0200086F0200086F0200080B
:100110006F0200086F0200086F020008D92E000865
:100120005D0B00086F0200086F0200086F020008F4
:100130006F02000800000000000000006F020008CD
:100140006F020008390A00086F0200086F020008F9
:100150006F0200086F0200086F0200086F020008BB
:100160006F0200086F0200086F0200086F020008AB
:100170006F0200086F02000800000000000000008D
:100180006F0200086F02000800F002F800F052F859
:1001900014A696E8000CB244B344DA4501D100F04D
:1001A00049F8BAE80F000FA696E83000A5EB040561
:1001B00004EB0607AAEB0704A7F101074FEA1515A0
:1001C0004FEA3414A4F10104AC4201D300F032F838
:1001D00013F0010F18BFFB1A43F0010300F001F800
:1001E000DBE71847242F0000442F0000103A24BFFB
:1001F00078C878C1FAD8520724BF30C830C144BF8C
:1002000004680C6070470000704700000023002461
:1002100000250026103A28BF78C1FBD8520728BF16
:1002200030C148BF0B6070471FB502F054FF1FBDBF
:1002300010B510BD00F0D0F81146FFF7F5FF02F041
:1002400043FF00F0EEF803B4FFF7F2FF03BC00F049
:10025000F5F800000948804709480047FEE7FEE737
:10026000FEE7FEE7FEE7FEE7FEE7FEE7FEE7FEE766
:1002700004480549054A064B70470000C52E000892
:1002800089010008F0020020F0080020F00400209E
:10029000F004002053EA020C00F069802DE9F04BD5
:1002A0004FF00006002B1FBFB3FA83F503FA05F4E5
:1002B00024FA05F65E4012BF1643B2FA82F502FA3E
:1002C00005F4C5F120051EBF22FA05FC44EA0C0422
:1002D000203556EA044C4FEA144418BF641C4FF012
:1002E00000084FF00009904271EB030C39D300294C
:1002F00019BFB1FA81F701FA07F6B0FA80F700FAF0
:1003000007F6C7F120071EBF20FA07FC46EA0C06D5
:100310002037B6FBF4FCA7EB0507103F07F01F0BD7
:10032000CBF120062CFA06F60CFA0BFB44BFB346C1
:100330000026202FA4BF5E464FF0000B5BEA060CA0
:1003400008BF4FF0010B19EB0B0948EB0608ABFB9C
:10035000027C06FB02CC0BFB03CCC01B71EB0C0137
:10036000C1E70B46024641464846BDE8F08B13B54F
:10037000084318BF4FF0FF300146AFF30080BDE8DF
:100380001C4070474FF0000200B513469446964655
:10039000203922BFA0E80C50A0E80C50B1F1200198
:1003A000BFF4F7AF090728BFA0E80C5048BF0CC046
:1003B0005DF804EB890028BF40F8042B08BF7047A4
:1003C00048BF20F8022B11F0804F18BF00F8012B16
:1003D0007047704770477047754600F02BF8AE467F
:1003E00005006946534620F00700854618B020B541
:1003F000FFF73EFFBDE820404FF000064FF000073A
:100400004FF000084FF0000BAC46ACE8C009ACE878
:10041000C009ACE8C009ACE8C00921F007018D466D
:10042000704710B50446AFF300802046BDE8104089
:10043000FFF709BF0048704710000020014918204D
:10044000ABBEFEE726000200704700000146806B4D
:10045000036C026C13F0500F07D0D20648BF00F0B7
:100460000DBC806BC26C0846104742F400710164F9
:1004700001688A6812F0405F01D000F0FBBB027E89
:10048000002AFAD1CA6A12F4700F02D08A685205A3
:10049000F3D44A6822F020024A60016C21F4807192
:1004A0000164016CC90448BF00F0E4BB016C41F079
:1004B0000101016400F0DEBB806B40210164416CEE
:1004C00041F00401416400F0D9BB0000806B00F0F2
:1004D000D3BB000010B50446403002F0BDFD04F16E
:1004E000500002F0B9FD04F1600002F0B5FD04F126
:1004F000700002F0B1FD04F1800002F0ADFD04F1E6
:10050000900002F0A9FD04F1A00002F0A5FD04F1A5
:10051000B00002F0A1FD04F1C000BDE8104002F0FF
:100520009BBD0000016AA1F58071032988BF704757
:10053000DFE801F0022C101E90F8381090F83920F6
:1005400090F83A3080F8E810991880F8EC10803074
:1005500002F072BD90F8381090F8392090F83A30D7
:1005600080F8EA10991880F8EE10A03002F064BD0F
:1005700090F8381090F8392090F83A3080F8EB1065
:10058000991880F8EF10B03002F056BD90F838108E
:1005900090F8392090F83A3080F8E910991880F8EE
:1005A000ED10903002F048BDB0B50446C06940F28D
:1005B0002221884225D040F2232188422ED194F86E
:1005C000380001282AD1E06A012827D194F8DC00FC
:1005D00020BB94F8D00008BB0120012502F09CF854
:1005E000012084F8D45002F09BF804F1500084F804
:1005F000D85002F029FD04F17000BDE8B04002F0CF
:100600001BBD94F83800012818BFB0BDE06A01286E
:1006100004D10120BDE8B04002F07CB8B0BD0000BC
:10062000B0B5044600F032FA94F85100012822D106
:1006300004F15005284602F00BFD284602F0F6FCB6
:1006400004F1700002F0F8FC0125012084F8DC5070
:1006500002F064F8002084F8D650002502F05CF81F
:1006600040F22421C0F20111204640F8081F80F812
:10067000CC5000F0F9F994F86100012810D140F253
:100680002120254625F8080F012095F8D410A870E0
:1006900005F15800E97002F0CFFC284600F0E4F9BB
:1006A00094F87100012806D104F1700002F0C4FC36
:1006B000204602F049F894F8810001280BD094F804
:1006C0009100012807D094F8A100012803D094F8E4
:1006D000B10001282CD104F1800002F0B9FC04F132
:1006E000900002F0B5FC04F1A00002F0B1FC04F1AE
:1006F000B00002F0ADFC012094F8C11084F8F100C4
:10070000012918BFB0BD40F25320C0F2011044F8D7
:10071000080F04F1B80528464FF47A7102F07AFC0C
:10072000284602F089FC2046BDE8B04000F070B9D0
:100730000020E1E780B501F0F5FF01F0DFFF01F0F7
:10074000DFFF01F0DFFF01F0D5FF01F0D1FF01F085
:10075000CDFF01F0D1FF01F0C7FF042001F0BCFF85
:100760000A20012101F0B6FF0B20022101F0B2FFA7
:100770000C20032101F0AEFF00200421BDE88040E1
:1007800001F0A8BF10B5044601F0CEFF2046FFF7E8
:1007900047FF2046BDE81040AFF3008070B5044627
:1007A00000F0C4F894F8D000012808D0D0BB94F829
:1007B000DD00012804BF002084F8DF0032E094F857
:1007C000DF0078BB012004F1500584F8DF002846E3
:1007D00002F03EFC284602F029FC04F1700002F011
:1007E0002BFC0020002601F097FF002084F8D46045
:1007F00001F094FF002084F8D66001F091FF40F2F0
:100800002220C0F20100254645F8080F284685F849
:10081000D06085F8D46000F027F9002085F8C86022
:1008200001F078FF01F072FF012818BF70BD0020B1
:1008300084F8D000012084F8DD0070BD70B5044656
:10084000E030042101F04AFF04F14005284601216F
:1008500000224FF4C873002602F0DEFB284602F0A7
:10086000F3FB04F16005284601210022642302F015
:10087000D3FB284602F0E8FB04F1500001210022DE
:1008800041F2883302F0C8FB04F1700528460121CB
:1008900000224FF4FA7302F0BFFB284602F0D4FBAB
:1008A00004F180052846012100224FF47A7302F0FA
:1008B000B3FB284602F0C8FB04F19005284601214D
:1008C00000224FF47A7302F0A7FB284602F0BCFB2B
:1008D00004F1A0052846012100224FF47A7302F0AA
:1008E0009BFB284602F0B0FB04F1B005284601212D
:1008F00000224FF47A7302F08FFB284602F0A4FB2B
:1009000004F1C00528460121002240F6B83302F068
:1009100083FB284602F098FB84F8D06084F8DF60FF
:10092000C4E93A66C4F8EF6070BD0000B0B5044693
:1009300090F8D500022807D094F8D700022803D0F9
:1009400094F8D900022834D1002594F8EC0028B995
:1009500094F8ED0010B994F8EE0098B3012094F8E3
:10096000E81084F8F000012907D894F8E90001287C
:1009700003D894F8EA0001281DD9012084F8F20078
:1009800001F0C2FE01280CD194F8F10048B994F8A6
:10099000F20030B915B901F0B9FE10B994F8F000C1
:1009A000B0B10020012184F8DE10BDE8B04001F0B4
:1009B000AFBE0125C9E794F8EB100020012988BFDC
:1009C0000120DBE794F8EF00002818BF0120C6E7FC
:1009D00001200021E7E70000FEE7000000F09EB8DC
:1009E00010B540F24824C2F20004204600F054FC46
:1009F00040F27000C2F2000000F11C0200F1380366
:100A00002046002100F0C0FBBDE81040FFF7E6BF24
:100A100080B586B002880021009282780291CDE9EB
:100A20000312C11C00F10C02684601F059FE06B029
:100A300080BD000000F078B810B540F27024C2F21A
:100A40000004204600F028FC40F27000C2F20000D2
:100A500000F11C0200F138032046012100F094FB54
:100A6000BDE81040FFF7E6BF80B586B002880021E0
:100A7000009282780291CDE90312C11C00F11002AC
:100A8000684601F02FFE06B080BD000010B5044698
:100A900090F84100012818BF10BD40F2532024F8FF
:100AA000080F042194F8CE2094F8CF30A17094F868
:100AB000D01042EA430242EAC10194F8D12094F8EE
:100AC000D53041EA021194F8D62094F8CCC041EA1E
:100AD000831194F8CD3041EAC21194F8D220E1702C
:100AE0004CEA430194F8D33041EAC20141EA0311D0
:100AF000217194F8251194F824216171A27194F860
:100B0000271194F8262104F13800E171227202F0D5
:100B100093FA2046BDE81040FFF7A6BF40F27000F0
:100B2000C2F20000FFF7FEBC40F27000C2F200000B
:100B3000FFF73ABD40F27000C2F20000FFF77EBE40
:100B4000FFF7F8BD40F27000C2F20000FFF71ABED6
:100B500040F27000C2F20000FFF7BCBC40F2E810A7
:100B6000C2F2000000F0F2BD70470000B0B581B0E5
:100B70000022009290F83C20012A01D1022157E086
:100B8000D1F800E001221FFA8EFC80F83C204FEAE9
:100B90004C0212FA8EF30268BEF10A0F32BF103215
:100BA0001E3B0C32072415689C4025EA040414609F
:100BB0008C68156804FA03F32B4313604A68062A0D
:100BC00007D802EB82014A1F01681F2351F8344FF6
:100BD0000CE001680C2A02EB820203D851F8304F76
:100BE000233A02E051F82C4F413A1F23934024EA64
:100BF00003030B600D680CFA02F22A4342F204333D
:100C00000A60C4F201030168BEF1120FA3F541723C
:100C100008BF914203D11D6845F480051D602EF088
:100C20000105102D08BF914205D0002180F83C102D
:100C3000084601B0B0BD1968BEF1100F41F40001C3
:100C40001960F2D140F20001C2F2000109684DF6CC
:100C50008362C4F21B32A1FB0212910C01EB8101F1
:100C6000490000BF009100990029DED000990139A8
:100C7000F8E7000070470000704700007047000070
:100C8000002804BF0120704710B50446006C30B93D
:100C9000204600F09BF80020606484F83C00206C43
:100CA000C0063AD4206C41F202118843023042F26D
:100CB00004312064C4F20101086820F44030086067
:100CC0000A6894E809101A43D4F810E00A604168F1
:100CD000012321F4807141604168C0F6007341EA4C
:100CE0000E214160416821F040714160416841EA54
:100CF0000C014160816821F400618160E1688268D3
:100D000011438160A16A8268994222F07062826018
:100D1000826804D122F040510AE0012052E01143E0
:100D20008160816821F040518160E16A82681143ED
:100D30008160816821F0020181608168227E94F8DF
:100D4000203041EA42018160416883B141F4006191
:100D5000416041684EF2000221F460414160616AE5
:100D6000CFF6FF72436802EB4131194301E021F4F1
:100D700000614160C16A40F2000C21F47001C1625F
:100D8000E2696169CFF6F07CC36A0CEB02521A4348
:100D9000C262826822F40072826094F83020836814
:100DA00043EA42228260826822F480628260826822
:100DB00042EA8121816000206064216C012262F39B
:100DC00001012164002184F83C1010BDB0B582B04F
:100DD0000446006842F20001C4F20101884201D0D9
:100DE00002B0B0BD002043F630010190C4F2020110
:100DF0004A6940F2E81542F480724A614A69C2F2D7
:100E0000000502F480720192019A00900A684FF482
:100E1000006342F001020A6009684FF4806201F049
:100E200001010091009946F21041C4F20201C5E9A6
:100E30000010C5E9020005F11001C5E908002846C7
:100E40004FF4005C4FF4807E81E80C5000F044FDCC
:100E5000002818BF01F0AAFEA563AC6302B0B0BDC4
:100E600070B582B004460020019094F83C0001283F
:100E700002D1022002B070BD13460A46012021684B
:100E800084F83C008868C00718D188684DF68365EF
:100E900040F00100886040F20000C2F200000068EB
:100EA000C4F21B35A0FB0505A80C00EB400000BFF9
:100EB0000190019810B101980138F9E78868C005E0
:100EC00003D5886820F4807088608D68206CED07F9
:100ED00009D140F01000206404F1440001210268AF
:100EE0001143016070E040F20175A84300F5807085
:100EF00020644868400504D5206C012565F30D3059
:100F00002064256C0020ED044FF0000544BF656CA3
:100F100025F00605656484F83C00A06B40F24D4C5A
:100F200040F2CD45C0F6000CC0F60005C0E90FC583
:100F300040F2B945C0F60005C5646FF022050D60AA
:100F40004D6842F2043645F080654D608D68C4F20C
:100F5000010645F480758D604C3100F05DFD31680F
:100F60002068C9060FD0A6F5417188422CD14FF6F2
:100F70000451CFF6FF71715811F0405F24D1083051
:100F80004FF08041ABE742F20001C4F20101884218
:100F900015D042F20021C4F2010188420CD042F285
:100FA0000011C4F2010188420ED13168C90606D091
:100FB000A6F58271884207D13168C90604D450F879
:100FC000081F11F0405F02D0002002B070BD4FF04A
:100FD000804184E790F82020013A012A04D8006873
:100FE00000F11402002004E000F1240201204FF47B
:100FF00080211368194311607047000010B590F804
:1010000020E0D0F800C0AEF1010EBEF1010FDCF817
:1010100008E00DD81EF0E05F10D0CEF3016EBEF1F7
:10102000030F11D100F1240101204FF4000235E03B
:1010300000F1240101204FF480222FE000F124016F
:1010400001204FF4001229E0012000FA0EF0186090
:10105000886828B14B68CC6844EAC303034303E0C3
:101060000868CB6843EA40530CEB0E10C0F880319F
:101070000B69C0F88431097D012905D100F5C271E1
:101080000B6843F480730B605168C0F88C111268D0
:1010900000F5C071C0F88821002001220B681A43B6
:1010A0000A6010BD90F82020013A012A30D8B0B56E
:1010B00046F20060C4F20000026842F001020260E1
:1010C000026822F47C520260D1F814E0CC694A6ACA
:1010D0000368012C43EA022202600EF01F024FF067
:1010E000010303FA02F2C3696FEA020C23EA020366
:1010F000C36113D02CBBC36803EA0C03C360CB6885
:101100008C8844EA034300EBCE0423640B4611E0D1
:10111000416A41F48021416201207047C368134352
:10112000C3600B688C8844EA034300EBCE0423645D
:1011300001F10C038C681B8843EA044300EBCE04E6
:10114000636443688D6943EA0204D1F810E0096AD8
:10115000002D08BF03EA0C0444604369BEF1000F90
:1011600043EA020408BF03EA0C040129446102D1E6
:10117000C1691143C161016821F0010101600020D2
:10118000B0BD00007047000010B590F82040013C51
:10119000012C71D8D0F800C000290CBFDCF80C403D
:1011A000DCF81040A4076DD0046804EB011CDCF8E7
:1011B000B0410CF5D87E14F004049460DCF8B04122
:1011C00019BFE4085460640D1460DEF80040002983
:1011D00004F00204D460DCF8B44104F00F0414619C
:1011E000DCF8B441C4F307249461DCF8B4414FEA5D
:1011F00014445461DCF8B8211A70026802EB011241
:10120000D2F8B8214FEA12225A70026802EB01129A
:10121000D2F8B8214FEA12429A70026802EB01122A
:10122000D2F8B8214FEA1262DA70026802EB0112BA
:10123000D2F8BC211A71026802EB0112D2F8BC216B
:101240004FEA12225A71026802EB0112D2F8BC2155
:101250004FEA12429A71026802EB0112D2F8BC21E5
:101260004FEA1262DA7100680CBF00F10C0100F164
:101270001001002020220AE000F1240101204FF497
:10128000802204E000F1240101204FF400120B68D9
:101290001A430A6010BD00002DE9F04F81B00446EA
:1012A00000684669D0F804908768D0F80CB0D0F890
:1012B00010A0D0F81880F10703D1002530071CD406
:1012C00023E0F90710D00121BA07816009D478071B
:1012D00000F1AA80380700F1B080204600F028FA1B
:1012E00002E0204600F026FA0025F80500F184808F
:1012F000F80300F1AA80300707D51BF0100004D0D6
:10130000206845F400751021C160700708D51BF0F6
:10131000080005D020680821C160204600F0D0F9FF
:10132000B00706D52068C068800702D0204600F0CC
:10133000C9F9700607D51AF0100004D0206845F4EA
:10134000806510210161B00608D51AF0080005D0AB
:10135000206808210161204600F0B6F9F00606D5A4
:1013600020680069800702D0204600F0AFF9B00382
:1013700008D519F0100005D02068102141602046E2
:1013800000F0A6F9F00308D519F0080005D0206890
:1013900008214160204600F0D7F9300440F18F80E9
:1013A0005FEA497040F1888006F4807008EA1020F6
:1013B00028435FEA8871014648BF41F00201B20547
:1013C00058BF01465FEA48700D4648BF45F0040526
:1013D000700558BF0D4630056ED518F070006BD003
:1013E00010380009052862D8DFE800F00353565989
:1013F0005C5F45F008055AE020684FF48071BA053B
:1014000081600AD4780512D4380519D4204600F03A
:1014100093F9F8037FF56FAF17E0204600F08EF9DF
:10142000F8037FF568AF10E04FF400655DE705F560
:101430000055F8037FF55FAF07E04FF4805554E7A0
:1014400005F58045F8037FF556AF20684FF48031ED
:10145000BA0381600AD478030FD4380313D420462A
:1014600000F06EF930073FF548AF4EE7204600F038
:1014700069F930073FF541AF47E705F5004530070B
:101480003FF53BAF41E705F5803530073FF535AF18
:101490003BE745F010050AE045F0200507E045F080
:1014A000400504E045F0800501E045F480752068C2
:1014B000816921F0700181612068042141604DB192
:1014C000606A40EA05012046616201B0BDE8F04F64
:1014D000FFF758BE01B0BDE8F08F0000002804BF40
:1014E00001207047B0B5044690F8200010B920469E
:1014F00000F06EF82068016841F00101016000F021
:10150000B5FB054620684168C90705D100F0AEFB70
:10151000401B0B28F6D310E0016821F002010160A6
:1015200000F0A4FB054600BF2068416889070DD57F
:1015300000F09CFB401B0B28F6D3606A052140F4A9
:1015400000306062012084F82010B0BD217E026866
:10155000012922F0800208BF80320260617E0268A9
:10156000012922F0400208BF40320260A17E0268D9
:10157000012922F0200208BF20320260E17E0268C9
:10158000012922F0100218BF10320260217F026888
:10159000012922F0080208BF08320260617F026858
:1015A000012922F0040208BF04320260D4E901C21A
:1015B000D4E9033561691A432A431143ACF10102AE
:1015C0001143C16100200121606284F82010B0BD88
:1015D000B0B586B0054640F20044C4F20204296862
:1015E000A4F5D03200209142CDE90400CDE90200FB
:1015F00001902DD143F630010090C4F202010A6936
:1016000042F000720A610A6902F000720092009AC8
:1016100000900A6842F002020A60096801F00201C3
:10162000009100994FF4407101910221CDE902101F
:10163000032004900920059001A9204600F03CFAFF
:1016400014200021002200F09BFB142000F088FBF6
:101650002868A4F5CE31884201D006B0B0BD002084
:1016600043F630010090C4F202010A6942F0806240
:101670000A610A6902F080620092009A00900A688A
:1016800042F002020A60096801F00201009100992B
:101690004FF4405101910221CDE902100320049042
:1016A0000920059001A9204600F006FA41200021FA
:1016B000002200F065FB412000F052FB06B0B0BDF7
:1016C000704700007047000070470000704700003E
:1016D00070470000B0B5044690F8200001281DD1E5
:1016E000022084F820002068016821F001010160D7
:1016F00000F0BCFA054600BF20684068C00713D060
:1017000000F0B4FA401B0B28F6D3606A40F40030B6
:101710006062052084F820000120B0BD606A40F4BA
:10172000002060620120B0BD00206062B0BD0000FA
:1017300070470000704700007047000070470000CD
:10174000704700007047000070470000F0B581B09E
:1017500004460020009040F20000C2F2000002683F
:10176000D4E9166048F2B51337680821C1F64E3344
:1017700081403942A2FB03250CD0226813685B0725
:1017800008D5136823F004031360B160616D41F064
:101790000101616501218140394208D02268526906
:1017A000120604D5B160616D41F00201616504214A
:1017B0008140394208D022681268920704D5B1608E
:1017C000616D41F00401616510218140394215D0FD
:1017D00020680268120711D5B160026801685203DF
:1017E00006D4C90506D4016821F00801016001E0B2
:1017F00008033ED4216C09B120468847E16D2020C2
:1018000000FA01F23A4240D020680368DB063CD57A
:10181000B26094F835300268052B1AD122F0160216
:101820000260426922F080024261226C0AB9A26C15
:101830001AB1026822F0080202603F208840B060BE
:10184000012084F83500216D002084F83400D9BBD4
:101850003FE00168520310D4C90512D4016821F099
:1018600010010160012084F83500002084F8340064
:1018700007E0A16C0029BFD1C0E7080301D4616C67
:1018800000E0E16B09B120468847606D08B3606DE8
:10189000C00717D0052084F835002068A90A02681F
:1018A00022F00102026000BF009A01328A420092D7
:1018B00002D80268D207F7D1012084F83500002051
:1018C00084F83400E16C21B1204601B0BDE8F0405D
:1018D000084701B0F0BD00002DE9F041044600F0DA
:1018E000C5F9C4B10546022084F8350000202168FE
:1018F00084F83400086820F001000860206801685E
:10190000C9070BD000F0B2F9401B0528F6D9032116
:10191000202203207AE00120BDE8F081016848F22E
:101920003F02CFF21002D4E9013501EA020ED4E9F8
:10193000032143EA0E032B43D4E9056C1A43D4E98F
:1019400007781143314341EA0702616A42EA08021B
:10195000042942EA0C0303D1D4E90B273A43134389
:1019600003604269042922F0070241EA02012DD1F5
:10197000D4E90A5341EA050143B3BCF5005F08D03E
:10198000BCF1000F12D1022D16D0012D07D09DB150
:1019900019E0032D17D8DFE805F00B0F0B02A3F1B8
:1019A000C072B2FA82F252094AB90FE0032D02D294
:1019B000012222B90AE006D1C3F3006232B101214B
:1019C0004022012022E00022002AF8D100F0F80293
:1019D0004AF6AB23103ACAF6AA23A2FB033743F216
:1019E000001341613909C0F60003595C40F2FF332E
:1019F00098435F2A4FF03F0288BF0430C4E91601C4
:101A000002FA01F18160002201210020626584F860
:101A10003510BDE8F081000090F834C0BCF1010F32
:101A200004BF0220704770B54FF0010C80F834C03D
:101A3000D0F858E090F835C0BCF1010F37D14FF025
:101A4000020C80F835C04FF0000CC0F854C0D0F83C
:101A500000C08468056CC06DDCF80060402C26F482
:101A60008026CCF80060CCF804300B4604BF134647
:101A70000A463F2101FA00F0CCF80830CCF80C20DF
:101A8000CEF80800DCF8000040F01600CCF80000AA
:101A90002DB1DCF8000040F00800CCF80000DCF8C4
:101AA000000040F00100CCF80000002070BD0021D3
:101AB00080F83410022070BD2DE9F04F82B000F1A3
:101AC0003E4707F1FF77860546EA972741F600462D
:101AD000C4F202060822B04208BF0722072F38BF0F
:101AE0003A464FF0010E002400274FF00009009203
:101AF00009E000BF09F101090237B9F1100F04F143
:101B0000040400F0A3800D680EFA09FC15EA0C0825
:101B1000F0D0D1F804B00BF0030AAAF10105012DB1
:101B200014D80322856802FA07FECA6825EA0E0562
:101B3000BA402A4382604268CBF3001522EA0C02C5
:101B400005FA09F54FF0010E2A434260BAF1030F7E
:101B50001CD0C26803238E6803FA07F5AA43BE406F
:101B60003243BAF1020FC26010D16FF0030202EAF1
:101B700059020244D2F820C004F01C050F230E695C
:101B8000AB402CEA0303AE403343136202680323E5
:101B90004E68BB409A4306F00303BB401A4316F459
:101BA000403F0260A6D0002243F644030192C4F2F3
:101BB00002031A6843F6004C42F480421A601A6825
:101BC000C4F2010C02F480420192019A29F003024E
:101BD0004FF6084A6244CFF6FF7A52F80A3004F012
:101BE0000C060F25B540AB43009D05FA06F63343BE
:101BF00042F80A30DCF800204B6842EA0806DD03B0
:101C000058BF22EA0806CCF80060DCF804209D03E7
:101C100042EA080658BF22EA0806CCF80460DCF85D
:101C20000820DD0242EA080643F60C4558BF22EAC6
:101C30000806CCF80860C4F201052A689B0242EA53
:101C4000080658BF22EA08062E6053E702B0BDE836
:101C5000F08F00000069084018BF012070470000A5
:101C6000002A08BF090481617047000040F2EC209F
:101C7000C2F200000068704701684AF6AA220020FC
:101C80000A60704740F2040040F2EC21C2F200000A
:101C9000C2F2000100780A68104408607047000032
:101CA00080B543F60040C4F20200016841F40071BF
:101CB0000160016841F480610160016841F4807154
:101CC0000160032000F088F80F2000F005F800F014
:101CD0002BF8002080BD0000B0B540F20402C2F233
:101CE000000240F200011278C2F200014FF47A7350
:101CF0000968B3FBF2F20446B1FBF2F1084600F0CA
:101D000009FB0F2C4FF001050CD858B94FF0FF30EC
:101D100021460022002500F033F840F20800C2F20C
:101D2000000004602846B0BD82B0002043F64001A8
:101D30000190C4F202014A6842F480424A604A6853
:101D400002F480420192019A0090086840F08050AD
:101D50000860086800F080500090009802B070475A
:101D6000002848BF704700F01F01012202FA01F16C
:101D70004EF200124009CEF2000242F820107047E5
:101D800010B54EF60C5CCEF2000CDCF80030C3F35C
:101D9000022E8EF00704042C28BF0424BEF1030396
:101DA0004FF0FF3E0EFA04F438BF0023A1439940E0
:101DB0000EFA03F39A43114300F1604200F00F035F
:101DC000090102F56442043B6344002848BF03F163
:101DD0000C02117010BD00004EF60C51CEF2000145
:101DE0000A684FF6FF031A4060F30A2242F080604F
:101DF00040F0FD7008607047002804BF0120704764
:101E00002DE9F04143F60808C4F202080446D8F868
:101E1000F8030D4600F00700884207D288F8F8530F
:101E2000D8F8F80300F00700A84276D120688107AF
:101E300017D5410705D5D8F8001041F4E051C8F88E
:101E40000010010705D5D8F8001041F46041C8F82A
:101E50000010D8F80010A26821F0F0011143C8F872
:101E60000010C0073FD1D8F8F80300F00700A842DF
:101E700007D988F8F853D8F8F80300F00700A8420B
:101E80004BD12068410707D5D8F80010E26821F44B
:101E9000E0511143C8F80010000708D5D8F8000039
:101EA000216920F4604040EAC100C8F8000000F059
:101EB00053F8D8F8001043F2F002C1F30311C0F652
:101EC0000002515C40F2000220FA01F140F20800E9
:101ED000C2F200000068C2F200021160FFF7FCFECF
:101EE0000020BDE8F0816068811E022907D258F801
:101EF000081C89015CBF0120BDE8F08110E00128C9
:101F000007D158F8081C89035CBF0120BDE8F081A7
:101F100006E058F8081C890702D40120BDE8F081CA
:101F2000D8F8001021F003010843C8F80000FFF7BB
:101F30009DFE064641F28837D8F80000616800F03F
:101F40000C00B0EB810F8ED0FFF790FE801BB842E3
:101F5000F2D90320BDE8F08110B543F60404C4F2C1
:101F60000204606800F00C0008280AD0042819BF99
:101F700042F20040C0F2F40047F64000C0F27D108B
:101F800010BD206821682368490247F64001C0F26D
:101F90007D1100F03F02C3F388105CBF42F20041A4
:101FA000C0F2F401A1FB00010023FEF773F92168E0
:101FB0000222C1F3014102EB4101B0FBF1F010BD7F
:101FC000002804BF012070472DE9F04182B004468B
:101FD000007843F60006C007C4F2020647D0B06896
:101FE00000F00C00042808D1306880033FD56068F9
:101FF000E8BB012002B0BDE8F081B06800F00C0041
:10200000082802D170684002EED46568B5F5A02FAB
:102010000AD0B5F5803F0BD0306820F480303060B6
:10202000306820F4802006E0306840F48020306082
:10203000306840F480303060FFF718FE002D054610
:1020400012D000BF3068800311D4FFF70FFE401B91
:102050006428F7D926E100BFFFF708FE401B64287B
:102060004FF0030000F2E28030688003F4D420785F
:1020700080071BD5B06810F00C0F09D0B06800F0D5
:102080000C00082840F087807068400200F18380CF
:102090003068800703D5E068012840F09E803068F2
:1020A000216920F0F80040EAC10030602078000784
:1020B00035D42078400748D4A56965B3B06800F0EE
:1020C0000C00082840F09E80012D00F0868070688A
:1020D000E16900F480028A4240F07F80216A00F0CA
:1020E0003F028A4279D147F6C071626A0140B1EB82
:1020F000821F72D1A16A4FF6FF73C903994300F49E
:102100004032A1F580318A4267D1E16A00F0706007
:10211000B0EB016F61D1002002B0BDE8F0816069D1
:10212000002840F20000C4F247205AD00121C0F834
:10213000801EFFF79BFD0546706F8007B9D4FFF73F
:1021400095FD401B0228F7D9ACE0306C5FEAC0086F
:102150000AD400200190306C40F080503064306C24
:1021600000F080500190019847F20007C4F2000788
:102170003868C00524D4386840F480703860FFF7B0
:1021800075FD05463868C0051AD4FFF76FFD401B82
:102190000228F7D986E0E068002857D00020C4F272
:1021A000472001210160FFF761FD05463068800787
:1021B0003FF575AFFFF75AFD401B0228F6D971E0D5
:1021C000A568052D56D0012D58D0306F20F00100A4
:1021D0003067306F20F0040053E0012002B0BDE80A
:1021E000F0810021C0F8801EFFF740FD054600BFCA
:1021F000706F80077FF55DAFFFF738FD401B022849
:10220000F6D94FE00027C4F2472700203866FFF7D1
:102210002DFD022D05460DD13068800159D5FFF7FF
:1022200025FD401B02284FF00300F5D902B0BDE8A0
:10223000F08100BF306880017FF56DAFFFF716FDBC
:10224000401B02284FF00300F4D9EFE70020C4F24E
:10225000472000210160FFF709FD0546306880072F
:102260007FF524AFFFF702FD401B02284FF003006B
:10227000F4D9DBE7306F40F004003067306F40F096
:1022800001003067FFF7F2FC002D054641F2883768
:1022900013D000BF306F800712D4FFF7E7FC401B5C
:1022A000B842F7D9032002B0BDE8F081FFF7DEFCA9
:1022B000401BB8424FF00300B8D8306F8007F5D408
:1022C000B8F1000F3FF5F8AE306C20F0805030646C
:1022D000F2E604F11C052FCD084340EA8210D90331
:1022E0004FF6FF729143A1F5803140EA0560084343
:1022F000706001203866FFF7B9FC04463068800141
:102300003FF509AFFFF7B2FC001B02284FF00300B6
:10231000F4D98BE7411E0020B0EB116F1CBF0120E8
:1023200070474EF21002CEF2000251604EF6235179
:10233000CEF20001F0230B7007219060116070470E
:10234000704700007047000090F83C20012A4FF0D1
:10235000020255D010B5012380F83C3080F83D20B2
:102360000268D2F804E0D2F808C00C682EF07003BE
:10237000234341F2FF74C4F20004A24253600DDC17
:1023800040F2FF73C4F200039A4215DCB2F1804FB1
:1023900029D040F20043C4F2000322E040F2FF33B0
:1023A000C4F201039A4212DC41F60003C4F20003B6
:1023B0009A4218D0002312E040F60003C4F2000352
:1023C0009A4210D040F60043C4F2000309E044F200
:1023D0000003C4F201039A4205D040F20043C4F264
:1023E00001039A4204D149682CF08003194391609B
:1023F0000121002280F83D1080F83C20BDE810400B
:1024000010467047002804BF0120704710B50446ED
:1024100090F83D0028B9002084F83C00204600F0E8
:102420001FF8022084F83D002068211D00F060FDA7
:10243000012084F8460084F83E0084F83F0084F8C8
:10244000400084F8410084F8420084F8430084F896
:10245000440084F8450084F83D00002010BD0000D1
:10246000006841F20041C4F20001884218BF704781
:1024700080B582B00020019043F64000C4F2020013
:102480000168002241F0200101600068002100F095
:102490002000019001983720FFF772FC372002B02E
:1024A000BDE88040FFF75CBC90F83D1001291CBFDF
:1024B00001207047022180F83D10006841F2FF7250
:1024C000C168C4F20002904241F00101C1600DDC1C
:1024D00040F2FF71C4F20001884215DCB0F1804F78
:1024E00029D040F20041C4F2000122E040F2FF3165
:1024F000C4F20101884212DC41F60001C4F200017D
:10250000884218D0002112E040F60001C4F2000118
:10251000884210D040F60041C4F2000109E044F2C4
:102520000001C4F20101884205D040F20041C4F22A
:102530000101884206D1816801F00701062904BF24
:1025400000207047016841F00101016000207047E0
:102550007047000010B5044600680169890744BF50
:10256000C1685FEA81713FD420680169490744BFAF
:10257000C1685FEA417143D420680169090744BF1B
:10258000C1685FEA017148D420680169C90644BF87
:10259000C1685FEAC1614CD420680169C9071CBFEA
:1025A000C1685FEAC17151D120680169090644BF61
:1025B000C1685FEA016150D420680169490644BFDF
:1025C000C1685FEA41614FD421680869800646BF4F
:1025D000C8685FEA806010BD6FF0200220460A6183
:1025E000BDE81040FFF7AEBE6FF0020101610121AE
:1025F0002177806980073ED02046FFF7A9FF40E0A1
:102600006FF00401016102212177806910F4407F9D
:102610003AD02046FFF79CFF3CE06FF008010161D3
:1026200004212177C069800737D02046FFF790FF4B
:1026300039E06FF01001016108212177C06910F4C1
:10264000407F33D02046FFF783FF35E06FF0010174
:102650000161204600F038F8A6E76FF080010161C3
:102660002046FFF76DFEA7E76FF0400101612046AD
:1026700000F02CF8A8E7204600F022F8204600F0F1
:1026800021F8002020776FE7204600F019F8204657
:1026900000F018F8002020776EE7204600F010F8D0
:1026A000204600F00FF8002020776DE7204600F06C
:1026B00007F8204600F006F8002020776CE70000BD
:1026C000704700007047000070470000704700002E
:1026D000FEE7000000F08AB800F0D0B800F0F8B8CB
:1026E00000F050B900F0B2B900F044BA00F064BA9A
:1026F00000F084BA00F0B0BA00F0DABA00F0FABA2A
:1027000000F024BB00F04EBB00F078BB00F084BBAF
:1027100000F090BB00F09ABB00F0A4BB00F0AEBB91
:1027200000F0B8BB00F0C2BB40F27000C2F2000083
:102730008079002818BF704700F0BABBFEE70000A0
:10274000FEE700007047000080B5D0E9383E99B23E
:10275000B1F5407F19D8022140F2000CC0F2013CD3
:10276000634580F8D51019D2022180F8D7101FFADE
:102770008EF1B1F5407F1BD80221E64580F8D910D3
:102780001FD2022180F8DB1080BD90F8D420B1F573
:10279000206F1FD8012ADED00021DDE70CF1E061B7
:1027A00090F8D6208B4219D2012ADDD00021DCE737
:1027B00090F8D820B1F5206F14D8012ADCD0002180
:1027C000DBE70CF1E0618E4534BF0021012180F888
:1027D000DB1080BD002ABED00121BDE7002AC3D096
:1027E0000121C2E7002AC7D00121C6E7B0B58AB0EF
:1027F00000250446CDE90455CDE9010107200390E9
:1028000040F2A010C2F2000001A9CDE90855CDE9BF
:102810000655FEF7ABF920B1EFF3108072B600BF9A
:10282000FEE703200C2C0690079524D8DFE804F07F
:1028300007090B0D0F23232323231517190001204C
:1028400006E0022004E0042002E0082000E010205E
:1028500005900020C4F202000AE0012002E00220FC
:1028600000E0042005900020C4F2020000F50060A2
:1028700005A9FFF721F90AB0B0BD000080B540F20C
:10288000A011C2F2000142F2000C0122C4F2010CBC
:1028900000234FF0010EC0F60072C861084681F8AF
:1028A00018E081F82030C1E90A2381F830E0C1E95D
:1028B00000C3C1E90233C1E904EEFEF7E1F90028E3
:1028C00008BF80BDEFF3108072B600BFFEE70000C6
:1028D0000A46014640F2A010C2F20000FEF7C0BA5C
:1028E00010B58AB040F2482046F20041C2F2000022
:1028F000C4F2000100244FF440234FF4801C022254
:1029000080E81600C0E90343C0E905C48483FEF7EC
:10291000E5FD20B1EFF3108072B600BFFEE70120A5
:10292000CDE907000E20099040F24820C2F20000D5
:102930006946CDE90544CDE90044CDE9024404945B
:10294000FEF7B0FB18B1EFF3108072B6FEE740F26D
:102950004820C2F20000FEF7BDFE20B1EFF3108068
:1029600072B600BFFEE740F24820C2F2000002212A
:10297000FEF730FB18B1EFF3108072B6FEE70AB035
:1029800010BD000080B513460A46014640F24820BB
:10299000C2F20000FEF732FB002808BF80BDEFF353
:1029A000108072B6FEE7000010B58AB040F27020C9
:1029B00046F60001C2F20000C4F2000100244FF408
:1029C00040234FF4801C022280E81600C0E9034334
:1029D000C0E905C48483FEF781FD20B1EFF31080C8
:1029E00072B600BFFEE70E20CDE905040121099073
:1029F00040F270200491CDE90711C2F2000069464F
:102A0000CDE90044CDE90244FEF74CFB18B1EFF3E9
:102A1000108072B6FEE740F27020C2F20000FEF7AE
:102A200059FE20B1EFF3108072B600BFFEE740F20E
:102A30007020C2F200001021FEF7CCFA18B1EFF3BB
:102A4000108072B6FEE70AB010BD000080B51346D4
:102A50000A46014640F27020C2F20000FEF7CEFAAC
:102A6000002808BF80BDEFF3108072B6FEE70000BB
:102A7000B0B592B0FFF714F906AC20463021FDF74F
:102A800081FC002543F640000595CDE90355CDE9CD
:102A900001550095C4F20200016841F080510160C7
:102AA000006800F080500090009847F20000009508
:102AB000C4F20000016841F4804101600068102107
:102AC00000F48040009000980A20069001200990B0
:102AD000CDE90A1020460C95FFF772FA18B1EFF312
:102AE000108072B6FEE70F2401A80021CDE9014550
:102AF000CDE903550595FFF77FF920B1EFF310807D
:102B000072B600BFFEE740F2982041F20041002576
:102B1000C2F20000C4F2000140F2E732CDE90655EE
:102B200080E83200C2608561FFF76CFC18B1EFF3FA
:102B3000108072B6FEE740F29824C2F2000406A9A3
:102B40002046CDE90655FFF7FFFB20B1EFF31080DB
:102B500072B600BFFEE72068002141626FF00101FC
:102B600001612046FFF7A0FCFFF7BAFEFFF71CFF4C
:102B700012B0B0BD80B582B00020019043F63000A5
:102B8000C4F202000168002241F480010160006883
:102B9000002100F48000019001983820FFF7F0F840
:102BA000382002B0BDE88040FFF7DAB8EFF31080BC
:102BB00072B600BFFEE7000080B586B00020059029
:102BC000CDE90300CDE90100009043F63000C4F2E6
:102BD0000200016841F001010160006801A900F0F4
:102BE0000100009000984FF4007001900020C4F2A2
:102BF0000200FEF761FF06B080BD000070B586B030
:102C0000002543F630000595CDE90355CDE9015582
:102C10000095C4F20200016840F2004441F0020154
:102C200001600068C4F2020400F002000090009805
:102C300020464FF4004100224FF40046FFF710F801
:102C40000120CDE9020501A9204601960495FEF771
:102C500033FF06B070BD000070B586B0002543F6A6
:102C600030000595CDE90355CDE901550095C4F235
:102C70000200016840F2004441F002010160006876
:102C8000C4F2020400F002000090009820460421E3
:102C900000220426FEF7E4FF0120CDE9020501A988
:102CA000204601960495FEF707FF06B070BD0000B0
:102CB00080B586B000200590CDE90300CDE9010084
:102CC000009043F63000C4F20200016841F00401B4
:102CD0000160006801A900F004000090009808203D
:102CE000019040F60000C4F20200FEF7E5FE06B0D7
:102CF00080BD000070B586B0002543F63000059514
:102D0000CDE90355CDE901550095C4F202000168F3
:102D100040F6000441F0040101600068C4F20204BE
:102D200000F0040000900098204620210022202678
:102D3000FEF796FF0120CDE9020501A92046019684
:102D40000495FEF7B9FE06B070BD000070B586B000
:102D5000002543F630000595CDE90355CDE9015531
:102D60000095C4F20200016840F6000441F004013D
:102D700001600068C4F2020400F0040000900098B2
:102D80002046402100224026FEF76AFF0120CDE9BF
:102D9000020501A9204601960495FEF78DFE06B0B6
:102DA00070BD000070B586B0002543F63000059573
:102DB000CDE90355CDE901550095C4F20200016843
:102DC00040F6000441F0040101600068C4F202040E
:102DD00000F0040000900098204680210022802608
:102DE000FEF73EFF0120CDE9020501A9204601962C
:102DF0000495FEF761FE06B070BD000080B50020AE
:102E0000C4F202004FF40071FEF724FF0138B0FA5B
:102E100080F0400980BD000080B540F60000C4F29B
:102E200002000821FEF716FF0138B0FA80F04009D1
:102E300080BD00000138B0FA80F0420940F2004045
:102E4000C4F202004FF40041FEF70ABF0138B0FAA5
:102E500080F0420940F20040C4F202000421FEF773
:102E6000FFBE00000138B0FA80F0420940F60000D1
:102E7000C4F202002021FEF7F3BE00000138B0FAD0
:102E800080F0420940F60000C4F202004021FEF743
:102E9000E7BE00000138B0FA80F0420940F60000B9
:102EA000C4F202008021FEF7DBBE0000FFF7E0BDA8
:102EB00040F2E020C2F20000FEF7DEBE70470000E4
:102EC000FEF7E0BE4EF68850CEF20000016841F4F5
:102ED000700101607047000080B540F29820C2F296
:102EE0000000FFF737FBBDE88040FDF731BE000072
:102EF00010B540F6FF3E0368C4F2000E40F2004CED
:102F00007045C4F2010C0FDCB0F1804F19D040F2D3
:102F10000042C4F20002904213D040F60002C4F214
:102F2000000290420DD010E040F60042C4F20002D0
:102F3000904206D0604504D00022C4F201029042C3
:102F400003D14A6823F07003134341F6FF72C4F2C1
:102F5000000290420DDC70451FDCB0F1804F41D083
:102F600040F20042C4F2000290423BD040F6000220
:102F700021E043F6FF72C4F20102904220DC42F2EB
:102F80000002C4F2000290422CD00022C4F20102DE
:102F9000904227D0604525D028E040F60042C4F298
:102FA000000290421ED041F60002C4F2000290429C
:102FB00018D041F60042C4F20002904212D015E04F
:102FC00044F20002C4F2010290420BD044F6000227
:102FD000C4F20102904205D044F20042C4F2010260
:102FE000904203D1CA6823F44073134323F0800254
:102FF0004B69D1F800E08C681A430260C46240F467
:103000008062C0F828E0624504BF096901630121BC
:10301000416110BD818170474172002182738381BB
:1030200001804181416001727047000000210180F0
:10303000418141600172704700214181416001720C
:10304000018001210170704701210170704700006B
:1030500000210170704700000178012931D14268D8
:10306000417A0A328A42426001D3837B23B1B2F5AE
:103070007A7F1CD3827BD2B18289C2B1827B012A42
:1030800006D0A2B9418901314181002141600EE0A1
:10309000037A4FF0000C0133DAB28A42C0F804C060
:1030A000037204D3418980F808C00131418141890C
:1030B0008289914238BF7047002141814FF480716D
:1030C00001807047FEE70000FDF73AFDFDF732FD95
:1030D000FDF738FDFCE7F1EE100A4FF6FF71C0F284
:1030E000C03120EA010040F04070E1EE100A704764
:1030F00000000000000000000102030406070809A8
:1031000000061016000610162831000800000020E6
:1031100010000000EC010008383100081000002009
:10312000E00800000C0200080024F4000100000088
:08313000100000000000000087
:040000050800018965
:00000001FF
